{
  "contracts/PayFactory.sol": {
    "PayLock": {
      "abi": [
        {
          "inputs": [
            {
              "internalType": "contract MinimalForwarder",
              "name": "forwarder",
              "type": "address"
            },
            {
              "internalType": "address",
              "name": "AggregatorNative",
              "type": "address"
            },
            {
              "internalType": "address",
              "name": "AggregatorUSDC",
              "type": "address"
            },
            {
              "internalType": "address",
              "name": "AggregatorUSDT",
              "type": "address"
            },
            {
              "internalType": "address",
              "name": "AggregatorDAI",
              "type": "address"
            },
            {
              "internalType": "address",
              "name": "AggregatordBTC",
              "type": "address"
            },
            {
              "internalType": "address",
              "name": "USDCAddress",
              "type": "address"
            },
            {
              "internalType": "address",
              "name": "USDTAddress",
              "type": "address"
            },
            {
              "internalType": "address",
              "name": "DAIAddress",
              "type": "address"
            },
            {
              "internalType": "address",
              "name": "WBTCAddress",
              "type": "address"
            }
          ],
          "stateMutability": "nonpayable",
          "type": "constructor"
        },
        {
          "inputs": [],
          "name": "__AmountEmpty",
          "type": "error"
        },
        {
          "inputs": [],
          "name": "__InvalidCode",
          "type": "error"
        },
        {
          "inputs": [],
          "name": "__NoReedemablePayments",
          "type": "error"
        },
        {
          "inputs": [],
          "name": "__NotSenderOrNotActive",
          "type": "error"
        },
        {
          "inputs": [],
          "name": "__TransferFailed",
          "type": "error"
        },
        {
          "anonymous": false,
          "inputs": [
            {
              "indexed": true,
              "internalType": "address",
              "name": "previousOwner",
              "type": "address"
            },
            {
              "indexed": true,
              "internalType": "address",
              "name": "newOwner",
              "type": "address"
            }
          ],
          "name": "OwnershipTransferred",
          "type": "event"
        },
        {
          "anonymous": false,
          "inputs": [
            {
              "indexed": true,
              "internalType": "address",
              "name": "sender",
              "type": "address"
            },
            {
              "components": [
                {
                  "internalType": "uint256",
                  "name": "value",
                  "type": "uint256"
                },
                {
                  "internalType": "address payable",
                  "name": "issuer",
                  "type": "address"
                },
                {
                  "internalType": "address payable",
                  "name": "receiver",
                  "type": "address"
                },
                {
                  "internalType": "uint256",
                  "name": "issuerId",
                  "type": "uint256"
                },
                {
                  "internalType": "uint256",
                  "name": "receiverId",
                  "type": "uint256"
                },
                {
                  "internalType": "uint256",
                  "name": "code",
                  "type": "uint256"
                },
                {
                  "internalType": "address",
                  "name": "tokenAddress",
                  "type": "address"
                },
                {
                  "internalType": "enum PayLock.PaymentState",
                  "name": "state",
                  "type": "uint8"
                }
              ],
              "indexed": true,
              "internalType": "struct PayLock.payment",
              "name": "receipt",
              "type": "tuple"
            }
          ],
          "name": "PaymentIssued",
          "type": "event"
        },
        {
          "anonymous": false,
          "inputs": [
            {
              "indexed": true,
              "internalType": "address",
              "name": "receiver",
              "type": "address"
            },
            {
              "components": [
                {
                  "internalType": "uint256",
                  "name": "value",
                  "type": "uint256"
                },
                {
                  "internalType": "address payable",
                  "name": "issuer",
                  "type": "address"
                },
                {
                  "internalType": "address payable",
                  "name": "receiver",
                  "type": "address"
                },
                {
                  "internalType": "uint256",
                  "name": "issuerId",
                  "type": "uint256"
                },
                {
                  "internalType": "uint256",
                  "name": "receiverId",
                  "type": "uint256"
                },
                {
                  "internalType": "uint256",
                  "name": "code",
                  "type": "uint256"
                },
                {
                  "internalType": "address",
                  "name": "tokenAddress",
                  "type": "address"
                },
                {
                  "internalType": "enum PayLock.PaymentState",
                  "name": "state",
                  "type": "uint8"
                }
              ],
              "indexed": true,
              "internalType": "struct PayLock.payment",
              "name": "receipt",
              "type": "tuple"
            }
          ],
          "name": "PaymentReedemed",
          "type": "event"
        },
        {
          "anonymous": false,
          "inputs": [
            {
              "indexed": true,
              "internalType": "address",
              "name": "sender",
              "type": "address"
            },
            {
              "components": [
                {
                  "internalType": "uint256",
                  "name": "value",
                  "type": "uint256"
                },
                {
                  "internalType": "address payable",
                  "name": "issuer",
                  "type": "address"
                },
                {
                  "internalType": "address payable",
                  "name": "receiver",
                  "type": "address"
                },
                {
                  "internalType": "uint256",
                  "name": "issuerId",
                  "type": "uint256"
                },
                {
                  "internalType": "uint256",
                  "name": "receiverId",
                  "type": "uint256"
                },
                {
                  "internalType": "uint256",
                  "name": "code",
                  "type": "uint256"
                },
                {
                  "internalType": "address",
                  "name": "tokenAddress",
                  "type": "address"
                },
                {
                  "internalType": "enum PayLock.PaymentState",
                  "name": "state",
                  "type": "uint8"
                }
              ],
              "indexed": true,
              "internalType": "struct PayLock.payment",
              "name": "receipt",
              "type": "tuple"
            }
          ],
          "name": "PaymentWithdrawn",
          "type": "event"
        },
        {
          "inputs": [
            {
              "internalType": "address payable",
              "name": "_receiver",
              "type": "address"
            },
            {
              "internalType": "uint256",
              "name": "_code",
              "type": "uint256"
            },
            {
              "internalType": "address",
              "name": "_tokenAddress",
              "type": "address"
            },
            {
              "internalType": "uint256",
              "name": "_tokenAmount",
              "type": "uint256"
            }
          ],
          "name": "CreatePayement",
          "outputs": [],
          "stateMutability": "payable",
          "type": "function"
        },
        {
          "inputs": [],
          "name": "MAXIMUM_FEE_USD",
          "outputs": [
            {
              "internalType": "uint256",
              "name": "",
              "type": "uint256"
            }
          ],
          "stateMutability": "view",
          "type": "function"
        },
        {
          "inputs": [
            {
              "internalType": "uint256",
              "name": "_code",
              "type": "uint256"
            }
          ],
          "name": "RedeemPayment",
          "outputs": [],
          "stateMutability": "payable",
          "type": "function"
        },
        {
          "inputs": [
            {
              "internalType": "address",
              "name": "user",
              "type": "address"
            }
          ],
          "name": "getIssuedPayments",
          "outputs": [
            {
              "components": [
                {
                  "internalType": "uint256",
                  "name": "value",
                  "type": "uint256"
                },
                {
                  "internalType": "address payable",
                  "name": "issuer",
                  "type": "address"
                },
                {
                  "internalType": "address payable",
                  "name": "receiver",
                  "type": "address"
                },
                {
                  "internalType": "uint256",
                  "name": "issuerId",
                  "type": "uint256"
                },
                {
                  "internalType": "uint256",
                  "name": "receiverId",
                  "type": "uint256"
                },
                {
                  "internalType": "uint256",
                  "name": "code",
                  "type": "uint256"
                },
                {
                  "internalType": "address",
                  "name": "tokenAddress",
                  "type": "address"
                },
                {
                  "internalType": "enum PayLock.PaymentState",
                  "name": "state",
                  "type": "uint8"
                }
              ],
              "internalType": "struct PayLock.payment[]",
              "name": "",
              "type": "tuple[]"
            }
          ],
          "stateMutability": "view",
          "type": "function"
        },
        {
          "inputs": [
            {
              "internalType": "address",
              "name": "user",
              "type": "address"
            }
          ],
          "name": "getRedeemablePayments",
          "outputs": [
            {
              "components": [
                {
                  "internalType": "uint256",
                  "name": "value",
                  "type": "uint256"
                },
                {
                  "internalType": "address payable",
                  "name": "issuer",
                  "type": "address"
                },
                {
                  "internalType": "address payable",
                  "name": "receiver",
                  "type": "address"
                },
                {
                  "internalType": "uint256",
                  "name": "issuerId",
                  "type": "uint256"
                },
                {
                  "internalType": "uint256",
                  "name": "receiverId",
                  "type": "uint256"
                },
                {
                  "internalType": "uint256",
                  "name": "code",
                  "type": "uint256"
                },
                {
                  "internalType": "address",
                  "name": "tokenAddress",
                  "type": "address"
                },
                {
                  "internalType": "enum PayLock.PaymentState",
                  "name": "state",
                  "type": "uint8"
                }
              ],
              "internalType": "struct PayLock.payment[]",
              "name": "",
              "type": "tuple[]"
            }
          ],
          "stateMutability": "view",
          "type": "function"
        },
        {
          "inputs": [
            {
              "internalType": "address",
              "name": "forwarder",
              "type": "address"
            }
          ],
          "name": "isTrustedForwarder",
          "outputs": [
            {
              "internalType": "bool",
              "name": "",
              "type": "bool"
            }
          ],
          "stateMutability": "view",
          "type": "function"
        },
        {
          "inputs": [],
          "name": "owner",
          "outputs": [
            {
              "internalType": "address",
              "name": "",
              "type": "address"
            }
          ],
          "stateMutability": "view",
          "type": "function"
        },
        {
          "inputs": [],
          "name": "renounceOwnership",
          "outputs": [],
          "stateMutability": "nonpayable",
          "type": "function"
        },
        {
          "inputs": [],
          "name": "s_PaySafe",
          "outputs": [
            {
              "internalType": "uint256",
              "name": "",
              "type": "uint256"
            }
          ],
          "stateMutability": "view",
          "type": "function"
        },
        {
          "inputs": [
            {
              "internalType": "address",
              "name": "",
              "type": "address"
            }
          ],
          "name": "s_PaySafeTokenBalances",
          "outputs": [
            {
              "internalType": "uint256",
              "name": "",
              "type": "uint256"
            }
          ],
          "stateMutability": "view",
          "type": "function"
        },
        {
          "inputs": [
            {
              "internalType": "address",
              "name": "",
              "type": "address"
            },
            {
              "internalType": "uint256",
              "name": "",
              "type": "uint256"
            }
          ],
          "name": "s_issuedPayments",
          "outputs": [
            {
              "internalType": "uint256",
              "name": "value",
              "type": "uint256"
            },
            {
              "internalType": "address payable",
              "name": "issuer",
              "type": "address"
            },
            {
              "internalType": "address payable",
              "name": "receiver",
              "type": "address"
            },
            {
              "internalType": "uint256",
              "name": "issuerId",
              "type": "uint256"
            },
            {
              "internalType": "uint256",
              "name": "receiverId",
              "type": "uint256"
            },
            {
              "internalType": "uint256",
              "name": "code",
              "type": "uint256"
            },
            {
              "internalType": "address",
              "name": "tokenAddress",
              "type": "address"
            },
            {
              "internalType": "enum PayLock.PaymentState",
              "name": "state",
              "type": "uint8"
            }
          ],
          "stateMutability": "view",
          "type": "function"
        },
        {
          "inputs": [
            {
              "internalType": "address",
              "name": "",
              "type": "address"
            },
            {
              "internalType": "uint256",
              "name": "",
              "type": "uint256"
            }
          ],
          "name": "s_redeemablePayments",
          "outputs": [
            {
              "internalType": "uint256",
              "name": "value",
              "type": "uint256"
            },
            {
              "internalType": "address payable",
              "name": "issuer",
              "type": "address"
            },
            {
              "internalType": "address payable",
              "name": "receiver",
              "type": "address"
            },
            {
              "internalType": "uint256",
              "name": "issuerId",
              "type": "uint256"
            },
            {
              "internalType": "uint256",
              "name": "receiverId",
              "type": "uint256"
            },
            {
              "internalType": "uint256",
              "name": "code",
              "type": "uint256"
            },
            {
              "internalType": "address",
              "name": "tokenAddress",
              "type": "address"
            },
            {
              "internalType": "enum PayLock.PaymentState",
              "name": "state",
              "type": "uint8"
            }
          ],
          "stateMutability": "view",
          "type": "function"
        },
        {
          "inputs": [
            {
              "internalType": "address",
              "name": "newOwner",
              "type": "address"
            }
          ],
          "name": "transferOwnership",
          "outputs": [],
          "stateMutability": "nonpayable",
          "type": "function"
        },
        {
          "inputs": [
            {
              "internalType": "uint256",
              "name": "index",
              "type": "uint256"
            }
          ],
          "name": "withdrawIssuerPayment",
          "outputs": [],
          "stateMutability": "payable",
          "type": "function"
        },
        {
          "inputs": [
            {
              "internalType": "address",
              "name": "_tokenAddress",
              "type": "address"
            }
          ],
          "name": "withdrawPaySafeBalance",
          "outputs": [],
          "stateMutability": "payable",
          "type": "function"
        },
        {
          "inputs": [],
          "name": "withdrawPaySafeBalance",
          "outputs": [],
          "stateMutability": "payable",
          "type": "function"
        }
      ],
      "evm": {
        "bytecode": {
          "linkReferences": {},
          "object": "6101e06040523480156200001257600080fd5b50604051620037e6380380620037e6833981016040819052620000359162000163565b6001600160a01b038a166080526200005662000050620000a1565b620000bd565b6001600160a01b03998a1660a05297891660c05295881660e052938716610100529186166101205285166101405284166101605283166101805282166101a052166101c05262000251565b6000620000b86200010d60201b62002cdb1760201c565b905090565b600080546001600160a01b038381166001600160a01b0319831681178455604051919092169283917f8be0079c531659141344cd1fd0a4f28419497f9722a3daafe3b4186f6b6457e09190a35050565b6080516000906001600160a01b031633141562000131575060131936013560601c90565b620000b86200014660201b62002d251760201c565b3390565b6001600160a01b03811681146200016057600080fd5b50565b6000806000806000806000806000806101408b8d0312156200018457600080fd5b8a5162000191816200014a565b60208c0151909a50620001a4816200014a565b60408c0151909950620001b7816200014a565b60608c0151909850620001ca816200014a565b60808c0151909750620001dd816200014a565b60a08c0151909650620001f0816200014a565b60c08c015190955062000203816200014a565b60e08c015190945062000216816200014a565b6101008c01519093506200022a816200014a565b6101208c01519092506200023e816200014a565b809150509295989b9194979a5092959850565b60805160a05160c05160e05161010051610120516101405161016051610180516101a0516101c05161337f620004676000396000818161096a015281816109c201528181610e5201528181610e9401528181610f6501528181611e1e01528181611e7001528181611fd50152818161207f01528181612acf0152612b280152600081816108da0152818161093201528181610d0b01528181610d4d01528181610e1e01528181611b7d01528181611bcf01528181611d3401528181611dde01528181612a3f0152612a9801526000818161084a015281816108a201528181610bc401528181610c0601528181610cd7015281816118dc0152818161192e01528181611a9301528181611b3d015281816129af0152612a08015260008181610748015281816107a001528181610a7d01528181610abf01528181610b900152818161162f01528181611681015281816117e6015281816118900152818161287201526128cb015260008181611f2a01528181611f6801528181611fa70152612029015260008181611c8901528181611cc701528181611d060152611d880152600081816119e801528181611a2601528181611a650152611ae701526000818161173b01528181611779015281816117b8015261183a01526000818161112101528181611166015281816111a5015261121b0152600081816111ec01526112ed0152600081816101af0152612cdf015261337f6000f3fe6080604052600436106100f35760003560e01c80638da5cb5b1161008a578063ec09fd0511610059578063ec09fd051461029d578063ee23b65a146102ca578063f1fdbc42146102ea578063f2fde38b1461030057600080fd5b80638da5cb5b1461022f57806398df6d4b14610257578063c3c0045f1461026a578063dc4cf83f1461028a57600080fd5b80635463612e116100c65780635463612e1461015e578063572b6c0514610192578063715018a6146101ef578063774dee891461020457600080fd5b8063153b1143146100f85780631f102dd21461012e57806342cdef411461014357806348502eaa14610156575b600080fd5b34801561010457600080fd5b50610118610113366004612ef3565b610320565b6040516101259190612f48565b60405180910390f35b61014161013c366004612ff1565b610423565b005b610141610151366004612ef3565b610a73565b610141610f98565b34801561016a57600080fd5b5061017e61017936600461300a565b611012565b604051610125989796959493929190613036565b34801561019e57600080fd5b506101df6101ad366004612ef3565b7f00000000000000000000000000000000000000000000000000000000000000006001600160a01b0390811691161490565b6040519015158152602001610125565b3480156101fb57600080fd5b5061014161108a565b34801561021057600080fd5b506102216802b5e3af16b188000081565b604051908152602001610125565b34801561023b57600080fd5b506000546040516001600160a01b039091168152602001610125565b61014161026536600461308c565b61109e565b34801561027657600080fd5b50610118610285366004612ef3565b612311565b610141610298366004612ff1565b612409565b3480156102a957600080fd5b506102216102b8366004612ef3565b60026020526000908152604090205481565b3480156102d657600080fd5b5061017e6102e536600461300a565b612c44565b3480156102f657600080fd5b5061022160015481565b34801561030c57600080fd5b5061014161031b366004612ef3565b612c60565b6001600160a01b0381166000908152600360209081526040808320805482518185028101850190935280835260609492939192909184015b828210156104185760008481526020908190206040805161010081018252600786029092018054835260018101546001600160a01b03908116948401949094526002808201548516928401929092526003810154606084015260048101546080840152600581015460a0840152600681015493841660c0840152919260e0840191600160a01b90910460ff16908111156103f4576103f4612f10565b600281111561040557610405612f10565b8152505081526020019060010190610358565b505050509050919050565b600060036000610431612d29565b6001600160a01b03166001600160a01b031681526020019081526020016000208281548110610462576104626130d4565b600091825260209182902060408051610100810182526007939093029091018054835260018101546001600160a01b03908116948401949094526002808201548516928401929092526003810154606084015260048101546080840152600581015460a0840152600681015493841660c0840152919260e0840191600160a01b90910460ff16908111156104f8576104f8612f10565b600281111561050957610509612f10565b90525090506000808260e00151600281111561052757610527612f10565b141590506000610535612d29565b6001600160a01b031683602001516001600160a01b0316141590506000828061055b5750815b9050801561057c5760405163de175b0760e01b815260040160405180910390fd5b6040808501516001600160a01b0316600090815260046020522060808501518154600192919081106105b0576105b06130d4565b60009182526020909120600660079092020101805460ff60a01b1916600160a01b8360028111156105e3576105e3612f10565b02179055506001600360006105f6612d29565b6001600160a01b03166001600160a01b031681526020019081526020016000208681548110610627576106276130d4565b60009182526020909120600660079092020101805460ff60a01b1916600160a01b83600281111561065a5761065a612f10565b02179055508360405161066d91906130ea565b604051809103902061067d612d29565b6001600160a01b03167f6abd023739f4ff71d95fb906429d7d4beea7738cb65d5b6730bc335fa2ac456460405160405180910390a360c08401516001600160a01b03166107465760006106ce612d29565b85516040516001600160a01b039290921691600081818185875af1925050503d8060008114610719576040519150601f19603f3d011682016040523d82523d6000602084013e61071e565b606091505b505090508061074057604051633bdf630f60e11b815260040160405180910390fd5b50610a6c565b7f00000000000000000000000000000000000000000000000000000000000000006001600160a01b03168460c001516001600160a01b0316141561084857835160405163a9059cbb60e01b81526000916001600160a01b037f0000000000000000000000000000000000000000000000000000000000000000169163a9059cbb916107d691339190600401613155565b602060405180830381600087803b1580156107f057600080fd5b505af1158015610804573d6000803e3d6000fd5b505050506040513d601f19601f82011682018060405250810190610828919061316e565b90508061074057604051633bdf630f60e11b815260040160405180910390fd5b7f00000000000000000000000000000000000000000000000000000000000000006001600160a01b03168460c001516001600160a01b031614156108d857835160405163a9059cbb60e01b81526000916001600160a01b037f0000000000000000000000000000000000000000000000000000000000000000169163a9059cbb916107d691339190600401613155565b7f00000000000000000000000000000000000000000000000000000000000000006001600160a01b03168460c001516001600160a01b0316141561096857835160405163a9059cbb60e01b81526000916001600160a01b037f0000000000000000000000000000000000000000000000000000000000000000169163a9059cbb916107d691339190600401613155565b7f00000000000000000000000000000000000000000000000000000000000000006001600160a01b03168460c001516001600160a01b03161415610a6c57835160405163a9059cbb60e01b81526000916001600160a01b037f0000000000000000000000000000000000000000000000000000000000000000169163a9059cbb916109f891339190600401613155565b602060405180830381600087803b158015610a1257600080fd5b505af1158015610a26573d6000803e3d6000fd5b505050506040513d601f19601f82011682018060405250810190610a4a919061316e565b905080610a6a57604051633bdf630f60e11b815260040160405180910390fd5b505b5050505050565b610a7b612d33565b7f00000000000000000000000000000000000000000000000000000000000000006001600160a01b0316816001600160a01b03161415610bc2576001600160a01b037f00000000000000000000000000000000000000000000000000000000000000001660008181526002602052604080822054905163a9059cbb60e01b815291929163a9059cbb91610b1391339190600401613155565b602060405180830381600087803b158015610b2d57600080fd5b505af1158015610b41573d6000803e3d6000fd5b505050506040513d601f19601f82011682018060405250810190610b65919061316e565b905080610b8557604051633bdf630f60e11b815260040160405180910390fd5b506001600160a01b037f00000000000000000000000000000000000000000000000000000000000000001660009081526002602052604081205550565b7f00000000000000000000000000000000000000000000000000000000000000006001600160a01b0316816001600160a01b03161415610d09576001600160a01b037f00000000000000000000000000000000000000000000000000000000000000001660008181526002602052604080822054905163a9059cbb60e01b815291929163a9059cbb91610c5a91339190600401613155565b602060405180830381600087803b158015610c7457600080fd5b505af1158015610c88573d6000803e3d6000fd5b505050506040513d601f19601f82011682018060405250810190610cac919061316e565b905080610ccc57604051633bdf630f60e11b815260040160405180910390fd5b506001600160a01b037f00000000000000000000000000000000000000000000000000000000000000001660009081526002602052604081205550565b7f00000000000000000000000000000000000000000000000000000000000000006001600160a01b0316816001600160a01b03161415610e50576001600160a01b037f00000000000000000000000000000000000000000000000000000000000000001660008181526002602052604080822054905163a9059cbb60e01b815291929163a9059cbb91610da191339190600401613155565b602060405180830381600087803b158015610dbb57600080fd5b505af1158015610dcf573d6000803e3d6000fd5b505050506040513d601f19601f82011682018060405250810190610df3919061316e565b905080610e1357604051633bdf630f60e11b815260040160405180910390fd5b506001600160a01b037f00000000000000000000000000000000000000000000000000000000000000001660009081526002602052604081205550565b7f00000000000000000000000000000000000000000000000000000000000000006001600160a01b0316816001600160a01b03161415610f95576001600160a01b037f00000000000000000000000000000000000000000000000000000000000000001660008181526002602052604080822054905163a9059cbb60e01b815291929163a9059cbb91610ee891339190600401613155565b602060405180830381600087803b158015610f0257600080fd5b505af1158015610f16573d6000803e3d6000fd5b505050506040513d601f19601f82011682018060405250810190610f3a919061316e565b905080610f5a57604051633bdf630f60e11b815260040160405180910390fd5b506001600160a01b037f0000000000000000000000000000000000000000000000000000000000000000166000908152600260205260408120555b50565b610fa0612d33565b60015460405160009133918381818185875af1925050503d8060008114610fe3576040519150601f19603f3d011682016040523d82523d6000602084013e610fe8565b606091505b505090508061100a57604051633bdf630f60e11b815260040160405180910390fd5b506000600155565b6004602052816000526040600020818154811061102e57600080fd5b600091825260209091206007909102018054600182015460028301546003840154600485015460058601546006909601549497506001600160a01b0393841696509183169490939192909190811690600160a01b900460ff1688565b611092612d33565b61109c6000612dac565b565b6001600160a01b0382166115c757341580156110cd5760405163183bb67760e21b815260040160405180910390fd5b6111126040805161010081018252600080825260208201819052918101829052606081018290526080810182905260a0810182905260c081018290529060e082015290565b6802b5e3af16b18800006111517f000000000000000000000000000000000000000000000000000000000000000061114b60c8346131a6565b90612dfc565b11156112a85761118a6802b5e3af16b18800007f0000000000000000000000000000000000000000000000000000000000000000612e32565b61119490346131c8565b81526111c96802b5e3af16b18800007f0000000000000000000000000000000000000000000000000000000000000000612e32565b600160008282546111da91906131df565b90915550600090506001600160a01b037f00000000000000000000000000000000000000000000000000000000000000001661123f6802b5e3af16b18800007f0000000000000000000000000000000000000000000000000000000000000000612e32565b604051600081818185875af1925050503d806000811461127b576040519150601f19603f3d011682016040523d82523d6000602084013e611280565b606091505b50509050806112a257604051633bdf630f60e11b815260040160405180910390fd5b5061137d565b6112b360c8346131a6565b6112bd90346131c8565b81526112ca60c8346131a6565b600160008282546112db91906131df565b90915550600090506001600160a01b037f00000000000000000000000000000000000000000000000000000000000000001661131860c8346131a6565b604051600081818185875af1925050503d8060008114611354576040519150601f19603f3d011682016040523d82523d6000602084013e611359565b606091505b505090508061137b57604051633bdf630f60e11b815260040160405180910390fd5b505b3360208281018290526001600160a01b038881166040808601829052600094855260038452808520546060870152908452600490925290822054608084015260a08301879052851660c083015260e08201819052503360009081526003602081815260408084208054600180820183559186529483902086516007909602019485559185015191840180546001600160a01b03199081166001600160a01b039485161790915590850151600280860180548416928516929092179091556060860151938501939093556080850151600485015560a0850151600585015560c085015160068501805492831691909316908117835560e08601518695949093926001600160a81b03191690911790600160a01b9084908111156114a1576114a1612f10565b021790555050506001600160a01b0380871660009081526004602081815260408084208054600181810183559186529483902087516007909602019485559186015191840180549286166001600160a01b031993841617905585015160028085018054928716928416929092179091556060860151600385015560808601519284019290925560a0850151600584015560c0850151600684018054919095169181168217855560e08601518695909390926001600160a81b031990921690911790600160a01b90849081111561157957611579612f10565b021790555050508060405161158e91906130ea565b6040519081900381209033907f14f09417cd81e1bfba59388f82b41657119f594c9c473945c0ea1311c648693990600090a3505061230b565b801580156115e85760405163183bb67760e21b815260040160405180910390fd5b61162d6040805161010081018252600080825260208201819052918101829052606081018290526080810182905260a0810182905260c081018290529060e082015290565b7f00000000000000000000000000000000000000000000000000000000000000006001600160a01b0316846001600160a01b031614156118da576040516323b872dd60e01b81526000906001600160a01b037f000000000000000000000000000000000000000000000000000000000000000016906323b872dd906116ba903390309089906004016131f7565b602060405180830381600087803b1580156116d457600080fd5b505af11580156116e8573d6000803e3d6000fd5b505050506040513d601f19601f8201168201806040525081019061170c919061316e565b90508061172c57604051633bdf630f60e11b815260040160405180910390fd5b6802b5e3af16b18800006117657f000000000000000000000000000000000000000000000000000000000000000061114b60c8886131a6565b1061182a5761179d6802b5e3af16b18800007f0000000000000000000000000000000000000000000000000000000000000000612e32565b6117a790856131c8565b82526117dc6802b5e3af16b18800007f0000000000000000000000000000000000000000000000000000000000000000612e32565b6001600160a01b037f000000000000000000000000000000000000000000000000000000000000000016600090815260026020526040812080549091906118249084906131df565b90915550505b6802b5e3af16b188000061185e857f0000000000000000000000000000000000000000000000000000000000000000612dfc565b10156118d45761186f60c8856131a6565b61187990856131c8565b825261188660c8856131a6565b6001600160a01b037f000000000000000000000000000000000000000000000000000000000000000016600090815260026020526040812080549091906118ce9084906131df565b90915550505b506120c5565b7f00000000000000000000000000000000000000000000000000000000000000006001600160a01b0316846001600160a01b03161415611b7b576040516323b872dd60e01b81526000906001600160a01b037f000000000000000000000000000000000000000000000000000000000000000016906323b872dd90611967903390309089906004016131f7565b602060405180830381600087803b15801561198157600080fd5b505af1158015611995573d6000803e3d6000fd5b505050506040513d601f19601f820116820180604052508101906119b9919061316e565b9050806119d957604051633bdf630f60e11b815260040160405180910390fd5b6802b5e3af16b1880000611a127f000000000000000000000000000000000000000000000000000000000000000061114b60c8886131a6565b10611ad757611a4a6802b5e3af16b18800007f0000000000000000000000000000000000000000000000000000000000000000612e32565b611a5490856131c8565b8252611a896802b5e3af16b18800007f0000000000000000000000000000000000000000000000000000000000000000612e32565b6001600160a01b037f00000000000000000000000000000000000000000000000000000000000000001660009081526002602052604081208054909190611ad19084906131df565b90915550505b6802b5e3af16b1880000611b0b857f0000000000000000000000000000000000000000000000000000000000000000612dfc565b10156118d457611b1c60c8856131a6565b611b2690856131c8565b8252611b3360c8856131a6565b6001600160a01b037f000000000000000000000000000000000000000000000000000000000000000016600090815260026020526040812080549091906118ce9084906131df565b7f00000000000000000000000000000000000000000000000000000000000000006001600160a01b0316846001600160a01b03161415611e1c576040516323b872dd60e01b81526000906001600160a01b037f000000000000000000000000000000000000000000000000000000000000000016906323b872dd90611c08903390309089906004016131f7565b602060405180830381600087803b158015611c2257600080fd5b505af1158015611c36573d6000803e3d6000fd5b505050506040513d601f19601f82011682018060405250810190611c5a919061316e565b905080611c7a57604051633bdf630f60e11b815260040160405180910390fd5b6802b5e3af16b1880000611cb37f000000000000000000000000000000000000000000000000000000000000000061114b60c8886131a6565b10611d7857611ceb6802b5e3af16b18800007f0000000000000000000000000000000000000000000000000000000000000000612e32565b611cf590856131c8565b8252611d2a6802b5e3af16b18800007f0000000000000000000000000000000000000000000000000000000000000000612e32565b6001600160a01b037f00000000000000000000000000000000000000000000000000000000000000001660009081526002602052604081208054909190611d729084906131df565b90915550505b6802b5e3af16b1880000611dac857f0000000000000000000000000000000000000000000000000000000000000000612dfc565b10156118d457611dbd60c8856131a6565b611dc790856131c8565b8252611dd460c8856131a6565b6001600160a01b037f000000000000000000000000000000000000000000000000000000000000000016600090815260026020526040812080549091906118ce9084906131df565b7f00000000000000000000000000000000000000000000000000000000000000006001600160a01b0316846001600160a01b031614156120c5576040516323b872dd60e01b81526000906001600160a01b037f000000000000000000000000000000000000000000000000000000000000000016906323b872dd90611ea9903390309089906004016131f7565b602060405180830381600087803b158015611ec357600080fd5b505af1158015611ed7573d6000803e3d6000fd5b505050506040513d601f19601f82011682018060405250810190611efb919061316e565b905080611f1b57604051633bdf630f60e11b815260040160405180910390fd5b6802b5e3af16b1880000611f547f000000000000000000000000000000000000000000000000000000000000000061114b60c8886131a6565b1061201957611f8c6802b5e3af16b18800007f0000000000000000000000000000000000000000000000000000000000000000612e32565b611f9690856131c8565b8252611fcb6802b5e3af16b18800007f0000000000000000000000000000000000000000000000000000000000000000612e32565b6001600160a01b037f000000000000000000000000000000000000000000000000000000000000000016600090815260026020526040812080549091906120139084906131df565b90915550505b6802b5e3af16b188000061204d857f0000000000000000000000000000000000000000000000000000000000000000612dfc565b10156120c35761205e60c8856131a6565b61206890856131c8565b825261207560c8856131a6565b6001600160a01b037f000000000000000000000000000000000000000000000000000000000000000016600090815260026020526040812080549091906120bd9084906131df565b90915550505b505b3360208281018290526001600160a01b038881166040808601829052600094855260038452808520546060870152908452600490925290822054608084015260a08301879052851660c083015260e08201819052503360009081526003602081815260408084208054600180820183559186529483902086516007909602019485559185015191840180546001600160a01b03199081166001600160a01b039485161790915590850151600280860180548416928516929092179091556060860151938501939093556080850151600485015560a0850151600585015560c085015160068501805492831691909316908117835560e08601518695949093926001600160a81b03191690911790600160a01b9084908111156121e9576121e9612f10565b021790555050506001600160a01b0380871660009081526004602081815260408084208054600181810183559186529483902087516007909602019485559186015191840180549286166001600160a01b031993841617905585015160028085018054928716928416929092179091556060860151600385015560808601519284019290925560a0850151600584015560c0850151600684018054919095169181168217855560e08601518695909390926001600160a81b031990921690911790600160a01b9084908111156122c1576122c1612f10565b02179055505050806040516122d691906130ea565b6040519081900381209033907f14f09417cd81e1bfba59388f82b41657119f594c9c473945c0ea1311c648693990600090a350505b50505050565b6001600160a01b0381166000908152600460209081526040808320805482518185028101850190935280835260609492939192909184015b828210156104185760008481526020908190206040805161010081018252600786029092018054835260018101546001600160a01b03908116948401949094526002808201548516928401929092526003810154606084015260048101546080840152600581015460a0840152600681015493841660c0840152919260e0840191600160a01b90910460ff16908111156123e5576123e5612f10565b60028111156123f6576123f6612f10565b8152505081526020019060010190612349565b600060046000612417612d29565b6001600160a01b03166001600160a01b03168152602001908152602001600020805480602002602001604051908101604052809291908181526020016000905b828210156125175760008481526020908190206040805161010081018252600786029092018054835260018101546001600160a01b03908116948401949094526002808201548516928401929092526003810154606084015260048101546080840152600581015460a0840152600681015493841660c0840152919260e0840191600160a01b90910460ff16908111156124f3576124f3612f10565b600281111561250457612504612f10565b8152505081526020019060010190612457565b505050509050805160001415612540576040516318be8db160e11b815260040160405180910390fd5b60005b8151811015612c3f578282828151811061255f5761255f6130d4565b602002602001015160a001511415612c1457600080838381518110612586576125866130d4565b602002602001015160e0015160028111156125a3576125a3612f10565b1415905060006125b1612d29565b6001600160a01b03168484815181106125cc576125cc6130d4565b6020026020010151604001516001600160a01b031614159050600082806125f05750815b905080156126115760405163de175b0760e01b815260040160405180910390fd5b600260036000878781518110612629576126296130d4565b6020026020010151602001516001600160a01b03166001600160a01b03168152602001908152602001600020868681518110612667576126676130d4565b60200260200101516060015181548110612683576126836130d4565b60009182526020909120600660079092020101805460ff60a01b1916600160a01b8360028111156126b6576126b6612f10565b02179055506002600460006126c9612d29565b6001600160a01b03166001600160a01b0316815260200190815260200160002085815481106126fa576126fa6130d4565b60009182526020909120600660079092020101805460ff60a01b1916600160a01b83600281111561272d5761272d612f10565b0217905550848481518110612744576127446130d4565b602002602001015160405161275991906130ea565b6040518091039020612769612d29565b6001600160a01b03167f412146e6c5c0d9fa5d624f14b4c55723679f8838083b2b4eb8875cab8d78bd1c60405160405180910390a360006001600160a01b03168585815181106127bb576127bb6130d4565b602002602001015160c001516001600160a01b031614156128705760006127e0612d29565b6001600160a01b03168686815181106127fb576127fb6130d4565b602090810291909101015151604051600081818185875af1925050503d8060008114612843576040519150601f19603f3d011682016040523d82523d6000602084013e612848565b606091505b505090508061286a57604051633bdf630f60e11b815260040160405180910390fd5b50612c0c565b7f00000000000000000000000000000000000000000000000000000000000000006001600160a01b03168585815181106128ac576128ac6130d4565b602002602001015160c001516001600160a01b031614156129ad5760007f00000000000000000000000000000000000000000000000000000000000000006001600160a01b031663a9059cbb612900612d29565b888881518110612912576129126130d4565b6020026020010151600001516040518363ffffffff1660e01b815260040161293b929190613155565b602060405180830381600087803b15801561295557600080fd5b505af1158015612969573d6000803e3d6000fd5b505050506040513d601f19601f8201168201806040525081019061298d919061316e565b90508061286a57604051633bdf630f60e11b815260040160405180910390fd5b7f00000000000000000000000000000000000000000000000000000000000000006001600160a01b03168585815181106129e9576129e96130d4565b602002602001015160c001516001600160a01b03161415612a3d5760007f00000000000000000000000000000000000000000000000000000000000000006001600160a01b031663a9059cbb612900612d29565b7f00000000000000000000000000000000000000000000000000000000000000006001600160a01b0316858581518110612a7957612a796130d4565b602002602001015160c001516001600160a01b03161415612acd5760007f00000000000000000000000000000000000000000000000000000000000000006001600160a01b031663a9059cbb612900612d29565b7f00000000000000000000000000000000000000000000000000000000000000006001600160a01b0316858581518110612b0957612b096130d4565b602002602001015160c001516001600160a01b03161415612c0c5760007f00000000000000000000000000000000000000000000000000000000000000006001600160a01b031663a9059cbb612b5d612d29565b888881518110612b6f57612b6f6130d4565b6020026020010151600001516040518363ffffffff1660e01b8152600401612b98929190613155565b602060405180830381600087803b158015612bb257600080fd5b505af1158015612bc6573d6000803e3d6000fd5b505050506040513d601f19601f82011682018060405250810190612bea919061316e565b905080612c0a57604051633bdf630f60e11b815260040160405180910390fd5b505b505050612c2d565b604051633f4ba89360e11b815260040160405180910390fd5b80612c378161321b565b915050612543565b505050565b6003602052816000526040600020818154811061102e57600080fd5b612c68612d33565b6001600160a01b038116612cd25760405162461bcd60e51b815260206004820152602660248201527f4f776e61626c653a206e6577206f776e657220697320746865207a65726f206160448201526564647265737360d01b60648201526084015b60405180910390fd5b610f9581612dac565b60007f00000000000000000000000000000000000000000000000000000000000000006001600160a01b0316331415612d1b575060131936013560601c90565b503390565b905090565b3390565b6000612d20612cdb565b612d3b612d29565b6001600160a01b0316612d566000546001600160a01b031690565b6001600160a01b03161461109c5760405162461bcd60e51b815260206004820181905260248201527f4f776e61626c653a2063616c6c6572206973206e6f7420746865206f776e65726044820152606401612cc9565b600080546001600160a01b038381166001600160a01b0319831681178455604051919092169283917f8be0079c531659141344cd1fd0a4f28419497f9722a3daafe3b4186f6b6457e09190a35050565b600080612e0883612e4c565b90506000670de0b6b3a7640000612e1f8387613236565b612e2991906131a6565b95945050505050565b600080612e3e83612e4c565b90506000612e2982866131a6565b600080826001600160a01b031663feaf968c6040518163ffffffff1660e01b815260040160a06040518083038186803b158015612e8857600080fd5b505afa158015612e9c573d6000803e3d6000fd5b505050506040513d601f19601f82011682018060405250810190612ec09190613274565b505050915050806402540be400612ed791906132c4565b9392505050565b6001600160a01b0381168114610f9557600080fd5b600060208284031215612f0557600080fd5b8135612ed781612ede565b634e487b7160e01b600052602160045260246000fd5b60038110612f4457634e487b7160e01b600052602160045260246000fd5b9052565b602080825282518282018190526000919060409081850190868401855b82811015612fe457815180518552868101516001600160a01b039081168887015286820151811687870152606080830151908701526080808301519087015260a0808301519087015260c0808301519091169086015260e09081015190612fce81870183612f26565b5050610100939093019290850190600101612f65565b5091979650505050505050565b60006020828403121561300357600080fd5b5035919050565b6000806040838503121561301d57600080fd5b823561302881612ede565b946020939093013593505050565b8881526001600160a01b0388811660208301528781166040830152606082018790526080820186905260a08201859052831660c0820152610100810161307f60e0830184612f26565b9998505050505050505050565b600080600080608085870312156130a257600080fd5b84356130ad81612ede565b93506020850135925060408501356130c481612ede565b9396929550929360600135925050565b634e487b7160e01b600052603260045260246000fd5b81518152600060018060a01b03806020850151166020840152806040850151166040840152606084015160608401526080840151608084015260a084015160a08401528060c08501511660c08401525061314b60e0830160e0850151612f26565b5061010001919050565b6001600160a01b03929092168252602082015260400190565b60006020828403121561318057600080fd5b81518015158114612ed757600080fd5b634e487b7160e01b600052601160045260246000fd5b6000826131c357634e487b7160e01b600052601260045260246000fd5b500490565b6000828210156131da576131da613190565b500390565b600082198211156131f2576131f2613190565b500190565b6001600160a01b039384168152919092166020820152604081019190915260600190565b600060001982141561322f5761322f613190565b5060010190565b600081600019048311821515161561325057613250613190565b500290565b805169ffffffffffffffffffff8116811461326f57600080fd5b919050565b600080600080600060a0868803121561328c57600080fd5b61329586613255565b94506020860151935060408601519250606086015191506132b860808701613255565b90509295509295909350565b60006001600160ff1b03818413828413808216868404861116156132ea576132ea613190565b600160ff1b600087128281168783058912161561330957613309613190565b6000871292508782058712848416161561332557613325613190565b8785058712818416161561333b5761333b613190565b50505092909302939250505056fea2646970667358221220f6605cca5a0898a8e150da45d59760aba09f857cccc173462142fa015ac11ec464736f6c63430008090033",
          "opcodes": "PUSH2 0x1E0 PUSH1 0x40 MSTORE CALLVALUE DUP1 ISZERO PUSH3 0x12 JUMPI PUSH1 0x0 DUP1 REVERT JUMPDEST POP PUSH1 0x40 MLOAD PUSH3 0x37E6 CODESIZE SUB DUP1 PUSH3 0x37E6 DUP4 CODECOPY DUP2 ADD PUSH1 0x40 DUP2 SWAP1 MSTORE PUSH3 0x35 SWAP2 PUSH3 0x163 JUMP JUMPDEST PUSH1 0x1 PUSH1 0x1 PUSH1 0xA0 SHL SUB DUP11 AND PUSH1 0x80 MSTORE PUSH3 0x56 PUSH3 0x50 PUSH3 0xA1 JUMP JUMPDEST PUSH3 0xBD JUMP JUMPDEST PUSH1 0x1 PUSH1 0x1 PUSH1 0xA0 SHL SUB SWAP10 DUP11 AND PUSH1 0xA0 MSTORE SWAP8 DUP10 AND PUSH1 0xC0 MSTORE SWAP6 DUP9 AND PUSH1 0xE0 MSTORE SWAP4 DUP8 AND PUSH2 0x100 MSTORE SWAP2 DUP7 AND PUSH2 0x120 MSTORE DUP6 AND PUSH2 0x140 MSTORE DUP5 AND PUSH2 0x160 MSTORE DUP4 AND PUSH2 0x180 MSTORE DUP3 AND PUSH2 0x1A0 MSTORE AND PUSH2 0x1C0 MSTORE PUSH3 0x251 JUMP JUMPDEST PUSH1 0x0 PUSH3 0xB8 PUSH3 0x10D PUSH1 0x20 SHL PUSH3 0x2CDB OR PUSH1 0x20 SHR JUMP JUMPDEST SWAP1 POP SWAP1 JUMP JUMPDEST PUSH1 0x0 DUP1 SLOAD PUSH1 0x1 PUSH1 0x1 PUSH1 0xA0 SHL SUB DUP4 DUP2 AND PUSH1 0x1 PUSH1 0x1 PUSH1 0xA0 SHL SUB NOT DUP4 AND DUP2 OR DUP5 SSTORE PUSH1 0x40 MLOAD SWAP2 SWAP1 SWAP3 AND SWAP3 DUP4 SWAP2 PUSH32 0x8BE0079C531659141344CD1FD0A4F28419497F9722A3DAAFE3B4186F6B6457E0 SWAP2 SWAP1 LOG3 POP POP JUMP JUMPDEST PUSH1 0x80 MLOAD PUSH1 0x0 SWAP1 PUSH1 0x1 PUSH1 0x1 PUSH1 0xA0 SHL SUB AND CALLER EQ ISZERO PUSH3 0x131 JUMPI POP PUSH1 0x13 NOT CALLDATASIZE ADD CALLDATALOAD PUSH1 0x60 SHR SWAP1 JUMP JUMPDEST PUSH3 0xB8 PUSH3 0x146 PUSH1 0x20 SHL PUSH3 0x2D25 OR PUSH1 0x20 SHR JUMP JUMPDEST CALLER SWAP1 JUMP JUMPDEST PUSH1 0x1 PUSH1 0x1 PUSH1 0xA0 SHL SUB DUP2 AND DUP2 EQ PUSH3 0x160 JUMPI PUSH1 0x0 DUP1 REVERT JUMPDEST POP JUMP JUMPDEST PUSH1 0x0 DUP1 PUSH1 0x0 DUP1 PUSH1 0x0 DUP1 PUSH1 0x0 DUP1 PUSH1 0x0 DUP1 PUSH2 0x140 DUP12 DUP14 SUB SLT ISZERO PUSH3 0x184 JUMPI PUSH1 0x0 DUP1 REVERT JUMPDEST DUP11 MLOAD PUSH3 0x191 DUP2 PUSH3 0x14A JUMP JUMPDEST PUSH1 0x20 DUP13 ADD MLOAD SWAP1 SWAP11 POP PUSH3 0x1A4 DUP2 PUSH3 0x14A JUMP JUMPDEST PUSH1 0x40 DUP13 ADD MLOAD SWAP1 SWAP10 POP PUSH3 0x1B7 DUP2 PUSH3 0x14A JUMP JUMPDEST PUSH1 0x60 DUP13 ADD MLOAD SWAP1 SWAP9 POP PUSH3 0x1CA DUP2 PUSH3 0x14A JUMP JUMPDEST PUSH1 0x80 DUP13 ADD MLOAD SWAP1 SWAP8 POP PUSH3 0x1DD DUP2 PUSH3 0x14A JUMP JUMPDEST PUSH1 0xA0 DUP13 ADD MLOAD SWAP1 SWAP7 POP PUSH3 0x1F0 DUP2 PUSH3 0x14A JUMP JUMPDEST PUSH1 0xC0 DUP13 ADD MLOAD SWAP1 SWAP6 POP PUSH3 0x203 DUP2 PUSH3 0x14A JUMP JUMPDEST PUSH1 0xE0 DUP13 ADD MLOAD SWAP1 SWAP5 POP PUSH3 0x216 DUP2 PUSH3 0x14A JUMP JUMPDEST PUSH2 0x100 DUP13 ADD MLOAD SWAP1 SWAP4 POP PUSH3 0x22A DUP2 PUSH3 0x14A JUMP JUMPDEST PUSH2 0x120 DUP13 ADD MLOAD SWAP1 SWAP3 POP PUSH3 0x23E DUP2 PUSH3 0x14A JUMP JUMPDEST DUP1 SWAP2 POP POP SWAP3 SWAP6 SWAP9 SWAP12 SWAP2 SWAP5 SWAP8 SWAP11 POP SWAP3 SWAP6 SWAP9 POP JUMP JUMPDEST PUSH1 0x80 MLOAD PUSH1 0xA0 MLOAD PUSH1 0xC0 MLOAD PUSH1 0xE0 MLOAD PUSH2 0x100 MLOAD PUSH2 0x120 MLOAD PUSH2 0x140 MLOAD PUSH2 0x160 MLOAD PUSH2 0x180 MLOAD PUSH2 0x1A0 MLOAD PUSH2 0x1C0 MLOAD PUSH2 0x337F PUSH3 0x467 PUSH1 0x0 CODECOPY PUSH1 0x0 DUP2 DUP2 PUSH2 0x96A ADD MSTORE DUP2 DUP2 PUSH2 0x9C2 ADD MSTORE DUP2 DUP2 PUSH2 0xE52 ADD MSTORE DUP2 DUP2 PUSH2 0xE94 ADD MSTORE DUP2 DUP2 PUSH2 0xF65 ADD MSTORE DUP2 DUP2 PUSH2 0x1E1E ADD MSTORE DUP2 DUP2 PUSH2 0x1E70 ADD MSTORE DUP2 DUP2 PUSH2 0x1FD5 ADD MSTORE DUP2 DUP2 PUSH2 0x207F ADD MSTORE DUP2 DUP2 PUSH2 0x2ACF ADD MSTORE PUSH2 0x2B28 ADD MSTORE PUSH1 0x0 DUP2 DUP2 PUSH2 0x8DA ADD MSTORE DUP2 DUP2 PUSH2 0x932 ADD MSTORE DUP2 DUP2 PUSH2 0xD0B ADD MSTORE DUP2 DUP2 PUSH2 0xD4D ADD MSTORE DUP2 DUP2 PUSH2 0xE1E ADD MSTORE DUP2 DUP2 PUSH2 0x1B7D ADD MSTORE DUP2 DUP2 PUSH2 0x1BCF ADD MSTORE DUP2 DUP2 PUSH2 0x1D34 ADD MSTORE DUP2 DUP2 PUSH2 0x1DDE ADD MSTORE DUP2 DUP2 PUSH2 0x2A3F ADD MSTORE PUSH2 0x2A98 ADD MSTORE PUSH1 0x0 DUP2 DUP2 PUSH2 0x84A ADD MSTORE DUP2 DUP2 PUSH2 0x8A2 ADD MSTORE DUP2 DUP2 PUSH2 0xBC4 ADD MSTORE DUP2 DUP2 PUSH2 0xC06 ADD MSTORE DUP2 DUP2 PUSH2 0xCD7 ADD MSTORE DUP2 DUP2 PUSH2 0x18DC ADD MSTORE DUP2 DUP2 PUSH2 0x192E ADD MSTORE DUP2 DUP2 PUSH2 0x1A93 ADD MSTORE DUP2 DUP2 PUSH2 0x1B3D ADD MSTORE DUP2 DUP2 PUSH2 0x29AF ADD MSTORE PUSH2 0x2A08 ADD MSTORE PUSH1 0x0 DUP2 DUP2 PUSH2 0x748 ADD MSTORE DUP2 DUP2 PUSH2 0x7A0 ADD MSTORE DUP2 DUP2 PUSH2 0xA7D ADD MSTORE DUP2 DUP2 PUSH2 0xABF ADD MSTORE DUP2 DUP2 PUSH2 0xB90 ADD MSTORE DUP2 DUP2 PUSH2 0x162F ADD MSTORE DUP2 DUP2 PUSH2 0x1681 ADD MSTORE DUP2 DUP2 PUSH2 0x17E6 ADD MSTORE DUP2 DUP2 PUSH2 0x1890 ADD MSTORE DUP2 DUP2 PUSH2 0x2872 ADD MSTORE PUSH2 0x28CB ADD MSTORE PUSH1 0x0 DUP2 DUP2 PUSH2 0x1F2A ADD MSTORE DUP2 DUP2 PUSH2 0x1F68 ADD MSTORE DUP2 DUP2 PUSH2 0x1FA7 ADD MSTORE PUSH2 0x2029 ADD MSTORE PUSH1 0x0 DUP2 DUP2 PUSH2 0x1C89 ADD MSTORE DUP2 DUP2 PUSH2 0x1CC7 ADD MSTORE DUP2 DUP2 PUSH2 0x1D06 ADD MSTORE PUSH2 0x1D88 ADD MSTORE PUSH1 0x0 DUP2 DUP2 PUSH2 0x19E8 ADD MSTORE DUP2 DUP2 PUSH2 0x1A26 ADD MSTORE DUP2 DUP2 PUSH2 0x1A65 ADD MSTORE PUSH2 0x1AE7 ADD MSTORE PUSH1 0x0 DUP2 DUP2 PUSH2 0x173B ADD MSTORE DUP2 DUP2 PUSH2 0x1779 ADD MSTORE DUP2 DUP2 PUSH2 0x17B8 ADD MSTORE PUSH2 0x183A ADD MSTORE PUSH1 0x0 DUP2 DUP2 PUSH2 0x1121 ADD MSTORE DUP2 DUP2 PUSH2 0x1166 ADD MSTORE DUP2 DUP2 PUSH2 0x11A5 ADD MSTORE PUSH2 0x121B ADD MSTORE PUSH1 0x0 DUP2 DUP2 PUSH2 0x11EC ADD MSTORE PUSH2 0x12ED ADD MSTORE PUSH1 0x0 DUP2 DUP2 PUSH2 0x1AF ADD MSTORE PUSH2 0x2CDF ADD MSTORE PUSH2 0x337F PUSH1 0x0 RETURN INVALID PUSH1 0x80 PUSH1 0x40 MSTORE PUSH1 0x4 CALLDATASIZE LT PUSH2 0xF3 JUMPI PUSH1 0x0 CALLDATALOAD PUSH1 0xE0 SHR DUP1 PUSH4 0x8DA5CB5B GT PUSH2 0x8A JUMPI DUP1 PUSH4 0xEC09FD05 GT PUSH2 0x59 JUMPI DUP1 PUSH4 0xEC09FD05 EQ PUSH2 0x29D JUMPI DUP1 PUSH4 0xEE23B65A EQ PUSH2 0x2CA JUMPI DUP1 PUSH4 0xF1FDBC42 EQ PUSH2 0x2EA JUMPI DUP1 PUSH4 0xF2FDE38B EQ PUSH2 0x300 JUMPI PUSH1 0x0 DUP1 REVERT JUMPDEST DUP1 PUSH4 0x8DA5CB5B EQ PUSH2 0x22F JUMPI DUP1 PUSH4 0x98DF6D4B EQ PUSH2 0x257 JUMPI DUP1 PUSH4 0xC3C0045F EQ PUSH2 0x26A JUMPI DUP1 PUSH4 0xDC4CF83F EQ PUSH2 0x28A JUMPI PUSH1 0x0 DUP1 REVERT JUMPDEST DUP1 PUSH4 0x5463612E GT PUSH2 0xC6 JUMPI DUP1 PUSH4 0x5463612E EQ PUSH2 0x15E JUMPI DUP1 PUSH4 0x572B6C05 EQ PUSH2 0x192 JUMPI DUP1 PUSH4 0x715018A6 EQ PUSH2 0x1EF JUMPI DUP1 PUSH4 0x774DEE89 EQ PUSH2 0x204 JUMPI PUSH1 0x0 DUP1 REVERT JUMPDEST DUP1 PUSH4 0x153B1143 EQ PUSH2 0xF8 JUMPI DUP1 PUSH4 0x1F102DD2 EQ PUSH2 0x12E JUMPI DUP1 PUSH4 0x42CDEF41 EQ PUSH2 0x143 JUMPI DUP1 PUSH4 0x48502EAA EQ PUSH2 0x156 JUMPI JUMPDEST PUSH1 0x0 DUP1 REVERT JUMPDEST CALLVALUE DUP1 ISZERO PUSH2 0x104 JUMPI PUSH1 0x0 DUP1 REVERT JUMPDEST POP PUSH2 0x118 PUSH2 0x113 CALLDATASIZE PUSH1 0x4 PUSH2 0x2EF3 JUMP JUMPDEST PUSH2 0x320 JUMP JUMPDEST PUSH1 0x40 MLOAD PUSH2 0x125 SWAP2 SWAP1 PUSH2 0x2F48 JUMP JUMPDEST PUSH1 0x40 MLOAD DUP1 SWAP2 SUB SWAP1 RETURN JUMPDEST PUSH2 0x141 PUSH2 0x13C CALLDATASIZE PUSH1 0x4 PUSH2 0x2FF1 JUMP JUMPDEST PUSH2 0x423 JUMP JUMPDEST STOP JUMPDEST PUSH2 0x141 PUSH2 0x151 CALLDATASIZE PUSH1 0x4 PUSH2 0x2EF3 JUMP JUMPDEST PUSH2 0xA73 JUMP JUMPDEST PUSH2 0x141 PUSH2 0xF98 JUMP JUMPDEST CALLVALUE DUP1 ISZERO PUSH2 0x16A JUMPI PUSH1 0x0 DUP1 REVERT JUMPDEST POP PUSH2 0x17E PUSH2 0x179 CALLDATASIZE PUSH1 0x4 PUSH2 0x300A JUMP JUMPDEST PUSH2 0x1012 JUMP JUMPDEST PUSH1 0x40 MLOAD PUSH2 0x125 SWAP9 SWAP8 SWAP7 SWAP6 SWAP5 SWAP4 SWAP3 SWAP2 SWAP1 PUSH2 0x3036 JUMP JUMPDEST CALLVALUE DUP1 ISZERO PUSH2 0x19E JUMPI PUSH1 0x0 DUP1 REVERT JUMPDEST POP PUSH2 0x1DF PUSH2 0x1AD CALLDATASIZE PUSH1 0x4 PUSH2 0x2EF3 JUMP JUMPDEST PUSH32 0x0 PUSH1 0x1 PUSH1 0x1 PUSH1 0xA0 SHL SUB SWAP1 DUP2 AND SWAP2 AND EQ SWAP1 JUMP JUMPDEST PUSH1 0x40 MLOAD SWAP1 ISZERO ISZERO DUP2 MSTORE PUSH1 0x20 ADD PUSH2 0x125 JUMP JUMPDEST CALLVALUE DUP1 ISZERO PUSH2 0x1FB JUMPI PUSH1 0x0 DUP1 REVERT JUMPDEST POP PUSH2 0x141 PUSH2 0x108A JUMP JUMPDEST CALLVALUE DUP1 ISZERO PUSH2 0x210 JUMPI PUSH1 0x0 DUP1 REVERT JUMPDEST POP PUSH2 0x221 PUSH9 0x2B5E3AF16B1880000 DUP2 JUMP JUMPDEST PUSH1 0x40 MLOAD SWAP1 DUP2 MSTORE PUSH1 0x20 ADD PUSH2 0x125 JUMP JUMPDEST CALLVALUE DUP1 ISZERO PUSH2 0x23B JUMPI PUSH1 0x0 DUP1 REVERT JUMPDEST POP PUSH1 0x0 SLOAD PUSH1 0x40 MLOAD PUSH1 0x1 PUSH1 0x1 PUSH1 0xA0 SHL SUB SWAP1 SWAP2 AND DUP2 MSTORE PUSH1 0x20 ADD PUSH2 0x125 JUMP JUMPDEST PUSH2 0x141 PUSH2 0x265 CALLDATASIZE PUSH1 0x4 PUSH2 0x308C JUMP JUMPDEST PUSH2 0x109E JUMP JUMPDEST CALLVALUE DUP1 ISZERO PUSH2 0x276 JUMPI PUSH1 0x0 DUP1 REVERT JUMPDEST POP PUSH2 0x118 PUSH2 0x285 CALLDATASIZE PUSH1 0x4 PUSH2 0x2EF3 JUMP JUMPDEST PUSH2 0x2311 JUMP JUMPDEST PUSH2 0x141 PUSH2 0x298 CALLDATASIZE PUSH1 0x4 PUSH2 0x2FF1 JUMP JUMPDEST PUSH2 0x2409 JUMP JUMPDEST CALLVALUE DUP1 ISZERO PUSH2 0x2A9 JUMPI PUSH1 0x0 DUP1 REVERT JUMPDEST POP PUSH2 0x221 PUSH2 0x2B8 CALLDATASIZE PUSH1 0x4 PUSH2 0x2EF3 JUMP JUMPDEST PUSH1 0x2 PUSH1 0x20 MSTORE PUSH1 0x0 SWAP1 DUP2 MSTORE PUSH1 0x40 SWAP1 KECCAK256 SLOAD DUP2 JUMP JUMPDEST CALLVALUE DUP1 ISZERO PUSH2 0x2D6 JUMPI PUSH1 0x0 DUP1 REVERT JUMPDEST POP PUSH2 0x17E PUSH2 0x2E5 CALLDATASIZE PUSH1 0x4 PUSH2 0x300A JUMP JUMPDEST PUSH2 0x2C44 JUMP JUMPDEST CALLVALUE DUP1 ISZERO PUSH2 0x2F6 JUMPI PUSH1 0x0 DUP1 REVERT JUMPDEST POP PUSH2 0x221 PUSH1 0x1 SLOAD DUP2 JUMP JUMPDEST CALLVALUE DUP1 ISZERO PUSH2 0x30C JUMPI PUSH1 0x0 DUP1 REVERT JUMPDEST POP PUSH2 0x141 PUSH2 0x31B CALLDATASIZE PUSH1 0x4 PUSH2 0x2EF3 JUMP JUMPDEST PUSH2 0x2C60 JUMP JUMPDEST PUSH1 0x1 PUSH1 0x1 PUSH1 0xA0 SHL SUB DUP2 AND PUSH1 0x0 SWAP1 DUP2 MSTORE PUSH1 0x3 PUSH1 0x20 SWAP1 DUP2 MSTORE PUSH1 0x40 DUP1 DUP4 KECCAK256 DUP1 SLOAD DUP3 MLOAD DUP2 DUP6 MUL DUP2 ADD DUP6 ADD SWAP1 SWAP4 MSTORE DUP1 DUP4 MSTORE PUSH1 0x60 SWAP5 SWAP3 SWAP4 SWAP2 SWAP3 SWAP1 SWAP2 DUP5 ADD JUMPDEST DUP3 DUP3 LT ISZERO PUSH2 0x418 JUMPI PUSH1 0x0 DUP5 DUP2 MSTORE PUSH1 0x20 SWAP1 DUP2 SWAP1 KECCAK256 PUSH1 0x40 DUP1 MLOAD PUSH2 0x100 DUP2 ADD DUP3 MSTORE PUSH1 0x7 DUP7 MUL SWAP1 SWAP3 ADD DUP1 SLOAD DUP4 MSTORE PUSH1 0x1 DUP2 ADD SLOAD PUSH1 0x1 PUSH1 0x1 PUSH1 0xA0 SHL SUB SWAP1 DUP2 AND SWAP5 DUP5 ADD SWAP5 SWAP1 SWAP5 MSTORE PUSH1 0x2 DUP1 DUP3 ADD SLOAD DUP6 AND SWAP3 DUP5 ADD SWAP3 SWAP1 SWAP3 MSTORE PUSH1 0x3 DUP2 ADD SLOAD PUSH1 0x60 DUP5 ADD MSTORE PUSH1 0x4 DUP2 ADD SLOAD PUSH1 0x80 DUP5 ADD MSTORE PUSH1 0x5 DUP2 ADD SLOAD PUSH1 0xA0 DUP5 ADD MSTORE PUSH1 0x6 DUP2 ADD SLOAD SWAP4 DUP5 AND PUSH1 0xC0 DUP5 ADD MSTORE SWAP2 SWAP3 PUSH1 0xE0 DUP5 ADD SWAP2 PUSH1 0x1 PUSH1 0xA0 SHL SWAP1 SWAP2 DIV PUSH1 0xFF AND SWAP1 DUP2 GT ISZERO PUSH2 0x3F4 JUMPI PUSH2 0x3F4 PUSH2 0x2F10 JUMP JUMPDEST PUSH1 0x2 DUP2 GT ISZERO PUSH2 0x405 JUMPI PUSH2 0x405 PUSH2 0x2F10 JUMP JUMPDEST DUP2 MSTORE POP POP DUP2 MSTORE PUSH1 0x20 ADD SWAP1 PUSH1 0x1 ADD SWAP1 PUSH2 0x358 JUMP JUMPDEST POP POP POP POP SWAP1 POP SWAP2 SWAP1 POP JUMP JUMPDEST PUSH1 0x0 PUSH1 0x3 PUSH1 0x0 PUSH2 0x431 PUSH2 0x2D29 JUMP JUMPDEST PUSH1 0x1 PUSH1 0x1 PUSH1 0xA0 SHL SUB AND PUSH1 0x1 PUSH1 0x1 PUSH1 0xA0 SHL SUB AND DUP2 MSTORE PUSH1 0x20 ADD SWAP1 DUP2 MSTORE PUSH1 0x20 ADD PUSH1 0x0 KECCAK256 DUP3 DUP2 SLOAD DUP2 LT PUSH2 0x462 JUMPI PUSH2 0x462 PUSH2 0x30D4 JUMP JUMPDEST PUSH1 0x0 SWAP2 DUP3 MSTORE PUSH1 0x20 SWAP2 DUP3 SWAP1 KECCAK256 PUSH1 0x40 DUP1 MLOAD PUSH2 0x100 DUP2 ADD DUP3 MSTORE PUSH1 0x7 SWAP4 SWAP1 SWAP4 MUL SWAP1 SWAP2 ADD DUP1 SLOAD DUP4 MSTORE PUSH1 0x1 DUP2 ADD SLOAD PUSH1 0x1 PUSH1 0x1 PUSH1 0xA0 SHL SUB SWAP1 DUP2 AND SWAP5 DUP5 ADD SWAP5 SWAP1 SWAP5 MSTORE PUSH1 0x2 DUP1 DUP3 ADD SLOAD DUP6 AND SWAP3 DUP5 ADD SWAP3 SWAP1 SWAP3 MSTORE PUSH1 0x3 DUP2 ADD SLOAD PUSH1 0x60 DUP5 ADD MSTORE PUSH1 0x4 DUP2 ADD SLOAD PUSH1 0x80 DUP5 ADD MSTORE PUSH1 0x5 DUP2 ADD SLOAD PUSH1 0xA0 DUP5 ADD MSTORE PUSH1 0x6 DUP2 ADD SLOAD SWAP4 DUP5 AND PUSH1 0xC0 DUP5 ADD MSTORE SWAP2 SWAP3 PUSH1 0xE0 DUP5 ADD SWAP2 PUSH1 0x1 PUSH1 0xA0 SHL SWAP1 SWAP2 DIV PUSH1 0xFF AND SWAP1 DUP2 GT ISZERO PUSH2 0x4F8 JUMPI PUSH2 0x4F8 PUSH2 0x2F10 JUMP JUMPDEST PUSH1 0x2 DUP2 GT ISZERO PUSH2 0x509 JUMPI PUSH2 0x509 PUSH2 0x2F10 JUMP JUMPDEST SWAP1 MSTORE POP SWAP1 POP PUSH1 0x0 DUP1 DUP3 PUSH1 0xE0 ADD MLOAD PUSH1 0x2 DUP2 GT ISZERO PUSH2 0x527 JUMPI PUSH2 0x527 PUSH2 0x2F10 JUMP JUMPDEST EQ ISZERO SWAP1 POP PUSH1 0x0 PUSH2 0x535 PUSH2 0x2D29 JUMP JUMPDEST PUSH1 0x1 PUSH1 0x1 PUSH1 0xA0 SHL SUB AND DUP4 PUSH1 0x20 ADD MLOAD PUSH1 0x1 PUSH1 0x1 PUSH1 0xA0 SHL SUB AND EQ ISZERO SWAP1 POP PUSH1 0x0 DUP3 DUP1 PUSH2 0x55B JUMPI POP DUP2 JUMPDEST SWAP1 POP DUP1 ISZERO PUSH2 0x57C JUMPI PUSH1 0x40 MLOAD PUSH4 0xDE175B07 PUSH1 0xE0 SHL DUP2 MSTORE PUSH1 0x4 ADD PUSH1 0x40 MLOAD DUP1 SWAP2 SUB SWAP1 REVERT JUMPDEST PUSH1 0x40 DUP1 DUP6 ADD MLOAD PUSH1 0x1 PUSH1 0x1 PUSH1 0xA0 SHL SUB AND PUSH1 0x0 SWAP1 DUP2 MSTORE PUSH1 0x4 PUSH1 0x20 MSTORE KECCAK256 PUSH1 0x80 DUP6 ADD MLOAD DUP2 SLOAD PUSH1 0x1 SWAP3 SWAP2 SWAP1 DUP2 LT PUSH2 0x5B0 JUMPI PUSH2 0x5B0 PUSH2 0x30D4 JUMP JUMPDEST PUSH1 0x0 SWAP2 DUP3 MSTORE PUSH1 0x20 SWAP1 SWAP2 KECCAK256 PUSH1 0x6 PUSH1 0x7 SWAP1 SWAP3 MUL ADD ADD DUP1 SLOAD PUSH1 0xFF PUSH1 0xA0 SHL NOT AND PUSH1 0x1 PUSH1 0xA0 SHL DUP4 PUSH1 0x2 DUP2 GT ISZERO PUSH2 0x5E3 JUMPI PUSH2 0x5E3 PUSH2 0x2F10 JUMP JUMPDEST MUL OR SWAP1 SSTORE POP PUSH1 0x1 PUSH1 0x3 PUSH1 0x0 PUSH2 0x5F6 PUSH2 0x2D29 JUMP JUMPDEST PUSH1 0x1 PUSH1 0x1 PUSH1 0xA0 SHL SUB AND PUSH1 0x1 PUSH1 0x1 PUSH1 0xA0 SHL SUB AND DUP2 MSTORE PUSH1 0x20 ADD SWAP1 DUP2 MSTORE PUSH1 0x20 ADD PUSH1 0x0 KECCAK256 DUP7 DUP2 SLOAD DUP2 LT PUSH2 0x627 JUMPI PUSH2 0x627 PUSH2 0x30D4 JUMP JUMPDEST PUSH1 0x0 SWAP2 DUP3 MSTORE PUSH1 0x20 SWAP1 SWAP2 KECCAK256 PUSH1 0x6 PUSH1 0x7 SWAP1 SWAP3 MUL ADD ADD DUP1 SLOAD PUSH1 0xFF PUSH1 0xA0 SHL NOT AND PUSH1 0x1 PUSH1 0xA0 SHL DUP4 PUSH1 0x2 DUP2 GT ISZERO PUSH2 0x65A JUMPI PUSH2 0x65A PUSH2 0x2F10 JUMP JUMPDEST MUL OR SWAP1 SSTORE POP DUP4 PUSH1 0x40 MLOAD PUSH2 0x66D SWAP2 SWAP1 PUSH2 0x30EA JUMP JUMPDEST PUSH1 0x40 MLOAD DUP1 SWAP2 SUB SWAP1 KECCAK256 PUSH2 0x67D PUSH2 0x2D29 JUMP JUMPDEST PUSH1 0x1 PUSH1 0x1 PUSH1 0xA0 SHL SUB AND PUSH32 0x6ABD023739F4FF71D95FB906429D7D4BEEA7738CB65D5B6730BC335FA2AC4564 PUSH1 0x40 MLOAD PUSH1 0x40 MLOAD DUP1 SWAP2 SUB SWAP1 LOG3 PUSH1 0xC0 DUP5 ADD MLOAD PUSH1 0x1 PUSH1 0x1 PUSH1 0xA0 SHL SUB AND PUSH2 0x746 JUMPI PUSH1 0x0 PUSH2 0x6CE PUSH2 0x2D29 JUMP JUMPDEST DUP6 MLOAD PUSH1 0x40 MLOAD PUSH1 0x1 PUSH1 0x1 PUSH1 0xA0 SHL SUB SWAP3 SWAP1 SWAP3 AND SWAP2 PUSH1 0x0 DUP2 DUP2 DUP2 DUP6 DUP8 GAS CALL SWAP3 POP POP POP RETURNDATASIZE DUP1 PUSH1 0x0 DUP2 EQ PUSH2 0x719 JUMPI PUSH1 0x40 MLOAD SWAP2 POP PUSH1 0x1F NOT PUSH1 0x3F RETURNDATASIZE ADD AND DUP3 ADD PUSH1 0x40 MSTORE RETURNDATASIZE DUP3 MSTORE RETURNDATASIZE PUSH1 0x0 PUSH1 0x20 DUP5 ADD RETURNDATACOPY PUSH2 0x71E JUMP JUMPDEST PUSH1 0x60 SWAP2 POP JUMPDEST POP POP SWAP1 POP DUP1 PUSH2 0x740 JUMPI PUSH1 0x40 MLOAD PUSH4 0x3BDF630F PUSH1 0xE1 SHL DUP2 MSTORE PUSH1 0x4 ADD PUSH1 0x40 MLOAD DUP1 SWAP2 SUB SWAP1 REVERT JUMPDEST POP PUSH2 0xA6C JUMP JUMPDEST PUSH32 0x0 PUSH1 0x1 PUSH1 0x1 PUSH1 0xA0 SHL SUB AND DUP5 PUSH1 0xC0 ADD MLOAD PUSH1 0x1 PUSH1 0x1 PUSH1 0xA0 SHL SUB AND EQ ISZERO PUSH2 0x848 JUMPI DUP4 MLOAD PUSH1 0x40 MLOAD PUSH4 0xA9059CBB PUSH1 0xE0 SHL DUP2 MSTORE PUSH1 0x0 SWAP2 PUSH1 0x1 PUSH1 0x1 PUSH1 0xA0 SHL SUB PUSH32 0x0 AND SWAP2 PUSH4 0xA9059CBB SWAP2 PUSH2 0x7D6 SWAP2 CALLER SWAP2 SWAP1 PUSH1 0x4 ADD PUSH2 0x3155 JUMP JUMPDEST PUSH1 0x20 PUSH1 0x40 MLOAD DUP1 DUP4 SUB DUP2 PUSH1 0x0 DUP8 DUP1 EXTCODESIZE ISZERO DUP1 ISZERO PUSH2 0x7F0 JUMPI PUSH1 0x0 DUP1 REVERT JUMPDEST POP GAS CALL ISZERO DUP1 ISZERO PUSH2 0x804 JUMPI RETURNDATASIZE PUSH1 0x0 DUP1 RETURNDATACOPY RETURNDATASIZE PUSH1 0x0 REVERT JUMPDEST POP POP POP POP PUSH1 0x40 MLOAD RETURNDATASIZE PUSH1 0x1F NOT PUSH1 0x1F DUP3 ADD AND DUP3 ADD DUP1 PUSH1 0x40 MSTORE POP DUP2 ADD SWAP1 PUSH2 0x828 SWAP2 SWAP1 PUSH2 0x316E JUMP JUMPDEST SWAP1 POP DUP1 PUSH2 0x740 JUMPI PUSH1 0x40 MLOAD PUSH4 0x3BDF630F PUSH1 0xE1 SHL DUP2 MSTORE PUSH1 0x4 ADD PUSH1 0x40 MLOAD DUP1 SWAP2 SUB SWAP1 REVERT JUMPDEST PUSH32 0x0 PUSH1 0x1 PUSH1 0x1 PUSH1 0xA0 SHL SUB AND DUP5 PUSH1 0xC0 ADD MLOAD PUSH1 0x1 PUSH1 0x1 PUSH1 0xA0 SHL SUB AND EQ ISZERO PUSH2 0x8D8 JUMPI DUP4 MLOAD PUSH1 0x40 MLOAD PUSH4 0xA9059CBB PUSH1 0xE0 SHL DUP2 MSTORE PUSH1 0x0 SWAP2 PUSH1 0x1 PUSH1 0x1 PUSH1 0xA0 SHL SUB PUSH32 0x0 AND SWAP2 PUSH4 0xA9059CBB SWAP2 PUSH2 0x7D6 SWAP2 CALLER SWAP2 SWAP1 PUSH1 0x4 ADD PUSH2 0x3155 JUMP JUMPDEST PUSH32 0x0 PUSH1 0x1 PUSH1 0x1 PUSH1 0xA0 SHL SUB AND DUP5 PUSH1 0xC0 ADD MLOAD PUSH1 0x1 PUSH1 0x1 PUSH1 0xA0 SHL SUB AND EQ ISZERO PUSH2 0x968 JUMPI DUP4 MLOAD PUSH1 0x40 MLOAD PUSH4 0xA9059CBB PUSH1 0xE0 SHL DUP2 MSTORE PUSH1 0x0 SWAP2 PUSH1 0x1 PUSH1 0x1 PUSH1 0xA0 SHL SUB PUSH32 0x0 AND SWAP2 PUSH4 0xA9059CBB SWAP2 PUSH2 0x7D6 SWAP2 CALLER SWAP2 SWAP1 PUSH1 0x4 ADD PUSH2 0x3155 JUMP JUMPDEST PUSH32 0x0 PUSH1 0x1 PUSH1 0x1 PUSH1 0xA0 SHL SUB AND DUP5 PUSH1 0xC0 ADD MLOAD PUSH1 0x1 PUSH1 0x1 PUSH1 0xA0 SHL SUB AND EQ ISZERO PUSH2 0xA6C JUMPI DUP4 MLOAD PUSH1 0x40 MLOAD PUSH4 0xA9059CBB PUSH1 0xE0 SHL DUP2 MSTORE PUSH1 0x0 SWAP2 PUSH1 0x1 PUSH1 0x1 PUSH1 0xA0 SHL SUB PUSH32 0x0 AND SWAP2 PUSH4 0xA9059CBB SWAP2 PUSH2 0x9F8 SWAP2 CALLER SWAP2 SWAP1 PUSH1 0x4 ADD PUSH2 0x3155 JUMP JUMPDEST PUSH1 0x20 PUSH1 0x40 MLOAD DUP1 DUP4 SUB DUP2 PUSH1 0x0 DUP8 DUP1 EXTCODESIZE ISZERO DUP1 ISZERO PUSH2 0xA12 JUMPI PUSH1 0x0 DUP1 REVERT JUMPDEST POP GAS CALL ISZERO DUP1 ISZERO PUSH2 0xA26 JUMPI RETURNDATASIZE PUSH1 0x0 DUP1 RETURNDATACOPY RETURNDATASIZE PUSH1 0x0 REVERT JUMPDEST POP POP POP POP PUSH1 0x40 MLOAD RETURNDATASIZE PUSH1 0x1F NOT PUSH1 0x1F DUP3 ADD AND DUP3 ADD DUP1 PUSH1 0x40 MSTORE POP DUP2 ADD SWAP1 PUSH2 0xA4A SWAP2 SWAP1 PUSH2 0x316E JUMP JUMPDEST SWAP1 POP DUP1 PUSH2 0xA6A JUMPI PUSH1 0x40 MLOAD PUSH4 0x3BDF630F PUSH1 0xE1 SHL DUP2 MSTORE PUSH1 0x4 ADD PUSH1 0x40 MLOAD DUP1 SWAP2 SUB SWAP1 REVERT JUMPDEST POP JUMPDEST POP POP POP POP POP JUMP JUMPDEST PUSH2 0xA7B PUSH2 0x2D33 JUMP JUMPDEST PUSH32 0x0 PUSH1 0x1 PUSH1 0x1 PUSH1 0xA0 SHL SUB AND DUP2 PUSH1 0x1 PUSH1 0x1 PUSH1 0xA0 SHL SUB AND EQ ISZERO PUSH2 0xBC2 JUMPI PUSH1 0x1 PUSH1 0x1 PUSH1 0xA0 SHL SUB PUSH32 0x0 AND PUSH1 0x0 DUP2 DUP2 MSTORE PUSH1 0x2 PUSH1 0x20 MSTORE PUSH1 0x40 DUP1 DUP3 KECCAK256 SLOAD SWAP1 MLOAD PUSH4 0xA9059CBB PUSH1 0xE0 SHL DUP2 MSTORE SWAP2 SWAP3 SWAP2 PUSH4 0xA9059CBB SWAP2 PUSH2 0xB13 SWAP2 CALLER SWAP2 SWAP1 PUSH1 0x4 ADD PUSH2 0x3155 JUMP JUMPDEST PUSH1 0x20 PUSH1 0x40 MLOAD DUP1 DUP4 SUB DUP2 PUSH1 0x0 DUP8 DUP1 EXTCODESIZE ISZERO DUP1 ISZERO PUSH2 0xB2D JUMPI PUSH1 0x0 DUP1 REVERT JUMPDEST POP GAS CALL ISZERO DUP1 ISZERO PUSH2 0xB41 JUMPI RETURNDATASIZE PUSH1 0x0 DUP1 RETURNDATACOPY RETURNDATASIZE PUSH1 0x0 REVERT JUMPDEST POP POP POP POP PUSH1 0x40 MLOAD RETURNDATASIZE PUSH1 0x1F NOT PUSH1 0x1F DUP3 ADD AND DUP3 ADD DUP1 PUSH1 0x40 MSTORE POP DUP2 ADD SWAP1 PUSH2 0xB65 SWAP2 SWAP1 PUSH2 0x316E JUMP JUMPDEST SWAP1 POP DUP1 PUSH2 0xB85 JUMPI PUSH1 0x40 MLOAD PUSH4 0x3BDF630F PUSH1 0xE1 SHL DUP2 MSTORE PUSH1 0x4 ADD PUSH1 0x40 MLOAD DUP1 SWAP2 SUB SWAP1 REVERT JUMPDEST POP PUSH1 0x1 PUSH1 0x1 PUSH1 0xA0 SHL SUB PUSH32 0x0 AND PUSH1 0x0 SWAP1 DUP2 MSTORE PUSH1 0x2 PUSH1 0x20 MSTORE PUSH1 0x40 DUP2 KECCAK256 SSTORE POP JUMP JUMPDEST PUSH32 0x0 PUSH1 0x1 PUSH1 0x1 PUSH1 0xA0 SHL SUB AND DUP2 PUSH1 0x1 PUSH1 0x1 PUSH1 0xA0 SHL SUB AND EQ ISZERO PUSH2 0xD09 JUMPI PUSH1 0x1 PUSH1 0x1 PUSH1 0xA0 SHL SUB PUSH32 0x0 AND PUSH1 0x0 DUP2 DUP2 MSTORE PUSH1 0x2 PUSH1 0x20 MSTORE PUSH1 0x40 DUP1 DUP3 KECCAK256 SLOAD SWAP1 MLOAD PUSH4 0xA9059CBB PUSH1 0xE0 SHL DUP2 MSTORE SWAP2 SWAP3 SWAP2 PUSH4 0xA9059CBB SWAP2 PUSH2 0xC5A SWAP2 CALLER SWAP2 SWAP1 PUSH1 0x4 ADD PUSH2 0x3155 JUMP JUMPDEST PUSH1 0x20 PUSH1 0x40 MLOAD DUP1 DUP4 SUB DUP2 PUSH1 0x0 DUP8 DUP1 EXTCODESIZE ISZERO DUP1 ISZERO PUSH2 0xC74 JUMPI PUSH1 0x0 DUP1 REVERT JUMPDEST POP GAS CALL ISZERO DUP1 ISZERO PUSH2 0xC88 JUMPI RETURNDATASIZE PUSH1 0x0 DUP1 RETURNDATACOPY RETURNDATASIZE PUSH1 0x0 REVERT JUMPDEST POP POP POP POP PUSH1 0x40 MLOAD RETURNDATASIZE PUSH1 0x1F NOT PUSH1 0x1F DUP3 ADD AND DUP3 ADD DUP1 PUSH1 0x40 MSTORE POP DUP2 ADD SWAP1 PUSH2 0xCAC SWAP2 SWAP1 PUSH2 0x316E JUMP JUMPDEST SWAP1 POP DUP1 PUSH2 0xCCC JUMPI PUSH1 0x40 MLOAD PUSH4 0x3BDF630F PUSH1 0xE1 SHL DUP2 MSTORE PUSH1 0x4 ADD PUSH1 0x40 MLOAD DUP1 SWAP2 SUB SWAP1 REVERT JUMPDEST POP PUSH1 0x1 PUSH1 0x1 PUSH1 0xA0 SHL SUB PUSH32 0x0 AND PUSH1 0x0 SWAP1 DUP2 MSTORE PUSH1 0x2 PUSH1 0x20 MSTORE PUSH1 0x40 DUP2 KECCAK256 SSTORE POP JUMP JUMPDEST PUSH32 0x0 PUSH1 0x1 PUSH1 0x1 PUSH1 0xA0 SHL SUB AND DUP2 PUSH1 0x1 PUSH1 0x1 PUSH1 0xA0 SHL SUB AND EQ ISZERO PUSH2 0xE50 JUMPI PUSH1 0x1 PUSH1 0x1 PUSH1 0xA0 SHL SUB PUSH32 0x0 AND PUSH1 0x0 DUP2 DUP2 MSTORE PUSH1 0x2 PUSH1 0x20 MSTORE PUSH1 0x40 DUP1 DUP3 KECCAK256 SLOAD SWAP1 MLOAD PUSH4 0xA9059CBB PUSH1 0xE0 SHL DUP2 MSTORE SWAP2 SWAP3 SWAP2 PUSH4 0xA9059CBB SWAP2 PUSH2 0xDA1 SWAP2 CALLER SWAP2 SWAP1 PUSH1 0x4 ADD PUSH2 0x3155 JUMP JUMPDEST PUSH1 0x20 PUSH1 0x40 MLOAD DUP1 DUP4 SUB DUP2 PUSH1 0x0 DUP8 DUP1 EXTCODESIZE ISZERO DUP1 ISZERO PUSH2 0xDBB JUMPI PUSH1 0x0 DUP1 REVERT JUMPDEST POP GAS CALL ISZERO DUP1 ISZERO PUSH2 0xDCF JUMPI RETURNDATASIZE PUSH1 0x0 DUP1 RETURNDATACOPY RETURNDATASIZE PUSH1 0x0 REVERT JUMPDEST POP POP POP POP PUSH1 0x40 MLOAD RETURNDATASIZE PUSH1 0x1F NOT PUSH1 0x1F DUP3 ADD AND DUP3 ADD DUP1 PUSH1 0x40 MSTORE POP DUP2 ADD SWAP1 PUSH2 0xDF3 SWAP2 SWAP1 PUSH2 0x316E JUMP JUMPDEST SWAP1 POP DUP1 PUSH2 0xE13 JUMPI PUSH1 0x40 MLOAD PUSH4 0x3BDF630F PUSH1 0xE1 SHL DUP2 MSTORE PUSH1 0x4 ADD PUSH1 0x40 MLOAD DUP1 SWAP2 SUB SWAP1 REVERT JUMPDEST POP PUSH1 0x1 PUSH1 0x1 PUSH1 0xA0 SHL SUB PUSH32 0x0 AND PUSH1 0x0 SWAP1 DUP2 MSTORE PUSH1 0x2 PUSH1 0x20 MSTORE PUSH1 0x40 DUP2 KECCAK256 SSTORE POP JUMP JUMPDEST PUSH32 0x0 PUSH1 0x1 PUSH1 0x1 PUSH1 0xA0 SHL SUB AND DUP2 PUSH1 0x1 PUSH1 0x1 PUSH1 0xA0 SHL SUB AND EQ ISZERO PUSH2 0xF95 JUMPI PUSH1 0x1 PUSH1 0x1 PUSH1 0xA0 SHL SUB PUSH32 0x0 AND PUSH1 0x0 DUP2 DUP2 MSTORE PUSH1 0x2 PUSH1 0x20 MSTORE PUSH1 0x40 DUP1 DUP3 KECCAK256 SLOAD SWAP1 MLOAD PUSH4 0xA9059CBB PUSH1 0xE0 SHL DUP2 MSTORE SWAP2 SWAP3 SWAP2 PUSH4 0xA9059CBB SWAP2 PUSH2 0xEE8 SWAP2 CALLER SWAP2 SWAP1 PUSH1 0x4 ADD PUSH2 0x3155 JUMP JUMPDEST PUSH1 0x20 PUSH1 0x40 MLOAD DUP1 DUP4 SUB DUP2 PUSH1 0x0 DUP8 DUP1 EXTCODESIZE ISZERO DUP1 ISZERO PUSH2 0xF02 JUMPI PUSH1 0x0 DUP1 REVERT JUMPDEST POP GAS CALL ISZERO DUP1 ISZERO PUSH2 0xF16 JUMPI RETURNDATASIZE PUSH1 0x0 DUP1 RETURNDATACOPY RETURNDATASIZE PUSH1 0x0 REVERT JUMPDEST POP POP POP POP PUSH1 0x40 MLOAD RETURNDATASIZE PUSH1 0x1F NOT PUSH1 0x1F DUP3 ADD AND DUP3 ADD DUP1 PUSH1 0x40 MSTORE POP DUP2 ADD SWAP1 PUSH2 0xF3A SWAP2 SWAP1 PUSH2 0x316E JUMP JUMPDEST SWAP1 POP DUP1 PUSH2 0xF5A JUMPI PUSH1 0x40 MLOAD PUSH4 0x3BDF630F PUSH1 0xE1 SHL DUP2 MSTORE PUSH1 0x4 ADD PUSH1 0x40 MLOAD DUP1 SWAP2 SUB SWAP1 REVERT JUMPDEST POP PUSH1 0x1 PUSH1 0x1 PUSH1 0xA0 SHL SUB PUSH32 0x0 AND PUSH1 0x0 SWAP1 DUP2 MSTORE PUSH1 0x2 PUSH1 0x20 MSTORE PUSH1 0x40 DUP2 KECCAK256 SSTORE JUMPDEST POP JUMP JUMPDEST PUSH2 0xFA0 PUSH2 0x2D33 JUMP JUMPDEST PUSH1 0x1 SLOAD PUSH1 0x40 MLOAD PUSH1 0x0 SWAP2 CALLER SWAP2 DUP4 DUP2 DUP2 DUP2 DUP6 DUP8 GAS CALL SWAP3 POP POP POP RETURNDATASIZE DUP1 PUSH1 0x0 DUP2 EQ PUSH2 0xFE3 JUMPI PUSH1 0x40 MLOAD SWAP2 POP PUSH1 0x1F NOT PUSH1 0x3F RETURNDATASIZE ADD AND DUP3 ADD PUSH1 0x40 MSTORE RETURNDATASIZE DUP3 MSTORE RETURNDATASIZE PUSH1 0x0 PUSH1 0x20 DUP5 ADD RETURNDATACOPY PUSH2 0xFE8 JUMP JUMPDEST PUSH1 0x60 SWAP2 POP JUMPDEST POP POP SWAP1 POP DUP1 PUSH2 0x100A JUMPI PUSH1 0x40 MLOAD PUSH4 0x3BDF630F PUSH1 0xE1 SHL DUP2 MSTORE PUSH1 0x4 ADD PUSH1 0x40 MLOAD DUP1 SWAP2 SUB SWAP1 REVERT JUMPDEST POP PUSH1 0x0 PUSH1 0x1 SSTORE JUMP JUMPDEST PUSH1 0x4 PUSH1 0x20 MSTORE DUP2 PUSH1 0x0 MSTORE PUSH1 0x40 PUSH1 0x0 KECCAK256 DUP2 DUP2 SLOAD DUP2 LT PUSH2 0x102E JUMPI PUSH1 0x0 DUP1 REVERT JUMPDEST PUSH1 0x0 SWAP2 DUP3 MSTORE PUSH1 0x20 SWAP1 SWAP2 KECCAK256 PUSH1 0x7 SWAP1 SWAP2 MUL ADD DUP1 SLOAD PUSH1 0x1 DUP3 ADD SLOAD PUSH1 0x2 DUP4 ADD SLOAD PUSH1 0x3 DUP5 ADD SLOAD PUSH1 0x4 DUP6 ADD SLOAD PUSH1 0x5 DUP7 ADD SLOAD PUSH1 0x6 SWAP1 SWAP7 ADD SLOAD SWAP5 SWAP8 POP PUSH1 0x1 PUSH1 0x1 PUSH1 0xA0 SHL SUB SWAP4 DUP5 AND SWAP7 POP SWAP2 DUP4 AND SWAP5 SWAP1 SWAP4 SWAP2 SWAP3 SWAP1 SWAP2 SWAP1 DUP2 AND SWAP1 PUSH1 0x1 PUSH1 0xA0 SHL SWAP1 DIV PUSH1 0xFF AND DUP9 JUMP JUMPDEST PUSH2 0x1092 PUSH2 0x2D33 JUMP JUMPDEST PUSH2 0x109C PUSH1 0x0 PUSH2 0x2DAC JUMP JUMPDEST JUMP JUMPDEST PUSH1 0x1 PUSH1 0x1 PUSH1 0xA0 SHL SUB DUP3 AND PUSH2 0x15C7 JUMPI CALLVALUE ISZERO DUP1 ISZERO PUSH2 0x10CD JUMPI PUSH1 0x40 MLOAD PUSH4 0x183BB677 PUSH1 0xE2 SHL DUP2 MSTORE PUSH1 0x4 ADD PUSH1 0x40 MLOAD DUP1 SWAP2 SUB SWAP1 REVERT JUMPDEST PUSH2 0x1112 PUSH1 0x40 DUP1 MLOAD PUSH2 0x100 DUP2 ADD DUP3 MSTORE PUSH1 0x0 DUP1 DUP3 MSTORE PUSH1 0x20 DUP3 ADD DUP2 SWAP1 MSTORE SWAP2 DUP2 ADD DUP3 SWAP1 MSTORE PUSH1 0x60 DUP2 ADD DUP3 SWAP1 MSTORE PUSH1 0x80 DUP2 ADD DUP3 SWAP1 MSTORE PUSH1 0xA0 DUP2 ADD DUP3 SWAP1 MSTORE PUSH1 0xC0 DUP2 ADD DUP3 SWAP1 MSTORE SWAP1 PUSH1 0xE0 DUP3 ADD MSTORE SWAP1 JUMP JUMPDEST PUSH9 0x2B5E3AF16B1880000 PUSH2 0x1151 PUSH32 0x0 PUSH2 0x114B PUSH1 0xC8 CALLVALUE PUSH2 0x31A6 JUMP JUMPDEST SWAP1 PUSH2 0x2DFC JUMP JUMPDEST GT ISZERO PUSH2 0x12A8 JUMPI PUSH2 0x118A PUSH9 0x2B5E3AF16B1880000 PUSH32 0x0 PUSH2 0x2E32 JUMP JUMPDEST PUSH2 0x1194 SWAP1 CALLVALUE PUSH2 0x31C8 JUMP JUMPDEST DUP2 MSTORE PUSH2 0x11C9 PUSH9 0x2B5E3AF16B1880000 PUSH32 0x0 PUSH2 0x2E32 JUMP JUMPDEST PUSH1 0x1 PUSH1 0x0 DUP3 DUP3 SLOAD PUSH2 0x11DA SWAP2 SWAP1 PUSH2 0x31DF JUMP JUMPDEST SWAP1 SWAP2 SSTORE POP PUSH1 0x0 SWAP1 POP PUSH1 0x1 PUSH1 0x1 PUSH1 0xA0 SHL SUB PUSH32 0x0 AND PUSH2 0x123F PUSH9 0x2B5E3AF16B1880000 PUSH32 0x0 PUSH2 0x2E32 JUMP JUMPDEST PUSH1 0x40 MLOAD PUSH1 0x0 DUP2 DUP2 DUP2 DUP6 DUP8 GAS CALL SWAP3 POP POP POP RETURNDATASIZE DUP1 PUSH1 0x0 DUP2 EQ PUSH2 0x127B JUMPI PUSH1 0x40 MLOAD SWAP2 POP PUSH1 0x1F NOT PUSH1 0x3F RETURNDATASIZE ADD AND DUP3 ADD PUSH1 0x40 MSTORE RETURNDATASIZE DUP3 MSTORE RETURNDATASIZE PUSH1 0x0 PUSH1 0x20 DUP5 ADD RETURNDATACOPY PUSH2 0x1280 JUMP JUMPDEST PUSH1 0x60 SWAP2 POP JUMPDEST POP POP SWAP1 POP DUP1 PUSH2 0x12A2 JUMPI PUSH1 0x40 MLOAD PUSH4 0x3BDF630F PUSH1 0xE1 SHL DUP2 MSTORE PUSH1 0x4 ADD PUSH1 0x40 MLOAD DUP1 SWAP2 SUB SWAP1 REVERT JUMPDEST POP PUSH2 0x137D JUMP JUMPDEST PUSH2 0x12B3 PUSH1 0xC8 CALLVALUE PUSH2 0x31A6 JUMP JUMPDEST PUSH2 0x12BD SWAP1 CALLVALUE PUSH2 0x31C8 JUMP JUMPDEST DUP2 MSTORE PUSH2 0x12CA PUSH1 0xC8 CALLVALUE PUSH2 0x31A6 JUMP JUMPDEST PUSH1 0x1 PUSH1 0x0 DUP3 DUP3 SLOAD PUSH2 0x12DB SWAP2 SWAP1 PUSH2 0x31DF JUMP JUMPDEST SWAP1 SWAP2 SSTORE POP PUSH1 0x0 SWAP1 POP PUSH1 0x1 PUSH1 0x1 PUSH1 0xA0 SHL SUB PUSH32 0x0 AND PUSH2 0x1318 PUSH1 0xC8 CALLVALUE PUSH2 0x31A6 JUMP JUMPDEST PUSH1 0x40 MLOAD PUSH1 0x0 DUP2 DUP2 DUP2 DUP6 DUP8 GAS CALL SWAP3 POP POP POP RETURNDATASIZE DUP1 PUSH1 0x0 DUP2 EQ PUSH2 0x1354 JUMPI PUSH1 0x40 MLOAD SWAP2 POP PUSH1 0x1F NOT PUSH1 0x3F RETURNDATASIZE ADD AND DUP3 ADD PUSH1 0x40 MSTORE RETURNDATASIZE DUP3 MSTORE RETURNDATASIZE PUSH1 0x0 PUSH1 0x20 DUP5 ADD RETURNDATACOPY PUSH2 0x1359 JUMP JUMPDEST PUSH1 0x60 SWAP2 POP JUMPDEST POP POP SWAP1 POP DUP1 PUSH2 0x137B JUMPI PUSH1 0x40 MLOAD PUSH4 0x3BDF630F PUSH1 0xE1 SHL DUP2 MSTORE PUSH1 0x4 ADD PUSH1 0x40 MLOAD DUP1 SWAP2 SUB SWAP1 REVERT JUMPDEST POP JUMPDEST CALLER PUSH1 0x20 DUP3 DUP2 ADD DUP3 SWAP1 MSTORE PUSH1 0x1 PUSH1 0x1 PUSH1 0xA0 SHL SUB DUP9 DUP2 AND PUSH1 0x40 DUP1 DUP7 ADD DUP3 SWAP1 MSTORE PUSH1 0x0 SWAP5 DUP6 MSTORE PUSH1 0x3 DUP5 MSTORE DUP1 DUP6 KECCAK256 SLOAD PUSH1 0x60 DUP8 ADD MSTORE SWAP1 DUP5 MSTORE PUSH1 0x4 SWAP1 SWAP3 MSTORE SWAP1 DUP3 KECCAK256 SLOAD PUSH1 0x80 DUP5 ADD MSTORE PUSH1 0xA0 DUP4 ADD DUP8 SWAP1 MSTORE DUP6 AND PUSH1 0xC0 DUP4 ADD MSTORE PUSH1 0xE0 DUP3 ADD DUP2 SWAP1 MSTORE POP CALLER PUSH1 0x0 SWAP1 DUP2 MSTORE PUSH1 0x3 PUSH1 0x20 DUP2 DUP2 MSTORE PUSH1 0x40 DUP1 DUP5 KECCAK256 DUP1 SLOAD PUSH1 0x1 DUP1 DUP3 ADD DUP4 SSTORE SWAP2 DUP7 MSTORE SWAP5 DUP4 SWAP1 KECCAK256 DUP7 MLOAD PUSH1 0x7 SWAP1 SWAP7 MUL ADD SWAP5 DUP6 SSTORE SWAP2 DUP6 ADD MLOAD SWAP2 DUP5 ADD DUP1 SLOAD PUSH1 0x1 PUSH1 0x1 PUSH1 0xA0 SHL SUB NOT SWAP1 DUP2 AND PUSH1 0x1 PUSH1 0x1 PUSH1 0xA0 SHL SUB SWAP5 DUP6 AND OR SWAP1 SWAP2 SSTORE SWAP1 DUP6 ADD MLOAD PUSH1 0x2 DUP1 DUP7 ADD DUP1 SLOAD DUP5 AND SWAP3 DUP6 AND SWAP3 SWAP1 SWAP3 OR SWAP1 SWAP2 SSTORE PUSH1 0x60 DUP7 ADD MLOAD SWAP4 DUP6 ADD SWAP4 SWAP1 SWAP4 SSTORE PUSH1 0x80 DUP6 ADD MLOAD PUSH1 0x4 DUP6 ADD SSTORE PUSH1 0xA0 DUP6 ADD MLOAD PUSH1 0x5 DUP6 ADD SSTORE PUSH1 0xC0 DUP6 ADD MLOAD PUSH1 0x6 DUP6 ADD DUP1 SLOAD SWAP3 DUP4 AND SWAP2 SWAP1 SWAP4 AND SWAP1 DUP2 OR DUP4 SSTORE PUSH1 0xE0 DUP7 ADD MLOAD DUP7 SWAP6 SWAP5 SWAP1 SWAP4 SWAP3 PUSH1 0x1 PUSH1 0x1 PUSH1 0xA8 SHL SUB NOT AND SWAP1 SWAP2 OR SWAP1 PUSH1 0x1 PUSH1 0xA0 SHL SWAP1 DUP5 SWAP1 DUP2 GT ISZERO PUSH2 0x14A1 JUMPI PUSH2 0x14A1 PUSH2 0x2F10 JUMP JUMPDEST MUL OR SWAP1 SSTORE POP POP POP PUSH1 0x1 PUSH1 0x1 PUSH1 0xA0 SHL SUB DUP1 DUP8 AND PUSH1 0x0 SWAP1 DUP2 MSTORE PUSH1 0x4 PUSH1 0x20 DUP2 DUP2 MSTORE PUSH1 0x40 DUP1 DUP5 KECCAK256 DUP1 SLOAD PUSH1 0x1 DUP2 DUP2 ADD DUP4 SSTORE SWAP2 DUP7 MSTORE SWAP5 DUP4 SWAP1 KECCAK256 DUP8 MLOAD PUSH1 0x7 SWAP1 SWAP7 MUL ADD SWAP5 DUP6 SSTORE SWAP2 DUP7 ADD MLOAD SWAP2 DUP5 ADD DUP1 SLOAD SWAP3 DUP7 AND PUSH1 0x1 PUSH1 0x1 PUSH1 0xA0 SHL SUB NOT SWAP4 DUP5 AND OR SWAP1 SSTORE DUP6 ADD MLOAD PUSH1 0x2 DUP1 DUP6 ADD DUP1 SLOAD SWAP3 DUP8 AND SWAP3 DUP5 AND SWAP3 SWAP1 SWAP3 OR SWAP1 SWAP2 SSTORE PUSH1 0x60 DUP7 ADD MLOAD PUSH1 0x3 DUP6 ADD SSTORE PUSH1 0x80 DUP7 ADD MLOAD SWAP3 DUP5 ADD SWAP3 SWAP1 SWAP3 SSTORE PUSH1 0xA0 DUP6 ADD MLOAD PUSH1 0x5 DUP5 ADD SSTORE PUSH1 0xC0 DUP6 ADD MLOAD PUSH1 0x6 DUP5 ADD DUP1 SLOAD SWAP2 SWAP1 SWAP6 AND SWAP2 DUP2 AND DUP3 OR DUP6 SSTORE PUSH1 0xE0 DUP7 ADD MLOAD DUP7 SWAP6 SWAP1 SWAP4 SWAP1 SWAP3 PUSH1 0x1 PUSH1 0x1 PUSH1 0xA8 SHL SUB NOT SWAP1 SWAP3 AND SWAP1 SWAP2 OR SWAP1 PUSH1 0x1 PUSH1 0xA0 SHL SWAP1 DUP5 SWAP1 DUP2 GT ISZERO PUSH2 0x1579 JUMPI PUSH2 0x1579 PUSH2 0x2F10 JUMP JUMPDEST MUL OR SWAP1 SSTORE POP POP POP DUP1 PUSH1 0x40 MLOAD PUSH2 0x158E SWAP2 SWAP1 PUSH2 0x30EA JUMP JUMPDEST PUSH1 0x40 MLOAD SWAP1 DUP2 SWAP1 SUB DUP2 KECCAK256 SWAP1 CALLER SWAP1 PUSH32 0x14F09417CD81E1BFBA59388F82B41657119F594C9C473945C0EA1311C6486939 SWAP1 PUSH1 0x0 SWAP1 LOG3 POP POP PUSH2 0x230B JUMP JUMPDEST DUP1 ISZERO DUP1 ISZERO PUSH2 0x15E8 JUMPI PUSH1 0x40 MLOAD PUSH4 0x183BB677 PUSH1 0xE2 SHL DUP2 MSTORE PUSH1 0x4 ADD PUSH1 0x40 MLOAD DUP1 SWAP2 SUB SWAP1 REVERT JUMPDEST PUSH2 0x162D PUSH1 0x40 DUP1 MLOAD PUSH2 0x100 DUP2 ADD DUP3 MSTORE PUSH1 0x0 DUP1 DUP3 MSTORE PUSH1 0x20 DUP3 ADD DUP2 SWAP1 MSTORE SWAP2 DUP2 ADD DUP3 SWAP1 MSTORE PUSH1 0x60 DUP2 ADD DUP3 SWAP1 MSTORE PUSH1 0x80 DUP2 ADD DUP3 SWAP1 MSTORE PUSH1 0xA0 DUP2 ADD DUP3 SWAP1 MSTORE PUSH1 0xC0 DUP2 ADD DUP3 SWAP1 MSTORE SWAP1 PUSH1 0xE0 DUP3 ADD MSTORE SWAP1 JUMP JUMPDEST PUSH32 0x0 PUSH1 0x1 PUSH1 0x1 PUSH1 0xA0 SHL SUB AND DUP5 PUSH1 0x1 PUSH1 0x1 PUSH1 0xA0 SHL SUB AND EQ ISZERO PUSH2 0x18DA JUMPI PUSH1 0x40 MLOAD PUSH4 0x23B872DD PUSH1 0xE0 SHL DUP2 MSTORE PUSH1 0x0 SWAP1 PUSH1 0x1 PUSH1 0x1 PUSH1 0xA0 SHL SUB PUSH32 0x0 AND SWAP1 PUSH4 0x23B872DD SWAP1 PUSH2 0x16BA SWAP1 CALLER SWAP1 ADDRESS SWAP1 DUP10 SWAP1 PUSH1 0x4 ADD PUSH2 0x31F7 JUMP JUMPDEST PUSH1 0x20 PUSH1 0x40 MLOAD DUP1 DUP4 SUB DUP2 PUSH1 0x0 DUP8 DUP1 EXTCODESIZE ISZERO DUP1 ISZERO PUSH2 0x16D4 JUMPI PUSH1 0x0 DUP1 REVERT JUMPDEST POP GAS CALL ISZERO DUP1 ISZERO PUSH2 0x16E8 JUMPI RETURNDATASIZE PUSH1 0x0 DUP1 RETURNDATACOPY RETURNDATASIZE PUSH1 0x0 REVERT JUMPDEST POP POP POP POP PUSH1 0x40 MLOAD RETURNDATASIZE PUSH1 0x1F NOT PUSH1 0x1F DUP3 ADD AND DUP3 ADD DUP1 PUSH1 0x40 MSTORE POP DUP2 ADD SWAP1 PUSH2 0x170C SWAP2 SWAP1 PUSH2 0x316E JUMP JUMPDEST SWAP1 POP DUP1 PUSH2 0x172C JUMPI PUSH1 0x40 MLOAD PUSH4 0x3BDF630F PUSH1 0xE1 SHL DUP2 MSTORE PUSH1 0x4 ADD PUSH1 0x40 MLOAD DUP1 SWAP2 SUB SWAP1 REVERT JUMPDEST PUSH9 0x2B5E3AF16B1880000 PUSH2 0x1765 PUSH32 0x0 PUSH2 0x114B PUSH1 0xC8 DUP9 PUSH2 0x31A6 JUMP JUMPDEST LT PUSH2 0x182A JUMPI PUSH2 0x179D PUSH9 0x2B5E3AF16B1880000 PUSH32 0x0 PUSH2 0x2E32 JUMP JUMPDEST PUSH2 0x17A7 SWAP1 DUP6 PUSH2 0x31C8 JUMP JUMPDEST DUP3 MSTORE PUSH2 0x17DC PUSH9 0x2B5E3AF16B1880000 PUSH32 0x0 PUSH2 0x2E32 JUMP JUMPDEST PUSH1 0x1 PUSH1 0x1 PUSH1 0xA0 SHL SUB PUSH32 0x0 AND PUSH1 0x0 SWAP1 DUP2 MSTORE PUSH1 0x2 PUSH1 0x20 MSTORE PUSH1 0x40 DUP2 KECCAK256 DUP1 SLOAD SWAP1 SWAP2 SWAP1 PUSH2 0x1824 SWAP1 DUP5 SWAP1 PUSH2 0x31DF JUMP JUMPDEST SWAP1 SWAP2 SSTORE POP POP JUMPDEST PUSH9 0x2B5E3AF16B1880000 PUSH2 0x185E DUP6 PUSH32 0x0 PUSH2 0x2DFC JUMP JUMPDEST LT ISZERO PUSH2 0x18D4 JUMPI PUSH2 0x186F PUSH1 0xC8 DUP6 PUSH2 0x31A6 JUMP JUMPDEST PUSH2 0x1879 SWAP1 DUP6 PUSH2 0x31C8 JUMP JUMPDEST DUP3 MSTORE PUSH2 0x1886 PUSH1 0xC8 DUP6 PUSH2 0x31A6 JUMP JUMPDEST PUSH1 0x1 PUSH1 0x1 PUSH1 0xA0 SHL SUB PUSH32 0x0 AND PUSH1 0x0 SWAP1 DUP2 MSTORE PUSH1 0x2 PUSH1 0x20 MSTORE PUSH1 0x40 DUP2 KECCAK256 DUP1 SLOAD SWAP1 SWAP2 SWAP1 PUSH2 0x18CE SWAP1 DUP5 SWAP1 PUSH2 0x31DF JUMP JUMPDEST SWAP1 SWAP2 SSTORE POP POP JUMPDEST POP PUSH2 0x20C5 JUMP JUMPDEST PUSH32 0x0 PUSH1 0x1 PUSH1 0x1 PUSH1 0xA0 SHL SUB AND DUP5 PUSH1 0x1 PUSH1 0x1 PUSH1 0xA0 SHL SUB AND EQ ISZERO PUSH2 0x1B7B JUMPI PUSH1 0x40 MLOAD PUSH4 0x23B872DD PUSH1 0xE0 SHL DUP2 MSTORE PUSH1 0x0 SWAP1 PUSH1 0x1 PUSH1 0x1 PUSH1 0xA0 SHL SUB PUSH32 0x0 AND SWAP1 PUSH4 0x23B872DD SWAP1 PUSH2 0x1967 SWAP1 CALLER SWAP1 ADDRESS SWAP1 DUP10 SWAP1 PUSH1 0x4 ADD PUSH2 0x31F7 JUMP JUMPDEST PUSH1 0x20 PUSH1 0x40 MLOAD DUP1 DUP4 SUB DUP2 PUSH1 0x0 DUP8 DUP1 EXTCODESIZE ISZERO DUP1 ISZERO PUSH2 0x1981 JUMPI PUSH1 0x0 DUP1 REVERT JUMPDEST POP GAS CALL ISZERO DUP1 ISZERO PUSH2 0x1995 JUMPI RETURNDATASIZE PUSH1 0x0 DUP1 RETURNDATACOPY RETURNDATASIZE PUSH1 0x0 REVERT JUMPDEST POP POP POP POP PUSH1 0x40 MLOAD RETURNDATASIZE PUSH1 0x1F NOT PUSH1 0x1F DUP3 ADD AND DUP3 ADD DUP1 PUSH1 0x40 MSTORE POP DUP2 ADD SWAP1 PUSH2 0x19B9 SWAP2 SWAP1 PUSH2 0x316E JUMP JUMPDEST SWAP1 POP DUP1 PUSH2 0x19D9 JUMPI PUSH1 0x40 MLOAD PUSH4 0x3BDF630F PUSH1 0xE1 SHL DUP2 MSTORE PUSH1 0x4 ADD PUSH1 0x40 MLOAD DUP1 SWAP2 SUB SWAP1 REVERT JUMPDEST PUSH9 0x2B5E3AF16B1880000 PUSH2 0x1A12 PUSH32 0x0 PUSH2 0x114B PUSH1 0xC8 DUP9 PUSH2 0x31A6 JUMP JUMPDEST LT PUSH2 0x1AD7 JUMPI PUSH2 0x1A4A PUSH9 0x2B5E3AF16B1880000 PUSH32 0x0 PUSH2 0x2E32 JUMP JUMPDEST PUSH2 0x1A54 SWAP1 DUP6 PUSH2 0x31C8 JUMP JUMPDEST DUP3 MSTORE PUSH2 0x1A89 PUSH9 0x2B5E3AF16B1880000 PUSH32 0x0 PUSH2 0x2E32 JUMP JUMPDEST PUSH1 0x1 PUSH1 0x1 PUSH1 0xA0 SHL SUB PUSH32 0x0 AND PUSH1 0x0 SWAP1 DUP2 MSTORE PUSH1 0x2 PUSH1 0x20 MSTORE PUSH1 0x40 DUP2 KECCAK256 DUP1 SLOAD SWAP1 SWAP2 SWAP1 PUSH2 0x1AD1 SWAP1 DUP5 SWAP1 PUSH2 0x31DF JUMP JUMPDEST SWAP1 SWAP2 SSTORE POP POP JUMPDEST PUSH9 0x2B5E3AF16B1880000 PUSH2 0x1B0B DUP6 PUSH32 0x0 PUSH2 0x2DFC JUMP JUMPDEST LT ISZERO PUSH2 0x18D4 JUMPI PUSH2 0x1B1C PUSH1 0xC8 DUP6 PUSH2 0x31A6 JUMP JUMPDEST PUSH2 0x1B26 SWAP1 DUP6 PUSH2 0x31C8 JUMP JUMPDEST DUP3 MSTORE PUSH2 0x1B33 PUSH1 0xC8 DUP6 PUSH2 0x31A6 JUMP JUMPDEST PUSH1 0x1 PUSH1 0x1 PUSH1 0xA0 SHL SUB PUSH32 0x0 AND PUSH1 0x0 SWAP1 DUP2 MSTORE PUSH1 0x2 PUSH1 0x20 MSTORE PUSH1 0x40 DUP2 KECCAK256 DUP1 SLOAD SWAP1 SWAP2 SWAP1 PUSH2 0x18CE SWAP1 DUP5 SWAP1 PUSH2 0x31DF JUMP JUMPDEST PUSH32 0x0 PUSH1 0x1 PUSH1 0x1 PUSH1 0xA0 SHL SUB AND DUP5 PUSH1 0x1 PUSH1 0x1 PUSH1 0xA0 SHL SUB AND EQ ISZERO PUSH2 0x1E1C JUMPI PUSH1 0x40 MLOAD PUSH4 0x23B872DD PUSH1 0xE0 SHL DUP2 MSTORE PUSH1 0x0 SWAP1 PUSH1 0x1 PUSH1 0x1 PUSH1 0xA0 SHL SUB PUSH32 0x0 AND SWAP1 PUSH4 0x23B872DD SWAP1 PUSH2 0x1C08 SWAP1 CALLER SWAP1 ADDRESS SWAP1 DUP10 SWAP1 PUSH1 0x4 ADD PUSH2 0x31F7 JUMP JUMPDEST PUSH1 0x20 PUSH1 0x40 MLOAD DUP1 DUP4 SUB DUP2 PUSH1 0x0 DUP8 DUP1 EXTCODESIZE ISZERO DUP1 ISZERO PUSH2 0x1C22 JUMPI PUSH1 0x0 DUP1 REVERT JUMPDEST POP GAS CALL ISZERO DUP1 ISZERO PUSH2 0x1C36 JUMPI RETURNDATASIZE PUSH1 0x0 DUP1 RETURNDATACOPY RETURNDATASIZE PUSH1 0x0 REVERT JUMPDEST POP POP POP POP PUSH1 0x40 MLOAD RETURNDATASIZE PUSH1 0x1F NOT PUSH1 0x1F DUP3 ADD AND DUP3 ADD DUP1 PUSH1 0x40 MSTORE POP DUP2 ADD SWAP1 PUSH2 0x1C5A SWAP2 SWAP1 PUSH2 0x316E JUMP JUMPDEST SWAP1 POP DUP1 PUSH2 0x1C7A JUMPI PUSH1 0x40 MLOAD PUSH4 0x3BDF630F PUSH1 0xE1 SHL DUP2 MSTORE PUSH1 0x4 ADD PUSH1 0x40 MLOAD DUP1 SWAP2 SUB SWAP1 REVERT JUMPDEST PUSH9 0x2B5E3AF16B1880000 PUSH2 0x1CB3 PUSH32 0x0 PUSH2 0x114B PUSH1 0xC8 DUP9 PUSH2 0x31A6 JUMP JUMPDEST LT PUSH2 0x1D78 JUMPI PUSH2 0x1CEB PUSH9 0x2B5E3AF16B1880000 PUSH32 0x0 PUSH2 0x2E32 JUMP JUMPDEST PUSH2 0x1CF5 SWAP1 DUP6 PUSH2 0x31C8 JUMP JUMPDEST DUP3 MSTORE PUSH2 0x1D2A PUSH9 0x2B5E3AF16B1880000 PUSH32 0x0 PUSH2 0x2E32 JUMP JUMPDEST PUSH1 0x1 PUSH1 0x1 PUSH1 0xA0 SHL SUB PUSH32 0x0 AND PUSH1 0x0 SWAP1 DUP2 MSTORE PUSH1 0x2 PUSH1 0x20 MSTORE PUSH1 0x40 DUP2 KECCAK256 DUP1 SLOAD SWAP1 SWAP2 SWAP1 PUSH2 0x1D72 SWAP1 DUP5 SWAP1 PUSH2 0x31DF JUMP JUMPDEST SWAP1 SWAP2 SSTORE POP POP JUMPDEST PUSH9 0x2B5E3AF16B1880000 PUSH2 0x1DAC DUP6 PUSH32 0x0 PUSH2 0x2DFC JUMP JUMPDEST LT ISZERO PUSH2 0x18D4 JUMPI PUSH2 0x1DBD PUSH1 0xC8 DUP6 PUSH2 0x31A6 JUMP JUMPDEST PUSH2 0x1DC7 SWAP1 DUP6 PUSH2 0x31C8 JUMP JUMPDEST DUP3 MSTORE PUSH2 0x1DD4 PUSH1 0xC8 DUP6 PUSH2 0x31A6 JUMP JUMPDEST PUSH1 0x1 PUSH1 0x1 PUSH1 0xA0 SHL SUB PUSH32 0x0 AND PUSH1 0x0 SWAP1 DUP2 MSTORE PUSH1 0x2 PUSH1 0x20 MSTORE PUSH1 0x40 DUP2 KECCAK256 DUP1 SLOAD SWAP1 SWAP2 SWAP1 PUSH2 0x18CE SWAP1 DUP5 SWAP1 PUSH2 0x31DF JUMP JUMPDEST PUSH32 0x0 PUSH1 0x1 PUSH1 0x1 PUSH1 0xA0 SHL SUB AND DUP5 PUSH1 0x1 PUSH1 0x1 PUSH1 0xA0 SHL SUB AND EQ ISZERO PUSH2 0x20C5 JUMPI PUSH1 0x40 MLOAD PUSH4 0x23B872DD PUSH1 0xE0 SHL DUP2 MSTORE PUSH1 0x0 SWAP1 PUSH1 0x1 PUSH1 0x1 PUSH1 0xA0 SHL SUB PUSH32 0x0 AND SWAP1 PUSH4 0x23B872DD SWAP1 PUSH2 0x1EA9 SWAP1 CALLER SWAP1 ADDRESS SWAP1 DUP10 SWAP1 PUSH1 0x4 ADD PUSH2 0x31F7 JUMP JUMPDEST PUSH1 0x20 PUSH1 0x40 MLOAD DUP1 DUP4 SUB DUP2 PUSH1 0x0 DUP8 DUP1 EXTCODESIZE ISZERO DUP1 ISZERO PUSH2 0x1EC3 JUMPI PUSH1 0x0 DUP1 REVERT JUMPDEST POP GAS CALL ISZERO DUP1 ISZERO PUSH2 0x1ED7 JUMPI RETURNDATASIZE PUSH1 0x0 DUP1 RETURNDATACOPY RETURNDATASIZE PUSH1 0x0 REVERT JUMPDEST POP POP POP POP PUSH1 0x40 MLOAD RETURNDATASIZE PUSH1 0x1F NOT PUSH1 0x1F DUP3 ADD AND DUP3 ADD DUP1 PUSH1 0x40 MSTORE POP DUP2 ADD SWAP1 PUSH2 0x1EFB SWAP2 SWAP1 PUSH2 0x316E JUMP JUMPDEST SWAP1 POP DUP1 PUSH2 0x1F1B JUMPI PUSH1 0x40 MLOAD PUSH4 0x3BDF630F PUSH1 0xE1 SHL DUP2 MSTORE PUSH1 0x4 ADD PUSH1 0x40 MLOAD DUP1 SWAP2 SUB SWAP1 REVERT JUMPDEST PUSH9 0x2B5E3AF16B1880000 PUSH2 0x1F54 PUSH32 0x0 PUSH2 0x114B PUSH1 0xC8 DUP9 PUSH2 0x31A6 JUMP JUMPDEST LT PUSH2 0x2019 JUMPI PUSH2 0x1F8C PUSH9 0x2B5E3AF16B1880000 PUSH32 0x0 PUSH2 0x2E32 JUMP JUMPDEST PUSH2 0x1F96 SWAP1 DUP6 PUSH2 0x31C8 JUMP JUMPDEST DUP3 MSTORE PUSH2 0x1FCB PUSH9 0x2B5E3AF16B1880000 PUSH32 0x0 PUSH2 0x2E32 JUMP JUMPDEST PUSH1 0x1 PUSH1 0x1 PUSH1 0xA0 SHL SUB PUSH32 0x0 AND PUSH1 0x0 SWAP1 DUP2 MSTORE PUSH1 0x2 PUSH1 0x20 MSTORE PUSH1 0x40 DUP2 KECCAK256 DUP1 SLOAD SWAP1 SWAP2 SWAP1 PUSH2 0x2013 SWAP1 DUP5 SWAP1 PUSH2 0x31DF JUMP JUMPDEST SWAP1 SWAP2 SSTORE POP POP JUMPDEST PUSH9 0x2B5E3AF16B1880000 PUSH2 0x204D DUP6 PUSH32 0x0 PUSH2 0x2DFC JUMP JUMPDEST LT ISZERO PUSH2 0x20C3 JUMPI PUSH2 0x205E PUSH1 0xC8 DUP6 PUSH2 0x31A6 JUMP JUMPDEST PUSH2 0x2068 SWAP1 DUP6 PUSH2 0x31C8 JUMP JUMPDEST DUP3 MSTORE PUSH2 0x2075 PUSH1 0xC8 DUP6 PUSH2 0x31A6 JUMP JUMPDEST PUSH1 0x1 PUSH1 0x1 PUSH1 0xA0 SHL SUB PUSH32 0x0 AND PUSH1 0x0 SWAP1 DUP2 MSTORE PUSH1 0x2 PUSH1 0x20 MSTORE PUSH1 0x40 DUP2 KECCAK256 DUP1 SLOAD SWAP1 SWAP2 SWAP1 PUSH2 0x20BD SWAP1 DUP5 SWAP1 PUSH2 0x31DF JUMP JUMPDEST SWAP1 SWAP2 SSTORE POP POP JUMPDEST POP JUMPDEST CALLER PUSH1 0x20 DUP3 DUP2 ADD DUP3 SWAP1 MSTORE PUSH1 0x1 PUSH1 0x1 PUSH1 0xA0 SHL SUB DUP9 DUP2 AND PUSH1 0x40 DUP1 DUP7 ADD DUP3 SWAP1 MSTORE PUSH1 0x0 SWAP5 DUP6 MSTORE PUSH1 0x3 DUP5 MSTORE DUP1 DUP6 KECCAK256 SLOAD PUSH1 0x60 DUP8 ADD MSTORE SWAP1 DUP5 MSTORE PUSH1 0x4 SWAP1 SWAP3 MSTORE SWAP1 DUP3 KECCAK256 SLOAD PUSH1 0x80 DUP5 ADD MSTORE PUSH1 0xA0 DUP4 ADD DUP8 SWAP1 MSTORE DUP6 AND PUSH1 0xC0 DUP4 ADD MSTORE PUSH1 0xE0 DUP3 ADD DUP2 SWAP1 MSTORE POP CALLER PUSH1 0x0 SWAP1 DUP2 MSTORE PUSH1 0x3 PUSH1 0x20 DUP2 DUP2 MSTORE PUSH1 0x40 DUP1 DUP5 KECCAK256 DUP1 SLOAD PUSH1 0x1 DUP1 DUP3 ADD DUP4 SSTORE SWAP2 DUP7 MSTORE SWAP5 DUP4 SWAP1 KECCAK256 DUP7 MLOAD PUSH1 0x7 SWAP1 SWAP7 MUL ADD SWAP5 DUP6 SSTORE SWAP2 DUP6 ADD MLOAD SWAP2 DUP5 ADD DUP1 SLOAD PUSH1 0x1 PUSH1 0x1 PUSH1 0xA0 SHL SUB NOT SWAP1 DUP2 AND PUSH1 0x1 PUSH1 0x1 PUSH1 0xA0 SHL SUB SWAP5 DUP6 AND OR SWAP1 SWAP2 SSTORE SWAP1 DUP6 ADD MLOAD PUSH1 0x2 DUP1 DUP7 ADD DUP1 SLOAD DUP5 AND SWAP3 DUP6 AND SWAP3 SWAP1 SWAP3 OR SWAP1 SWAP2 SSTORE PUSH1 0x60 DUP7 ADD MLOAD SWAP4 DUP6 ADD SWAP4 SWAP1 SWAP4 SSTORE PUSH1 0x80 DUP6 ADD MLOAD PUSH1 0x4 DUP6 ADD SSTORE PUSH1 0xA0 DUP6 ADD MLOAD PUSH1 0x5 DUP6 ADD SSTORE PUSH1 0xC0 DUP6 ADD MLOAD PUSH1 0x6 DUP6 ADD DUP1 SLOAD SWAP3 DUP4 AND SWAP2 SWAP1 SWAP4 AND SWAP1 DUP2 OR DUP4 SSTORE PUSH1 0xE0 DUP7 ADD MLOAD DUP7 SWAP6 SWAP5 SWAP1 SWAP4 SWAP3 PUSH1 0x1 PUSH1 0x1 PUSH1 0xA8 SHL SUB NOT AND SWAP1 SWAP2 OR SWAP1 PUSH1 0x1 PUSH1 0xA0 SHL SWAP1 DUP5 SWAP1 DUP2 GT ISZERO PUSH2 0x21E9 JUMPI PUSH2 0x21E9 PUSH2 0x2F10 JUMP JUMPDEST MUL OR SWAP1 SSTORE POP POP POP PUSH1 0x1 PUSH1 0x1 PUSH1 0xA0 SHL SUB DUP1 DUP8 AND PUSH1 0x0 SWAP1 DUP2 MSTORE PUSH1 0x4 PUSH1 0x20 DUP2 DUP2 MSTORE PUSH1 0x40 DUP1 DUP5 KECCAK256 DUP1 SLOAD PUSH1 0x1 DUP2 DUP2 ADD DUP4 SSTORE SWAP2 DUP7 MSTORE SWAP5 DUP4 SWAP1 KECCAK256 DUP8 MLOAD PUSH1 0x7 SWAP1 SWAP7 MUL ADD SWAP5 DUP6 SSTORE SWAP2 DUP7 ADD MLOAD SWAP2 DUP5 ADD DUP1 SLOAD SWAP3 DUP7 AND PUSH1 0x1 PUSH1 0x1 PUSH1 0xA0 SHL SUB NOT SWAP4 DUP5 AND OR SWAP1 SSTORE DUP6 ADD MLOAD PUSH1 0x2 DUP1 DUP6 ADD DUP1 SLOAD SWAP3 DUP8 AND SWAP3 DUP5 AND SWAP3 SWAP1 SWAP3 OR SWAP1 SWAP2 SSTORE PUSH1 0x60 DUP7 ADD MLOAD PUSH1 0x3 DUP6 ADD SSTORE PUSH1 0x80 DUP7 ADD MLOAD SWAP3 DUP5 ADD SWAP3 SWAP1 SWAP3 SSTORE PUSH1 0xA0 DUP6 ADD MLOAD PUSH1 0x5 DUP5 ADD SSTORE PUSH1 0xC0 DUP6 ADD MLOAD PUSH1 0x6 DUP5 ADD DUP1 SLOAD SWAP2 SWAP1 SWAP6 AND SWAP2 DUP2 AND DUP3 OR DUP6 SSTORE PUSH1 0xE0 DUP7 ADD MLOAD DUP7 SWAP6 SWAP1 SWAP4 SWAP1 SWAP3 PUSH1 0x1 PUSH1 0x1 PUSH1 0xA8 SHL SUB NOT SWAP1 SWAP3 AND SWAP1 SWAP2 OR SWAP1 PUSH1 0x1 PUSH1 0xA0 SHL SWAP1 DUP5 SWAP1 DUP2 GT ISZERO PUSH2 0x22C1 JUMPI PUSH2 0x22C1 PUSH2 0x2F10 JUMP JUMPDEST MUL OR SWAP1 SSTORE POP POP POP DUP1 PUSH1 0x40 MLOAD PUSH2 0x22D6 SWAP2 SWAP1 PUSH2 0x30EA JUMP JUMPDEST PUSH1 0x40 MLOAD SWAP1 DUP2 SWAP1 SUB DUP2 KECCAK256 SWAP1 CALLER SWAP1 PUSH32 0x14F09417CD81E1BFBA59388F82B41657119F594C9C473945C0EA1311C6486939 SWAP1 PUSH1 0x0 SWAP1 LOG3 POP POP JUMPDEST POP POP POP POP JUMP JUMPDEST PUSH1 0x1 PUSH1 0x1 PUSH1 0xA0 SHL SUB DUP2 AND PUSH1 0x0 SWAP1 DUP2 MSTORE PUSH1 0x4 PUSH1 0x20 SWAP1 DUP2 MSTORE PUSH1 0x40 DUP1 DUP4 KECCAK256 DUP1 SLOAD DUP3 MLOAD DUP2 DUP6 MUL DUP2 ADD DUP6 ADD SWAP1 SWAP4 MSTORE DUP1 DUP4 MSTORE PUSH1 0x60 SWAP5 SWAP3 SWAP4 SWAP2 SWAP3 SWAP1 SWAP2 DUP5 ADD JUMPDEST DUP3 DUP3 LT ISZERO PUSH2 0x418 JUMPI PUSH1 0x0 DUP5 DUP2 MSTORE PUSH1 0x20 SWAP1 DUP2 SWAP1 KECCAK256 PUSH1 0x40 DUP1 MLOAD PUSH2 0x100 DUP2 ADD DUP3 MSTORE PUSH1 0x7 DUP7 MUL SWAP1 SWAP3 ADD DUP1 SLOAD DUP4 MSTORE PUSH1 0x1 DUP2 ADD SLOAD PUSH1 0x1 PUSH1 0x1 PUSH1 0xA0 SHL SUB SWAP1 DUP2 AND SWAP5 DUP5 ADD SWAP5 SWAP1 SWAP5 MSTORE PUSH1 0x2 DUP1 DUP3 ADD SLOAD DUP6 AND SWAP3 DUP5 ADD SWAP3 SWAP1 SWAP3 MSTORE PUSH1 0x3 DUP2 ADD SLOAD PUSH1 0x60 DUP5 ADD MSTORE PUSH1 0x4 DUP2 ADD SLOAD PUSH1 0x80 DUP5 ADD MSTORE PUSH1 0x5 DUP2 ADD SLOAD PUSH1 0xA0 DUP5 ADD MSTORE PUSH1 0x6 DUP2 ADD SLOAD SWAP4 DUP5 AND PUSH1 0xC0 DUP5 ADD MSTORE SWAP2 SWAP3 PUSH1 0xE0 DUP5 ADD SWAP2 PUSH1 0x1 PUSH1 0xA0 SHL SWAP1 SWAP2 DIV PUSH1 0xFF AND SWAP1 DUP2 GT ISZERO PUSH2 0x23E5 JUMPI PUSH2 0x23E5 PUSH2 0x2F10 JUMP JUMPDEST PUSH1 0x2 DUP2 GT ISZERO PUSH2 0x23F6 JUMPI PUSH2 0x23F6 PUSH2 0x2F10 JUMP JUMPDEST DUP2 MSTORE POP POP DUP2 MSTORE PUSH1 0x20 ADD SWAP1 PUSH1 0x1 ADD SWAP1 PUSH2 0x2349 JUMP JUMPDEST PUSH1 0x0 PUSH1 0x4 PUSH1 0x0 PUSH2 0x2417 PUSH2 0x2D29 JUMP JUMPDEST PUSH1 0x1 PUSH1 0x1 PUSH1 0xA0 SHL SUB AND PUSH1 0x1 PUSH1 0x1 PUSH1 0xA0 SHL SUB AND DUP2 MSTORE PUSH1 0x20 ADD SWAP1 DUP2 MSTORE PUSH1 0x20 ADD PUSH1 0x0 KECCAK256 DUP1 SLOAD DUP1 PUSH1 0x20 MUL PUSH1 0x20 ADD PUSH1 0x40 MLOAD SWAP1 DUP2 ADD PUSH1 0x40 MSTORE DUP1 SWAP3 SWAP2 SWAP1 DUP2 DUP2 MSTORE PUSH1 0x20 ADD PUSH1 0x0 SWAP1 JUMPDEST DUP3 DUP3 LT ISZERO PUSH2 0x2517 JUMPI PUSH1 0x0 DUP5 DUP2 MSTORE PUSH1 0x20 SWAP1 DUP2 SWAP1 KECCAK256 PUSH1 0x40 DUP1 MLOAD PUSH2 0x100 DUP2 ADD DUP3 MSTORE PUSH1 0x7 DUP7 MUL SWAP1 SWAP3 ADD DUP1 SLOAD DUP4 MSTORE PUSH1 0x1 DUP2 ADD SLOAD PUSH1 0x1 PUSH1 0x1 PUSH1 0xA0 SHL SUB SWAP1 DUP2 AND SWAP5 DUP5 ADD SWAP5 SWAP1 SWAP5 MSTORE PUSH1 0x2 DUP1 DUP3 ADD SLOAD DUP6 AND SWAP3 DUP5 ADD SWAP3 SWAP1 SWAP3 MSTORE PUSH1 0x3 DUP2 ADD SLOAD PUSH1 0x60 DUP5 ADD MSTORE PUSH1 0x4 DUP2 ADD SLOAD PUSH1 0x80 DUP5 ADD MSTORE PUSH1 0x5 DUP2 ADD SLOAD PUSH1 0xA0 DUP5 ADD MSTORE PUSH1 0x6 DUP2 ADD SLOAD SWAP4 DUP5 AND PUSH1 0xC0 DUP5 ADD MSTORE SWAP2 SWAP3 PUSH1 0xE0 DUP5 ADD SWAP2 PUSH1 0x1 PUSH1 0xA0 SHL SWAP1 SWAP2 DIV PUSH1 0xFF AND SWAP1 DUP2 GT ISZERO PUSH2 0x24F3 JUMPI PUSH2 0x24F3 PUSH2 0x2F10 JUMP JUMPDEST PUSH1 0x2 DUP2 GT ISZERO PUSH2 0x2504 JUMPI PUSH2 0x2504 PUSH2 0x2F10 JUMP JUMPDEST DUP2 MSTORE POP POP DUP2 MSTORE PUSH1 0x20 ADD SWAP1 PUSH1 0x1 ADD SWAP1 PUSH2 0x2457 JUMP JUMPDEST POP POP POP POP SWAP1 POP DUP1 MLOAD PUSH1 0x0 EQ ISZERO PUSH2 0x2540 JUMPI PUSH1 0x40 MLOAD PUSH4 0x18BE8DB1 PUSH1 0xE1 SHL DUP2 MSTORE PUSH1 0x4 ADD PUSH1 0x40 MLOAD DUP1 SWAP2 SUB SWAP1 REVERT JUMPDEST PUSH1 0x0 JUMPDEST DUP2 MLOAD DUP2 LT ISZERO PUSH2 0x2C3F JUMPI DUP3 DUP3 DUP3 DUP2 MLOAD DUP2 LT PUSH2 0x255F JUMPI PUSH2 0x255F PUSH2 0x30D4 JUMP JUMPDEST PUSH1 0x20 MUL PUSH1 0x20 ADD ADD MLOAD PUSH1 0xA0 ADD MLOAD EQ ISZERO PUSH2 0x2C14 JUMPI PUSH1 0x0 DUP1 DUP4 DUP4 DUP2 MLOAD DUP2 LT PUSH2 0x2586 JUMPI PUSH2 0x2586 PUSH2 0x30D4 JUMP JUMPDEST PUSH1 0x20 MUL PUSH1 0x20 ADD ADD MLOAD PUSH1 0xE0 ADD MLOAD PUSH1 0x2 DUP2 GT ISZERO PUSH2 0x25A3 JUMPI PUSH2 0x25A3 PUSH2 0x2F10 JUMP JUMPDEST EQ ISZERO SWAP1 POP PUSH1 0x0 PUSH2 0x25B1 PUSH2 0x2D29 JUMP JUMPDEST PUSH1 0x1 PUSH1 0x1 PUSH1 0xA0 SHL SUB AND DUP5 DUP5 DUP2 MLOAD DUP2 LT PUSH2 0x25CC JUMPI PUSH2 0x25CC PUSH2 0x30D4 JUMP JUMPDEST PUSH1 0x20 MUL PUSH1 0x20 ADD ADD MLOAD PUSH1 0x40 ADD MLOAD PUSH1 0x1 PUSH1 0x1 PUSH1 0xA0 SHL SUB AND EQ ISZERO SWAP1 POP PUSH1 0x0 DUP3 DUP1 PUSH2 0x25F0 JUMPI POP DUP2 JUMPDEST SWAP1 POP DUP1 ISZERO PUSH2 0x2611 JUMPI PUSH1 0x40 MLOAD PUSH4 0xDE175B07 PUSH1 0xE0 SHL DUP2 MSTORE PUSH1 0x4 ADD PUSH1 0x40 MLOAD DUP1 SWAP2 SUB SWAP1 REVERT JUMPDEST PUSH1 0x2 PUSH1 0x3 PUSH1 0x0 DUP8 DUP8 DUP2 MLOAD DUP2 LT PUSH2 0x2629 JUMPI PUSH2 0x2629 PUSH2 0x30D4 JUMP JUMPDEST PUSH1 0x20 MUL PUSH1 0x20 ADD ADD MLOAD PUSH1 0x20 ADD MLOAD PUSH1 0x1 PUSH1 0x1 PUSH1 0xA0 SHL SUB AND PUSH1 0x1 PUSH1 0x1 PUSH1 0xA0 SHL SUB AND DUP2 MSTORE PUSH1 0x20 ADD SWAP1 DUP2 MSTORE PUSH1 0x20 ADD PUSH1 0x0 KECCAK256 DUP7 DUP7 DUP2 MLOAD DUP2 LT PUSH2 0x2667 JUMPI PUSH2 0x2667 PUSH2 0x30D4 JUMP JUMPDEST PUSH1 0x20 MUL PUSH1 0x20 ADD ADD MLOAD PUSH1 0x60 ADD MLOAD DUP2 SLOAD DUP2 LT PUSH2 0x2683 JUMPI PUSH2 0x2683 PUSH2 0x30D4 JUMP JUMPDEST PUSH1 0x0 SWAP2 DUP3 MSTORE PUSH1 0x20 SWAP1 SWAP2 KECCAK256 PUSH1 0x6 PUSH1 0x7 SWAP1 SWAP3 MUL ADD ADD DUP1 SLOAD PUSH1 0xFF PUSH1 0xA0 SHL NOT AND PUSH1 0x1 PUSH1 0xA0 SHL DUP4 PUSH1 0x2 DUP2 GT ISZERO PUSH2 0x26B6 JUMPI PUSH2 0x26B6 PUSH2 0x2F10 JUMP JUMPDEST MUL OR SWAP1 SSTORE POP PUSH1 0x2 PUSH1 0x4 PUSH1 0x0 PUSH2 0x26C9 PUSH2 0x2D29 JUMP JUMPDEST PUSH1 0x1 PUSH1 0x1 PUSH1 0xA0 SHL SUB AND PUSH1 0x1 PUSH1 0x1 PUSH1 0xA0 SHL SUB AND DUP2 MSTORE PUSH1 0x20 ADD SWAP1 DUP2 MSTORE PUSH1 0x20 ADD PUSH1 0x0 KECCAK256 DUP6 DUP2 SLOAD DUP2 LT PUSH2 0x26FA JUMPI PUSH2 0x26FA PUSH2 0x30D4 JUMP JUMPDEST PUSH1 0x0 SWAP2 DUP3 MSTORE PUSH1 0x20 SWAP1 SWAP2 KECCAK256 PUSH1 0x6 PUSH1 0x7 SWAP1 SWAP3 MUL ADD ADD DUP1 SLOAD PUSH1 0xFF PUSH1 0xA0 SHL NOT AND PUSH1 0x1 PUSH1 0xA0 SHL DUP4 PUSH1 0x2 DUP2 GT ISZERO PUSH2 0x272D JUMPI PUSH2 0x272D PUSH2 0x2F10 JUMP JUMPDEST MUL OR SWAP1 SSTORE POP DUP5 DUP5 DUP2 MLOAD DUP2 LT PUSH2 0x2744 JUMPI PUSH2 0x2744 PUSH2 0x30D4 JUMP JUMPDEST PUSH1 0x20 MUL PUSH1 0x20 ADD ADD MLOAD PUSH1 0x40 MLOAD PUSH2 0x2759 SWAP2 SWAP1 PUSH2 0x30EA JUMP JUMPDEST PUSH1 0x40 MLOAD DUP1 SWAP2 SUB SWAP1 KECCAK256 PUSH2 0x2769 PUSH2 0x2D29 JUMP JUMPDEST PUSH1 0x1 PUSH1 0x1 PUSH1 0xA0 SHL SUB AND PUSH32 0x412146E6C5C0D9FA5D624F14B4C55723679F8838083B2B4EB8875CAB8D78BD1C PUSH1 0x40 MLOAD PUSH1 0x40 MLOAD DUP1 SWAP2 SUB SWAP1 LOG3 PUSH1 0x0 PUSH1 0x1 PUSH1 0x1 PUSH1 0xA0 SHL SUB AND DUP6 DUP6 DUP2 MLOAD DUP2 LT PUSH2 0x27BB JUMPI PUSH2 0x27BB PUSH2 0x30D4 JUMP JUMPDEST PUSH1 0x20 MUL PUSH1 0x20 ADD ADD MLOAD PUSH1 0xC0 ADD MLOAD PUSH1 0x1 PUSH1 0x1 PUSH1 0xA0 SHL SUB AND EQ ISZERO PUSH2 0x2870 JUMPI PUSH1 0x0 PUSH2 0x27E0 PUSH2 0x2D29 JUMP JUMPDEST PUSH1 0x1 PUSH1 0x1 PUSH1 0xA0 SHL SUB AND DUP7 DUP7 DUP2 MLOAD DUP2 LT PUSH2 0x27FB JUMPI PUSH2 0x27FB PUSH2 0x30D4 JUMP JUMPDEST PUSH1 0x20 SWAP1 DUP2 MUL SWAP2 SWAP1 SWAP2 ADD ADD MLOAD MLOAD PUSH1 0x40 MLOAD PUSH1 0x0 DUP2 DUP2 DUP2 DUP6 DUP8 GAS CALL SWAP3 POP POP POP RETURNDATASIZE DUP1 PUSH1 0x0 DUP2 EQ PUSH2 0x2843 JUMPI PUSH1 0x40 MLOAD SWAP2 POP PUSH1 0x1F NOT PUSH1 0x3F RETURNDATASIZE ADD AND DUP3 ADD PUSH1 0x40 MSTORE RETURNDATASIZE DUP3 MSTORE RETURNDATASIZE PUSH1 0x0 PUSH1 0x20 DUP5 ADD RETURNDATACOPY PUSH2 0x2848 JUMP JUMPDEST PUSH1 0x60 SWAP2 POP JUMPDEST POP POP SWAP1 POP DUP1 PUSH2 0x286A JUMPI PUSH1 0x40 MLOAD PUSH4 0x3BDF630F PUSH1 0xE1 SHL DUP2 MSTORE PUSH1 0x4 ADD PUSH1 0x40 MLOAD DUP1 SWAP2 SUB SWAP1 REVERT JUMPDEST POP PUSH2 0x2C0C JUMP JUMPDEST PUSH32 0x0 PUSH1 0x1 PUSH1 0x1 PUSH1 0xA0 SHL SUB AND DUP6 DUP6 DUP2 MLOAD DUP2 LT PUSH2 0x28AC JUMPI PUSH2 0x28AC PUSH2 0x30D4 JUMP JUMPDEST PUSH1 0x20 MUL PUSH1 0x20 ADD ADD MLOAD PUSH1 0xC0 ADD MLOAD PUSH1 0x1 PUSH1 0x1 PUSH1 0xA0 SHL SUB AND EQ ISZERO PUSH2 0x29AD JUMPI PUSH1 0x0 PUSH32 0x0 PUSH1 0x1 PUSH1 0x1 PUSH1 0xA0 SHL SUB AND PUSH4 0xA9059CBB PUSH2 0x2900 PUSH2 0x2D29 JUMP JUMPDEST DUP9 DUP9 DUP2 MLOAD DUP2 LT PUSH2 0x2912 JUMPI PUSH2 0x2912 PUSH2 0x30D4 JUMP JUMPDEST PUSH1 0x20 MUL PUSH1 0x20 ADD ADD MLOAD PUSH1 0x0 ADD MLOAD PUSH1 0x40 MLOAD DUP4 PUSH4 0xFFFFFFFF AND PUSH1 0xE0 SHL DUP2 MSTORE PUSH1 0x4 ADD PUSH2 0x293B SWAP3 SWAP2 SWAP1 PUSH2 0x3155 JUMP JUMPDEST PUSH1 0x20 PUSH1 0x40 MLOAD DUP1 DUP4 SUB DUP2 PUSH1 0x0 DUP8 DUP1 EXTCODESIZE ISZERO DUP1 ISZERO PUSH2 0x2955 JUMPI PUSH1 0x0 DUP1 REVERT JUMPDEST POP GAS CALL ISZERO DUP1 ISZERO PUSH2 0x2969 JUMPI RETURNDATASIZE PUSH1 0x0 DUP1 RETURNDATACOPY RETURNDATASIZE PUSH1 0x0 REVERT JUMPDEST POP POP POP POP PUSH1 0x40 MLOAD RETURNDATASIZE PUSH1 0x1F NOT PUSH1 0x1F DUP3 ADD AND DUP3 ADD DUP1 PUSH1 0x40 MSTORE POP DUP2 ADD SWAP1 PUSH2 0x298D SWAP2 SWAP1 PUSH2 0x316E JUMP JUMPDEST SWAP1 POP DUP1 PUSH2 0x286A JUMPI PUSH1 0x40 MLOAD PUSH4 0x3BDF630F PUSH1 0xE1 SHL DUP2 MSTORE PUSH1 0x4 ADD PUSH1 0x40 MLOAD DUP1 SWAP2 SUB SWAP1 REVERT JUMPDEST PUSH32 0x0 PUSH1 0x1 PUSH1 0x1 PUSH1 0xA0 SHL SUB AND DUP6 DUP6 DUP2 MLOAD DUP2 LT PUSH2 0x29E9 JUMPI PUSH2 0x29E9 PUSH2 0x30D4 JUMP JUMPDEST PUSH1 0x20 MUL PUSH1 0x20 ADD ADD MLOAD PUSH1 0xC0 ADD MLOAD PUSH1 0x1 PUSH1 0x1 PUSH1 0xA0 SHL SUB AND EQ ISZERO PUSH2 0x2A3D JUMPI PUSH1 0x0 PUSH32 0x0 PUSH1 0x1 PUSH1 0x1 PUSH1 0xA0 SHL SUB AND PUSH4 0xA9059CBB PUSH2 0x2900 PUSH2 0x2D29 JUMP JUMPDEST PUSH32 0x0 PUSH1 0x1 PUSH1 0x1 PUSH1 0xA0 SHL SUB AND DUP6 DUP6 DUP2 MLOAD DUP2 LT PUSH2 0x2A79 JUMPI PUSH2 0x2A79 PUSH2 0x30D4 JUMP JUMPDEST PUSH1 0x20 MUL PUSH1 0x20 ADD ADD MLOAD PUSH1 0xC0 ADD MLOAD PUSH1 0x1 PUSH1 0x1 PUSH1 0xA0 SHL SUB AND EQ ISZERO PUSH2 0x2ACD JUMPI PUSH1 0x0 PUSH32 0x0 PUSH1 0x1 PUSH1 0x1 PUSH1 0xA0 SHL SUB AND PUSH4 0xA9059CBB PUSH2 0x2900 PUSH2 0x2D29 JUMP JUMPDEST PUSH32 0x0 PUSH1 0x1 PUSH1 0x1 PUSH1 0xA0 SHL SUB AND DUP6 DUP6 DUP2 MLOAD DUP2 LT PUSH2 0x2B09 JUMPI PUSH2 0x2B09 PUSH2 0x30D4 JUMP JUMPDEST PUSH1 0x20 MUL PUSH1 0x20 ADD ADD MLOAD PUSH1 0xC0 ADD MLOAD PUSH1 0x1 PUSH1 0x1 PUSH1 0xA0 SHL SUB AND EQ ISZERO PUSH2 0x2C0C JUMPI PUSH1 0x0 PUSH32 0x0 PUSH1 0x1 PUSH1 0x1 PUSH1 0xA0 SHL SUB AND PUSH4 0xA9059CBB PUSH2 0x2B5D PUSH2 0x2D29 JUMP JUMPDEST DUP9 DUP9 DUP2 MLOAD DUP2 LT PUSH2 0x2B6F JUMPI PUSH2 0x2B6F PUSH2 0x30D4 JUMP JUMPDEST PUSH1 0x20 MUL PUSH1 0x20 ADD ADD MLOAD PUSH1 0x0 ADD MLOAD PUSH1 0x40 MLOAD DUP4 PUSH4 0xFFFFFFFF AND PUSH1 0xE0 SHL DUP2 MSTORE PUSH1 0x4 ADD PUSH2 0x2B98 SWAP3 SWAP2 SWAP1 PUSH2 0x3155 JUMP JUMPDEST PUSH1 0x20 PUSH1 0x40 MLOAD DUP1 DUP4 SUB DUP2 PUSH1 0x0 DUP8 DUP1 EXTCODESIZE ISZERO DUP1 ISZERO PUSH2 0x2BB2 JUMPI PUSH1 0x0 DUP1 REVERT JUMPDEST POP GAS CALL ISZERO DUP1 ISZERO PUSH2 0x2BC6 JUMPI RETURNDATASIZE PUSH1 0x0 DUP1 RETURNDATACOPY RETURNDATASIZE PUSH1 0x0 REVERT JUMPDEST POP POP POP POP PUSH1 0x40 MLOAD RETURNDATASIZE PUSH1 0x1F NOT PUSH1 0x1F DUP3 ADD AND DUP3 ADD DUP1 PUSH1 0x40 MSTORE POP DUP2 ADD SWAP1 PUSH2 0x2BEA SWAP2 SWAP1 PUSH2 0x316E JUMP JUMPDEST SWAP1 POP DUP1 PUSH2 0x2C0A JUMPI PUSH1 0x40 MLOAD PUSH4 0x3BDF630F PUSH1 0xE1 SHL DUP2 MSTORE PUSH1 0x4 ADD PUSH1 0x40 MLOAD DUP1 SWAP2 SUB SWAP1 REVERT JUMPDEST POP JUMPDEST POP POP POP PUSH2 0x2C2D JUMP JUMPDEST PUSH1 0x40 MLOAD PUSH4 0x3F4BA893 PUSH1 0xE1 SHL DUP2 MSTORE PUSH1 0x4 ADD PUSH1 0x40 MLOAD DUP1 SWAP2 SUB SWAP1 REVERT JUMPDEST DUP1 PUSH2 0x2C37 DUP2 PUSH2 0x321B JUMP JUMPDEST SWAP2 POP POP PUSH2 0x2543 JUMP JUMPDEST POP POP POP JUMP JUMPDEST PUSH1 0x3 PUSH1 0x20 MSTORE DUP2 PUSH1 0x0 MSTORE PUSH1 0x40 PUSH1 0x0 KECCAK256 DUP2 DUP2 SLOAD DUP2 LT PUSH2 0x102E JUMPI PUSH1 0x0 DUP1 REVERT JUMPDEST PUSH2 0x2C68 PUSH2 0x2D33 JUMP JUMPDEST PUSH1 0x1 PUSH1 0x1 PUSH1 0xA0 SHL SUB DUP2 AND PUSH2 0x2CD2 JUMPI PUSH1 0x40 MLOAD PUSH3 0x461BCD PUSH1 0xE5 SHL DUP2 MSTORE PUSH1 0x20 PUSH1 0x4 DUP3 ADD MSTORE PUSH1 0x26 PUSH1 0x24 DUP3 ADD MSTORE PUSH32 0x4F776E61626C653A206E6577206F776E657220697320746865207A65726F2061 PUSH1 0x44 DUP3 ADD MSTORE PUSH6 0x646472657373 PUSH1 0xD0 SHL PUSH1 0x64 DUP3 ADD MSTORE PUSH1 0x84 ADD JUMPDEST PUSH1 0x40 MLOAD DUP1 SWAP2 SUB SWAP1 REVERT JUMPDEST PUSH2 0xF95 DUP2 PUSH2 0x2DAC JUMP JUMPDEST PUSH1 0x0 PUSH32 0x0 PUSH1 0x1 PUSH1 0x1 PUSH1 0xA0 SHL SUB AND CALLER EQ ISZERO PUSH2 0x2D1B JUMPI POP PUSH1 0x13 NOT CALLDATASIZE ADD CALLDATALOAD PUSH1 0x60 SHR SWAP1 JUMP JUMPDEST POP CALLER SWAP1 JUMP JUMPDEST SWAP1 POP SWAP1 JUMP JUMPDEST CALLER SWAP1 JUMP JUMPDEST PUSH1 0x0 PUSH2 0x2D20 PUSH2 0x2CDB JUMP JUMPDEST PUSH2 0x2D3B PUSH2 0x2D29 JUMP JUMPDEST PUSH1 0x1 PUSH1 0x1 PUSH1 0xA0 SHL SUB AND PUSH2 0x2D56 PUSH1 0x0 SLOAD PUSH1 0x1 PUSH1 0x1 PUSH1 0xA0 SHL SUB AND SWAP1 JUMP JUMPDEST PUSH1 0x1 PUSH1 0x1 PUSH1 0xA0 SHL SUB AND EQ PUSH2 0x109C JUMPI PUSH1 0x40 MLOAD PUSH3 0x461BCD PUSH1 0xE5 SHL DUP2 MSTORE PUSH1 0x20 PUSH1 0x4 DUP3 ADD DUP2 SWAP1 MSTORE PUSH1 0x24 DUP3 ADD MSTORE PUSH32 0x4F776E61626C653A2063616C6C6572206973206E6F7420746865206F776E6572 PUSH1 0x44 DUP3 ADD MSTORE PUSH1 0x64 ADD PUSH2 0x2CC9 JUMP JUMPDEST PUSH1 0x0 DUP1 SLOAD PUSH1 0x1 PUSH1 0x1 PUSH1 0xA0 SHL SUB DUP4 DUP2 AND PUSH1 0x1 PUSH1 0x1 PUSH1 0xA0 SHL SUB NOT DUP4 AND DUP2 OR DUP5 SSTORE PUSH1 0x40 MLOAD SWAP2 SWAP1 SWAP3 AND SWAP3 DUP4 SWAP2 PUSH32 0x8BE0079C531659141344CD1FD0A4F28419497F9722A3DAAFE3B4186F6B6457E0 SWAP2 SWAP1 LOG3 POP POP JUMP JUMPDEST PUSH1 0x0 DUP1 PUSH2 0x2E08 DUP4 PUSH2 0x2E4C JUMP JUMPDEST SWAP1 POP PUSH1 0x0 PUSH8 0xDE0B6B3A7640000 PUSH2 0x2E1F DUP4 DUP8 PUSH2 0x3236 JUMP JUMPDEST PUSH2 0x2E29 SWAP2 SWAP1 PUSH2 0x31A6 JUMP JUMPDEST SWAP6 SWAP5 POP POP POP POP POP JUMP JUMPDEST PUSH1 0x0 DUP1 PUSH2 0x2E3E DUP4 PUSH2 0x2E4C JUMP JUMPDEST SWAP1 POP PUSH1 0x0 PUSH2 0x2E29 DUP3 DUP7 PUSH2 0x31A6 JUMP JUMPDEST PUSH1 0x0 DUP1 DUP3 PUSH1 0x1 PUSH1 0x1 PUSH1 0xA0 SHL SUB AND PUSH4 0xFEAF968C PUSH1 0x40 MLOAD DUP2 PUSH4 0xFFFFFFFF AND PUSH1 0xE0 SHL DUP2 MSTORE PUSH1 0x4 ADD PUSH1 0xA0 PUSH1 0x40 MLOAD DUP1 DUP4 SUB DUP2 DUP7 DUP1 EXTCODESIZE ISZERO DUP1 ISZERO PUSH2 0x2E88 JUMPI PUSH1 0x0 DUP1 REVERT JUMPDEST POP GAS STATICCALL ISZERO DUP1 ISZERO PUSH2 0x2E9C JUMPI RETURNDATASIZE PUSH1 0x0 DUP1 RETURNDATACOPY RETURNDATASIZE PUSH1 0x0 REVERT JUMPDEST POP POP POP POP PUSH1 0x40 MLOAD RETURNDATASIZE PUSH1 0x1F NOT PUSH1 0x1F DUP3 ADD AND DUP3 ADD DUP1 PUSH1 0x40 MSTORE POP DUP2 ADD SWAP1 PUSH2 0x2EC0 SWAP2 SWAP1 PUSH2 0x3274 JUMP JUMPDEST POP POP POP SWAP2 POP POP DUP1 PUSH5 0x2540BE400 PUSH2 0x2ED7 SWAP2 SWAP1 PUSH2 0x32C4 JUMP JUMPDEST SWAP4 SWAP3 POP POP POP JUMP JUMPDEST PUSH1 0x1 PUSH1 0x1 PUSH1 0xA0 SHL SUB DUP2 AND DUP2 EQ PUSH2 0xF95 JUMPI PUSH1 0x0 DUP1 REVERT JUMPDEST PUSH1 0x0 PUSH1 0x20 DUP3 DUP5 SUB SLT ISZERO PUSH2 0x2F05 JUMPI PUSH1 0x0 DUP1 REVERT JUMPDEST DUP2 CALLDATALOAD PUSH2 0x2ED7 DUP2 PUSH2 0x2EDE JUMP JUMPDEST PUSH4 0x4E487B71 PUSH1 0xE0 SHL PUSH1 0x0 MSTORE PUSH1 0x21 PUSH1 0x4 MSTORE PUSH1 0x24 PUSH1 0x0 REVERT JUMPDEST PUSH1 0x3 DUP2 LT PUSH2 0x2F44 JUMPI PUSH4 0x4E487B71 PUSH1 0xE0 SHL PUSH1 0x0 MSTORE PUSH1 0x21 PUSH1 0x4 MSTORE PUSH1 0x24 PUSH1 0x0 REVERT JUMPDEST SWAP1 MSTORE JUMP JUMPDEST PUSH1 0x20 DUP1 DUP3 MSTORE DUP3 MLOAD DUP3 DUP3 ADD DUP2 SWAP1 MSTORE PUSH1 0x0 SWAP2 SWAP1 PUSH1 0x40 SWAP1 DUP2 DUP6 ADD SWAP1 DUP7 DUP5 ADD DUP6 JUMPDEST DUP3 DUP2 LT ISZERO PUSH2 0x2FE4 JUMPI DUP2 MLOAD DUP1 MLOAD DUP6 MSTORE DUP7 DUP2 ADD MLOAD PUSH1 0x1 PUSH1 0x1 PUSH1 0xA0 SHL SUB SWAP1 DUP2 AND DUP9 DUP8 ADD MSTORE DUP7 DUP3 ADD MLOAD DUP2 AND DUP8 DUP8 ADD MSTORE PUSH1 0x60 DUP1 DUP4 ADD MLOAD SWAP1 DUP8 ADD MSTORE PUSH1 0x80 DUP1 DUP4 ADD MLOAD SWAP1 DUP8 ADD MSTORE PUSH1 0xA0 DUP1 DUP4 ADD MLOAD SWAP1 DUP8 ADD MSTORE PUSH1 0xC0 DUP1 DUP4 ADD MLOAD SWAP1 SWAP2 AND SWAP1 DUP7 ADD MSTORE PUSH1 0xE0 SWAP1 DUP2 ADD MLOAD SWAP1 PUSH2 0x2FCE DUP2 DUP8 ADD DUP4 PUSH2 0x2F26 JUMP JUMPDEST POP POP PUSH2 0x100 SWAP4 SWAP1 SWAP4 ADD SWAP3 SWAP1 DUP6 ADD SWAP1 PUSH1 0x1 ADD PUSH2 0x2F65 JUMP JUMPDEST POP SWAP2 SWAP8 SWAP7 POP POP POP POP POP POP POP JUMP JUMPDEST PUSH1 0x0 PUSH1 0x20 DUP3 DUP5 SUB SLT ISZERO PUSH2 0x3003 JUMPI PUSH1 0x0 DUP1 REVERT JUMPDEST POP CALLDATALOAD SWAP2 SWAP1 POP JUMP JUMPDEST PUSH1 0x0 DUP1 PUSH1 0x40 DUP4 DUP6 SUB SLT ISZERO PUSH2 0x301D JUMPI PUSH1 0x0 DUP1 REVERT JUMPDEST DUP3 CALLDATALOAD PUSH2 0x3028 DUP2 PUSH2 0x2EDE JUMP JUMPDEST SWAP5 PUSH1 0x20 SWAP4 SWAP1 SWAP4 ADD CALLDATALOAD SWAP4 POP POP POP JUMP JUMPDEST DUP9 DUP2 MSTORE PUSH1 0x1 PUSH1 0x1 PUSH1 0xA0 SHL SUB DUP9 DUP2 AND PUSH1 0x20 DUP4 ADD MSTORE DUP8 DUP2 AND PUSH1 0x40 DUP4 ADD MSTORE PUSH1 0x60 DUP3 ADD DUP8 SWAP1 MSTORE PUSH1 0x80 DUP3 ADD DUP7 SWAP1 MSTORE PUSH1 0xA0 DUP3 ADD DUP6 SWAP1 MSTORE DUP4 AND PUSH1 0xC0 DUP3 ADD MSTORE PUSH2 0x100 DUP2 ADD PUSH2 0x307F PUSH1 0xE0 DUP4 ADD DUP5 PUSH2 0x2F26 JUMP JUMPDEST SWAP10 SWAP9 POP POP POP POP POP POP POP POP POP JUMP JUMPDEST PUSH1 0x0 DUP1 PUSH1 0x0 DUP1 PUSH1 0x80 DUP6 DUP8 SUB SLT ISZERO PUSH2 0x30A2 JUMPI PUSH1 0x0 DUP1 REVERT JUMPDEST DUP5 CALLDATALOAD PUSH2 0x30AD DUP2 PUSH2 0x2EDE JUMP JUMPDEST SWAP4 POP PUSH1 0x20 DUP6 ADD CALLDATALOAD SWAP3 POP PUSH1 0x40 DUP6 ADD CALLDATALOAD PUSH2 0x30C4 DUP2 PUSH2 0x2EDE JUMP JUMPDEST SWAP4 SWAP7 SWAP3 SWAP6 POP SWAP3 SWAP4 PUSH1 0x60 ADD CALLDATALOAD SWAP3 POP POP JUMP JUMPDEST PUSH4 0x4E487B71 PUSH1 0xE0 SHL PUSH1 0x0 MSTORE PUSH1 0x32 PUSH1 0x4 MSTORE PUSH1 0x24 PUSH1 0x0 REVERT JUMPDEST DUP2 MLOAD DUP2 MSTORE PUSH1 0x0 PUSH1 0x1 DUP1 PUSH1 0xA0 SHL SUB DUP1 PUSH1 0x20 DUP6 ADD MLOAD AND PUSH1 0x20 DUP5 ADD MSTORE DUP1 PUSH1 0x40 DUP6 ADD MLOAD AND PUSH1 0x40 DUP5 ADD MSTORE PUSH1 0x60 DUP5 ADD MLOAD PUSH1 0x60 DUP5 ADD MSTORE PUSH1 0x80 DUP5 ADD MLOAD PUSH1 0x80 DUP5 ADD MSTORE PUSH1 0xA0 DUP5 ADD MLOAD PUSH1 0xA0 DUP5 ADD MSTORE DUP1 PUSH1 0xC0 DUP6 ADD MLOAD AND PUSH1 0xC0 DUP5 ADD MSTORE POP PUSH2 0x314B PUSH1 0xE0 DUP4 ADD PUSH1 0xE0 DUP6 ADD MLOAD PUSH2 0x2F26 JUMP JUMPDEST POP PUSH2 0x100 ADD SWAP2 SWAP1 POP JUMP JUMPDEST PUSH1 0x1 PUSH1 0x1 PUSH1 0xA0 SHL SUB SWAP3 SWAP1 SWAP3 AND DUP3 MSTORE PUSH1 0x20 DUP3 ADD MSTORE PUSH1 0x40 ADD SWAP1 JUMP JUMPDEST PUSH1 0x0 PUSH1 0x20 DUP3 DUP5 SUB SLT ISZERO PUSH2 0x3180 JUMPI PUSH1 0x0 DUP1 REVERT JUMPDEST DUP2 MLOAD DUP1 ISZERO ISZERO DUP2 EQ PUSH2 0x2ED7 JUMPI PUSH1 0x0 DUP1 REVERT JUMPDEST PUSH4 0x4E487B71 PUSH1 0xE0 SHL PUSH1 0x0 MSTORE PUSH1 0x11 PUSH1 0x4 MSTORE PUSH1 0x24 PUSH1 0x0 REVERT JUMPDEST PUSH1 0x0 DUP3 PUSH2 0x31C3 JUMPI PUSH4 0x4E487B71 PUSH1 0xE0 SHL PUSH1 0x0 MSTORE PUSH1 0x12 PUSH1 0x4 MSTORE PUSH1 0x24 PUSH1 0x0 REVERT JUMPDEST POP DIV SWAP1 JUMP JUMPDEST PUSH1 0x0 DUP3 DUP3 LT ISZERO PUSH2 0x31DA JUMPI PUSH2 0x31DA PUSH2 0x3190 JUMP JUMPDEST POP SUB SWAP1 JUMP JUMPDEST PUSH1 0x0 DUP3 NOT DUP3 GT ISZERO PUSH2 0x31F2 JUMPI PUSH2 0x31F2 PUSH2 0x3190 JUMP JUMPDEST POP ADD SWAP1 JUMP JUMPDEST PUSH1 0x1 PUSH1 0x1 PUSH1 0xA0 SHL SUB SWAP4 DUP5 AND DUP2 MSTORE SWAP2 SWAP1 SWAP3 AND PUSH1 0x20 DUP3 ADD MSTORE PUSH1 0x40 DUP2 ADD SWAP2 SWAP1 SWAP2 MSTORE PUSH1 0x60 ADD SWAP1 JUMP JUMPDEST PUSH1 0x0 PUSH1 0x0 NOT DUP3 EQ ISZERO PUSH2 0x322F JUMPI PUSH2 0x322F PUSH2 0x3190 JUMP JUMPDEST POP PUSH1 0x1 ADD SWAP1 JUMP JUMPDEST PUSH1 0x0 DUP2 PUSH1 0x0 NOT DIV DUP4 GT DUP3 ISZERO ISZERO AND ISZERO PUSH2 0x3250 JUMPI PUSH2 0x3250 PUSH2 0x3190 JUMP JUMPDEST POP MUL SWAP1 JUMP JUMPDEST DUP1 MLOAD PUSH10 0xFFFFFFFFFFFFFFFFFFFF DUP2 AND DUP2 EQ PUSH2 0x326F JUMPI PUSH1 0x0 DUP1 REVERT JUMPDEST SWAP2 SWAP1 POP JUMP JUMPDEST PUSH1 0x0 DUP1 PUSH1 0x0 DUP1 PUSH1 0x0 PUSH1 0xA0 DUP7 DUP9 SUB SLT ISZERO PUSH2 0x328C JUMPI PUSH1 0x0 DUP1 REVERT JUMPDEST PUSH2 0x3295 DUP7 PUSH2 0x3255 JUMP JUMPDEST SWAP5 POP PUSH1 0x20 DUP7 ADD MLOAD SWAP4 POP PUSH1 0x40 DUP7 ADD MLOAD SWAP3 POP PUSH1 0x60 DUP7 ADD MLOAD SWAP2 POP PUSH2 0x32B8 PUSH1 0x80 DUP8 ADD PUSH2 0x3255 JUMP JUMPDEST SWAP1 POP SWAP3 SWAP6 POP SWAP3 SWAP6 SWAP1 SWAP4 POP JUMP JUMPDEST PUSH1 0x0 PUSH1 0x1 PUSH1 0x1 PUSH1 0xFF SHL SUB DUP2 DUP5 SGT DUP3 DUP5 SGT DUP1 DUP3 AND DUP7 DUP5 DIV DUP7 GT AND ISZERO PUSH2 0x32EA JUMPI PUSH2 0x32EA PUSH2 0x3190 JUMP JUMPDEST PUSH1 0x1 PUSH1 0xFF SHL PUSH1 0x0 DUP8 SLT DUP3 DUP2 AND DUP8 DUP4 SDIV DUP10 SLT AND ISZERO PUSH2 0x3309 JUMPI PUSH2 0x3309 PUSH2 0x3190 JUMP JUMPDEST PUSH1 0x0 DUP8 SLT SWAP3 POP DUP8 DUP3 SDIV DUP8 SLT DUP5 DUP5 AND AND ISZERO PUSH2 0x3325 JUMPI PUSH2 0x3325 PUSH2 0x3190 JUMP JUMPDEST DUP8 DUP6 SDIV DUP8 SLT DUP2 DUP5 AND AND ISZERO PUSH2 0x333B JUMPI PUSH2 0x333B PUSH2 0x3190 JUMP JUMPDEST POP POP POP SWAP3 SWAP1 SWAP4 MUL SWAP4 SWAP3 POP POP POP JUMP INVALID LOG2 PUSH5 0x6970667358 0x22 SLT KECCAK256 0xF6 PUSH1 0x5C 0xCA GAS ADDMOD SWAP9 0xA8 0xE1 POP 0xDA GASLIMIT 0xD5 SWAP8 PUSH1 0xAB LOG0 SWAP16 DUP6 PUSH29 0xCCC173462142FA015AC11EC464736F6C63430008090033000000000000 "
        },
        "methodIdentifiers": {
          "CreatePayement(address,uint256,address,uint256)": "98df6d4b",
          "MAXIMUM_FEE_USD()": "774dee89",
          "RedeemPayment(uint256)": "dc4cf83f",
          "getIssuedPayments(address)": "153b1143",
          "getRedeemablePayments(address)": "c3c0045f",
          "isTrustedForwarder(address)": "572b6c05",
          "owner()": "8da5cb5b",
          "renounceOwnership()": "715018a6",
          "s_PaySafe()": "f1fdbc42",
          "s_PaySafeTokenBalances(address)": "ec09fd05",
          "s_issuedPayments(address,uint256)": "ee23b65a",
          "s_redeemablePayments(address,uint256)": "5463612e",
          "transferOwnership(address)": "f2fde38b",
          "withdrawIssuerPayment(uint256)": "1f102dd2",
          "withdrawPaySafeBalance()": "48502eaa",
          "withdrawPaySafeBalance(address)": "42cdef41"
        }
      }
    }
  }
}