{
  "contracts/PayFactory.sol": {
    "PayLock": {
      "abi": [
        {
          "inputs": [
            {
              "internalType": "contract MinimalForwarder",
              "name": "forwarder",
              "type": "address"
            },
            {
              "internalType": "address",
              "name": "AggregatorNative",
              "type": "address"
            },
            {
              "internalType": "address",
              "name": "AggregatorUSDC",
              "type": "address"
            },
            {
              "internalType": "address",
              "name": "AggregatorUSDT",
              "type": "address"
            },
            {
              "internalType": "address",
              "name": "AggregatorDAI",
              "type": "address"
            },
            {
              "internalType": "address",
              "name": "AggregatordBTC",
              "type": "address"
            },
            {
              "internalType": "address",
              "name": "USDCAddress",
              "type": "address"
            },
            {
              "internalType": "address",
              "name": "USDTAddress",
              "type": "address"
            },
            {
              "internalType": "address",
              "name": "DAIAddress",
              "type": "address"
            },
            {
              "internalType": "address",
              "name": "WBTCAddress",
              "type": "address"
            }
          ],
          "stateMutability": "nonpayable",
          "type": "constructor"
        },
        {
          "inputs": [],
          "name": "__AmountEmpty",
          "type": "error"
        },
        {
          "inputs": [],
          "name": "__InvalidCode",
          "type": "error"
        },
        {
          "inputs": [],
          "name": "__NoReedemablePayments",
          "type": "error"
        },
        {
          "inputs": [],
          "name": "__NotSenderOrNotActive",
          "type": "error"
        },
        {
          "inputs": [],
          "name": "__TransferFailed",
          "type": "error"
        },
        {
          "anonymous": false,
          "inputs": [
            {
              "indexed": true,
              "internalType": "address",
              "name": "previousOwner",
              "type": "address"
            },
            {
              "indexed": true,
              "internalType": "address",
              "name": "newOwner",
              "type": "address"
            }
          ],
          "name": "OwnershipTransferred",
          "type": "event"
        },
        {
          "anonymous": false,
          "inputs": [
            {
              "indexed": true,
              "internalType": "address",
              "name": "sender",
              "type": "address"
            },
            {
              "components": [
                {
                  "internalType": "uint256",
                  "name": "value",
                  "type": "uint256"
                },
                {
                  "internalType": "address payable",
                  "name": "issuer",
                  "type": "address"
                },
                {
                  "internalType": "address payable",
                  "name": "receiver",
                  "type": "address"
                },
                {
                  "internalType": "uint256",
                  "name": "issuerId",
                  "type": "uint256"
                },
                {
                  "internalType": "uint256",
                  "name": "receiverId",
                  "type": "uint256"
                },
                {
                  "internalType": "uint256",
                  "name": "code",
                  "type": "uint256"
                },
                {
                  "internalType": "address",
                  "name": "tokenAddress",
                  "type": "address"
                },
                {
                  "internalType": "enum PayLock.PaymentState",
                  "name": "state",
                  "type": "uint8"
                }
              ],
              "indexed": true,
              "internalType": "struct PayLock.payment",
              "name": "receipt",
              "type": "tuple"
            }
          ],
          "name": "PaymentIssued",
          "type": "event"
        },
        {
          "anonymous": false,
          "inputs": [
            {
              "indexed": true,
              "internalType": "address",
              "name": "receiver",
              "type": "address"
            },
            {
              "components": [
                {
                  "internalType": "uint256",
                  "name": "value",
                  "type": "uint256"
                },
                {
                  "internalType": "address payable",
                  "name": "issuer",
                  "type": "address"
                },
                {
                  "internalType": "address payable",
                  "name": "receiver",
                  "type": "address"
                },
                {
                  "internalType": "uint256",
                  "name": "issuerId",
                  "type": "uint256"
                },
                {
                  "internalType": "uint256",
                  "name": "receiverId",
                  "type": "uint256"
                },
                {
                  "internalType": "uint256",
                  "name": "code",
                  "type": "uint256"
                },
                {
                  "internalType": "address",
                  "name": "tokenAddress",
                  "type": "address"
                },
                {
                  "internalType": "enum PayLock.PaymentState",
                  "name": "state",
                  "type": "uint8"
                }
              ],
              "indexed": true,
              "internalType": "struct PayLock.payment",
              "name": "receipt",
              "type": "tuple"
            }
          ],
          "name": "PaymentReedemed",
          "type": "event"
        },
        {
          "anonymous": false,
          "inputs": [
            {
              "indexed": true,
              "internalType": "address",
              "name": "sender",
              "type": "address"
            },
            {
              "components": [
                {
                  "internalType": "uint256",
                  "name": "value",
                  "type": "uint256"
                },
                {
                  "internalType": "address payable",
                  "name": "issuer",
                  "type": "address"
                },
                {
                  "internalType": "address payable",
                  "name": "receiver",
                  "type": "address"
                },
                {
                  "internalType": "uint256",
                  "name": "issuerId",
                  "type": "uint256"
                },
                {
                  "internalType": "uint256",
                  "name": "receiverId",
                  "type": "uint256"
                },
                {
                  "internalType": "uint256",
                  "name": "code",
                  "type": "uint256"
                },
                {
                  "internalType": "address",
                  "name": "tokenAddress",
                  "type": "address"
                },
                {
                  "internalType": "enum PayLock.PaymentState",
                  "name": "state",
                  "type": "uint8"
                }
              ],
              "indexed": true,
              "internalType": "struct PayLock.payment",
              "name": "receipt",
              "type": "tuple"
            }
          ],
          "name": "PaymentWithdrawn",
          "type": "event"
        },
        {
          "inputs": [
            {
              "internalType": "address payable",
              "name": "_receiver",
              "type": "address"
            },
            {
              "internalType": "uint256",
              "name": "_code",
              "type": "uint256"
            },
            {
              "internalType": "address",
              "name": "_tokenAddress",
              "type": "address"
            },
            {
              "internalType": "uint256",
              "name": "_tokenAmount",
              "type": "uint256"
            }
          ],
          "name": "CreatePayement",
          "outputs": [],
          "stateMutability": "payable",
          "type": "function"
        },
        {
          "inputs": [],
          "name": "MAXIMUM_FEE_USD",
          "outputs": [
            {
              "internalType": "uint256",
              "name": "",
              "type": "uint256"
            }
          ],
          "stateMutability": "view",
          "type": "function"
        },
        {
          "inputs": [
            {
              "internalType": "uint256",
              "name": "_code",
              "type": "uint256"
            }
          ],
          "name": "RedeemPayment",
          "outputs": [],
          "stateMutability": "payable",
          "type": "function"
        },
        {
          "inputs": [
            {
              "internalType": "address",
              "name": "forwarder",
              "type": "address"
            }
          ],
          "name": "isTrustedForwarder",
          "outputs": [
            {
              "internalType": "bool",
              "name": "",
              "type": "bool"
            }
          ],
          "stateMutability": "view",
          "type": "function"
        },
        {
          "inputs": [],
          "name": "owner",
          "outputs": [
            {
              "internalType": "address",
              "name": "",
              "type": "address"
            }
          ],
          "stateMutability": "view",
          "type": "function"
        },
        {
          "inputs": [],
          "name": "renounceOwnership",
          "outputs": [],
          "stateMutability": "nonpayable",
          "type": "function"
        },
        {
          "inputs": [],
          "name": "s_PaySafe",
          "outputs": [
            {
              "internalType": "uint256",
              "name": "",
              "type": "uint256"
            }
          ],
          "stateMutability": "view",
          "type": "function"
        },
        {
          "inputs": [
            {
              "internalType": "address",
              "name": "",
              "type": "address"
            }
          ],
          "name": "s_PaySafeTokenBalances",
          "outputs": [
            {
              "internalType": "uint256",
              "name": "",
              "type": "uint256"
            }
          ],
          "stateMutability": "view",
          "type": "function"
        },
        {
          "inputs": [
            {
              "internalType": "address",
              "name": "",
              "type": "address"
            },
            {
              "internalType": "uint256",
              "name": "",
              "type": "uint256"
            }
          ],
          "name": "s_issuedPayments",
          "outputs": [
            {
              "internalType": "uint256",
              "name": "value",
              "type": "uint256"
            },
            {
              "internalType": "address payable",
              "name": "issuer",
              "type": "address"
            },
            {
              "internalType": "address payable",
              "name": "receiver",
              "type": "address"
            },
            {
              "internalType": "uint256",
              "name": "issuerId",
              "type": "uint256"
            },
            {
              "internalType": "uint256",
              "name": "receiverId",
              "type": "uint256"
            },
            {
              "internalType": "uint256",
              "name": "code",
              "type": "uint256"
            },
            {
              "internalType": "address",
              "name": "tokenAddress",
              "type": "address"
            },
            {
              "internalType": "enum PayLock.PaymentState",
              "name": "state",
              "type": "uint8"
            }
          ],
          "stateMutability": "view",
          "type": "function"
        },
        {
          "inputs": [
            {
              "internalType": "address",
              "name": "",
              "type": "address"
            },
            {
              "internalType": "uint256",
              "name": "",
              "type": "uint256"
            }
          ],
          "name": "s_redeemablePayments",
          "outputs": [
            {
              "internalType": "uint256",
              "name": "value",
              "type": "uint256"
            },
            {
              "internalType": "address payable",
              "name": "issuer",
              "type": "address"
            },
            {
              "internalType": "address payable",
              "name": "receiver",
              "type": "address"
            },
            {
              "internalType": "uint256",
              "name": "issuerId",
              "type": "uint256"
            },
            {
              "internalType": "uint256",
              "name": "receiverId",
              "type": "uint256"
            },
            {
              "internalType": "uint256",
              "name": "code",
              "type": "uint256"
            },
            {
              "internalType": "address",
              "name": "tokenAddress",
              "type": "address"
            },
            {
              "internalType": "enum PayLock.PaymentState",
              "name": "state",
              "type": "uint8"
            }
          ],
          "stateMutability": "view",
          "type": "function"
        },
        {
          "inputs": [
            {
              "internalType": "address",
              "name": "newOwner",
              "type": "address"
            }
          ],
          "name": "transferOwnership",
          "outputs": [],
          "stateMutability": "nonpayable",
          "type": "function"
        },
        {
          "inputs": [
            {
              "internalType": "uint256",
              "name": "index",
              "type": "uint256"
            }
          ],
          "name": "withdrawIssuerPayment",
          "outputs": [],
          "stateMutability": "payable",
          "type": "function"
        },
        {
          "inputs": [
            {
              "internalType": "address",
              "name": "_tokenAddress",
              "type": "address"
            }
          ],
          "name": "withdrawPaySafeBalance",
          "outputs": [],
          "stateMutability": "payable",
          "type": "function"
        },
        {
          "inputs": [],
          "name": "withdrawPaySafeBalance",
          "outputs": [],
          "stateMutability": "payable",
          "type": "function"
        }
      ],
      "evm": {
        "bytecode": {
          "linkReferences": {},
          "object": "6101e06040523480156200001257600080fd5b50604051620034e7380380620034e7833981016040819052620000359162000163565b6001600160a01b038a166080526200005662000050620000a1565b620000bd565b6001600160a01b03998a1660a05297891660c05295881660e052938716610100529186166101205285166101405284166101605283166101805282166101a052166101c05262000251565b6000620000b86200010d60201b62002a851760201c565b905090565b600080546001600160a01b038381166001600160a01b0319831681178455604051919092169283917f8be0079c531659141344cd1fd0a4f28419497f9722a3daafe3b4186f6b6457e09190a35050565b6080516000906001600160a01b031633141562000131575060131936013560601c90565b620000b86200014660201b62002acf1760201c565b3390565b6001600160a01b03811681146200016057600080fd5b50565b6000806000806000806000806000806101408b8d0312156200018457600080fd5b8a5162000191816200014a565b60208c0151909a50620001a4816200014a565b60408c0151909950620001b7816200014a565b60608c0151909850620001ca816200014a565b60808c0151909750620001dd816200014a565b60a08c0151909650620001f0816200014a565b60c08c015190955062000203816200014a565b60e08c015190945062000216816200014a565b6101008c01519093506200022a816200014a565b6101208c01519092506200023e816200014a565b809150509295989b9194979a5092959850565b60805160a05160c05160e05161010051610120516101405161016051610180516101a0516101c05161308062000467600039600081816108040152818161085c01528181610cec01528181610d2e01528181610dff01528181611cb801528181611d0a01528181611e6f01528181611f190152818161288001526128d9015260008181610774015281816107cc01528181610ba501528181610be701528181610cb801528181611a1701528181611a6901528181611bce01528181611c78015281816127e5015261283e0152600081816106e40152818161073c01528181610a5e01528181610aa001528181610b7101528181611776015281816117c80152818161192d015281816119d70152818161274a01526127a30152600081816105e20152818161063a015281816109170152818161095901528181610a2a015281816114c90152818161151b015281816116800152818161172a01528181612614015261266d015260008181611dc401528181611e0201528181611e410152611ec3015260008181611b2301528181611b6101528181611ba00152611c22015260008181611882015281816118c0015281816118ff01526119810152600081816115d5015281816116130152818161165201526116d4015260008181610fbb015281816110000152818161103f01526110b5015260008181611086015261118701526000818161016c0152612a8901526130806000f3fe6080604052600436106100dd5760003560e01c80638da5cb5b1161007f578063ec09fd0511610059578063ec09fd051461023a578063ee23b65a14610267578063f1fdbc4214610287578063f2fde38b1461029d57600080fd5b80638da5cb5b146101ec57806398df6d4b14610214578063dc4cf83f1461022757600080fd5b80635463612e116100bb5780635463612e14610112578063572b6c051461014f578063715018a6146101ac578063774dee89146101c157600080fd5b80631f102dd2146100e257806342cdef41146100f757806348502eaa1461010a575b600080fd5b6100f56100f0366004612c88565b6102bd565b005b6100f5610105366004612cb6565b61090d565b6100f5610e32565b34801561011e57600080fd5b5061013261012d366004612cd3565b610eac565b604051610146989796959493929190612d37565b60405180910390f35b34801561015b57600080fd5b5061019c61016a366004612cb6565b7f00000000000000000000000000000000000000000000000000000000000000006001600160a01b0390811691161490565b6040519015158152602001610146565b3480156101b857600080fd5b506100f5610f24565b3480156101cd57600080fd5b506101de6802b5e3af16b188000081565b604051908152602001610146565b3480156101f857600080fd5b506000546040516001600160a01b039091168152602001610146565b6100f5610222366004612d8d565b610f38565b6100f5610235366004612c88565b6121ab565b34801561024657600080fd5b506101de610255366004612cb6565b60026020526000908152604090205481565b34801561027357600080fd5b50610132610282366004612cd3565b6129ee565b34801561029357600080fd5b506101de60015481565b3480156102a957600080fd5b506100f56102b8366004612cb6565b612a0a565b6000600360006102cb612ad3565b6001600160a01b03166001600160a01b0316815260200190815260200160002082815481106102fc576102fc612dd5565b600091825260209182902060408051610100810182526007939093029091018054835260018101546001600160a01b03908116948401949094526002808201548516928401929092526003810154606084015260048101546080840152600581015460a0840152600681015493841660c0840152919260e0840191600160a01b90910460ff169081111561039257610392612cff565b60028111156103a3576103a3612cff565b90525090506000808260e0015160028111156103c1576103c1612cff565b1415905060006103cf612ad3565b6001600160a01b031683602001516001600160a01b031614159050600082806103f55750815b905080156104165760405163de175b0760e01b815260040160405180910390fd5b6040808501516001600160a01b03166000908152600460205220608085015181546001929190811061044a5761044a612dd5565b60009182526020909120600660079092020101805460ff60a01b1916600160a01b83600281111561047d5761047d612cff565b0217905550600160036000610490612ad3565b6001600160a01b03166001600160a01b0316815260200190815260200160002086815481106104c1576104c1612dd5565b60009182526020909120600660079092020101805460ff60a01b1916600160a01b8360028111156104f4576104f4612cff565b0217905550836040516105079190612deb565b6040518091039020610517612ad3565b6001600160a01b03167f6abd023739f4ff71d95fb906429d7d4beea7738cb65d5b6730bc335fa2ac456460405160405180910390a360c08401516001600160a01b03166105e0576000610568612ad3565b85516040516001600160a01b039290921691600081818185875af1925050503d80600081146105b3576040519150601f19603f3d011682016040523d82523d6000602084013e6105b8565b606091505b50509050806105da57604051633bdf630f60e11b815260040160405180910390fd5b50610906565b7f00000000000000000000000000000000000000000000000000000000000000006001600160a01b03168460c001516001600160a01b031614156106e257835160405163a9059cbb60e01b81526000916001600160a01b037f0000000000000000000000000000000000000000000000000000000000000000169163a9059cbb9161067091339190600401612e56565b602060405180830381600087803b15801561068a57600080fd5b505af115801561069e573d6000803e3d6000fd5b505050506040513d601f19601f820116820180604052508101906106c29190612e6f565b9050806105da57604051633bdf630f60e11b815260040160405180910390fd5b7f00000000000000000000000000000000000000000000000000000000000000006001600160a01b03168460c001516001600160a01b0316141561077257835160405163a9059cbb60e01b81526000916001600160a01b037f0000000000000000000000000000000000000000000000000000000000000000169163a9059cbb9161067091339190600401612e56565b7f00000000000000000000000000000000000000000000000000000000000000006001600160a01b03168460c001516001600160a01b0316141561080257835160405163a9059cbb60e01b81526000916001600160a01b037f0000000000000000000000000000000000000000000000000000000000000000169163a9059cbb9161067091339190600401612e56565b7f00000000000000000000000000000000000000000000000000000000000000006001600160a01b03168460c001516001600160a01b0316141561090657835160405163a9059cbb60e01b81526000916001600160a01b037f0000000000000000000000000000000000000000000000000000000000000000169163a9059cbb9161089291339190600401612e56565b602060405180830381600087803b1580156108ac57600080fd5b505af11580156108c0573d6000803e3d6000fd5b505050506040513d601f19601f820116820180604052508101906108e49190612e6f565b90508061090457604051633bdf630f60e11b815260040160405180910390fd5b505b5050505050565b610915612add565b7f00000000000000000000000000000000000000000000000000000000000000006001600160a01b0316816001600160a01b03161415610a5c576001600160a01b037f00000000000000000000000000000000000000000000000000000000000000001660008181526002602052604080822054905163a9059cbb60e01b815291929163a9059cbb916109ad91339190600401612e56565b602060405180830381600087803b1580156109c757600080fd5b505af11580156109db573d6000803e3d6000fd5b505050506040513d601f19601f820116820180604052508101906109ff9190612e6f565b905080610a1f57604051633bdf630f60e11b815260040160405180910390fd5b506001600160a01b037f00000000000000000000000000000000000000000000000000000000000000001660009081526002602052604081205550565b7f00000000000000000000000000000000000000000000000000000000000000006001600160a01b0316816001600160a01b03161415610ba3576001600160a01b037f00000000000000000000000000000000000000000000000000000000000000001660008181526002602052604080822054905163a9059cbb60e01b815291929163a9059cbb91610af491339190600401612e56565b602060405180830381600087803b158015610b0e57600080fd5b505af1158015610b22573d6000803e3d6000fd5b505050506040513d601f19601f82011682018060405250810190610b469190612e6f565b905080610b6657604051633bdf630f60e11b815260040160405180910390fd5b506001600160a01b037f00000000000000000000000000000000000000000000000000000000000000001660009081526002602052604081205550565b7f00000000000000000000000000000000000000000000000000000000000000006001600160a01b0316816001600160a01b03161415610cea576001600160a01b037f00000000000000000000000000000000000000000000000000000000000000001660008181526002602052604080822054905163a9059cbb60e01b815291929163a9059cbb91610c3b91339190600401612e56565b602060405180830381600087803b158015610c5557600080fd5b505af1158015610c69573d6000803e3d6000fd5b505050506040513d601f19601f82011682018060405250810190610c8d9190612e6f565b905080610cad57604051633bdf630f60e11b815260040160405180910390fd5b506001600160a01b037f00000000000000000000000000000000000000000000000000000000000000001660009081526002602052604081205550565b7f00000000000000000000000000000000000000000000000000000000000000006001600160a01b0316816001600160a01b03161415610e2f576001600160a01b037f00000000000000000000000000000000000000000000000000000000000000001660008181526002602052604080822054905163a9059cbb60e01b815291929163a9059cbb91610d8291339190600401612e56565b602060405180830381600087803b158015610d9c57600080fd5b505af1158015610db0573d6000803e3d6000fd5b505050506040513d601f19601f82011682018060405250810190610dd49190612e6f565b905080610df457604051633bdf630f60e11b815260040160405180910390fd5b506001600160a01b037f0000000000000000000000000000000000000000000000000000000000000000166000908152600260205260408120555b50565b610e3a612add565b60015460405160009133918381818185875af1925050503d8060008114610e7d576040519150601f19603f3d011682016040523d82523d6000602084013e610e82565b606091505b5050905080610ea457604051633bdf630f60e11b815260040160405180910390fd5b506000600155565b60046020528160005260406000208181548110610ec857600080fd5b600091825260209091206007909102018054600182015460028301546003840154600485015460058601546006909601549497506001600160a01b0393841696509183169490939192909190811690600160a01b900460ff1688565b610f2c612add565b610f366000612b56565b565b6001600160a01b0382166114615734158015610f675760405163183bb67760e21b815260040160405180910390fd5b610fac6040805161010081018252600080825260208201819052918101829052606081018290526080810182905260a0810182905260c081018290529060e082015290565b6802b5e3af16b1880000610feb7f0000000000000000000000000000000000000000000000000000000000000000610fe560c834612ea7565b90612ba6565b1115611142576110246802b5e3af16b18800007f0000000000000000000000000000000000000000000000000000000000000000612bdc565b61102e9034612ec9565b81526110636802b5e3af16b18800007f0000000000000000000000000000000000000000000000000000000000000000612bdc565b600160008282546110749190612ee0565b90915550600090506001600160a01b037f0000000000000000000000000000000000000000000000000000000000000000166110d96802b5e3af16b18800007f0000000000000000000000000000000000000000000000000000000000000000612bdc565b604051600081818185875af1925050503d8060008114611115576040519150601f19603f3d011682016040523d82523d6000602084013e61111a565b606091505b505090508061113c57604051633bdf630f60e11b815260040160405180910390fd5b50611217565b61114d60c834612ea7565b6111579034612ec9565b815261116460c834612ea7565b600160008282546111759190612ee0565b90915550600090506001600160a01b037f0000000000000000000000000000000000000000000000000000000000000000166111b260c834612ea7565b604051600081818185875af1925050503d80600081146111ee576040519150601f19603f3d011682016040523d82523d6000602084013e6111f3565b606091505b505090508061121557604051633bdf630f60e11b815260040160405180910390fd5b505b3360208281018290526001600160a01b038881166040808601829052600094855260038452808520546060870152908452600490925290822054608084015260a08301879052851660c083015260e08201819052503360009081526003602081815260408084208054600180820183559186529483902086516007909602019485559185015191840180546001600160a01b03199081166001600160a01b039485161790915590850151600280860180548416928516929092179091556060860151938501939093556080850151600485015560a0850151600585015560c085015160068501805492831691909316908117835560e08601518695949093926001600160a81b03191690911790600160a01b90849081111561133b5761133b612cff565b021790555050506001600160a01b0380871660009081526004602081815260408084208054600181810183559186529483902087516007909602019485559186015191840180549286166001600160a01b031993841617905585015160028085018054928716928416929092179091556060860151600385015560808601519284019290925560a0850151600584015560c0850151600684018054919095169181168217855560e08601518695909390926001600160a81b031990921690911790600160a01b90849081111561141357611413612cff565b02179055505050806040516114289190612deb565b6040519081900381209033907f14f09417cd81e1bfba59388f82b41657119f594c9c473945c0ea1311c648693990600090a350506121a5565b801580156114825760405163183bb67760e21b815260040160405180910390fd5b6114c76040805161010081018252600080825260208201819052918101829052606081018290526080810182905260a0810182905260c081018290529060e082015290565b7f00000000000000000000000000000000000000000000000000000000000000006001600160a01b0316846001600160a01b03161415611774576040516323b872dd60e01b81526000906001600160a01b037f000000000000000000000000000000000000000000000000000000000000000016906323b872dd9061155490339030908990600401612ef8565b602060405180830381600087803b15801561156e57600080fd5b505af1158015611582573d6000803e3d6000fd5b505050506040513d601f19601f820116820180604052508101906115a69190612e6f565b9050806115c657604051633bdf630f60e11b815260040160405180910390fd5b6802b5e3af16b18800006115ff7f0000000000000000000000000000000000000000000000000000000000000000610fe560c888612ea7565b106116c4576116376802b5e3af16b18800007f0000000000000000000000000000000000000000000000000000000000000000612bdc565b6116419085612ec9565b82526116766802b5e3af16b18800007f0000000000000000000000000000000000000000000000000000000000000000612bdc565b6001600160a01b037f000000000000000000000000000000000000000000000000000000000000000016600090815260026020526040812080549091906116be908490612ee0565b90915550505b6802b5e3af16b18800006116f8857f0000000000000000000000000000000000000000000000000000000000000000612ba6565b101561176e5761170960c885612ea7565b6117139085612ec9565b825261172060c885612ea7565b6001600160a01b037f00000000000000000000000000000000000000000000000000000000000000001660009081526002602052604081208054909190611768908490612ee0565b90915550505b50611f5f565b7f00000000000000000000000000000000000000000000000000000000000000006001600160a01b0316846001600160a01b03161415611a15576040516323b872dd60e01b81526000906001600160a01b037f000000000000000000000000000000000000000000000000000000000000000016906323b872dd9061180190339030908990600401612ef8565b602060405180830381600087803b15801561181b57600080fd5b505af115801561182f573d6000803e3d6000fd5b505050506040513d601f19601f820116820180604052508101906118539190612e6f565b90508061187357604051633bdf630f60e11b815260040160405180910390fd5b6802b5e3af16b18800006118ac7f0000000000000000000000000000000000000000000000000000000000000000610fe560c888612ea7565b10611971576118e46802b5e3af16b18800007f0000000000000000000000000000000000000000000000000000000000000000612bdc565b6118ee9085612ec9565b82526119236802b5e3af16b18800007f0000000000000000000000000000000000000000000000000000000000000000612bdc565b6001600160a01b037f0000000000000000000000000000000000000000000000000000000000000000166000908152600260205260408120805490919061196b908490612ee0565b90915550505b6802b5e3af16b18800006119a5857f0000000000000000000000000000000000000000000000000000000000000000612ba6565b101561176e576119b660c885612ea7565b6119c09085612ec9565b82526119cd60c885612ea7565b6001600160a01b037f00000000000000000000000000000000000000000000000000000000000000001660009081526002602052604081208054909190611768908490612ee0565b7f00000000000000000000000000000000000000000000000000000000000000006001600160a01b0316846001600160a01b03161415611cb6576040516323b872dd60e01b81526000906001600160a01b037f000000000000000000000000000000000000000000000000000000000000000016906323b872dd90611aa290339030908990600401612ef8565b602060405180830381600087803b158015611abc57600080fd5b505af1158015611ad0573d6000803e3d6000fd5b505050506040513d601f19601f82011682018060405250810190611af49190612e6f565b905080611b1457604051633bdf630f60e11b815260040160405180910390fd5b6802b5e3af16b1880000611b4d7f0000000000000000000000000000000000000000000000000000000000000000610fe560c888612ea7565b10611c1257611b856802b5e3af16b18800007f0000000000000000000000000000000000000000000000000000000000000000612bdc565b611b8f9085612ec9565b8252611bc46802b5e3af16b18800007f0000000000000000000000000000000000000000000000000000000000000000612bdc565b6001600160a01b037f00000000000000000000000000000000000000000000000000000000000000001660009081526002602052604081208054909190611c0c908490612ee0565b90915550505b6802b5e3af16b1880000611c46857f0000000000000000000000000000000000000000000000000000000000000000612ba6565b101561176e57611c5760c885612ea7565b611c619085612ec9565b8252611c6e60c885612ea7565b6001600160a01b037f00000000000000000000000000000000000000000000000000000000000000001660009081526002602052604081208054909190611768908490612ee0565b7f00000000000000000000000000000000000000000000000000000000000000006001600160a01b0316846001600160a01b03161415611f5f576040516323b872dd60e01b81526000906001600160a01b037f000000000000000000000000000000000000000000000000000000000000000016906323b872dd90611d4390339030908990600401612ef8565b602060405180830381600087803b158015611d5d57600080fd5b505af1158015611d71573d6000803e3d6000fd5b505050506040513d601f19601f82011682018060405250810190611d959190612e6f565b905080611db557604051633bdf630f60e11b815260040160405180910390fd5b6802b5e3af16b1880000611dee7f0000000000000000000000000000000000000000000000000000000000000000610fe560c888612ea7565b10611eb357611e266802b5e3af16b18800007f0000000000000000000000000000000000000000000000000000000000000000612bdc565b611e309085612ec9565b8252611e656802b5e3af16b18800007f0000000000000000000000000000000000000000000000000000000000000000612bdc565b6001600160a01b037f00000000000000000000000000000000000000000000000000000000000000001660009081526002602052604081208054909190611ead908490612ee0565b90915550505b6802b5e3af16b1880000611ee7857f0000000000000000000000000000000000000000000000000000000000000000612ba6565b1015611f5d57611ef860c885612ea7565b611f029085612ec9565b8252611f0f60c885612ea7565b6001600160a01b037f00000000000000000000000000000000000000000000000000000000000000001660009081526002602052604081208054909190611f57908490612ee0565b90915550505b505b3360208281018290526001600160a01b038881166040808601829052600094855260038452808520546060870152908452600490925290822054608084015260a08301879052851660c083015260e08201819052503360009081526003602081815260408084208054600180820183559186529483902086516007909602019485559185015191840180546001600160a01b03199081166001600160a01b039485161790915590850151600280860180548416928516929092179091556060860151938501939093556080850151600485015560a0850151600585015560c085015160068501805492831691909316908117835560e08601518695949093926001600160a81b03191690911790600160a01b90849081111561208357612083612cff565b021790555050506001600160a01b0380871660009081526004602081815260408084208054600181810183559186529483902087516007909602019485559186015191840180549286166001600160a01b031993841617905585015160028085018054928716928416929092179091556060860151600385015560808601519284019290925560a0850151600584015560c0850151600684018054919095169181168217855560e08601518695909390926001600160a81b031990921690911790600160a01b90849081111561215b5761215b612cff565b02179055505050806040516121709190612deb565b6040519081900381209033907f14f09417cd81e1bfba59388f82b41657119f594c9c473945c0ea1311c648693990600090a350505b50505050565b6000600460006121b9612ad3565b6001600160a01b03166001600160a01b03168152602001908152602001600020805480602002602001604051908101604052809291908181526020016000905b828210156122b95760008481526020908190206040805161010081018252600786029092018054835260018101546001600160a01b03908116948401949094526002808201548516928401929092526003810154606084015260048101546080840152600581015460a0840152600681015493841660c0840152919260e0840191600160a01b90910460ff169081111561229557612295612cff565b60028111156122a6576122a6612cff565b81525050815260200190600101906121f9565b5050505090508051600014156122e2576040516318be8db160e11b815260040160405180910390fd5b60005b81518110156129e9578282828151811061230157612301612dd5565b602002602001015160a0015114156129be5760008083838151811061232857612328612dd5565b602002602001015160e00151600281111561234557612345612cff565b141590506000612353612ad3565b6001600160a01b031684848151811061236e5761236e612dd5565b6020026020010151604001516001600160a01b031614159050600082806123925750815b905080156123b35760405163de175b0760e01b815260040160405180910390fd5b6002600360008787815181106123cb576123cb612dd5565b6020026020010151602001516001600160a01b03166001600160a01b0316815260200190815260200160002086868151811061240957612409612dd5565b6020026020010151606001518154811061242557612425612dd5565b60009182526020909120600660079092020101805460ff60a01b1916600160a01b83600281111561245857612458612cff565b021790555060026004600061246b612ad3565b6001600160a01b03166001600160a01b03168152602001908152602001600020858154811061249c5761249c612dd5565b60009182526020909120600660079092020101805460ff60a01b1916600160a01b8360028111156124cf576124cf612cff565b02179055508484815181106124e6576124e6612dd5565b60200260200101516040516124fb9190612deb565b604051809103902061250b612ad3565b6001600160a01b03167f412146e6c5c0d9fa5d624f14b4c55723679f8838083b2b4eb8875cab8d78bd1c60405160405180910390a360006001600160a01b031685858151811061255d5761255d612dd5565b602002602001015160c001516001600160a01b03161415612612576000612582612ad3565b6001600160a01b031686868151811061259d5761259d612dd5565b602090810291909101015151604051600081818185875af1925050503d80600081146125e5576040519150601f19603f3d011682016040523d82523d6000602084013e6125ea565b606091505b505090508061260c57604051633bdf630f60e11b815260040160405180910390fd5b506129b6565b7f00000000000000000000000000000000000000000000000000000000000000006001600160a01b031685858151811061264e5761264e612dd5565b602002602001015160c001516001600160a01b031614156127485760007f00000000000000000000000000000000000000000000000000000000000000006001600160a01b031663a9059cbb338888815181106126ad576126ad612dd5565b6020026020010151600001516040518363ffffffff1660e01b81526004016126d6929190612e56565b602060405180830381600087803b1580156126f057600080fd5b505af1158015612704573d6000803e3d6000fd5b505050506040513d601f19601f820116820180604052508101906127289190612e6f565b90508061260c57604051633bdf630f60e11b815260040160405180910390fd5b7f00000000000000000000000000000000000000000000000000000000000000006001600160a01b031685858151811061278457612784612dd5565b602002602001015160c001516001600160a01b031614156127e35760007f00000000000000000000000000000000000000000000000000000000000000006001600160a01b031663a9059cbb338888815181106126ad576126ad612dd5565b7f00000000000000000000000000000000000000000000000000000000000000006001600160a01b031685858151811061281f5761281f612dd5565b602002602001015160c001516001600160a01b0316141561287e5760007f00000000000000000000000000000000000000000000000000000000000000006001600160a01b031663a9059cbb338888815181106126ad576126ad612dd5565b7f00000000000000000000000000000000000000000000000000000000000000006001600160a01b03168585815181106128ba576128ba612dd5565b602002602001015160c001516001600160a01b031614156129b65760007f00000000000000000000000000000000000000000000000000000000000000006001600160a01b031663a9059cbb3388888151811061291957612919612dd5565b6020026020010151600001516040518363ffffffff1660e01b8152600401612942929190612e56565b602060405180830381600087803b15801561295c57600080fd5b505af1158015612970573d6000803e3d6000fd5b505050506040513d601f19601f820116820180604052508101906129949190612e6f565b9050806129b457604051633bdf630f60e11b815260040160405180910390fd5b505b5050506129d7565b604051633f4ba89360e11b815260040160405180910390fd5b806129e181612f1c565b9150506122e5565b505050565b60036020528160005260406000208181548110610ec857600080fd5b612a12612add565b6001600160a01b038116612a7c5760405162461bcd60e51b815260206004820152602660248201527f4f776e61626c653a206e6577206f776e657220697320746865207a65726f206160448201526564647265737360d01b60648201526084015b60405180910390fd5b610e2f81612b56565b60007f00000000000000000000000000000000000000000000000000000000000000006001600160a01b0316331415612ac5575060131936013560601c90565b503390565b905090565b3390565b6000612aca612a85565b612ae5612ad3565b6001600160a01b0316612b006000546001600160a01b031690565b6001600160a01b031614610f365760405162461bcd60e51b815260206004820181905260248201527f4f776e61626c653a2063616c6c6572206973206e6f7420746865206f776e65726044820152606401612a73565b600080546001600160a01b038381166001600160a01b0319831681178455604051919092169283917f8be0079c531659141344cd1fd0a4f28419497f9722a3daafe3b4186f6b6457e09190a35050565b600080612bb283612bf6565b90506000670de0b6b3a7640000612bc98387612f37565b612bd39190612ea7565b95945050505050565b600080612be883612bf6565b90506000612bd38286612ea7565b600080826001600160a01b031663feaf968c6040518163ffffffff1660e01b815260040160a06040518083038186803b158015612c3257600080fd5b505afa158015612c46573d6000803e3d6000fd5b505050506040513d601f19601f82011682018060405250810190612c6a9190612f75565b505050915050806402540be400612c819190612fc5565b9392505050565b600060208284031215612c9a57600080fd5b5035919050565b6001600160a01b0381168114610e2f57600080fd5b600060208284031215612cc857600080fd5b8135612c8181612ca1565b60008060408385031215612ce657600080fd5b8235612cf181612ca1565b946020939093013593505050565b634e487b7160e01b600052602160045260246000fd5b60038110612d3357634e487b7160e01b600052602160045260246000fd5b9052565b8881526001600160a01b0388811660208301528781166040830152606082018790526080820186905260a08201859052831660c08201526101008101612d8060e0830184612d15565b9998505050505050505050565b60008060008060808587031215612da357600080fd5b8435612dae81612ca1565b9350602085013592506040850135612dc581612ca1565b9396929550929360600135925050565b634e487b7160e01b600052603260045260246000fd5b81518152600060018060a01b03806020850151166020840152806040850151166040840152606084015160608401526080840151608084015260a084015160a08401528060c08501511660c084015250612e4c60e0830160e0850151612d15565b5061010001919050565b6001600160a01b03929092168252602082015260400190565b600060208284031215612e8157600080fd5b81518015158114612c8157600080fd5b634e487b7160e01b600052601160045260246000fd5b600082612ec457634e487b7160e01b600052601260045260246000fd5b500490565b600082821015612edb57612edb612e91565b500390565b60008219821115612ef357612ef3612e91565b500190565b6001600160a01b039384168152919092166020820152604081019190915260600190565b6000600019821415612f3057612f30612e91565b5060010190565b6000816000190483118215151615612f5157612f51612e91565b500290565b805169ffffffffffffffffffff81168114612f7057600080fd5b919050565b600080600080600060a08688031215612f8d57600080fd5b612f9686612f56565b9450602086015193506040860151925060608601519150612fb960808701612f56565b90509295509295909350565b60006001600160ff1b0381841382841380821686840486111615612feb57612feb612e91565b600160ff1b600087128281168783058912161561300a5761300a612e91565b6000871292508782058712848416161561302657613026612e91565b8785058712818416161561303c5761303c612e91565b50505092909302939250505056fea264697066735822122044172b7dc34dcc01ace5f92f852979ec020717c744f0c39436156f0005a71e8464736f6c63430008090033",
          "opcodes": "PUSH2 0x1E0 PUSH1 0x40 MSTORE CALLVALUE DUP1 ISZERO PUSH3 0x12 JUMPI PUSH1 0x0 DUP1 REVERT JUMPDEST POP PUSH1 0x40 MLOAD PUSH3 0x34E7 CODESIZE SUB DUP1 PUSH3 0x34E7 DUP4 CODECOPY DUP2 ADD PUSH1 0x40 DUP2 SWAP1 MSTORE PUSH3 0x35 SWAP2 PUSH3 0x163 JUMP JUMPDEST PUSH1 0x1 PUSH1 0x1 PUSH1 0xA0 SHL SUB DUP11 AND PUSH1 0x80 MSTORE PUSH3 0x56 PUSH3 0x50 PUSH3 0xA1 JUMP JUMPDEST PUSH3 0xBD JUMP JUMPDEST PUSH1 0x1 PUSH1 0x1 PUSH1 0xA0 SHL SUB SWAP10 DUP11 AND PUSH1 0xA0 MSTORE SWAP8 DUP10 AND PUSH1 0xC0 MSTORE SWAP6 DUP9 AND PUSH1 0xE0 MSTORE SWAP4 DUP8 AND PUSH2 0x100 MSTORE SWAP2 DUP7 AND PUSH2 0x120 MSTORE DUP6 AND PUSH2 0x140 MSTORE DUP5 AND PUSH2 0x160 MSTORE DUP4 AND PUSH2 0x180 MSTORE DUP3 AND PUSH2 0x1A0 MSTORE AND PUSH2 0x1C0 MSTORE PUSH3 0x251 JUMP JUMPDEST PUSH1 0x0 PUSH3 0xB8 PUSH3 0x10D PUSH1 0x20 SHL PUSH3 0x2A85 OR PUSH1 0x20 SHR JUMP JUMPDEST SWAP1 POP SWAP1 JUMP JUMPDEST PUSH1 0x0 DUP1 SLOAD PUSH1 0x1 PUSH1 0x1 PUSH1 0xA0 SHL SUB DUP4 DUP2 AND PUSH1 0x1 PUSH1 0x1 PUSH1 0xA0 SHL SUB NOT DUP4 AND DUP2 OR DUP5 SSTORE PUSH1 0x40 MLOAD SWAP2 SWAP1 SWAP3 AND SWAP3 DUP4 SWAP2 PUSH32 0x8BE0079C531659141344CD1FD0A4F28419497F9722A3DAAFE3B4186F6B6457E0 SWAP2 SWAP1 LOG3 POP POP JUMP JUMPDEST PUSH1 0x80 MLOAD PUSH1 0x0 SWAP1 PUSH1 0x1 PUSH1 0x1 PUSH1 0xA0 SHL SUB AND CALLER EQ ISZERO PUSH3 0x131 JUMPI POP PUSH1 0x13 NOT CALLDATASIZE ADD CALLDATALOAD PUSH1 0x60 SHR SWAP1 JUMP JUMPDEST PUSH3 0xB8 PUSH3 0x146 PUSH1 0x20 SHL PUSH3 0x2ACF OR PUSH1 0x20 SHR JUMP JUMPDEST CALLER SWAP1 JUMP JUMPDEST PUSH1 0x1 PUSH1 0x1 PUSH1 0xA0 SHL SUB DUP2 AND DUP2 EQ PUSH3 0x160 JUMPI PUSH1 0x0 DUP1 REVERT JUMPDEST POP JUMP JUMPDEST PUSH1 0x0 DUP1 PUSH1 0x0 DUP1 PUSH1 0x0 DUP1 PUSH1 0x0 DUP1 PUSH1 0x0 DUP1 PUSH2 0x140 DUP12 DUP14 SUB SLT ISZERO PUSH3 0x184 JUMPI PUSH1 0x0 DUP1 REVERT JUMPDEST DUP11 MLOAD PUSH3 0x191 DUP2 PUSH3 0x14A JUMP JUMPDEST PUSH1 0x20 DUP13 ADD MLOAD SWAP1 SWAP11 POP PUSH3 0x1A4 DUP2 PUSH3 0x14A JUMP JUMPDEST PUSH1 0x40 DUP13 ADD MLOAD SWAP1 SWAP10 POP PUSH3 0x1B7 DUP2 PUSH3 0x14A JUMP JUMPDEST PUSH1 0x60 DUP13 ADD MLOAD SWAP1 SWAP9 POP PUSH3 0x1CA DUP2 PUSH3 0x14A JUMP JUMPDEST PUSH1 0x80 DUP13 ADD MLOAD SWAP1 SWAP8 POP PUSH3 0x1DD DUP2 PUSH3 0x14A JUMP JUMPDEST PUSH1 0xA0 DUP13 ADD MLOAD SWAP1 SWAP7 POP PUSH3 0x1F0 DUP2 PUSH3 0x14A JUMP JUMPDEST PUSH1 0xC0 DUP13 ADD MLOAD SWAP1 SWAP6 POP PUSH3 0x203 DUP2 PUSH3 0x14A JUMP JUMPDEST PUSH1 0xE0 DUP13 ADD MLOAD SWAP1 SWAP5 POP PUSH3 0x216 DUP2 PUSH3 0x14A JUMP JUMPDEST PUSH2 0x100 DUP13 ADD MLOAD SWAP1 SWAP4 POP PUSH3 0x22A DUP2 PUSH3 0x14A JUMP JUMPDEST PUSH2 0x120 DUP13 ADD MLOAD SWAP1 SWAP3 POP PUSH3 0x23E DUP2 PUSH3 0x14A JUMP JUMPDEST DUP1 SWAP2 POP POP SWAP3 SWAP6 SWAP9 SWAP12 SWAP2 SWAP5 SWAP8 SWAP11 POP SWAP3 SWAP6 SWAP9 POP JUMP JUMPDEST PUSH1 0x80 MLOAD PUSH1 0xA0 MLOAD PUSH1 0xC0 MLOAD PUSH1 0xE0 MLOAD PUSH2 0x100 MLOAD PUSH2 0x120 MLOAD PUSH2 0x140 MLOAD PUSH2 0x160 MLOAD PUSH2 0x180 MLOAD PUSH2 0x1A0 MLOAD PUSH2 0x1C0 MLOAD PUSH2 0x3080 PUSH3 0x467 PUSH1 0x0 CODECOPY PUSH1 0x0 DUP2 DUP2 PUSH2 0x804 ADD MSTORE DUP2 DUP2 PUSH2 0x85C ADD MSTORE DUP2 DUP2 PUSH2 0xCEC ADD MSTORE DUP2 DUP2 PUSH2 0xD2E ADD MSTORE DUP2 DUP2 PUSH2 0xDFF ADD MSTORE DUP2 DUP2 PUSH2 0x1CB8 ADD MSTORE DUP2 DUP2 PUSH2 0x1D0A ADD MSTORE DUP2 DUP2 PUSH2 0x1E6F ADD MSTORE DUP2 DUP2 PUSH2 0x1F19 ADD MSTORE DUP2 DUP2 PUSH2 0x2880 ADD MSTORE PUSH2 0x28D9 ADD MSTORE PUSH1 0x0 DUP2 DUP2 PUSH2 0x774 ADD MSTORE DUP2 DUP2 PUSH2 0x7CC ADD MSTORE DUP2 DUP2 PUSH2 0xBA5 ADD MSTORE DUP2 DUP2 PUSH2 0xBE7 ADD MSTORE DUP2 DUP2 PUSH2 0xCB8 ADD MSTORE DUP2 DUP2 PUSH2 0x1A17 ADD MSTORE DUP2 DUP2 PUSH2 0x1A69 ADD MSTORE DUP2 DUP2 PUSH2 0x1BCE ADD MSTORE DUP2 DUP2 PUSH2 0x1C78 ADD MSTORE DUP2 DUP2 PUSH2 0x27E5 ADD MSTORE PUSH2 0x283E ADD MSTORE PUSH1 0x0 DUP2 DUP2 PUSH2 0x6E4 ADD MSTORE DUP2 DUP2 PUSH2 0x73C ADD MSTORE DUP2 DUP2 PUSH2 0xA5E ADD MSTORE DUP2 DUP2 PUSH2 0xAA0 ADD MSTORE DUP2 DUP2 PUSH2 0xB71 ADD MSTORE DUP2 DUP2 PUSH2 0x1776 ADD MSTORE DUP2 DUP2 PUSH2 0x17C8 ADD MSTORE DUP2 DUP2 PUSH2 0x192D ADD MSTORE DUP2 DUP2 PUSH2 0x19D7 ADD MSTORE DUP2 DUP2 PUSH2 0x274A ADD MSTORE PUSH2 0x27A3 ADD MSTORE PUSH1 0x0 DUP2 DUP2 PUSH2 0x5E2 ADD MSTORE DUP2 DUP2 PUSH2 0x63A ADD MSTORE DUP2 DUP2 PUSH2 0x917 ADD MSTORE DUP2 DUP2 PUSH2 0x959 ADD MSTORE DUP2 DUP2 PUSH2 0xA2A ADD MSTORE DUP2 DUP2 PUSH2 0x14C9 ADD MSTORE DUP2 DUP2 PUSH2 0x151B ADD MSTORE DUP2 DUP2 PUSH2 0x1680 ADD MSTORE DUP2 DUP2 PUSH2 0x172A ADD MSTORE DUP2 DUP2 PUSH2 0x2614 ADD MSTORE PUSH2 0x266D ADD MSTORE PUSH1 0x0 DUP2 DUP2 PUSH2 0x1DC4 ADD MSTORE DUP2 DUP2 PUSH2 0x1E02 ADD MSTORE DUP2 DUP2 PUSH2 0x1E41 ADD MSTORE PUSH2 0x1EC3 ADD MSTORE PUSH1 0x0 DUP2 DUP2 PUSH2 0x1B23 ADD MSTORE DUP2 DUP2 PUSH2 0x1B61 ADD MSTORE DUP2 DUP2 PUSH2 0x1BA0 ADD MSTORE PUSH2 0x1C22 ADD MSTORE PUSH1 0x0 DUP2 DUP2 PUSH2 0x1882 ADD MSTORE DUP2 DUP2 PUSH2 0x18C0 ADD MSTORE DUP2 DUP2 PUSH2 0x18FF ADD MSTORE PUSH2 0x1981 ADD MSTORE PUSH1 0x0 DUP2 DUP2 PUSH2 0x15D5 ADD MSTORE DUP2 DUP2 PUSH2 0x1613 ADD MSTORE DUP2 DUP2 PUSH2 0x1652 ADD MSTORE PUSH2 0x16D4 ADD MSTORE PUSH1 0x0 DUP2 DUP2 PUSH2 0xFBB ADD MSTORE DUP2 DUP2 PUSH2 0x1000 ADD MSTORE DUP2 DUP2 PUSH2 0x103F ADD MSTORE PUSH2 0x10B5 ADD MSTORE PUSH1 0x0 DUP2 DUP2 PUSH2 0x1086 ADD MSTORE PUSH2 0x1187 ADD MSTORE PUSH1 0x0 DUP2 DUP2 PUSH2 0x16C ADD MSTORE PUSH2 0x2A89 ADD MSTORE PUSH2 0x3080 PUSH1 0x0 RETURN INVALID PUSH1 0x80 PUSH1 0x40 MSTORE PUSH1 0x4 CALLDATASIZE LT PUSH2 0xDD JUMPI PUSH1 0x0 CALLDATALOAD PUSH1 0xE0 SHR DUP1 PUSH4 0x8DA5CB5B GT PUSH2 0x7F JUMPI DUP1 PUSH4 0xEC09FD05 GT PUSH2 0x59 JUMPI DUP1 PUSH4 0xEC09FD05 EQ PUSH2 0x23A JUMPI DUP1 PUSH4 0xEE23B65A EQ PUSH2 0x267 JUMPI DUP1 PUSH4 0xF1FDBC42 EQ PUSH2 0x287 JUMPI DUP1 PUSH4 0xF2FDE38B EQ PUSH2 0x29D JUMPI PUSH1 0x0 DUP1 REVERT JUMPDEST DUP1 PUSH4 0x8DA5CB5B EQ PUSH2 0x1EC JUMPI DUP1 PUSH4 0x98DF6D4B EQ PUSH2 0x214 JUMPI DUP1 PUSH4 0xDC4CF83F EQ PUSH2 0x227 JUMPI PUSH1 0x0 DUP1 REVERT JUMPDEST DUP1 PUSH4 0x5463612E GT PUSH2 0xBB JUMPI DUP1 PUSH4 0x5463612E EQ PUSH2 0x112 JUMPI DUP1 PUSH4 0x572B6C05 EQ PUSH2 0x14F JUMPI DUP1 PUSH4 0x715018A6 EQ PUSH2 0x1AC JUMPI DUP1 PUSH4 0x774DEE89 EQ PUSH2 0x1C1 JUMPI PUSH1 0x0 DUP1 REVERT JUMPDEST DUP1 PUSH4 0x1F102DD2 EQ PUSH2 0xE2 JUMPI DUP1 PUSH4 0x42CDEF41 EQ PUSH2 0xF7 JUMPI DUP1 PUSH4 0x48502EAA EQ PUSH2 0x10A JUMPI JUMPDEST PUSH1 0x0 DUP1 REVERT JUMPDEST PUSH2 0xF5 PUSH2 0xF0 CALLDATASIZE PUSH1 0x4 PUSH2 0x2C88 JUMP JUMPDEST PUSH2 0x2BD JUMP JUMPDEST STOP JUMPDEST PUSH2 0xF5 PUSH2 0x105 CALLDATASIZE PUSH1 0x4 PUSH2 0x2CB6 JUMP JUMPDEST PUSH2 0x90D JUMP JUMPDEST PUSH2 0xF5 PUSH2 0xE32 JUMP JUMPDEST CALLVALUE DUP1 ISZERO PUSH2 0x11E JUMPI PUSH1 0x0 DUP1 REVERT JUMPDEST POP PUSH2 0x132 PUSH2 0x12D CALLDATASIZE PUSH1 0x4 PUSH2 0x2CD3 JUMP JUMPDEST PUSH2 0xEAC JUMP JUMPDEST PUSH1 0x40 MLOAD PUSH2 0x146 SWAP9 SWAP8 SWAP7 SWAP6 SWAP5 SWAP4 SWAP3 SWAP2 SWAP1 PUSH2 0x2D37 JUMP JUMPDEST PUSH1 0x40 MLOAD DUP1 SWAP2 SUB SWAP1 RETURN JUMPDEST CALLVALUE DUP1 ISZERO PUSH2 0x15B JUMPI PUSH1 0x0 DUP1 REVERT JUMPDEST POP PUSH2 0x19C PUSH2 0x16A CALLDATASIZE PUSH1 0x4 PUSH2 0x2CB6 JUMP JUMPDEST PUSH32 0x0 PUSH1 0x1 PUSH1 0x1 PUSH1 0xA0 SHL SUB SWAP1 DUP2 AND SWAP2 AND EQ SWAP1 JUMP JUMPDEST PUSH1 0x40 MLOAD SWAP1 ISZERO ISZERO DUP2 MSTORE PUSH1 0x20 ADD PUSH2 0x146 JUMP JUMPDEST CALLVALUE DUP1 ISZERO PUSH2 0x1B8 JUMPI PUSH1 0x0 DUP1 REVERT JUMPDEST POP PUSH2 0xF5 PUSH2 0xF24 JUMP JUMPDEST CALLVALUE DUP1 ISZERO PUSH2 0x1CD JUMPI PUSH1 0x0 DUP1 REVERT JUMPDEST POP PUSH2 0x1DE PUSH9 0x2B5E3AF16B1880000 DUP2 JUMP JUMPDEST PUSH1 0x40 MLOAD SWAP1 DUP2 MSTORE PUSH1 0x20 ADD PUSH2 0x146 JUMP JUMPDEST CALLVALUE DUP1 ISZERO PUSH2 0x1F8 JUMPI PUSH1 0x0 DUP1 REVERT JUMPDEST POP PUSH1 0x0 SLOAD PUSH1 0x40 MLOAD PUSH1 0x1 PUSH1 0x1 PUSH1 0xA0 SHL SUB SWAP1 SWAP2 AND DUP2 MSTORE PUSH1 0x20 ADD PUSH2 0x146 JUMP JUMPDEST PUSH2 0xF5 PUSH2 0x222 CALLDATASIZE PUSH1 0x4 PUSH2 0x2D8D JUMP JUMPDEST PUSH2 0xF38 JUMP JUMPDEST PUSH2 0xF5 PUSH2 0x235 CALLDATASIZE PUSH1 0x4 PUSH2 0x2C88 JUMP JUMPDEST PUSH2 0x21AB JUMP JUMPDEST CALLVALUE DUP1 ISZERO PUSH2 0x246 JUMPI PUSH1 0x0 DUP1 REVERT JUMPDEST POP PUSH2 0x1DE PUSH2 0x255 CALLDATASIZE PUSH1 0x4 PUSH2 0x2CB6 JUMP JUMPDEST PUSH1 0x2 PUSH1 0x20 MSTORE PUSH1 0x0 SWAP1 DUP2 MSTORE PUSH1 0x40 SWAP1 KECCAK256 SLOAD DUP2 JUMP JUMPDEST CALLVALUE DUP1 ISZERO PUSH2 0x273 JUMPI PUSH1 0x0 DUP1 REVERT JUMPDEST POP PUSH2 0x132 PUSH2 0x282 CALLDATASIZE PUSH1 0x4 PUSH2 0x2CD3 JUMP JUMPDEST PUSH2 0x29EE JUMP JUMPDEST CALLVALUE DUP1 ISZERO PUSH2 0x293 JUMPI PUSH1 0x0 DUP1 REVERT JUMPDEST POP PUSH2 0x1DE PUSH1 0x1 SLOAD DUP2 JUMP JUMPDEST CALLVALUE DUP1 ISZERO PUSH2 0x2A9 JUMPI PUSH1 0x0 DUP1 REVERT JUMPDEST POP PUSH2 0xF5 PUSH2 0x2B8 CALLDATASIZE PUSH1 0x4 PUSH2 0x2CB6 JUMP JUMPDEST PUSH2 0x2A0A JUMP JUMPDEST PUSH1 0x0 PUSH1 0x3 PUSH1 0x0 PUSH2 0x2CB PUSH2 0x2AD3 JUMP JUMPDEST PUSH1 0x1 PUSH1 0x1 PUSH1 0xA0 SHL SUB AND PUSH1 0x1 PUSH1 0x1 PUSH1 0xA0 SHL SUB AND DUP2 MSTORE PUSH1 0x20 ADD SWAP1 DUP2 MSTORE PUSH1 0x20 ADD PUSH1 0x0 KECCAK256 DUP3 DUP2 SLOAD DUP2 LT PUSH2 0x2FC JUMPI PUSH2 0x2FC PUSH2 0x2DD5 JUMP JUMPDEST PUSH1 0x0 SWAP2 DUP3 MSTORE PUSH1 0x20 SWAP2 DUP3 SWAP1 KECCAK256 PUSH1 0x40 DUP1 MLOAD PUSH2 0x100 DUP2 ADD DUP3 MSTORE PUSH1 0x7 SWAP4 SWAP1 SWAP4 MUL SWAP1 SWAP2 ADD DUP1 SLOAD DUP4 MSTORE PUSH1 0x1 DUP2 ADD SLOAD PUSH1 0x1 PUSH1 0x1 PUSH1 0xA0 SHL SUB SWAP1 DUP2 AND SWAP5 DUP5 ADD SWAP5 SWAP1 SWAP5 MSTORE PUSH1 0x2 DUP1 DUP3 ADD SLOAD DUP6 AND SWAP3 DUP5 ADD SWAP3 SWAP1 SWAP3 MSTORE PUSH1 0x3 DUP2 ADD SLOAD PUSH1 0x60 DUP5 ADD MSTORE PUSH1 0x4 DUP2 ADD SLOAD PUSH1 0x80 DUP5 ADD MSTORE PUSH1 0x5 DUP2 ADD SLOAD PUSH1 0xA0 DUP5 ADD MSTORE PUSH1 0x6 DUP2 ADD SLOAD SWAP4 DUP5 AND PUSH1 0xC0 DUP5 ADD MSTORE SWAP2 SWAP3 PUSH1 0xE0 DUP5 ADD SWAP2 PUSH1 0x1 PUSH1 0xA0 SHL SWAP1 SWAP2 DIV PUSH1 0xFF AND SWAP1 DUP2 GT ISZERO PUSH2 0x392 JUMPI PUSH2 0x392 PUSH2 0x2CFF JUMP JUMPDEST PUSH1 0x2 DUP2 GT ISZERO PUSH2 0x3A3 JUMPI PUSH2 0x3A3 PUSH2 0x2CFF JUMP JUMPDEST SWAP1 MSTORE POP SWAP1 POP PUSH1 0x0 DUP1 DUP3 PUSH1 0xE0 ADD MLOAD PUSH1 0x2 DUP2 GT ISZERO PUSH2 0x3C1 JUMPI PUSH2 0x3C1 PUSH2 0x2CFF JUMP JUMPDEST EQ ISZERO SWAP1 POP PUSH1 0x0 PUSH2 0x3CF PUSH2 0x2AD3 JUMP JUMPDEST PUSH1 0x1 PUSH1 0x1 PUSH1 0xA0 SHL SUB AND DUP4 PUSH1 0x20 ADD MLOAD PUSH1 0x1 PUSH1 0x1 PUSH1 0xA0 SHL SUB AND EQ ISZERO SWAP1 POP PUSH1 0x0 DUP3 DUP1 PUSH2 0x3F5 JUMPI POP DUP2 JUMPDEST SWAP1 POP DUP1 ISZERO PUSH2 0x416 JUMPI PUSH1 0x40 MLOAD PUSH4 0xDE175B07 PUSH1 0xE0 SHL DUP2 MSTORE PUSH1 0x4 ADD PUSH1 0x40 MLOAD DUP1 SWAP2 SUB SWAP1 REVERT JUMPDEST PUSH1 0x40 DUP1 DUP6 ADD MLOAD PUSH1 0x1 PUSH1 0x1 PUSH1 0xA0 SHL SUB AND PUSH1 0x0 SWAP1 DUP2 MSTORE PUSH1 0x4 PUSH1 0x20 MSTORE KECCAK256 PUSH1 0x80 DUP6 ADD MLOAD DUP2 SLOAD PUSH1 0x1 SWAP3 SWAP2 SWAP1 DUP2 LT PUSH2 0x44A JUMPI PUSH2 0x44A PUSH2 0x2DD5 JUMP JUMPDEST PUSH1 0x0 SWAP2 DUP3 MSTORE PUSH1 0x20 SWAP1 SWAP2 KECCAK256 PUSH1 0x6 PUSH1 0x7 SWAP1 SWAP3 MUL ADD ADD DUP1 SLOAD PUSH1 0xFF PUSH1 0xA0 SHL NOT AND PUSH1 0x1 PUSH1 0xA0 SHL DUP4 PUSH1 0x2 DUP2 GT ISZERO PUSH2 0x47D JUMPI PUSH2 0x47D PUSH2 0x2CFF JUMP JUMPDEST MUL OR SWAP1 SSTORE POP PUSH1 0x1 PUSH1 0x3 PUSH1 0x0 PUSH2 0x490 PUSH2 0x2AD3 JUMP JUMPDEST PUSH1 0x1 PUSH1 0x1 PUSH1 0xA0 SHL SUB AND PUSH1 0x1 PUSH1 0x1 PUSH1 0xA0 SHL SUB AND DUP2 MSTORE PUSH1 0x20 ADD SWAP1 DUP2 MSTORE PUSH1 0x20 ADD PUSH1 0x0 KECCAK256 DUP7 DUP2 SLOAD DUP2 LT PUSH2 0x4C1 JUMPI PUSH2 0x4C1 PUSH2 0x2DD5 JUMP JUMPDEST PUSH1 0x0 SWAP2 DUP3 MSTORE PUSH1 0x20 SWAP1 SWAP2 KECCAK256 PUSH1 0x6 PUSH1 0x7 SWAP1 SWAP3 MUL ADD ADD DUP1 SLOAD PUSH1 0xFF PUSH1 0xA0 SHL NOT AND PUSH1 0x1 PUSH1 0xA0 SHL DUP4 PUSH1 0x2 DUP2 GT ISZERO PUSH2 0x4F4 JUMPI PUSH2 0x4F4 PUSH2 0x2CFF JUMP JUMPDEST MUL OR SWAP1 SSTORE POP DUP4 PUSH1 0x40 MLOAD PUSH2 0x507 SWAP2 SWAP1 PUSH2 0x2DEB JUMP JUMPDEST PUSH1 0x40 MLOAD DUP1 SWAP2 SUB SWAP1 KECCAK256 PUSH2 0x517 PUSH2 0x2AD3 JUMP JUMPDEST PUSH1 0x1 PUSH1 0x1 PUSH1 0xA0 SHL SUB AND PUSH32 0x6ABD023739F4FF71D95FB906429D7D4BEEA7738CB65D5B6730BC335FA2AC4564 PUSH1 0x40 MLOAD PUSH1 0x40 MLOAD DUP1 SWAP2 SUB SWAP1 LOG3 PUSH1 0xC0 DUP5 ADD MLOAD PUSH1 0x1 PUSH1 0x1 PUSH1 0xA0 SHL SUB AND PUSH2 0x5E0 JUMPI PUSH1 0x0 PUSH2 0x568 PUSH2 0x2AD3 JUMP JUMPDEST DUP6 MLOAD PUSH1 0x40 MLOAD PUSH1 0x1 PUSH1 0x1 PUSH1 0xA0 SHL SUB SWAP3 SWAP1 SWAP3 AND SWAP2 PUSH1 0x0 DUP2 DUP2 DUP2 DUP6 DUP8 GAS CALL SWAP3 POP POP POP RETURNDATASIZE DUP1 PUSH1 0x0 DUP2 EQ PUSH2 0x5B3 JUMPI PUSH1 0x40 MLOAD SWAP2 POP PUSH1 0x1F NOT PUSH1 0x3F RETURNDATASIZE ADD AND DUP3 ADD PUSH1 0x40 MSTORE RETURNDATASIZE DUP3 MSTORE RETURNDATASIZE PUSH1 0x0 PUSH1 0x20 DUP5 ADD RETURNDATACOPY PUSH2 0x5B8 JUMP JUMPDEST PUSH1 0x60 SWAP2 POP JUMPDEST POP POP SWAP1 POP DUP1 PUSH2 0x5DA JUMPI PUSH1 0x40 MLOAD PUSH4 0x3BDF630F PUSH1 0xE1 SHL DUP2 MSTORE PUSH1 0x4 ADD PUSH1 0x40 MLOAD DUP1 SWAP2 SUB SWAP1 REVERT JUMPDEST POP PUSH2 0x906 JUMP JUMPDEST PUSH32 0x0 PUSH1 0x1 PUSH1 0x1 PUSH1 0xA0 SHL SUB AND DUP5 PUSH1 0xC0 ADD MLOAD PUSH1 0x1 PUSH1 0x1 PUSH1 0xA0 SHL SUB AND EQ ISZERO PUSH2 0x6E2 JUMPI DUP4 MLOAD PUSH1 0x40 MLOAD PUSH4 0xA9059CBB PUSH1 0xE0 SHL DUP2 MSTORE PUSH1 0x0 SWAP2 PUSH1 0x1 PUSH1 0x1 PUSH1 0xA0 SHL SUB PUSH32 0x0 AND SWAP2 PUSH4 0xA9059CBB SWAP2 PUSH2 0x670 SWAP2 CALLER SWAP2 SWAP1 PUSH1 0x4 ADD PUSH2 0x2E56 JUMP JUMPDEST PUSH1 0x20 PUSH1 0x40 MLOAD DUP1 DUP4 SUB DUP2 PUSH1 0x0 DUP8 DUP1 EXTCODESIZE ISZERO DUP1 ISZERO PUSH2 0x68A JUMPI PUSH1 0x0 DUP1 REVERT JUMPDEST POP GAS CALL ISZERO DUP1 ISZERO PUSH2 0x69E JUMPI RETURNDATASIZE PUSH1 0x0 DUP1 RETURNDATACOPY RETURNDATASIZE PUSH1 0x0 REVERT JUMPDEST POP POP POP POP PUSH1 0x40 MLOAD RETURNDATASIZE PUSH1 0x1F NOT PUSH1 0x1F DUP3 ADD AND DUP3 ADD DUP1 PUSH1 0x40 MSTORE POP DUP2 ADD SWAP1 PUSH2 0x6C2 SWAP2 SWAP1 PUSH2 0x2E6F JUMP JUMPDEST SWAP1 POP DUP1 PUSH2 0x5DA JUMPI PUSH1 0x40 MLOAD PUSH4 0x3BDF630F PUSH1 0xE1 SHL DUP2 MSTORE PUSH1 0x4 ADD PUSH1 0x40 MLOAD DUP1 SWAP2 SUB SWAP1 REVERT JUMPDEST PUSH32 0x0 PUSH1 0x1 PUSH1 0x1 PUSH1 0xA0 SHL SUB AND DUP5 PUSH1 0xC0 ADD MLOAD PUSH1 0x1 PUSH1 0x1 PUSH1 0xA0 SHL SUB AND EQ ISZERO PUSH2 0x772 JUMPI DUP4 MLOAD PUSH1 0x40 MLOAD PUSH4 0xA9059CBB PUSH1 0xE0 SHL DUP2 MSTORE PUSH1 0x0 SWAP2 PUSH1 0x1 PUSH1 0x1 PUSH1 0xA0 SHL SUB PUSH32 0x0 AND SWAP2 PUSH4 0xA9059CBB SWAP2 PUSH2 0x670 SWAP2 CALLER SWAP2 SWAP1 PUSH1 0x4 ADD PUSH2 0x2E56 JUMP JUMPDEST PUSH32 0x0 PUSH1 0x1 PUSH1 0x1 PUSH1 0xA0 SHL SUB AND DUP5 PUSH1 0xC0 ADD MLOAD PUSH1 0x1 PUSH1 0x1 PUSH1 0xA0 SHL SUB AND EQ ISZERO PUSH2 0x802 JUMPI DUP4 MLOAD PUSH1 0x40 MLOAD PUSH4 0xA9059CBB PUSH1 0xE0 SHL DUP2 MSTORE PUSH1 0x0 SWAP2 PUSH1 0x1 PUSH1 0x1 PUSH1 0xA0 SHL SUB PUSH32 0x0 AND SWAP2 PUSH4 0xA9059CBB SWAP2 PUSH2 0x670 SWAP2 CALLER SWAP2 SWAP1 PUSH1 0x4 ADD PUSH2 0x2E56 JUMP JUMPDEST PUSH32 0x0 PUSH1 0x1 PUSH1 0x1 PUSH1 0xA0 SHL SUB AND DUP5 PUSH1 0xC0 ADD MLOAD PUSH1 0x1 PUSH1 0x1 PUSH1 0xA0 SHL SUB AND EQ ISZERO PUSH2 0x906 JUMPI DUP4 MLOAD PUSH1 0x40 MLOAD PUSH4 0xA9059CBB PUSH1 0xE0 SHL DUP2 MSTORE PUSH1 0x0 SWAP2 PUSH1 0x1 PUSH1 0x1 PUSH1 0xA0 SHL SUB PUSH32 0x0 AND SWAP2 PUSH4 0xA9059CBB SWAP2 PUSH2 0x892 SWAP2 CALLER SWAP2 SWAP1 PUSH1 0x4 ADD PUSH2 0x2E56 JUMP JUMPDEST PUSH1 0x20 PUSH1 0x40 MLOAD DUP1 DUP4 SUB DUP2 PUSH1 0x0 DUP8 DUP1 EXTCODESIZE ISZERO DUP1 ISZERO PUSH2 0x8AC JUMPI PUSH1 0x0 DUP1 REVERT JUMPDEST POP GAS CALL ISZERO DUP1 ISZERO PUSH2 0x8C0 JUMPI RETURNDATASIZE PUSH1 0x0 DUP1 RETURNDATACOPY RETURNDATASIZE PUSH1 0x0 REVERT JUMPDEST POP POP POP POP PUSH1 0x40 MLOAD RETURNDATASIZE PUSH1 0x1F NOT PUSH1 0x1F DUP3 ADD AND DUP3 ADD DUP1 PUSH1 0x40 MSTORE POP DUP2 ADD SWAP1 PUSH2 0x8E4 SWAP2 SWAP1 PUSH2 0x2E6F JUMP JUMPDEST SWAP1 POP DUP1 PUSH2 0x904 JUMPI PUSH1 0x40 MLOAD PUSH4 0x3BDF630F PUSH1 0xE1 SHL DUP2 MSTORE PUSH1 0x4 ADD PUSH1 0x40 MLOAD DUP1 SWAP2 SUB SWAP1 REVERT JUMPDEST POP JUMPDEST POP POP POP POP POP JUMP JUMPDEST PUSH2 0x915 PUSH2 0x2ADD JUMP JUMPDEST PUSH32 0x0 PUSH1 0x1 PUSH1 0x1 PUSH1 0xA0 SHL SUB AND DUP2 PUSH1 0x1 PUSH1 0x1 PUSH1 0xA0 SHL SUB AND EQ ISZERO PUSH2 0xA5C JUMPI PUSH1 0x1 PUSH1 0x1 PUSH1 0xA0 SHL SUB PUSH32 0x0 AND PUSH1 0x0 DUP2 DUP2 MSTORE PUSH1 0x2 PUSH1 0x20 MSTORE PUSH1 0x40 DUP1 DUP3 KECCAK256 SLOAD SWAP1 MLOAD PUSH4 0xA9059CBB PUSH1 0xE0 SHL DUP2 MSTORE SWAP2 SWAP3 SWAP2 PUSH4 0xA9059CBB SWAP2 PUSH2 0x9AD SWAP2 CALLER SWAP2 SWAP1 PUSH1 0x4 ADD PUSH2 0x2E56 JUMP JUMPDEST PUSH1 0x20 PUSH1 0x40 MLOAD DUP1 DUP4 SUB DUP2 PUSH1 0x0 DUP8 DUP1 EXTCODESIZE ISZERO DUP1 ISZERO PUSH2 0x9C7 JUMPI PUSH1 0x0 DUP1 REVERT JUMPDEST POP GAS CALL ISZERO DUP1 ISZERO PUSH2 0x9DB JUMPI RETURNDATASIZE PUSH1 0x0 DUP1 RETURNDATACOPY RETURNDATASIZE PUSH1 0x0 REVERT JUMPDEST POP POP POP POP PUSH1 0x40 MLOAD RETURNDATASIZE PUSH1 0x1F NOT PUSH1 0x1F DUP3 ADD AND DUP3 ADD DUP1 PUSH1 0x40 MSTORE POP DUP2 ADD SWAP1 PUSH2 0x9FF SWAP2 SWAP1 PUSH2 0x2E6F JUMP JUMPDEST SWAP1 POP DUP1 PUSH2 0xA1F JUMPI PUSH1 0x40 MLOAD PUSH4 0x3BDF630F PUSH1 0xE1 SHL DUP2 MSTORE PUSH1 0x4 ADD PUSH1 0x40 MLOAD DUP1 SWAP2 SUB SWAP1 REVERT JUMPDEST POP PUSH1 0x1 PUSH1 0x1 PUSH1 0xA0 SHL SUB PUSH32 0x0 AND PUSH1 0x0 SWAP1 DUP2 MSTORE PUSH1 0x2 PUSH1 0x20 MSTORE PUSH1 0x40 DUP2 KECCAK256 SSTORE POP JUMP JUMPDEST PUSH32 0x0 PUSH1 0x1 PUSH1 0x1 PUSH1 0xA0 SHL SUB AND DUP2 PUSH1 0x1 PUSH1 0x1 PUSH1 0xA0 SHL SUB AND EQ ISZERO PUSH2 0xBA3 JUMPI PUSH1 0x1 PUSH1 0x1 PUSH1 0xA0 SHL SUB PUSH32 0x0 AND PUSH1 0x0 DUP2 DUP2 MSTORE PUSH1 0x2 PUSH1 0x20 MSTORE PUSH1 0x40 DUP1 DUP3 KECCAK256 SLOAD SWAP1 MLOAD PUSH4 0xA9059CBB PUSH1 0xE0 SHL DUP2 MSTORE SWAP2 SWAP3 SWAP2 PUSH4 0xA9059CBB SWAP2 PUSH2 0xAF4 SWAP2 CALLER SWAP2 SWAP1 PUSH1 0x4 ADD PUSH2 0x2E56 JUMP JUMPDEST PUSH1 0x20 PUSH1 0x40 MLOAD DUP1 DUP4 SUB DUP2 PUSH1 0x0 DUP8 DUP1 EXTCODESIZE ISZERO DUP1 ISZERO PUSH2 0xB0E JUMPI PUSH1 0x0 DUP1 REVERT JUMPDEST POP GAS CALL ISZERO DUP1 ISZERO PUSH2 0xB22 JUMPI RETURNDATASIZE PUSH1 0x0 DUP1 RETURNDATACOPY RETURNDATASIZE PUSH1 0x0 REVERT JUMPDEST POP POP POP POP PUSH1 0x40 MLOAD RETURNDATASIZE PUSH1 0x1F NOT PUSH1 0x1F DUP3 ADD AND DUP3 ADD DUP1 PUSH1 0x40 MSTORE POP DUP2 ADD SWAP1 PUSH2 0xB46 SWAP2 SWAP1 PUSH2 0x2E6F JUMP JUMPDEST SWAP1 POP DUP1 PUSH2 0xB66 JUMPI PUSH1 0x40 MLOAD PUSH4 0x3BDF630F PUSH1 0xE1 SHL DUP2 MSTORE PUSH1 0x4 ADD PUSH1 0x40 MLOAD DUP1 SWAP2 SUB SWAP1 REVERT JUMPDEST POP PUSH1 0x1 PUSH1 0x1 PUSH1 0xA0 SHL SUB PUSH32 0x0 AND PUSH1 0x0 SWAP1 DUP2 MSTORE PUSH1 0x2 PUSH1 0x20 MSTORE PUSH1 0x40 DUP2 KECCAK256 SSTORE POP JUMP JUMPDEST PUSH32 0x0 PUSH1 0x1 PUSH1 0x1 PUSH1 0xA0 SHL SUB AND DUP2 PUSH1 0x1 PUSH1 0x1 PUSH1 0xA0 SHL SUB AND EQ ISZERO PUSH2 0xCEA JUMPI PUSH1 0x1 PUSH1 0x1 PUSH1 0xA0 SHL SUB PUSH32 0x0 AND PUSH1 0x0 DUP2 DUP2 MSTORE PUSH1 0x2 PUSH1 0x20 MSTORE PUSH1 0x40 DUP1 DUP3 KECCAK256 SLOAD SWAP1 MLOAD PUSH4 0xA9059CBB PUSH1 0xE0 SHL DUP2 MSTORE SWAP2 SWAP3 SWAP2 PUSH4 0xA9059CBB SWAP2 PUSH2 0xC3B SWAP2 CALLER SWAP2 SWAP1 PUSH1 0x4 ADD PUSH2 0x2E56 JUMP JUMPDEST PUSH1 0x20 PUSH1 0x40 MLOAD DUP1 DUP4 SUB DUP2 PUSH1 0x0 DUP8 DUP1 EXTCODESIZE ISZERO DUP1 ISZERO PUSH2 0xC55 JUMPI PUSH1 0x0 DUP1 REVERT JUMPDEST POP GAS CALL ISZERO DUP1 ISZERO PUSH2 0xC69 JUMPI RETURNDATASIZE PUSH1 0x0 DUP1 RETURNDATACOPY RETURNDATASIZE PUSH1 0x0 REVERT JUMPDEST POP POP POP POP PUSH1 0x40 MLOAD RETURNDATASIZE PUSH1 0x1F NOT PUSH1 0x1F DUP3 ADD AND DUP3 ADD DUP1 PUSH1 0x40 MSTORE POP DUP2 ADD SWAP1 PUSH2 0xC8D SWAP2 SWAP1 PUSH2 0x2E6F JUMP JUMPDEST SWAP1 POP DUP1 PUSH2 0xCAD JUMPI PUSH1 0x40 MLOAD PUSH4 0x3BDF630F PUSH1 0xE1 SHL DUP2 MSTORE PUSH1 0x4 ADD PUSH1 0x40 MLOAD DUP1 SWAP2 SUB SWAP1 REVERT JUMPDEST POP PUSH1 0x1 PUSH1 0x1 PUSH1 0xA0 SHL SUB PUSH32 0x0 AND PUSH1 0x0 SWAP1 DUP2 MSTORE PUSH1 0x2 PUSH1 0x20 MSTORE PUSH1 0x40 DUP2 KECCAK256 SSTORE POP JUMP JUMPDEST PUSH32 0x0 PUSH1 0x1 PUSH1 0x1 PUSH1 0xA0 SHL SUB AND DUP2 PUSH1 0x1 PUSH1 0x1 PUSH1 0xA0 SHL SUB AND EQ ISZERO PUSH2 0xE2F JUMPI PUSH1 0x1 PUSH1 0x1 PUSH1 0xA0 SHL SUB PUSH32 0x0 AND PUSH1 0x0 DUP2 DUP2 MSTORE PUSH1 0x2 PUSH1 0x20 MSTORE PUSH1 0x40 DUP1 DUP3 KECCAK256 SLOAD SWAP1 MLOAD PUSH4 0xA9059CBB PUSH1 0xE0 SHL DUP2 MSTORE SWAP2 SWAP3 SWAP2 PUSH4 0xA9059CBB SWAP2 PUSH2 0xD82 SWAP2 CALLER SWAP2 SWAP1 PUSH1 0x4 ADD PUSH2 0x2E56 JUMP JUMPDEST PUSH1 0x20 PUSH1 0x40 MLOAD DUP1 DUP4 SUB DUP2 PUSH1 0x0 DUP8 DUP1 EXTCODESIZE ISZERO DUP1 ISZERO PUSH2 0xD9C JUMPI PUSH1 0x0 DUP1 REVERT JUMPDEST POP GAS CALL ISZERO DUP1 ISZERO PUSH2 0xDB0 JUMPI RETURNDATASIZE PUSH1 0x0 DUP1 RETURNDATACOPY RETURNDATASIZE PUSH1 0x0 REVERT JUMPDEST POP POP POP POP PUSH1 0x40 MLOAD RETURNDATASIZE PUSH1 0x1F NOT PUSH1 0x1F DUP3 ADD AND DUP3 ADD DUP1 PUSH1 0x40 MSTORE POP DUP2 ADD SWAP1 PUSH2 0xDD4 SWAP2 SWAP1 PUSH2 0x2E6F JUMP JUMPDEST SWAP1 POP DUP1 PUSH2 0xDF4 JUMPI PUSH1 0x40 MLOAD PUSH4 0x3BDF630F PUSH1 0xE1 SHL DUP2 MSTORE PUSH1 0x4 ADD PUSH1 0x40 MLOAD DUP1 SWAP2 SUB SWAP1 REVERT JUMPDEST POP PUSH1 0x1 PUSH1 0x1 PUSH1 0xA0 SHL SUB PUSH32 0x0 AND PUSH1 0x0 SWAP1 DUP2 MSTORE PUSH1 0x2 PUSH1 0x20 MSTORE PUSH1 0x40 DUP2 KECCAK256 SSTORE JUMPDEST POP JUMP JUMPDEST PUSH2 0xE3A PUSH2 0x2ADD JUMP JUMPDEST PUSH1 0x1 SLOAD PUSH1 0x40 MLOAD PUSH1 0x0 SWAP2 CALLER SWAP2 DUP4 DUP2 DUP2 DUP2 DUP6 DUP8 GAS CALL SWAP3 POP POP POP RETURNDATASIZE DUP1 PUSH1 0x0 DUP2 EQ PUSH2 0xE7D JUMPI PUSH1 0x40 MLOAD SWAP2 POP PUSH1 0x1F NOT PUSH1 0x3F RETURNDATASIZE ADD AND DUP3 ADD PUSH1 0x40 MSTORE RETURNDATASIZE DUP3 MSTORE RETURNDATASIZE PUSH1 0x0 PUSH1 0x20 DUP5 ADD RETURNDATACOPY PUSH2 0xE82 JUMP JUMPDEST PUSH1 0x60 SWAP2 POP JUMPDEST POP POP SWAP1 POP DUP1 PUSH2 0xEA4 JUMPI PUSH1 0x40 MLOAD PUSH4 0x3BDF630F PUSH1 0xE1 SHL DUP2 MSTORE PUSH1 0x4 ADD PUSH1 0x40 MLOAD DUP1 SWAP2 SUB SWAP1 REVERT JUMPDEST POP PUSH1 0x0 PUSH1 0x1 SSTORE JUMP JUMPDEST PUSH1 0x4 PUSH1 0x20 MSTORE DUP2 PUSH1 0x0 MSTORE PUSH1 0x40 PUSH1 0x0 KECCAK256 DUP2 DUP2 SLOAD DUP2 LT PUSH2 0xEC8 JUMPI PUSH1 0x0 DUP1 REVERT JUMPDEST PUSH1 0x0 SWAP2 DUP3 MSTORE PUSH1 0x20 SWAP1 SWAP2 KECCAK256 PUSH1 0x7 SWAP1 SWAP2 MUL ADD DUP1 SLOAD PUSH1 0x1 DUP3 ADD SLOAD PUSH1 0x2 DUP4 ADD SLOAD PUSH1 0x3 DUP5 ADD SLOAD PUSH1 0x4 DUP6 ADD SLOAD PUSH1 0x5 DUP7 ADD SLOAD PUSH1 0x6 SWAP1 SWAP7 ADD SLOAD SWAP5 SWAP8 POP PUSH1 0x1 PUSH1 0x1 PUSH1 0xA0 SHL SUB SWAP4 DUP5 AND SWAP7 POP SWAP2 DUP4 AND SWAP5 SWAP1 SWAP4 SWAP2 SWAP3 SWAP1 SWAP2 SWAP1 DUP2 AND SWAP1 PUSH1 0x1 PUSH1 0xA0 SHL SWAP1 DIV PUSH1 0xFF AND DUP9 JUMP JUMPDEST PUSH2 0xF2C PUSH2 0x2ADD JUMP JUMPDEST PUSH2 0xF36 PUSH1 0x0 PUSH2 0x2B56 JUMP JUMPDEST JUMP JUMPDEST PUSH1 0x1 PUSH1 0x1 PUSH1 0xA0 SHL SUB DUP3 AND PUSH2 0x1461 JUMPI CALLVALUE ISZERO DUP1 ISZERO PUSH2 0xF67 JUMPI PUSH1 0x40 MLOAD PUSH4 0x183BB677 PUSH1 0xE2 SHL DUP2 MSTORE PUSH1 0x4 ADD PUSH1 0x40 MLOAD DUP1 SWAP2 SUB SWAP1 REVERT JUMPDEST PUSH2 0xFAC PUSH1 0x40 DUP1 MLOAD PUSH2 0x100 DUP2 ADD DUP3 MSTORE PUSH1 0x0 DUP1 DUP3 MSTORE PUSH1 0x20 DUP3 ADD DUP2 SWAP1 MSTORE SWAP2 DUP2 ADD DUP3 SWAP1 MSTORE PUSH1 0x60 DUP2 ADD DUP3 SWAP1 MSTORE PUSH1 0x80 DUP2 ADD DUP3 SWAP1 MSTORE PUSH1 0xA0 DUP2 ADD DUP3 SWAP1 MSTORE PUSH1 0xC0 DUP2 ADD DUP3 SWAP1 MSTORE SWAP1 PUSH1 0xE0 DUP3 ADD MSTORE SWAP1 JUMP JUMPDEST PUSH9 0x2B5E3AF16B1880000 PUSH2 0xFEB PUSH32 0x0 PUSH2 0xFE5 PUSH1 0xC8 CALLVALUE PUSH2 0x2EA7 JUMP JUMPDEST SWAP1 PUSH2 0x2BA6 JUMP JUMPDEST GT ISZERO PUSH2 0x1142 JUMPI PUSH2 0x1024 PUSH9 0x2B5E3AF16B1880000 PUSH32 0x0 PUSH2 0x2BDC JUMP JUMPDEST PUSH2 0x102E SWAP1 CALLVALUE PUSH2 0x2EC9 JUMP JUMPDEST DUP2 MSTORE PUSH2 0x1063 PUSH9 0x2B5E3AF16B1880000 PUSH32 0x0 PUSH2 0x2BDC JUMP JUMPDEST PUSH1 0x1 PUSH1 0x0 DUP3 DUP3 SLOAD PUSH2 0x1074 SWAP2 SWAP1 PUSH2 0x2EE0 JUMP JUMPDEST SWAP1 SWAP2 SSTORE POP PUSH1 0x0 SWAP1 POP PUSH1 0x1 PUSH1 0x1 PUSH1 0xA0 SHL SUB PUSH32 0x0 AND PUSH2 0x10D9 PUSH9 0x2B5E3AF16B1880000 PUSH32 0x0 PUSH2 0x2BDC JUMP JUMPDEST PUSH1 0x40 MLOAD PUSH1 0x0 DUP2 DUP2 DUP2 DUP6 DUP8 GAS CALL SWAP3 POP POP POP RETURNDATASIZE DUP1 PUSH1 0x0 DUP2 EQ PUSH2 0x1115 JUMPI PUSH1 0x40 MLOAD SWAP2 POP PUSH1 0x1F NOT PUSH1 0x3F RETURNDATASIZE ADD AND DUP3 ADD PUSH1 0x40 MSTORE RETURNDATASIZE DUP3 MSTORE RETURNDATASIZE PUSH1 0x0 PUSH1 0x20 DUP5 ADD RETURNDATACOPY PUSH2 0x111A JUMP JUMPDEST PUSH1 0x60 SWAP2 POP JUMPDEST POP POP SWAP1 POP DUP1 PUSH2 0x113C JUMPI PUSH1 0x40 MLOAD PUSH4 0x3BDF630F PUSH1 0xE1 SHL DUP2 MSTORE PUSH1 0x4 ADD PUSH1 0x40 MLOAD DUP1 SWAP2 SUB SWAP1 REVERT JUMPDEST POP PUSH2 0x1217 JUMP JUMPDEST PUSH2 0x114D PUSH1 0xC8 CALLVALUE PUSH2 0x2EA7 JUMP JUMPDEST PUSH2 0x1157 SWAP1 CALLVALUE PUSH2 0x2EC9 JUMP JUMPDEST DUP2 MSTORE PUSH2 0x1164 PUSH1 0xC8 CALLVALUE PUSH2 0x2EA7 JUMP JUMPDEST PUSH1 0x1 PUSH1 0x0 DUP3 DUP3 SLOAD PUSH2 0x1175 SWAP2 SWAP1 PUSH2 0x2EE0 JUMP JUMPDEST SWAP1 SWAP2 SSTORE POP PUSH1 0x0 SWAP1 POP PUSH1 0x1 PUSH1 0x1 PUSH1 0xA0 SHL SUB PUSH32 0x0 AND PUSH2 0x11B2 PUSH1 0xC8 CALLVALUE PUSH2 0x2EA7 JUMP JUMPDEST PUSH1 0x40 MLOAD PUSH1 0x0 DUP2 DUP2 DUP2 DUP6 DUP8 GAS CALL SWAP3 POP POP POP RETURNDATASIZE DUP1 PUSH1 0x0 DUP2 EQ PUSH2 0x11EE JUMPI PUSH1 0x40 MLOAD SWAP2 POP PUSH1 0x1F NOT PUSH1 0x3F RETURNDATASIZE ADD AND DUP3 ADD PUSH1 0x40 MSTORE RETURNDATASIZE DUP3 MSTORE RETURNDATASIZE PUSH1 0x0 PUSH1 0x20 DUP5 ADD RETURNDATACOPY PUSH2 0x11F3 JUMP JUMPDEST PUSH1 0x60 SWAP2 POP JUMPDEST POP POP SWAP1 POP DUP1 PUSH2 0x1215 JUMPI PUSH1 0x40 MLOAD PUSH4 0x3BDF630F PUSH1 0xE1 SHL DUP2 MSTORE PUSH1 0x4 ADD PUSH1 0x40 MLOAD DUP1 SWAP2 SUB SWAP1 REVERT JUMPDEST POP JUMPDEST CALLER PUSH1 0x20 DUP3 DUP2 ADD DUP3 SWAP1 MSTORE PUSH1 0x1 PUSH1 0x1 PUSH1 0xA0 SHL SUB DUP9 DUP2 AND PUSH1 0x40 DUP1 DUP7 ADD DUP3 SWAP1 MSTORE PUSH1 0x0 SWAP5 DUP6 MSTORE PUSH1 0x3 DUP5 MSTORE DUP1 DUP6 KECCAK256 SLOAD PUSH1 0x60 DUP8 ADD MSTORE SWAP1 DUP5 MSTORE PUSH1 0x4 SWAP1 SWAP3 MSTORE SWAP1 DUP3 KECCAK256 SLOAD PUSH1 0x80 DUP5 ADD MSTORE PUSH1 0xA0 DUP4 ADD DUP8 SWAP1 MSTORE DUP6 AND PUSH1 0xC0 DUP4 ADD MSTORE PUSH1 0xE0 DUP3 ADD DUP2 SWAP1 MSTORE POP CALLER PUSH1 0x0 SWAP1 DUP2 MSTORE PUSH1 0x3 PUSH1 0x20 DUP2 DUP2 MSTORE PUSH1 0x40 DUP1 DUP5 KECCAK256 DUP1 SLOAD PUSH1 0x1 DUP1 DUP3 ADD DUP4 SSTORE SWAP2 DUP7 MSTORE SWAP5 DUP4 SWAP1 KECCAK256 DUP7 MLOAD PUSH1 0x7 SWAP1 SWAP7 MUL ADD SWAP5 DUP6 SSTORE SWAP2 DUP6 ADD MLOAD SWAP2 DUP5 ADD DUP1 SLOAD PUSH1 0x1 PUSH1 0x1 PUSH1 0xA0 SHL SUB NOT SWAP1 DUP2 AND PUSH1 0x1 PUSH1 0x1 PUSH1 0xA0 SHL SUB SWAP5 DUP6 AND OR SWAP1 SWAP2 SSTORE SWAP1 DUP6 ADD MLOAD PUSH1 0x2 DUP1 DUP7 ADD DUP1 SLOAD DUP5 AND SWAP3 DUP6 AND SWAP3 SWAP1 SWAP3 OR SWAP1 SWAP2 SSTORE PUSH1 0x60 DUP7 ADD MLOAD SWAP4 DUP6 ADD SWAP4 SWAP1 SWAP4 SSTORE PUSH1 0x80 DUP6 ADD MLOAD PUSH1 0x4 DUP6 ADD SSTORE PUSH1 0xA0 DUP6 ADD MLOAD PUSH1 0x5 DUP6 ADD SSTORE PUSH1 0xC0 DUP6 ADD MLOAD PUSH1 0x6 DUP6 ADD DUP1 SLOAD SWAP3 DUP4 AND SWAP2 SWAP1 SWAP4 AND SWAP1 DUP2 OR DUP4 SSTORE PUSH1 0xE0 DUP7 ADD MLOAD DUP7 SWAP6 SWAP5 SWAP1 SWAP4 SWAP3 PUSH1 0x1 PUSH1 0x1 PUSH1 0xA8 SHL SUB NOT AND SWAP1 SWAP2 OR SWAP1 PUSH1 0x1 PUSH1 0xA0 SHL SWAP1 DUP5 SWAP1 DUP2 GT ISZERO PUSH2 0x133B JUMPI PUSH2 0x133B PUSH2 0x2CFF JUMP JUMPDEST MUL OR SWAP1 SSTORE POP POP POP PUSH1 0x1 PUSH1 0x1 PUSH1 0xA0 SHL SUB DUP1 DUP8 AND PUSH1 0x0 SWAP1 DUP2 MSTORE PUSH1 0x4 PUSH1 0x20 DUP2 DUP2 MSTORE PUSH1 0x40 DUP1 DUP5 KECCAK256 DUP1 SLOAD PUSH1 0x1 DUP2 DUP2 ADD DUP4 SSTORE SWAP2 DUP7 MSTORE SWAP5 DUP4 SWAP1 KECCAK256 DUP8 MLOAD PUSH1 0x7 SWAP1 SWAP7 MUL ADD SWAP5 DUP6 SSTORE SWAP2 DUP7 ADD MLOAD SWAP2 DUP5 ADD DUP1 SLOAD SWAP3 DUP7 AND PUSH1 0x1 PUSH1 0x1 PUSH1 0xA0 SHL SUB NOT SWAP4 DUP5 AND OR SWAP1 SSTORE DUP6 ADD MLOAD PUSH1 0x2 DUP1 DUP6 ADD DUP1 SLOAD SWAP3 DUP8 AND SWAP3 DUP5 AND SWAP3 SWAP1 SWAP3 OR SWAP1 SWAP2 SSTORE PUSH1 0x60 DUP7 ADD MLOAD PUSH1 0x3 DUP6 ADD SSTORE PUSH1 0x80 DUP7 ADD MLOAD SWAP3 DUP5 ADD SWAP3 SWAP1 SWAP3 SSTORE PUSH1 0xA0 DUP6 ADD MLOAD PUSH1 0x5 DUP5 ADD SSTORE PUSH1 0xC0 DUP6 ADD MLOAD PUSH1 0x6 DUP5 ADD DUP1 SLOAD SWAP2 SWAP1 SWAP6 AND SWAP2 DUP2 AND DUP3 OR DUP6 SSTORE PUSH1 0xE0 DUP7 ADD MLOAD DUP7 SWAP6 SWAP1 SWAP4 SWAP1 SWAP3 PUSH1 0x1 PUSH1 0x1 PUSH1 0xA8 SHL SUB NOT SWAP1 SWAP3 AND SWAP1 SWAP2 OR SWAP1 PUSH1 0x1 PUSH1 0xA0 SHL SWAP1 DUP5 SWAP1 DUP2 GT ISZERO PUSH2 0x1413 JUMPI PUSH2 0x1413 PUSH2 0x2CFF JUMP JUMPDEST MUL OR SWAP1 SSTORE POP POP POP DUP1 PUSH1 0x40 MLOAD PUSH2 0x1428 SWAP2 SWAP1 PUSH2 0x2DEB JUMP JUMPDEST PUSH1 0x40 MLOAD SWAP1 DUP2 SWAP1 SUB DUP2 KECCAK256 SWAP1 CALLER SWAP1 PUSH32 0x14F09417CD81E1BFBA59388F82B41657119F594C9C473945C0EA1311C6486939 SWAP1 PUSH1 0x0 SWAP1 LOG3 POP POP PUSH2 0x21A5 JUMP JUMPDEST DUP1 ISZERO DUP1 ISZERO PUSH2 0x1482 JUMPI PUSH1 0x40 MLOAD PUSH4 0x183BB677 PUSH1 0xE2 SHL DUP2 MSTORE PUSH1 0x4 ADD PUSH1 0x40 MLOAD DUP1 SWAP2 SUB SWAP1 REVERT JUMPDEST PUSH2 0x14C7 PUSH1 0x40 DUP1 MLOAD PUSH2 0x100 DUP2 ADD DUP3 MSTORE PUSH1 0x0 DUP1 DUP3 MSTORE PUSH1 0x20 DUP3 ADD DUP2 SWAP1 MSTORE SWAP2 DUP2 ADD DUP3 SWAP1 MSTORE PUSH1 0x60 DUP2 ADD DUP3 SWAP1 MSTORE PUSH1 0x80 DUP2 ADD DUP3 SWAP1 MSTORE PUSH1 0xA0 DUP2 ADD DUP3 SWAP1 MSTORE PUSH1 0xC0 DUP2 ADD DUP3 SWAP1 MSTORE SWAP1 PUSH1 0xE0 DUP3 ADD MSTORE SWAP1 JUMP JUMPDEST PUSH32 0x0 PUSH1 0x1 PUSH1 0x1 PUSH1 0xA0 SHL SUB AND DUP5 PUSH1 0x1 PUSH1 0x1 PUSH1 0xA0 SHL SUB AND EQ ISZERO PUSH2 0x1774 JUMPI PUSH1 0x40 MLOAD PUSH4 0x23B872DD PUSH1 0xE0 SHL DUP2 MSTORE PUSH1 0x0 SWAP1 PUSH1 0x1 PUSH1 0x1 PUSH1 0xA0 SHL SUB PUSH32 0x0 AND SWAP1 PUSH4 0x23B872DD SWAP1 PUSH2 0x1554 SWAP1 CALLER SWAP1 ADDRESS SWAP1 DUP10 SWAP1 PUSH1 0x4 ADD PUSH2 0x2EF8 JUMP JUMPDEST PUSH1 0x20 PUSH1 0x40 MLOAD DUP1 DUP4 SUB DUP2 PUSH1 0x0 DUP8 DUP1 EXTCODESIZE ISZERO DUP1 ISZERO PUSH2 0x156E JUMPI PUSH1 0x0 DUP1 REVERT JUMPDEST POP GAS CALL ISZERO DUP1 ISZERO PUSH2 0x1582 JUMPI RETURNDATASIZE PUSH1 0x0 DUP1 RETURNDATACOPY RETURNDATASIZE PUSH1 0x0 REVERT JUMPDEST POP POP POP POP PUSH1 0x40 MLOAD RETURNDATASIZE PUSH1 0x1F NOT PUSH1 0x1F DUP3 ADD AND DUP3 ADD DUP1 PUSH1 0x40 MSTORE POP DUP2 ADD SWAP1 PUSH2 0x15A6 SWAP2 SWAP1 PUSH2 0x2E6F JUMP JUMPDEST SWAP1 POP DUP1 PUSH2 0x15C6 JUMPI PUSH1 0x40 MLOAD PUSH4 0x3BDF630F PUSH1 0xE1 SHL DUP2 MSTORE PUSH1 0x4 ADD PUSH1 0x40 MLOAD DUP1 SWAP2 SUB SWAP1 REVERT JUMPDEST PUSH9 0x2B5E3AF16B1880000 PUSH2 0x15FF PUSH32 0x0 PUSH2 0xFE5 PUSH1 0xC8 DUP9 PUSH2 0x2EA7 JUMP JUMPDEST LT PUSH2 0x16C4 JUMPI PUSH2 0x1637 PUSH9 0x2B5E3AF16B1880000 PUSH32 0x0 PUSH2 0x2BDC JUMP JUMPDEST PUSH2 0x1641 SWAP1 DUP6 PUSH2 0x2EC9 JUMP JUMPDEST DUP3 MSTORE PUSH2 0x1676 PUSH9 0x2B5E3AF16B1880000 PUSH32 0x0 PUSH2 0x2BDC JUMP JUMPDEST PUSH1 0x1 PUSH1 0x1 PUSH1 0xA0 SHL SUB PUSH32 0x0 AND PUSH1 0x0 SWAP1 DUP2 MSTORE PUSH1 0x2 PUSH1 0x20 MSTORE PUSH1 0x40 DUP2 KECCAK256 DUP1 SLOAD SWAP1 SWAP2 SWAP1 PUSH2 0x16BE SWAP1 DUP5 SWAP1 PUSH2 0x2EE0 JUMP JUMPDEST SWAP1 SWAP2 SSTORE POP POP JUMPDEST PUSH9 0x2B5E3AF16B1880000 PUSH2 0x16F8 DUP6 PUSH32 0x0 PUSH2 0x2BA6 JUMP JUMPDEST LT ISZERO PUSH2 0x176E JUMPI PUSH2 0x1709 PUSH1 0xC8 DUP6 PUSH2 0x2EA7 JUMP JUMPDEST PUSH2 0x1713 SWAP1 DUP6 PUSH2 0x2EC9 JUMP JUMPDEST DUP3 MSTORE PUSH2 0x1720 PUSH1 0xC8 DUP6 PUSH2 0x2EA7 JUMP JUMPDEST PUSH1 0x1 PUSH1 0x1 PUSH1 0xA0 SHL SUB PUSH32 0x0 AND PUSH1 0x0 SWAP1 DUP2 MSTORE PUSH1 0x2 PUSH1 0x20 MSTORE PUSH1 0x40 DUP2 KECCAK256 DUP1 SLOAD SWAP1 SWAP2 SWAP1 PUSH2 0x1768 SWAP1 DUP5 SWAP1 PUSH2 0x2EE0 JUMP JUMPDEST SWAP1 SWAP2 SSTORE POP POP JUMPDEST POP PUSH2 0x1F5F JUMP JUMPDEST PUSH32 0x0 PUSH1 0x1 PUSH1 0x1 PUSH1 0xA0 SHL SUB AND DUP5 PUSH1 0x1 PUSH1 0x1 PUSH1 0xA0 SHL SUB AND EQ ISZERO PUSH2 0x1A15 JUMPI PUSH1 0x40 MLOAD PUSH4 0x23B872DD PUSH1 0xE0 SHL DUP2 MSTORE PUSH1 0x0 SWAP1 PUSH1 0x1 PUSH1 0x1 PUSH1 0xA0 SHL SUB PUSH32 0x0 AND SWAP1 PUSH4 0x23B872DD SWAP1 PUSH2 0x1801 SWAP1 CALLER SWAP1 ADDRESS SWAP1 DUP10 SWAP1 PUSH1 0x4 ADD PUSH2 0x2EF8 JUMP JUMPDEST PUSH1 0x20 PUSH1 0x40 MLOAD DUP1 DUP4 SUB DUP2 PUSH1 0x0 DUP8 DUP1 EXTCODESIZE ISZERO DUP1 ISZERO PUSH2 0x181B JUMPI PUSH1 0x0 DUP1 REVERT JUMPDEST POP GAS CALL ISZERO DUP1 ISZERO PUSH2 0x182F JUMPI RETURNDATASIZE PUSH1 0x0 DUP1 RETURNDATACOPY RETURNDATASIZE PUSH1 0x0 REVERT JUMPDEST POP POP POP POP PUSH1 0x40 MLOAD RETURNDATASIZE PUSH1 0x1F NOT PUSH1 0x1F DUP3 ADD AND DUP3 ADD DUP1 PUSH1 0x40 MSTORE POP DUP2 ADD SWAP1 PUSH2 0x1853 SWAP2 SWAP1 PUSH2 0x2E6F JUMP JUMPDEST SWAP1 POP DUP1 PUSH2 0x1873 JUMPI PUSH1 0x40 MLOAD PUSH4 0x3BDF630F PUSH1 0xE1 SHL DUP2 MSTORE PUSH1 0x4 ADD PUSH1 0x40 MLOAD DUP1 SWAP2 SUB SWAP1 REVERT JUMPDEST PUSH9 0x2B5E3AF16B1880000 PUSH2 0x18AC PUSH32 0x0 PUSH2 0xFE5 PUSH1 0xC8 DUP9 PUSH2 0x2EA7 JUMP JUMPDEST LT PUSH2 0x1971 JUMPI PUSH2 0x18E4 PUSH9 0x2B5E3AF16B1880000 PUSH32 0x0 PUSH2 0x2BDC JUMP JUMPDEST PUSH2 0x18EE SWAP1 DUP6 PUSH2 0x2EC9 JUMP JUMPDEST DUP3 MSTORE PUSH2 0x1923 PUSH9 0x2B5E3AF16B1880000 PUSH32 0x0 PUSH2 0x2BDC JUMP JUMPDEST PUSH1 0x1 PUSH1 0x1 PUSH1 0xA0 SHL SUB PUSH32 0x0 AND PUSH1 0x0 SWAP1 DUP2 MSTORE PUSH1 0x2 PUSH1 0x20 MSTORE PUSH1 0x40 DUP2 KECCAK256 DUP1 SLOAD SWAP1 SWAP2 SWAP1 PUSH2 0x196B SWAP1 DUP5 SWAP1 PUSH2 0x2EE0 JUMP JUMPDEST SWAP1 SWAP2 SSTORE POP POP JUMPDEST PUSH9 0x2B5E3AF16B1880000 PUSH2 0x19A5 DUP6 PUSH32 0x0 PUSH2 0x2BA6 JUMP JUMPDEST LT ISZERO PUSH2 0x176E JUMPI PUSH2 0x19B6 PUSH1 0xC8 DUP6 PUSH2 0x2EA7 JUMP JUMPDEST PUSH2 0x19C0 SWAP1 DUP6 PUSH2 0x2EC9 JUMP JUMPDEST DUP3 MSTORE PUSH2 0x19CD PUSH1 0xC8 DUP6 PUSH2 0x2EA7 JUMP JUMPDEST PUSH1 0x1 PUSH1 0x1 PUSH1 0xA0 SHL SUB PUSH32 0x0 AND PUSH1 0x0 SWAP1 DUP2 MSTORE PUSH1 0x2 PUSH1 0x20 MSTORE PUSH1 0x40 DUP2 KECCAK256 DUP1 SLOAD SWAP1 SWAP2 SWAP1 PUSH2 0x1768 SWAP1 DUP5 SWAP1 PUSH2 0x2EE0 JUMP JUMPDEST PUSH32 0x0 PUSH1 0x1 PUSH1 0x1 PUSH1 0xA0 SHL SUB AND DUP5 PUSH1 0x1 PUSH1 0x1 PUSH1 0xA0 SHL SUB AND EQ ISZERO PUSH2 0x1CB6 JUMPI PUSH1 0x40 MLOAD PUSH4 0x23B872DD PUSH1 0xE0 SHL DUP2 MSTORE PUSH1 0x0 SWAP1 PUSH1 0x1 PUSH1 0x1 PUSH1 0xA0 SHL SUB PUSH32 0x0 AND SWAP1 PUSH4 0x23B872DD SWAP1 PUSH2 0x1AA2 SWAP1 CALLER SWAP1 ADDRESS SWAP1 DUP10 SWAP1 PUSH1 0x4 ADD PUSH2 0x2EF8 JUMP JUMPDEST PUSH1 0x20 PUSH1 0x40 MLOAD DUP1 DUP4 SUB DUP2 PUSH1 0x0 DUP8 DUP1 EXTCODESIZE ISZERO DUP1 ISZERO PUSH2 0x1ABC JUMPI PUSH1 0x0 DUP1 REVERT JUMPDEST POP GAS CALL ISZERO DUP1 ISZERO PUSH2 0x1AD0 JUMPI RETURNDATASIZE PUSH1 0x0 DUP1 RETURNDATACOPY RETURNDATASIZE PUSH1 0x0 REVERT JUMPDEST POP POP POP POP PUSH1 0x40 MLOAD RETURNDATASIZE PUSH1 0x1F NOT PUSH1 0x1F DUP3 ADD AND DUP3 ADD DUP1 PUSH1 0x40 MSTORE POP DUP2 ADD SWAP1 PUSH2 0x1AF4 SWAP2 SWAP1 PUSH2 0x2E6F JUMP JUMPDEST SWAP1 POP DUP1 PUSH2 0x1B14 JUMPI PUSH1 0x40 MLOAD PUSH4 0x3BDF630F PUSH1 0xE1 SHL DUP2 MSTORE PUSH1 0x4 ADD PUSH1 0x40 MLOAD DUP1 SWAP2 SUB SWAP1 REVERT JUMPDEST PUSH9 0x2B5E3AF16B1880000 PUSH2 0x1B4D PUSH32 0x0 PUSH2 0xFE5 PUSH1 0xC8 DUP9 PUSH2 0x2EA7 JUMP JUMPDEST LT PUSH2 0x1C12 JUMPI PUSH2 0x1B85 PUSH9 0x2B5E3AF16B1880000 PUSH32 0x0 PUSH2 0x2BDC JUMP JUMPDEST PUSH2 0x1B8F SWAP1 DUP6 PUSH2 0x2EC9 JUMP JUMPDEST DUP3 MSTORE PUSH2 0x1BC4 PUSH9 0x2B5E3AF16B1880000 PUSH32 0x0 PUSH2 0x2BDC JUMP JUMPDEST PUSH1 0x1 PUSH1 0x1 PUSH1 0xA0 SHL SUB PUSH32 0x0 AND PUSH1 0x0 SWAP1 DUP2 MSTORE PUSH1 0x2 PUSH1 0x20 MSTORE PUSH1 0x40 DUP2 KECCAK256 DUP1 SLOAD SWAP1 SWAP2 SWAP1 PUSH2 0x1C0C SWAP1 DUP5 SWAP1 PUSH2 0x2EE0 JUMP JUMPDEST SWAP1 SWAP2 SSTORE POP POP JUMPDEST PUSH9 0x2B5E3AF16B1880000 PUSH2 0x1C46 DUP6 PUSH32 0x0 PUSH2 0x2BA6 JUMP JUMPDEST LT ISZERO PUSH2 0x176E JUMPI PUSH2 0x1C57 PUSH1 0xC8 DUP6 PUSH2 0x2EA7 JUMP JUMPDEST PUSH2 0x1C61 SWAP1 DUP6 PUSH2 0x2EC9 JUMP JUMPDEST DUP3 MSTORE PUSH2 0x1C6E PUSH1 0xC8 DUP6 PUSH2 0x2EA7 JUMP JUMPDEST PUSH1 0x1 PUSH1 0x1 PUSH1 0xA0 SHL SUB PUSH32 0x0 AND PUSH1 0x0 SWAP1 DUP2 MSTORE PUSH1 0x2 PUSH1 0x20 MSTORE PUSH1 0x40 DUP2 KECCAK256 DUP1 SLOAD SWAP1 SWAP2 SWAP1 PUSH2 0x1768 SWAP1 DUP5 SWAP1 PUSH2 0x2EE0 JUMP JUMPDEST PUSH32 0x0 PUSH1 0x1 PUSH1 0x1 PUSH1 0xA0 SHL SUB AND DUP5 PUSH1 0x1 PUSH1 0x1 PUSH1 0xA0 SHL SUB AND EQ ISZERO PUSH2 0x1F5F JUMPI PUSH1 0x40 MLOAD PUSH4 0x23B872DD PUSH1 0xE0 SHL DUP2 MSTORE PUSH1 0x0 SWAP1 PUSH1 0x1 PUSH1 0x1 PUSH1 0xA0 SHL SUB PUSH32 0x0 AND SWAP1 PUSH4 0x23B872DD SWAP1 PUSH2 0x1D43 SWAP1 CALLER SWAP1 ADDRESS SWAP1 DUP10 SWAP1 PUSH1 0x4 ADD PUSH2 0x2EF8 JUMP JUMPDEST PUSH1 0x20 PUSH1 0x40 MLOAD DUP1 DUP4 SUB DUP2 PUSH1 0x0 DUP8 DUP1 EXTCODESIZE ISZERO DUP1 ISZERO PUSH2 0x1D5D JUMPI PUSH1 0x0 DUP1 REVERT JUMPDEST POP GAS CALL ISZERO DUP1 ISZERO PUSH2 0x1D71 JUMPI RETURNDATASIZE PUSH1 0x0 DUP1 RETURNDATACOPY RETURNDATASIZE PUSH1 0x0 REVERT JUMPDEST POP POP POP POP PUSH1 0x40 MLOAD RETURNDATASIZE PUSH1 0x1F NOT PUSH1 0x1F DUP3 ADD AND DUP3 ADD DUP1 PUSH1 0x40 MSTORE POP DUP2 ADD SWAP1 PUSH2 0x1D95 SWAP2 SWAP1 PUSH2 0x2E6F JUMP JUMPDEST SWAP1 POP DUP1 PUSH2 0x1DB5 JUMPI PUSH1 0x40 MLOAD PUSH4 0x3BDF630F PUSH1 0xE1 SHL DUP2 MSTORE PUSH1 0x4 ADD PUSH1 0x40 MLOAD DUP1 SWAP2 SUB SWAP1 REVERT JUMPDEST PUSH9 0x2B5E3AF16B1880000 PUSH2 0x1DEE PUSH32 0x0 PUSH2 0xFE5 PUSH1 0xC8 DUP9 PUSH2 0x2EA7 JUMP JUMPDEST LT PUSH2 0x1EB3 JUMPI PUSH2 0x1E26 PUSH9 0x2B5E3AF16B1880000 PUSH32 0x0 PUSH2 0x2BDC JUMP JUMPDEST PUSH2 0x1E30 SWAP1 DUP6 PUSH2 0x2EC9 JUMP JUMPDEST DUP3 MSTORE PUSH2 0x1E65 PUSH9 0x2B5E3AF16B1880000 PUSH32 0x0 PUSH2 0x2BDC JUMP JUMPDEST PUSH1 0x1 PUSH1 0x1 PUSH1 0xA0 SHL SUB PUSH32 0x0 AND PUSH1 0x0 SWAP1 DUP2 MSTORE PUSH1 0x2 PUSH1 0x20 MSTORE PUSH1 0x40 DUP2 KECCAK256 DUP1 SLOAD SWAP1 SWAP2 SWAP1 PUSH2 0x1EAD SWAP1 DUP5 SWAP1 PUSH2 0x2EE0 JUMP JUMPDEST SWAP1 SWAP2 SSTORE POP POP JUMPDEST PUSH9 0x2B5E3AF16B1880000 PUSH2 0x1EE7 DUP6 PUSH32 0x0 PUSH2 0x2BA6 JUMP JUMPDEST LT ISZERO PUSH2 0x1F5D JUMPI PUSH2 0x1EF8 PUSH1 0xC8 DUP6 PUSH2 0x2EA7 JUMP JUMPDEST PUSH2 0x1F02 SWAP1 DUP6 PUSH2 0x2EC9 JUMP JUMPDEST DUP3 MSTORE PUSH2 0x1F0F PUSH1 0xC8 DUP6 PUSH2 0x2EA7 JUMP JUMPDEST PUSH1 0x1 PUSH1 0x1 PUSH1 0xA0 SHL SUB PUSH32 0x0 AND PUSH1 0x0 SWAP1 DUP2 MSTORE PUSH1 0x2 PUSH1 0x20 MSTORE PUSH1 0x40 DUP2 KECCAK256 DUP1 SLOAD SWAP1 SWAP2 SWAP1 PUSH2 0x1F57 SWAP1 DUP5 SWAP1 PUSH2 0x2EE0 JUMP JUMPDEST SWAP1 SWAP2 SSTORE POP POP JUMPDEST POP JUMPDEST CALLER PUSH1 0x20 DUP3 DUP2 ADD DUP3 SWAP1 MSTORE PUSH1 0x1 PUSH1 0x1 PUSH1 0xA0 SHL SUB DUP9 DUP2 AND PUSH1 0x40 DUP1 DUP7 ADD DUP3 SWAP1 MSTORE PUSH1 0x0 SWAP5 DUP6 MSTORE PUSH1 0x3 DUP5 MSTORE DUP1 DUP6 KECCAK256 SLOAD PUSH1 0x60 DUP8 ADD MSTORE SWAP1 DUP5 MSTORE PUSH1 0x4 SWAP1 SWAP3 MSTORE SWAP1 DUP3 KECCAK256 SLOAD PUSH1 0x80 DUP5 ADD MSTORE PUSH1 0xA0 DUP4 ADD DUP8 SWAP1 MSTORE DUP6 AND PUSH1 0xC0 DUP4 ADD MSTORE PUSH1 0xE0 DUP3 ADD DUP2 SWAP1 MSTORE POP CALLER PUSH1 0x0 SWAP1 DUP2 MSTORE PUSH1 0x3 PUSH1 0x20 DUP2 DUP2 MSTORE PUSH1 0x40 DUP1 DUP5 KECCAK256 DUP1 SLOAD PUSH1 0x1 DUP1 DUP3 ADD DUP4 SSTORE SWAP2 DUP7 MSTORE SWAP5 DUP4 SWAP1 KECCAK256 DUP7 MLOAD PUSH1 0x7 SWAP1 SWAP7 MUL ADD SWAP5 DUP6 SSTORE SWAP2 DUP6 ADD MLOAD SWAP2 DUP5 ADD DUP1 SLOAD PUSH1 0x1 PUSH1 0x1 PUSH1 0xA0 SHL SUB NOT SWAP1 DUP2 AND PUSH1 0x1 PUSH1 0x1 PUSH1 0xA0 SHL SUB SWAP5 DUP6 AND OR SWAP1 SWAP2 SSTORE SWAP1 DUP6 ADD MLOAD PUSH1 0x2 DUP1 DUP7 ADD DUP1 SLOAD DUP5 AND SWAP3 DUP6 AND SWAP3 SWAP1 SWAP3 OR SWAP1 SWAP2 SSTORE PUSH1 0x60 DUP7 ADD MLOAD SWAP4 DUP6 ADD SWAP4 SWAP1 SWAP4 SSTORE PUSH1 0x80 DUP6 ADD MLOAD PUSH1 0x4 DUP6 ADD SSTORE PUSH1 0xA0 DUP6 ADD MLOAD PUSH1 0x5 DUP6 ADD SSTORE PUSH1 0xC0 DUP6 ADD MLOAD PUSH1 0x6 DUP6 ADD DUP1 SLOAD SWAP3 DUP4 AND SWAP2 SWAP1 SWAP4 AND SWAP1 DUP2 OR DUP4 SSTORE PUSH1 0xE0 DUP7 ADD MLOAD DUP7 SWAP6 SWAP5 SWAP1 SWAP4 SWAP3 PUSH1 0x1 PUSH1 0x1 PUSH1 0xA8 SHL SUB NOT AND SWAP1 SWAP2 OR SWAP1 PUSH1 0x1 PUSH1 0xA0 SHL SWAP1 DUP5 SWAP1 DUP2 GT ISZERO PUSH2 0x2083 JUMPI PUSH2 0x2083 PUSH2 0x2CFF JUMP JUMPDEST MUL OR SWAP1 SSTORE POP POP POP PUSH1 0x1 PUSH1 0x1 PUSH1 0xA0 SHL SUB DUP1 DUP8 AND PUSH1 0x0 SWAP1 DUP2 MSTORE PUSH1 0x4 PUSH1 0x20 DUP2 DUP2 MSTORE PUSH1 0x40 DUP1 DUP5 KECCAK256 DUP1 SLOAD PUSH1 0x1 DUP2 DUP2 ADD DUP4 SSTORE SWAP2 DUP7 MSTORE SWAP5 DUP4 SWAP1 KECCAK256 DUP8 MLOAD PUSH1 0x7 SWAP1 SWAP7 MUL ADD SWAP5 DUP6 SSTORE SWAP2 DUP7 ADD MLOAD SWAP2 DUP5 ADD DUP1 SLOAD SWAP3 DUP7 AND PUSH1 0x1 PUSH1 0x1 PUSH1 0xA0 SHL SUB NOT SWAP4 DUP5 AND OR SWAP1 SSTORE DUP6 ADD MLOAD PUSH1 0x2 DUP1 DUP6 ADD DUP1 SLOAD SWAP3 DUP8 AND SWAP3 DUP5 AND SWAP3 SWAP1 SWAP3 OR SWAP1 SWAP2 SSTORE PUSH1 0x60 DUP7 ADD MLOAD PUSH1 0x3 DUP6 ADD SSTORE PUSH1 0x80 DUP7 ADD MLOAD SWAP3 DUP5 ADD SWAP3 SWAP1 SWAP3 SSTORE PUSH1 0xA0 DUP6 ADD MLOAD PUSH1 0x5 DUP5 ADD SSTORE PUSH1 0xC0 DUP6 ADD MLOAD PUSH1 0x6 DUP5 ADD DUP1 SLOAD SWAP2 SWAP1 SWAP6 AND SWAP2 DUP2 AND DUP3 OR DUP6 SSTORE PUSH1 0xE0 DUP7 ADD MLOAD DUP7 SWAP6 SWAP1 SWAP4 SWAP1 SWAP3 PUSH1 0x1 PUSH1 0x1 PUSH1 0xA8 SHL SUB NOT SWAP1 SWAP3 AND SWAP1 SWAP2 OR SWAP1 PUSH1 0x1 PUSH1 0xA0 SHL SWAP1 DUP5 SWAP1 DUP2 GT ISZERO PUSH2 0x215B JUMPI PUSH2 0x215B PUSH2 0x2CFF JUMP JUMPDEST MUL OR SWAP1 SSTORE POP POP POP DUP1 PUSH1 0x40 MLOAD PUSH2 0x2170 SWAP2 SWAP1 PUSH2 0x2DEB JUMP JUMPDEST PUSH1 0x40 MLOAD SWAP1 DUP2 SWAP1 SUB DUP2 KECCAK256 SWAP1 CALLER SWAP1 PUSH32 0x14F09417CD81E1BFBA59388F82B41657119F594C9C473945C0EA1311C6486939 SWAP1 PUSH1 0x0 SWAP1 LOG3 POP POP JUMPDEST POP POP POP POP JUMP JUMPDEST PUSH1 0x0 PUSH1 0x4 PUSH1 0x0 PUSH2 0x21B9 PUSH2 0x2AD3 JUMP JUMPDEST PUSH1 0x1 PUSH1 0x1 PUSH1 0xA0 SHL SUB AND PUSH1 0x1 PUSH1 0x1 PUSH1 0xA0 SHL SUB AND DUP2 MSTORE PUSH1 0x20 ADD SWAP1 DUP2 MSTORE PUSH1 0x20 ADD PUSH1 0x0 KECCAK256 DUP1 SLOAD DUP1 PUSH1 0x20 MUL PUSH1 0x20 ADD PUSH1 0x40 MLOAD SWAP1 DUP2 ADD PUSH1 0x40 MSTORE DUP1 SWAP3 SWAP2 SWAP1 DUP2 DUP2 MSTORE PUSH1 0x20 ADD PUSH1 0x0 SWAP1 JUMPDEST DUP3 DUP3 LT ISZERO PUSH2 0x22B9 JUMPI PUSH1 0x0 DUP5 DUP2 MSTORE PUSH1 0x20 SWAP1 DUP2 SWAP1 KECCAK256 PUSH1 0x40 DUP1 MLOAD PUSH2 0x100 DUP2 ADD DUP3 MSTORE PUSH1 0x7 DUP7 MUL SWAP1 SWAP3 ADD DUP1 SLOAD DUP4 MSTORE PUSH1 0x1 DUP2 ADD SLOAD PUSH1 0x1 PUSH1 0x1 PUSH1 0xA0 SHL SUB SWAP1 DUP2 AND SWAP5 DUP5 ADD SWAP5 SWAP1 SWAP5 MSTORE PUSH1 0x2 DUP1 DUP3 ADD SLOAD DUP6 AND SWAP3 DUP5 ADD SWAP3 SWAP1 SWAP3 MSTORE PUSH1 0x3 DUP2 ADD SLOAD PUSH1 0x60 DUP5 ADD MSTORE PUSH1 0x4 DUP2 ADD SLOAD PUSH1 0x80 DUP5 ADD MSTORE PUSH1 0x5 DUP2 ADD SLOAD PUSH1 0xA0 DUP5 ADD MSTORE PUSH1 0x6 DUP2 ADD SLOAD SWAP4 DUP5 AND PUSH1 0xC0 DUP5 ADD MSTORE SWAP2 SWAP3 PUSH1 0xE0 DUP5 ADD SWAP2 PUSH1 0x1 PUSH1 0xA0 SHL SWAP1 SWAP2 DIV PUSH1 0xFF AND SWAP1 DUP2 GT ISZERO PUSH2 0x2295 JUMPI PUSH2 0x2295 PUSH2 0x2CFF JUMP JUMPDEST PUSH1 0x2 DUP2 GT ISZERO PUSH2 0x22A6 JUMPI PUSH2 0x22A6 PUSH2 0x2CFF JUMP JUMPDEST DUP2 MSTORE POP POP DUP2 MSTORE PUSH1 0x20 ADD SWAP1 PUSH1 0x1 ADD SWAP1 PUSH2 0x21F9 JUMP JUMPDEST POP POP POP POP SWAP1 POP DUP1 MLOAD PUSH1 0x0 EQ ISZERO PUSH2 0x22E2 JUMPI PUSH1 0x40 MLOAD PUSH4 0x18BE8DB1 PUSH1 0xE1 SHL DUP2 MSTORE PUSH1 0x4 ADD PUSH1 0x40 MLOAD DUP1 SWAP2 SUB SWAP1 REVERT JUMPDEST PUSH1 0x0 JUMPDEST DUP2 MLOAD DUP2 LT ISZERO PUSH2 0x29E9 JUMPI DUP3 DUP3 DUP3 DUP2 MLOAD DUP2 LT PUSH2 0x2301 JUMPI PUSH2 0x2301 PUSH2 0x2DD5 JUMP JUMPDEST PUSH1 0x20 MUL PUSH1 0x20 ADD ADD MLOAD PUSH1 0xA0 ADD MLOAD EQ ISZERO PUSH2 0x29BE JUMPI PUSH1 0x0 DUP1 DUP4 DUP4 DUP2 MLOAD DUP2 LT PUSH2 0x2328 JUMPI PUSH2 0x2328 PUSH2 0x2DD5 JUMP JUMPDEST PUSH1 0x20 MUL PUSH1 0x20 ADD ADD MLOAD PUSH1 0xE0 ADD MLOAD PUSH1 0x2 DUP2 GT ISZERO PUSH2 0x2345 JUMPI PUSH2 0x2345 PUSH2 0x2CFF JUMP JUMPDEST EQ ISZERO SWAP1 POP PUSH1 0x0 PUSH2 0x2353 PUSH2 0x2AD3 JUMP JUMPDEST PUSH1 0x1 PUSH1 0x1 PUSH1 0xA0 SHL SUB AND DUP5 DUP5 DUP2 MLOAD DUP2 LT PUSH2 0x236E JUMPI PUSH2 0x236E PUSH2 0x2DD5 JUMP JUMPDEST PUSH1 0x20 MUL PUSH1 0x20 ADD ADD MLOAD PUSH1 0x40 ADD MLOAD PUSH1 0x1 PUSH1 0x1 PUSH1 0xA0 SHL SUB AND EQ ISZERO SWAP1 POP PUSH1 0x0 DUP3 DUP1 PUSH2 0x2392 JUMPI POP DUP2 JUMPDEST SWAP1 POP DUP1 ISZERO PUSH2 0x23B3 JUMPI PUSH1 0x40 MLOAD PUSH4 0xDE175B07 PUSH1 0xE0 SHL DUP2 MSTORE PUSH1 0x4 ADD PUSH1 0x40 MLOAD DUP1 SWAP2 SUB SWAP1 REVERT JUMPDEST PUSH1 0x2 PUSH1 0x3 PUSH1 0x0 DUP8 DUP8 DUP2 MLOAD DUP2 LT PUSH2 0x23CB JUMPI PUSH2 0x23CB PUSH2 0x2DD5 JUMP JUMPDEST PUSH1 0x20 MUL PUSH1 0x20 ADD ADD MLOAD PUSH1 0x20 ADD MLOAD PUSH1 0x1 PUSH1 0x1 PUSH1 0xA0 SHL SUB AND PUSH1 0x1 PUSH1 0x1 PUSH1 0xA0 SHL SUB AND DUP2 MSTORE PUSH1 0x20 ADD SWAP1 DUP2 MSTORE PUSH1 0x20 ADD PUSH1 0x0 KECCAK256 DUP7 DUP7 DUP2 MLOAD DUP2 LT PUSH2 0x2409 JUMPI PUSH2 0x2409 PUSH2 0x2DD5 JUMP JUMPDEST PUSH1 0x20 MUL PUSH1 0x20 ADD ADD MLOAD PUSH1 0x60 ADD MLOAD DUP2 SLOAD DUP2 LT PUSH2 0x2425 JUMPI PUSH2 0x2425 PUSH2 0x2DD5 JUMP JUMPDEST PUSH1 0x0 SWAP2 DUP3 MSTORE PUSH1 0x20 SWAP1 SWAP2 KECCAK256 PUSH1 0x6 PUSH1 0x7 SWAP1 SWAP3 MUL ADD ADD DUP1 SLOAD PUSH1 0xFF PUSH1 0xA0 SHL NOT AND PUSH1 0x1 PUSH1 0xA0 SHL DUP4 PUSH1 0x2 DUP2 GT ISZERO PUSH2 0x2458 JUMPI PUSH2 0x2458 PUSH2 0x2CFF JUMP JUMPDEST MUL OR SWAP1 SSTORE POP PUSH1 0x2 PUSH1 0x4 PUSH1 0x0 PUSH2 0x246B PUSH2 0x2AD3 JUMP JUMPDEST PUSH1 0x1 PUSH1 0x1 PUSH1 0xA0 SHL SUB AND PUSH1 0x1 PUSH1 0x1 PUSH1 0xA0 SHL SUB AND DUP2 MSTORE PUSH1 0x20 ADD SWAP1 DUP2 MSTORE PUSH1 0x20 ADD PUSH1 0x0 KECCAK256 DUP6 DUP2 SLOAD DUP2 LT PUSH2 0x249C JUMPI PUSH2 0x249C PUSH2 0x2DD5 JUMP JUMPDEST PUSH1 0x0 SWAP2 DUP3 MSTORE PUSH1 0x20 SWAP1 SWAP2 KECCAK256 PUSH1 0x6 PUSH1 0x7 SWAP1 SWAP3 MUL ADD ADD DUP1 SLOAD PUSH1 0xFF PUSH1 0xA0 SHL NOT AND PUSH1 0x1 PUSH1 0xA0 SHL DUP4 PUSH1 0x2 DUP2 GT ISZERO PUSH2 0x24CF JUMPI PUSH2 0x24CF PUSH2 0x2CFF JUMP JUMPDEST MUL OR SWAP1 SSTORE POP DUP5 DUP5 DUP2 MLOAD DUP2 LT PUSH2 0x24E6 JUMPI PUSH2 0x24E6 PUSH2 0x2DD5 JUMP JUMPDEST PUSH1 0x20 MUL PUSH1 0x20 ADD ADD MLOAD PUSH1 0x40 MLOAD PUSH2 0x24FB SWAP2 SWAP1 PUSH2 0x2DEB JUMP JUMPDEST PUSH1 0x40 MLOAD DUP1 SWAP2 SUB SWAP1 KECCAK256 PUSH2 0x250B PUSH2 0x2AD3 JUMP JUMPDEST PUSH1 0x1 PUSH1 0x1 PUSH1 0xA0 SHL SUB AND PUSH32 0x412146E6C5C0D9FA5D624F14B4C55723679F8838083B2B4EB8875CAB8D78BD1C PUSH1 0x40 MLOAD PUSH1 0x40 MLOAD DUP1 SWAP2 SUB SWAP1 LOG3 PUSH1 0x0 PUSH1 0x1 PUSH1 0x1 PUSH1 0xA0 SHL SUB AND DUP6 DUP6 DUP2 MLOAD DUP2 LT PUSH2 0x255D JUMPI PUSH2 0x255D PUSH2 0x2DD5 JUMP JUMPDEST PUSH1 0x20 MUL PUSH1 0x20 ADD ADD MLOAD PUSH1 0xC0 ADD MLOAD PUSH1 0x1 PUSH1 0x1 PUSH1 0xA0 SHL SUB AND EQ ISZERO PUSH2 0x2612 JUMPI PUSH1 0x0 PUSH2 0x2582 PUSH2 0x2AD3 JUMP JUMPDEST PUSH1 0x1 PUSH1 0x1 PUSH1 0xA0 SHL SUB AND DUP7 DUP7 DUP2 MLOAD DUP2 LT PUSH2 0x259D JUMPI PUSH2 0x259D PUSH2 0x2DD5 JUMP JUMPDEST PUSH1 0x20 SWAP1 DUP2 MUL SWAP2 SWAP1 SWAP2 ADD ADD MLOAD MLOAD PUSH1 0x40 MLOAD PUSH1 0x0 DUP2 DUP2 DUP2 DUP6 DUP8 GAS CALL SWAP3 POP POP POP RETURNDATASIZE DUP1 PUSH1 0x0 DUP2 EQ PUSH2 0x25E5 JUMPI PUSH1 0x40 MLOAD SWAP2 POP PUSH1 0x1F NOT PUSH1 0x3F RETURNDATASIZE ADD AND DUP3 ADD PUSH1 0x40 MSTORE RETURNDATASIZE DUP3 MSTORE RETURNDATASIZE PUSH1 0x0 PUSH1 0x20 DUP5 ADD RETURNDATACOPY PUSH2 0x25EA JUMP JUMPDEST PUSH1 0x60 SWAP2 POP JUMPDEST POP POP SWAP1 POP DUP1 PUSH2 0x260C JUMPI PUSH1 0x40 MLOAD PUSH4 0x3BDF630F PUSH1 0xE1 SHL DUP2 MSTORE PUSH1 0x4 ADD PUSH1 0x40 MLOAD DUP1 SWAP2 SUB SWAP1 REVERT JUMPDEST POP PUSH2 0x29B6 JUMP JUMPDEST PUSH32 0x0 PUSH1 0x1 PUSH1 0x1 PUSH1 0xA0 SHL SUB AND DUP6 DUP6 DUP2 MLOAD DUP2 LT PUSH2 0x264E JUMPI PUSH2 0x264E PUSH2 0x2DD5 JUMP JUMPDEST PUSH1 0x20 MUL PUSH1 0x20 ADD ADD MLOAD PUSH1 0xC0 ADD MLOAD PUSH1 0x1 PUSH1 0x1 PUSH1 0xA0 SHL SUB AND EQ ISZERO PUSH2 0x2748 JUMPI PUSH1 0x0 PUSH32 0x0 PUSH1 0x1 PUSH1 0x1 PUSH1 0xA0 SHL SUB AND PUSH4 0xA9059CBB CALLER DUP9 DUP9 DUP2 MLOAD DUP2 LT PUSH2 0x26AD JUMPI PUSH2 0x26AD PUSH2 0x2DD5 JUMP JUMPDEST PUSH1 0x20 MUL PUSH1 0x20 ADD ADD MLOAD PUSH1 0x0 ADD MLOAD PUSH1 0x40 MLOAD DUP4 PUSH4 0xFFFFFFFF AND PUSH1 0xE0 SHL DUP2 MSTORE PUSH1 0x4 ADD PUSH2 0x26D6 SWAP3 SWAP2 SWAP1 PUSH2 0x2E56 JUMP JUMPDEST PUSH1 0x20 PUSH1 0x40 MLOAD DUP1 DUP4 SUB DUP2 PUSH1 0x0 DUP8 DUP1 EXTCODESIZE ISZERO DUP1 ISZERO PUSH2 0x26F0 JUMPI PUSH1 0x0 DUP1 REVERT JUMPDEST POP GAS CALL ISZERO DUP1 ISZERO PUSH2 0x2704 JUMPI RETURNDATASIZE PUSH1 0x0 DUP1 RETURNDATACOPY RETURNDATASIZE PUSH1 0x0 REVERT JUMPDEST POP POP POP POP PUSH1 0x40 MLOAD RETURNDATASIZE PUSH1 0x1F NOT PUSH1 0x1F DUP3 ADD AND DUP3 ADD DUP1 PUSH1 0x40 MSTORE POP DUP2 ADD SWAP1 PUSH2 0x2728 SWAP2 SWAP1 PUSH2 0x2E6F JUMP JUMPDEST SWAP1 POP DUP1 PUSH2 0x260C JUMPI PUSH1 0x40 MLOAD PUSH4 0x3BDF630F PUSH1 0xE1 SHL DUP2 MSTORE PUSH1 0x4 ADD PUSH1 0x40 MLOAD DUP1 SWAP2 SUB SWAP1 REVERT JUMPDEST PUSH32 0x0 PUSH1 0x1 PUSH1 0x1 PUSH1 0xA0 SHL SUB AND DUP6 DUP6 DUP2 MLOAD DUP2 LT PUSH2 0x2784 JUMPI PUSH2 0x2784 PUSH2 0x2DD5 JUMP JUMPDEST PUSH1 0x20 MUL PUSH1 0x20 ADD ADD MLOAD PUSH1 0xC0 ADD MLOAD PUSH1 0x1 PUSH1 0x1 PUSH1 0xA0 SHL SUB AND EQ ISZERO PUSH2 0x27E3 JUMPI PUSH1 0x0 PUSH32 0x0 PUSH1 0x1 PUSH1 0x1 PUSH1 0xA0 SHL SUB AND PUSH4 0xA9059CBB CALLER DUP9 DUP9 DUP2 MLOAD DUP2 LT PUSH2 0x26AD JUMPI PUSH2 0x26AD PUSH2 0x2DD5 JUMP JUMPDEST PUSH32 0x0 PUSH1 0x1 PUSH1 0x1 PUSH1 0xA0 SHL SUB AND DUP6 DUP6 DUP2 MLOAD DUP2 LT PUSH2 0x281F JUMPI PUSH2 0x281F PUSH2 0x2DD5 JUMP JUMPDEST PUSH1 0x20 MUL PUSH1 0x20 ADD ADD MLOAD PUSH1 0xC0 ADD MLOAD PUSH1 0x1 PUSH1 0x1 PUSH1 0xA0 SHL SUB AND EQ ISZERO PUSH2 0x287E JUMPI PUSH1 0x0 PUSH32 0x0 PUSH1 0x1 PUSH1 0x1 PUSH1 0xA0 SHL SUB AND PUSH4 0xA9059CBB CALLER DUP9 DUP9 DUP2 MLOAD DUP2 LT PUSH2 0x26AD JUMPI PUSH2 0x26AD PUSH2 0x2DD5 JUMP JUMPDEST PUSH32 0x0 PUSH1 0x1 PUSH1 0x1 PUSH1 0xA0 SHL SUB AND DUP6 DUP6 DUP2 MLOAD DUP2 LT PUSH2 0x28BA JUMPI PUSH2 0x28BA PUSH2 0x2DD5 JUMP JUMPDEST PUSH1 0x20 MUL PUSH1 0x20 ADD ADD MLOAD PUSH1 0xC0 ADD MLOAD PUSH1 0x1 PUSH1 0x1 PUSH1 0xA0 SHL SUB AND EQ ISZERO PUSH2 0x29B6 JUMPI PUSH1 0x0 PUSH32 0x0 PUSH1 0x1 PUSH1 0x1 PUSH1 0xA0 SHL SUB AND PUSH4 0xA9059CBB CALLER DUP9 DUP9 DUP2 MLOAD DUP2 LT PUSH2 0x2919 JUMPI PUSH2 0x2919 PUSH2 0x2DD5 JUMP JUMPDEST PUSH1 0x20 MUL PUSH1 0x20 ADD ADD MLOAD PUSH1 0x0 ADD MLOAD PUSH1 0x40 MLOAD DUP4 PUSH4 0xFFFFFFFF AND PUSH1 0xE0 SHL DUP2 MSTORE PUSH1 0x4 ADD PUSH2 0x2942 SWAP3 SWAP2 SWAP1 PUSH2 0x2E56 JUMP JUMPDEST PUSH1 0x20 PUSH1 0x40 MLOAD DUP1 DUP4 SUB DUP2 PUSH1 0x0 DUP8 DUP1 EXTCODESIZE ISZERO DUP1 ISZERO PUSH2 0x295C JUMPI PUSH1 0x0 DUP1 REVERT JUMPDEST POP GAS CALL ISZERO DUP1 ISZERO PUSH2 0x2970 JUMPI RETURNDATASIZE PUSH1 0x0 DUP1 RETURNDATACOPY RETURNDATASIZE PUSH1 0x0 REVERT JUMPDEST POP POP POP POP PUSH1 0x40 MLOAD RETURNDATASIZE PUSH1 0x1F NOT PUSH1 0x1F DUP3 ADD AND DUP3 ADD DUP1 PUSH1 0x40 MSTORE POP DUP2 ADD SWAP1 PUSH2 0x2994 SWAP2 SWAP1 PUSH2 0x2E6F JUMP JUMPDEST SWAP1 POP DUP1 PUSH2 0x29B4 JUMPI PUSH1 0x40 MLOAD PUSH4 0x3BDF630F PUSH1 0xE1 SHL DUP2 MSTORE PUSH1 0x4 ADD PUSH1 0x40 MLOAD DUP1 SWAP2 SUB SWAP1 REVERT JUMPDEST POP JUMPDEST POP POP POP PUSH2 0x29D7 JUMP JUMPDEST PUSH1 0x40 MLOAD PUSH4 0x3F4BA893 PUSH1 0xE1 SHL DUP2 MSTORE PUSH1 0x4 ADD PUSH1 0x40 MLOAD DUP1 SWAP2 SUB SWAP1 REVERT JUMPDEST DUP1 PUSH2 0x29E1 DUP2 PUSH2 0x2F1C JUMP JUMPDEST SWAP2 POP POP PUSH2 0x22E5 JUMP JUMPDEST POP POP POP JUMP JUMPDEST PUSH1 0x3 PUSH1 0x20 MSTORE DUP2 PUSH1 0x0 MSTORE PUSH1 0x40 PUSH1 0x0 KECCAK256 DUP2 DUP2 SLOAD DUP2 LT PUSH2 0xEC8 JUMPI PUSH1 0x0 DUP1 REVERT JUMPDEST PUSH2 0x2A12 PUSH2 0x2ADD JUMP JUMPDEST PUSH1 0x1 PUSH1 0x1 PUSH1 0xA0 SHL SUB DUP2 AND PUSH2 0x2A7C JUMPI PUSH1 0x40 MLOAD PUSH3 0x461BCD PUSH1 0xE5 SHL DUP2 MSTORE PUSH1 0x20 PUSH1 0x4 DUP3 ADD MSTORE PUSH1 0x26 PUSH1 0x24 DUP3 ADD MSTORE PUSH32 0x4F776E61626C653A206E6577206F776E657220697320746865207A65726F2061 PUSH1 0x44 DUP3 ADD MSTORE PUSH6 0x646472657373 PUSH1 0xD0 SHL PUSH1 0x64 DUP3 ADD MSTORE PUSH1 0x84 ADD JUMPDEST PUSH1 0x40 MLOAD DUP1 SWAP2 SUB SWAP1 REVERT JUMPDEST PUSH2 0xE2F DUP2 PUSH2 0x2B56 JUMP JUMPDEST PUSH1 0x0 PUSH32 0x0 PUSH1 0x1 PUSH1 0x1 PUSH1 0xA0 SHL SUB AND CALLER EQ ISZERO PUSH2 0x2AC5 JUMPI POP PUSH1 0x13 NOT CALLDATASIZE ADD CALLDATALOAD PUSH1 0x60 SHR SWAP1 JUMP JUMPDEST POP CALLER SWAP1 JUMP JUMPDEST SWAP1 POP SWAP1 JUMP JUMPDEST CALLER SWAP1 JUMP JUMPDEST PUSH1 0x0 PUSH2 0x2ACA PUSH2 0x2A85 JUMP JUMPDEST PUSH2 0x2AE5 PUSH2 0x2AD3 JUMP JUMPDEST PUSH1 0x1 PUSH1 0x1 PUSH1 0xA0 SHL SUB AND PUSH2 0x2B00 PUSH1 0x0 SLOAD PUSH1 0x1 PUSH1 0x1 PUSH1 0xA0 SHL SUB AND SWAP1 JUMP JUMPDEST PUSH1 0x1 PUSH1 0x1 PUSH1 0xA0 SHL SUB AND EQ PUSH2 0xF36 JUMPI PUSH1 0x40 MLOAD PUSH3 0x461BCD PUSH1 0xE5 SHL DUP2 MSTORE PUSH1 0x20 PUSH1 0x4 DUP3 ADD DUP2 SWAP1 MSTORE PUSH1 0x24 DUP3 ADD MSTORE PUSH32 0x4F776E61626C653A2063616C6C6572206973206E6F7420746865206F776E6572 PUSH1 0x44 DUP3 ADD MSTORE PUSH1 0x64 ADD PUSH2 0x2A73 JUMP JUMPDEST PUSH1 0x0 DUP1 SLOAD PUSH1 0x1 PUSH1 0x1 PUSH1 0xA0 SHL SUB DUP4 DUP2 AND PUSH1 0x1 PUSH1 0x1 PUSH1 0xA0 SHL SUB NOT DUP4 AND DUP2 OR DUP5 SSTORE PUSH1 0x40 MLOAD SWAP2 SWAP1 SWAP3 AND SWAP3 DUP4 SWAP2 PUSH32 0x8BE0079C531659141344CD1FD0A4F28419497F9722A3DAAFE3B4186F6B6457E0 SWAP2 SWAP1 LOG3 POP POP JUMP JUMPDEST PUSH1 0x0 DUP1 PUSH2 0x2BB2 DUP4 PUSH2 0x2BF6 JUMP JUMPDEST SWAP1 POP PUSH1 0x0 PUSH8 0xDE0B6B3A7640000 PUSH2 0x2BC9 DUP4 DUP8 PUSH2 0x2F37 JUMP JUMPDEST PUSH2 0x2BD3 SWAP2 SWAP1 PUSH2 0x2EA7 JUMP JUMPDEST SWAP6 SWAP5 POP POP POP POP POP JUMP JUMPDEST PUSH1 0x0 DUP1 PUSH2 0x2BE8 DUP4 PUSH2 0x2BF6 JUMP JUMPDEST SWAP1 POP PUSH1 0x0 PUSH2 0x2BD3 DUP3 DUP7 PUSH2 0x2EA7 JUMP JUMPDEST PUSH1 0x0 DUP1 DUP3 PUSH1 0x1 PUSH1 0x1 PUSH1 0xA0 SHL SUB AND PUSH4 0xFEAF968C PUSH1 0x40 MLOAD DUP2 PUSH4 0xFFFFFFFF AND PUSH1 0xE0 SHL DUP2 MSTORE PUSH1 0x4 ADD PUSH1 0xA0 PUSH1 0x40 MLOAD DUP1 DUP4 SUB DUP2 DUP7 DUP1 EXTCODESIZE ISZERO DUP1 ISZERO PUSH2 0x2C32 JUMPI PUSH1 0x0 DUP1 REVERT JUMPDEST POP GAS STATICCALL ISZERO DUP1 ISZERO PUSH2 0x2C46 JUMPI RETURNDATASIZE PUSH1 0x0 DUP1 RETURNDATACOPY RETURNDATASIZE PUSH1 0x0 REVERT JUMPDEST POP POP POP POP PUSH1 0x40 MLOAD RETURNDATASIZE PUSH1 0x1F NOT PUSH1 0x1F DUP3 ADD AND DUP3 ADD DUP1 PUSH1 0x40 MSTORE POP DUP2 ADD SWAP1 PUSH2 0x2C6A SWAP2 SWAP1 PUSH2 0x2F75 JUMP JUMPDEST POP POP POP SWAP2 POP POP DUP1 PUSH5 0x2540BE400 PUSH2 0x2C81 SWAP2 SWAP1 PUSH2 0x2FC5 JUMP JUMPDEST SWAP4 SWAP3 POP POP POP JUMP JUMPDEST PUSH1 0x0 PUSH1 0x20 DUP3 DUP5 SUB SLT ISZERO PUSH2 0x2C9A JUMPI PUSH1 0x0 DUP1 REVERT JUMPDEST POP CALLDATALOAD SWAP2 SWAP1 POP JUMP JUMPDEST PUSH1 0x1 PUSH1 0x1 PUSH1 0xA0 SHL SUB DUP2 AND DUP2 EQ PUSH2 0xE2F JUMPI PUSH1 0x0 DUP1 REVERT JUMPDEST PUSH1 0x0 PUSH1 0x20 DUP3 DUP5 SUB SLT ISZERO PUSH2 0x2CC8 JUMPI PUSH1 0x0 DUP1 REVERT JUMPDEST DUP2 CALLDATALOAD PUSH2 0x2C81 DUP2 PUSH2 0x2CA1 JUMP JUMPDEST PUSH1 0x0 DUP1 PUSH1 0x40 DUP4 DUP6 SUB SLT ISZERO PUSH2 0x2CE6 JUMPI PUSH1 0x0 DUP1 REVERT JUMPDEST DUP3 CALLDATALOAD PUSH2 0x2CF1 DUP2 PUSH2 0x2CA1 JUMP JUMPDEST SWAP5 PUSH1 0x20 SWAP4 SWAP1 SWAP4 ADD CALLDATALOAD SWAP4 POP POP POP JUMP JUMPDEST PUSH4 0x4E487B71 PUSH1 0xE0 SHL PUSH1 0x0 MSTORE PUSH1 0x21 PUSH1 0x4 MSTORE PUSH1 0x24 PUSH1 0x0 REVERT JUMPDEST PUSH1 0x3 DUP2 LT PUSH2 0x2D33 JUMPI PUSH4 0x4E487B71 PUSH1 0xE0 SHL PUSH1 0x0 MSTORE PUSH1 0x21 PUSH1 0x4 MSTORE PUSH1 0x24 PUSH1 0x0 REVERT JUMPDEST SWAP1 MSTORE JUMP JUMPDEST DUP9 DUP2 MSTORE PUSH1 0x1 PUSH1 0x1 PUSH1 0xA0 SHL SUB DUP9 DUP2 AND PUSH1 0x20 DUP4 ADD MSTORE DUP8 DUP2 AND PUSH1 0x40 DUP4 ADD MSTORE PUSH1 0x60 DUP3 ADD DUP8 SWAP1 MSTORE PUSH1 0x80 DUP3 ADD DUP7 SWAP1 MSTORE PUSH1 0xA0 DUP3 ADD DUP6 SWAP1 MSTORE DUP4 AND PUSH1 0xC0 DUP3 ADD MSTORE PUSH2 0x100 DUP2 ADD PUSH2 0x2D80 PUSH1 0xE0 DUP4 ADD DUP5 PUSH2 0x2D15 JUMP JUMPDEST SWAP10 SWAP9 POP POP POP POP POP POP POP POP POP JUMP JUMPDEST PUSH1 0x0 DUP1 PUSH1 0x0 DUP1 PUSH1 0x80 DUP6 DUP8 SUB SLT ISZERO PUSH2 0x2DA3 JUMPI PUSH1 0x0 DUP1 REVERT JUMPDEST DUP5 CALLDATALOAD PUSH2 0x2DAE DUP2 PUSH2 0x2CA1 JUMP JUMPDEST SWAP4 POP PUSH1 0x20 DUP6 ADD CALLDATALOAD SWAP3 POP PUSH1 0x40 DUP6 ADD CALLDATALOAD PUSH2 0x2DC5 DUP2 PUSH2 0x2CA1 JUMP JUMPDEST SWAP4 SWAP7 SWAP3 SWAP6 POP SWAP3 SWAP4 PUSH1 0x60 ADD CALLDATALOAD SWAP3 POP POP JUMP JUMPDEST PUSH4 0x4E487B71 PUSH1 0xE0 SHL PUSH1 0x0 MSTORE PUSH1 0x32 PUSH1 0x4 MSTORE PUSH1 0x24 PUSH1 0x0 REVERT JUMPDEST DUP2 MLOAD DUP2 MSTORE PUSH1 0x0 PUSH1 0x1 DUP1 PUSH1 0xA0 SHL SUB DUP1 PUSH1 0x20 DUP6 ADD MLOAD AND PUSH1 0x20 DUP5 ADD MSTORE DUP1 PUSH1 0x40 DUP6 ADD MLOAD AND PUSH1 0x40 DUP5 ADD MSTORE PUSH1 0x60 DUP5 ADD MLOAD PUSH1 0x60 DUP5 ADD MSTORE PUSH1 0x80 DUP5 ADD MLOAD PUSH1 0x80 DUP5 ADD MSTORE PUSH1 0xA0 DUP5 ADD MLOAD PUSH1 0xA0 DUP5 ADD MSTORE DUP1 PUSH1 0xC0 DUP6 ADD MLOAD AND PUSH1 0xC0 DUP5 ADD MSTORE POP PUSH2 0x2E4C PUSH1 0xE0 DUP4 ADD PUSH1 0xE0 DUP6 ADD MLOAD PUSH2 0x2D15 JUMP JUMPDEST POP PUSH2 0x100 ADD SWAP2 SWAP1 POP JUMP JUMPDEST PUSH1 0x1 PUSH1 0x1 PUSH1 0xA0 SHL SUB SWAP3 SWAP1 SWAP3 AND DUP3 MSTORE PUSH1 0x20 DUP3 ADD MSTORE PUSH1 0x40 ADD SWAP1 JUMP JUMPDEST PUSH1 0x0 PUSH1 0x20 DUP3 DUP5 SUB SLT ISZERO PUSH2 0x2E81 JUMPI PUSH1 0x0 DUP1 REVERT JUMPDEST DUP2 MLOAD DUP1 ISZERO ISZERO DUP2 EQ PUSH2 0x2C81 JUMPI PUSH1 0x0 DUP1 REVERT JUMPDEST PUSH4 0x4E487B71 PUSH1 0xE0 SHL PUSH1 0x0 MSTORE PUSH1 0x11 PUSH1 0x4 MSTORE PUSH1 0x24 PUSH1 0x0 REVERT JUMPDEST PUSH1 0x0 DUP3 PUSH2 0x2EC4 JUMPI PUSH4 0x4E487B71 PUSH1 0xE0 SHL PUSH1 0x0 MSTORE PUSH1 0x12 PUSH1 0x4 MSTORE PUSH1 0x24 PUSH1 0x0 REVERT JUMPDEST POP DIV SWAP1 JUMP JUMPDEST PUSH1 0x0 DUP3 DUP3 LT ISZERO PUSH2 0x2EDB JUMPI PUSH2 0x2EDB PUSH2 0x2E91 JUMP JUMPDEST POP SUB SWAP1 JUMP JUMPDEST PUSH1 0x0 DUP3 NOT DUP3 GT ISZERO PUSH2 0x2EF3 JUMPI PUSH2 0x2EF3 PUSH2 0x2E91 JUMP JUMPDEST POP ADD SWAP1 JUMP JUMPDEST PUSH1 0x1 PUSH1 0x1 PUSH1 0xA0 SHL SUB SWAP4 DUP5 AND DUP2 MSTORE SWAP2 SWAP1 SWAP3 AND PUSH1 0x20 DUP3 ADD MSTORE PUSH1 0x40 DUP2 ADD SWAP2 SWAP1 SWAP2 MSTORE PUSH1 0x60 ADD SWAP1 JUMP JUMPDEST PUSH1 0x0 PUSH1 0x0 NOT DUP3 EQ ISZERO PUSH2 0x2F30 JUMPI PUSH2 0x2F30 PUSH2 0x2E91 JUMP JUMPDEST POP PUSH1 0x1 ADD SWAP1 JUMP JUMPDEST PUSH1 0x0 DUP2 PUSH1 0x0 NOT DIV DUP4 GT DUP3 ISZERO ISZERO AND ISZERO PUSH2 0x2F51 JUMPI PUSH2 0x2F51 PUSH2 0x2E91 JUMP JUMPDEST POP MUL SWAP1 JUMP JUMPDEST DUP1 MLOAD PUSH10 0xFFFFFFFFFFFFFFFFFFFF DUP2 AND DUP2 EQ PUSH2 0x2F70 JUMPI PUSH1 0x0 DUP1 REVERT JUMPDEST SWAP2 SWAP1 POP JUMP JUMPDEST PUSH1 0x0 DUP1 PUSH1 0x0 DUP1 PUSH1 0x0 PUSH1 0xA0 DUP7 DUP9 SUB SLT ISZERO PUSH2 0x2F8D JUMPI PUSH1 0x0 DUP1 REVERT JUMPDEST PUSH2 0x2F96 DUP7 PUSH2 0x2F56 JUMP JUMPDEST SWAP5 POP PUSH1 0x20 DUP7 ADD MLOAD SWAP4 POP PUSH1 0x40 DUP7 ADD MLOAD SWAP3 POP PUSH1 0x60 DUP7 ADD MLOAD SWAP2 POP PUSH2 0x2FB9 PUSH1 0x80 DUP8 ADD PUSH2 0x2F56 JUMP JUMPDEST SWAP1 POP SWAP3 SWAP6 POP SWAP3 SWAP6 SWAP1 SWAP4 POP JUMP JUMPDEST PUSH1 0x0 PUSH1 0x1 PUSH1 0x1 PUSH1 0xFF SHL SUB DUP2 DUP5 SGT DUP3 DUP5 SGT DUP1 DUP3 AND DUP7 DUP5 DIV DUP7 GT AND ISZERO PUSH2 0x2FEB JUMPI PUSH2 0x2FEB PUSH2 0x2E91 JUMP JUMPDEST PUSH1 0x1 PUSH1 0xFF SHL PUSH1 0x0 DUP8 SLT DUP3 DUP2 AND DUP8 DUP4 SDIV DUP10 SLT AND ISZERO PUSH2 0x300A JUMPI PUSH2 0x300A PUSH2 0x2E91 JUMP JUMPDEST PUSH1 0x0 DUP8 SLT SWAP3 POP DUP8 DUP3 SDIV DUP8 SLT DUP5 DUP5 AND AND ISZERO PUSH2 0x3026 JUMPI PUSH2 0x3026 PUSH2 0x2E91 JUMP JUMPDEST DUP8 DUP6 SDIV DUP8 SLT DUP2 DUP5 AND AND ISZERO PUSH2 0x303C JUMPI PUSH2 0x303C PUSH2 0x2E91 JUMP JUMPDEST POP POP POP SWAP3 SWAP1 SWAP4 MUL SWAP4 SWAP3 POP POP POP JUMP INVALID LOG2 PUSH5 0x6970667358 0x22 SLT KECCAK256 DIFFICULTY OR 0x2B PUSH30 0xC34DCC01ACE5F92F852979EC020717C744F0C39436156F0005A71E846473 PUSH16 0x6C634300080900330000000000000000 "
        },
        "methodIdentifiers": {
          "CreatePayement(address,uint256,address,uint256)": "98df6d4b",
          "MAXIMUM_FEE_USD()": "774dee89",
          "RedeemPayment(uint256)": "dc4cf83f",
          "isTrustedForwarder(address)": "572b6c05",
          "owner()": "8da5cb5b",
          "renounceOwnership()": "715018a6",
          "s_PaySafe()": "f1fdbc42",
          "s_PaySafeTokenBalances(address)": "ec09fd05",
          "s_issuedPayments(address,uint256)": "ee23b65a",
          "s_redeemablePayments(address,uint256)": "5463612e",
          "transferOwnership(address)": "f2fde38b",
          "withdrawIssuerPayment(uint256)": "1f102dd2",
          "withdrawPaySafeBalance()": "48502eaa",
          "withdrawPaySafeBalance(address)": "42cdef41"
        }
      }
    }
  }
}