{
  "_format": "hh-sol-artifact-1",
  "contractName": "PayLock",
  "sourceName": "contracts/PayFactory.sol",
  "abi": [
    {
      "inputs": [],
      "stateMutability": "nonpayable",
      "type": "constructor"
    },
    {
      "inputs": [],
      "name": "Ammount__Empty",
      "type": "error"
    },
    {
      "inputs": [],
      "name": "__InvalidCode",
      "type": "error"
    },
    {
      "inputs": [],
      "name": "__NoReedemablePayments",
      "type": "error"
    },
    {
      "inputs": [],
      "name": "__NotSenderOrNotActive",
      "type": "error"
    },
    {
      "inputs": [],
      "name": "__TransferFailed",
      "type": "error"
    },
    {
      "anonymous": false,
      "inputs": [
        {
          "indexed": true,
          "internalType": "address",
          "name": "owner",
          "type": "address"
        },
        {
          "indexed": true,
          "internalType": "address",
          "name": "approved",
          "type": "address"
        },
        {
          "indexed": true,
          "internalType": "uint256",
          "name": "tokenId",
          "type": "uint256"
        }
      ],
      "name": "Approval",
      "type": "event"
    },
    {
      "anonymous": false,
      "inputs": [
        {
          "indexed": true,
          "internalType": "address",
          "name": "owner",
          "type": "address"
        },
        {
          "indexed": true,
          "internalType": "address",
          "name": "operator",
          "type": "address"
        },
        {
          "indexed": false,
          "internalType": "bool",
          "name": "approved",
          "type": "bool"
        }
      ],
      "name": "ApprovalForAll",
      "type": "event"
    },
    {
      "anonymous": false,
      "inputs": [
        {
          "indexed": true,
          "internalType": "address",
          "name": "previousOwner",
          "type": "address"
        },
        {
          "indexed": true,
          "internalType": "address",
          "name": "newOwner",
          "type": "address"
        }
      ],
      "name": "OwnershipTransferred",
      "type": "event"
    },
    {
      "anonymous": false,
      "inputs": [
        {
          "indexed": true,
          "internalType": "address",
          "name": "sender",
          "type": "address"
        },
        {
          "indexed": true,
          "internalType": "uint256",
          "name": "value",
          "type": "uint256"
        }
      ],
      "name": "PaymentIssued",
      "type": "event"
    },
    {
      "anonymous": false,
      "inputs": [
        {
          "indexed": true,
          "internalType": "address",
          "name": "receiver",
          "type": "address"
        },
        {
          "indexed": true,
          "internalType": "uint256",
          "name": "value",
          "type": "uint256"
        }
      ],
      "name": "PaymentReedemed",
      "type": "event"
    },
    {
      "anonymous": false,
      "inputs": [
        {
          "indexed": true,
          "internalType": "address",
          "name": "sender",
          "type": "address"
        },
        {
          "indexed": true,
          "internalType": "uint256",
          "name": "issuerIndex",
          "type": "uint256"
        }
      ],
      "name": "PaymentWithdrawn",
      "type": "event"
    },
    {
      "anonymous": false,
      "inputs": [
        {
          "indexed": true,
          "internalType": "address",
          "name": "from",
          "type": "address"
        },
        {
          "indexed": true,
          "internalType": "address",
          "name": "to",
          "type": "address"
        },
        {
          "indexed": true,
          "internalType": "uint256",
          "name": "tokenId",
          "type": "uint256"
        }
      ],
      "name": "Transfer",
      "type": "event"
    },
    {
      "inputs": [],
      "name": "BuyLockToken",
      "outputs": [],
      "stateMutability": "payable",
      "type": "function"
    },
    {
      "inputs": [
        {
          "internalType": "address payable",
          "name": "_receiver",
          "type": "address"
        },
        {
          "internalType": "uint256",
          "name": "_code",
          "type": "uint256"
        }
      ],
      "name": "CreatePayement",
      "outputs": [],
      "stateMutability": "payable",
      "type": "function"
    },
    {
      "inputs": [
        {
          "internalType": "uint256",
          "name": "_code",
          "type": "uint256"
        }
      ],
      "name": "RedeemPayment",
      "outputs": [],
      "stateMutability": "payable",
      "type": "function"
    },
    {
      "inputs": [
        {
          "internalType": "address",
          "name": "to",
          "type": "address"
        },
        {
          "internalType": "uint256",
          "name": "tokenId",
          "type": "uint256"
        }
      ],
      "name": "approve",
      "outputs": [],
      "stateMutability": "nonpayable",
      "type": "function"
    },
    {
      "inputs": [
        {
          "internalType": "address",
          "name": "owner",
          "type": "address"
        }
      ],
      "name": "balanceOf",
      "outputs": [
        {
          "internalType": "uint256",
          "name": "",
          "type": "uint256"
        }
      ],
      "stateMutability": "view",
      "type": "function"
    },
    {
      "inputs": [
        {
          "internalType": "uint256",
          "name": "tokenId",
          "type": "uint256"
        }
      ],
      "name": "getApproved",
      "outputs": [
        {
          "internalType": "address",
          "name": "",
          "type": "address"
        }
      ],
      "stateMutability": "view",
      "type": "function"
    },
    {
      "inputs": [
        {
          "internalType": "address",
          "name": "owner",
          "type": "address"
        },
        {
          "internalType": "address",
          "name": "operator",
          "type": "address"
        }
      ],
      "name": "isApprovedForAll",
      "outputs": [
        {
          "internalType": "bool",
          "name": "",
          "type": "bool"
        }
      ],
      "stateMutability": "view",
      "type": "function"
    },
    {
      "inputs": [],
      "name": "name",
      "outputs": [
        {
          "internalType": "string",
          "name": "",
          "type": "string"
        }
      ],
      "stateMutability": "view",
      "type": "function"
    },
    {
      "inputs": [],
      "name": "owner",
      "outputs": [
        {
          "internalType": "address",
          "name": "",
          "type": "address"
        }
      ],
      "stateMutability": "view",
      "type": "function"
    },
    {
      "inputs": [
        {
          "internalType": "uint256",
          "name": "tokenId",
          "type": "uint256"
        }
      ],
      "name": "ownerOf",
      "outputs": [
        {
          "internalType": "address",
          "name": "",
          "type": "address"
        }
      ],
      "stateMutability": "view",
      "type": "function"
    },
    {
      "inputs": [],
      "name": "renounceOwnership",
      "outputs": [],
      "stateMutability": "nonpayable",
      "type": "function"
    },
    {
      "inputs": [],
      "name": "s_PaySafe",
      "outputs": [
        {
          "internalType": "uint256",
          "name": "balance",
          "type": "uint256"
        }
      ],
      "stateMutability": "view",
      "type": "function"
    },
    {
      "inputs": [
        {
          "internalType": "address",
          "name": "",
          "type": "address"
        },
        {
          "internalType": "uint256",
          "name": "",
          "type": "uint256"
        }
      ],
      "name": "s_issuedPayments",
      "outputs": [
        {
          "internalType": "uint256",
          "name": "value",
          "type": "uint256"
        },
        {
          "internalType": "address payable",
          "name": "issuer",
          "type": "address"
        },
        {
          "internalType": "address payable",
          "name": "receiver",
          "type": "address"
        },
        {
          "internalType": "uint256",
          "name": "issuerId",
          "type": "uint256"
        },
        {
          "internalType": "uint256",
          "name": "receiverId",
          "type": "uint256"
        },
        {
          "internalType": "uint256",
          "name": "code",
          "type": "uint256"
        },
        {
          "internalType": "enum PayLock.PaymentState",
          "name": "state",
          "type": "uint8"
        }
      ],
      "stateMutability": "view",
      "type": "function"
    },
    {
      "inputs": [
        {
          "internalType": "address",
          "name": "",
          "type": "address"
        },
        {
          "internalType": "uint256",
          "name": "",
          "type": "uint256"
        }
      ],
      "name": "s_redeemablePayments",
      "outputs": [
        {
          "internalType": "uint256",
          "name": "value",
          "type": "uint256"
        },
        {
          "internalType": "address payable",
          "name": "issuer",
          "type": "address"
        },
        {
          "internalType": "address payable",
          "name": "receiver",
          "type": "address"
        },
        {
          "internalType": "uint256",
          "name": "issuerId",
          "type": "uint256"
        },
        {
          "internalType": "uint256",
          "name": "receiverId",
          "type": "uint256"
        },
        {
          "internalType": "uint256",
          "name": "code",
          "type": "uint256"
        },
        {
          "internalType": "enum PayLock.PaymentState",
          "name": "state",
          "type": "uint8"
        }
      ],
      "stateMutability": "view",
      "type": "function"
    },
    {
      "inputs": [
        {
          "internalType": "address",
          "name": "from",
          "type": "address"
        },
        {
          "internalType": "address",
          "name": "to",
          "type": "address"
        },
        {
          "internalType": "uint256",
          "name": "tokenId",
          "type": "uint256"
        }
      ],
      "name": "safeTransferFrom",
      "outputs": [],
      "stateMutability": "nonpayable",
      "type": "function"
    },
    {
      "inputs": [
        {
          "internalType": "address",
          "name": "from",
          "type": "address"
        },
        {
          "internalType": "address",
          "name": "to",
          "type": "address"
        },
        {
          "internalType": "uint256",
          "name": "tokenId",
          "type": "uint256"
        },
        {
          "internalType": "bytes",
          "name": "data",
          "type": "bytes"
        }
      ],
      "name": "safeTransferFrom",
      "outputs": [],
      "stateMutability": "nonpayable",
      "type": "function"
    },
    {
      "inputs": [
        {
          "internalType": "address",
          "name": "operator",
          "type": "address"
        },
        {
          "internalType": "bool",
          "name": "approved",
          "type": "bool"
        }
      ],
      "name": "setApprovalForAll",
      "outputs": [],
      "stateMutability": "nonpayable",
      "type": "function"
    },
    {
      "inputs": [
        {
          "internalType": "bytes4",
          "name": "interfaceId",
          "type": "bytes4"
        }
      ],
      "name": "supportsInterface",
      "outputs": [
        {
          "internalType": "bool",
          "name": "",
          "type": "bool"
        }
      ],
      "stateMutability": "view",
      "type": "function"
    },
    {
      "inputs": [],
      "name": "symbol",
      "outputs": [
        {
          "internalType": "string",
          "name": "",
          "type": "string"
        }
      ],
      "stateMutability": "view",
      "type": "function"
    },
    {
      "inputs": [
        {
          "internalType": "uint256",
          "name": "tokenId",
          "type": "uint256"
        }
      ],
      "name": "tokenURI",
      "outputs": [
        {
          "internalType": "string",
          "name": "",
          "type": "string"
        }
      ],
      "stateMutability": "view",
      "type": "function"
    },
    {
      "inputs": [
        {
          "internalType": "address",
          "name": "from",
          "type": "address"
        },
        {
          "internalType": "address",
          "name": "to",
          "type": "address"
        },
        {
          "internalType": "uint256",
          "name": "tokenId",
          "type": "uint256"
        }
      ],
      "name": "transferFrom",
      "outputs": [],
      "stateMutability": "nonpayable",
      "type": "function"
    },
    {
      "inputs": [
        {
          "internalType": "address",
          "name": "newOwner",
          "type": "address"
        }
      ],
      "name": "transferOwnership",
      "outputs": [],
      "stateMutability": "nonpayable",
      "type": "function"
    },
    {
      "inputs": [
        {
          "internalType": "uint256",
          "name": "index",
          "type": "uint256"
        }
      ],
      "name": "withdrawIssuerPayment",
      "outputs": [],
      "stateMutability": "payable",
      "type": "function"
    },
    {
      "inputs": [],
      "name": "withdrawPaySafeBalance",
      "outputs": [],
      "stateMutability": "payable",
      "type": "function"
    }
  ],
  "bytecode": "0x60806040523480156200001157600080fd5b50604051806040016040528060078152602001665061794c6f636b60c81b815250604051806040016040528060048152602001634c4f434b60e01b81525062000069620000636200009d60201b60201c565b620000a1565b81516200007e906001906020850190620000f1565b50805162000094906002906020840190620000f1565b505050620001d4565b3390565b600080546001600160a01b038381166001600160a01b0319831681178455604051919092169283917f8be0079c531659141344cd1fd0a4f28419497f9722a3daafe3b4186f6b6457e09190a35050565b828054620000ff9062000197565b90600052602060002090601f0160209004810192826200012357600085556200016e565b82601f106200013e57805160ff19168380011785556200016e565b828001600101855582156200016e579182015b828111156200016e57825182559160200191906001019062000151565b506200017c92915062000180565b5090565b5b808211156200017c576000815560010162000181565b600181811c90821680620001ac57607f821691505b60208210811415620001ce57634e487b7160e01b600052602260045260246000fd5b50919050565b61225380620001e46000396000f3fe60806040526004361061014b5760003560e01c806370a08231116100b6578063c87b56dd1161006f578063c87b56dd14610380578063dc4cf83f146103a0578063e985e9c5146103b3578063ee23b65a146103fc578063f1fdbc421461041c578063f2fde38b1461043357600080fd5b806370a08231146102ca578063715018a6146102f85780638da5cb5b1461030d57806395d89b411461032b578063a22cb46514610340578063b88d4fde1461036057600080fd5b806323b872dd1161010857806323b872dd1461021c57806325fd3b5a1461023c57806342842e0e1461024f57806348502eaa1461026f5780635463612e146102775780636352211e146102aa57600080fd5b806301ffc9a71461015057806306fdde0314610185578063081812fc146101a7578063095ea7b3146101df578063182ec7c0146102015780631f102dd214610209575b600080fd5b34801561015c57600080fd5b5061017061016b366004611ed9565b610453565b60405190151581526020015b60405180910390f35b34801561019157600080fd5b5061019a6104a5565b60405161017c9190611fc1565b3480156101b357600080fd5b506101c76101c2366004611f11565b610537565b6040516001600160a01b03909116815260200161017c565b3480156101eb57600080fd5b506101ff6101fa366004611ec7565b61055e565b005b6101ff610679565b6101ff610217366004611f11565b6106d9565b34801561022857600080fd5b506101ff610237366004611d7d565b6109bf565b6101ff61024a366004611d1a565b6109f0565b34801561025b57600080fd5b506101ff61026a366004611d7d565b610c5d565b6101ff610c78565b34801561028357600080fd5b50610297610292366004611ec7565b610cea565b60405161017c9796959493929190612074565b3480156102b657600080fd5b506101c76102c5366004611f11565b610d54565b3480156102d657600080fd5b506102ea6102e5366004611cfe565b610db4565b60405190815260200161017c565b34801561030457600080fd5b506101ff610e3a565b34801561031957600080fd5b506000546001600160a01b03166101c7565b34801561033757600080fd5b5061019a610e4e565b34801561034c57600080fd5b506101ff61035b366004611e96565b610e5d565b34801561036c57600080fd5b506101ff61037b366004611dbd565b610e6c565b34801561038c57600080fd5b5061019a61039b366004611f11565b610ea4565b6101ff6103ae366004611f11565b610f18565b3480156103bf57600080fd5b506101706103ce366004611d45565b6001600160a01b03918216600090815260066020908152604080832093909416825291909152205460ff1690565b34801561040857600080fd5b50610297610417366004611ec7565b6113b5565b34801561042857600080fd5b506008546102ea9081565b34801561043f57600080fd5b506101ff61044e366004611cfe565b6113d1565b60006001600160e01b031982166380ac58cd60e01b148061048457506001600160e01b03198216635b5e139f60e01b145b8061049f57506301ffc9a760e01b6001600160e01b03198316145b92915050565b6060600180546104b490612146565b80601f01602080910402602001604051908101604052809291908181526020018280546104e090612146565b801561052d5780601f106105025761010080835404028352916020019161052d565b820191906000526020600020905b81548152906001019060200180831161051057829003601f168201915b5050505050905090565b600061054282611447565b506000908152600560205260409020546001600160a01b031690565b600061056982610d54565b9050806001600160a01b0316836001600160a01b031614156105dc5760405162461bcd60e51b815260206004820152602160248201527f4552433732313a20617070726f76616c20746f2063757272656e74206f776e656044820152603960f91b60648201526084015b60405180910390fd5b336001600160a01b03821614806105f857506105f881336103ce565b61066a5760405162461bcd60e51b815260206004820152603e60248201527f4552433732313a20617070726f76652063616c6c6572206973206e6f7420746f60448201527f6b656e206f776e6572206e6f7220617070726f76656420666f7220616c6c000060648201526084016105d3565b61067483836114a6565b505050565b34670de0b6b3a7640000146106a157604051633bdf630f60e11b815260040160405180910390fd5b34600860000160008282546106b691906120d7565b90915550506007546106cc600780546001019055565b6106d63382611514565b50565b33600090815260096020526040812080548390811061070857634e487b7160e01b600052603260045260246000fd5b60009182526020918290206040805160e08101825260079093029091018054835260018101546001600160a01b0390811694840194909452600280820154909416918301919091526003810154606083015260048101546080830152600581015460a083015260068101549192909160c084019160ff9091169081111561079f57634e487b7160e01b600052602160045260246000fd5b60028111156107be57634e487b7160e01b600052602160045260246000fd5b90525090506000808260c0015160028111156107ea57634e487b7160e01b600052602160045260246000fd5b602084015191141591506001600160a01b03163314156000828061080b5750815b9050801561082c5760405163de175b0760e01b815260040160405180910390fd5b3360009081526009602052604090208054600191908790811061085f57634e487b7160e01b600052603260045260246000fd5b60009182526020909120600660079092020101805460ff1916600183600281111561089a57634e487b7160e01b600052602160045260246000fd5b02179055506040808501516001600160a01b03166000908152600a6020522060808501518154600192919081106108e157634e487b7160e01b600052603260045260246000fd5b60009182526020909120600660079092020101805460ff1916600183600281111561091c57634e487b7160e01b600052602160045260246000fd5b0217905550604051859033907f84511ecc081974f18e7f3e0dcc19db078b55bbd3852ddd0dd85b3aebb7bf94c290600090a3835160405160009133918381818185875af1925050503d8060008114610990576040519150601f19603f3d011682016040523d82523d6000602084013e610995565b606091505b50509050806109b757604051633bdf630f60e11b815260040160405180910390fd5b505050505050565b6109c9338261152e565b6109e55760405162461bcd60e51b81526004016105d390612026565b6106748383836115ad565b34158015610a1157604051630bc27b7f60e31b815260040160405180910390fd5b610a19611c91565b6000610a2433610db4565b1115610a2e573481525b610a3733610db4565b610a7557610a4660c8346120ef565b610a509034612103565b8152610a5d60c8346120ef565b60088054600090610a6f9084906120d7565b90915550505b3360208281018281526001600160a01b03878116604080870182815260009687526009808752828820805460608b01818152958a52600a89529389205460808b0190815260a08b018d815260c08c018b8152938a5260018087018455928b52989099208a51600790950201938455955183870180549187166001600160a01b0319928316179055915160028085018054929097169190931617909455915160038201559451600486015592516005850155516006840180548695949293919260ff1990911691908490811115610b5b57634e487b7160e01b600052602160045260246000fd5b021790555050506001600160a01b038085166000908152600a602090815260408083208054600181810183559185529383902086516007909502019384559185015183830180549186166001600160a01b03199283161790559085015160028085018054929096169190921617909355606084015160038301556080840151600483015560a0840151600583015560c084015160068301805486959293919260ff1990911691908490811115610c2157634e487b7160e01b600052602160045260246000fd5b021790555050815160405190915033907f78230d7be5b54b6f335e60a59b3d3e3a30858571dbed9dae2cbd526812c9964090600090a350505050565b61067483838360405180602001604052806000815250610e6c565b610c80611749565b60085460405160009133918381818185875af1925050503d8060008114610cc3576040519150601f19603f3d011682016040523d82523d6000602084013e610cc8565b606091505b50509050806106d657604051633bdf630f60e11b815260040160405180910390fd5b600a6020528160005260406000208181548110610d0657600080fd5b600091825260209091206007909102018054600182015460028301546003840154600485015460058601546006909601549497506001600160a01b0393841696509290911693909260ff1687565b6000818152600360205260408120546001600160a01b03168061049f5760405162461bcd60e51b8152602060048201526018602482015277115490cdcc8c4e881a5b9d985b1a59081d1bdad95b88125160421b60448201526064016105d3565b60006001600160a01b038216610e1e5760405162461bcd60e51b815260206004820152602960248201527f4552433732313a2061646472657373207a65726f206973206e6f7420612076616044820152683634b21037bbb732b960b91b60648201526084016105d3565b506001600160a01b031660009081526004602052604090205490565b610e42611749565b610e4c60006117a3565b565b6060600280546104b490612146565b610e683383836117f3565b5050565b610e76338361152e565b610e925760405162461bcd60e51b81526004016105d390612026565b610e9e848484846118c2565b50505050565b6060610eaf82611447565b6000610ec660408051602081019091526000815290565b90506000815111610ee65760405180602001604052806000815250610f11565b80610ef0846118f5565b604051602001610f01929190611f55565b6040516020818303038152906040525b9392505050565b336000908152600a6020908152604080832080548251818502810185019093528083529192909190849084015b828210156110155760008481526020908190206040805160e081018252600786029092018054835260018101546001600160a01b0390811694840194909452600280820154909416918301919091526003810154606083015260048101546080830152600581015460a083015260068101549192909160c084019160ff90911690811115610fe357634e487b7160e01b600052602160045260246000fd5b600281111561100257634e487b7160e01b600052602160045260246000fd5b8152505081526020019060010190610f45565b50505050905080516000141561103e576040516318be8db160e11b815260040160405180910390fd5b60005b8151811015610674578282828151811061106b57634e487b7160e01b600052603260045260246000fd5b602002602001015160a00151141561138a576000808383815181106110a057634e487b7160e01b600052603260045260246000fd5b602002602001015160c0015160028111156110cb57634e487b7160e01b600052602160045260246000fd5b141590506000336001600160a01b03168484815181106110fb57634e487b7160e01b600052603260045260246000fd5b6020026020010151604001516001600160a01b0316141590506000828061111f5750815b905080156111405760405163de175b0760e01b815260040160405180910390fd5b60026009600087878151811061116657634e487b7160e01b600052603260045260246000fd5b6020026020010151602001516001600160a01b03166001600160a01b031681526020019081526020016000208686815181106111b257634e487b7160e01b600052603260045260246000fd5b602002602001015160600151815481106111dc57634e487b7160e01b600052603260045260246000fd5b60009182526020909120600660079092020101805460ff1916600183600281111561121757634e487b7160e01b600052602160045260246000fd5b0217905550336000908152600a602052604090208054600291908690811061124f57634e487b7160e01b600052603260045260246000fd5b60009182526020909120600660079092020101805460ff1916600183600281111561128a57634e487b7160e01b600052602160045260246000fd5b02179055508484815181106112af57634e487b7160e01b600052603260045260246000fd5b60209081029190910101515160405133907fa7cab2d5ce9b657fd7f9b4868ce1baccdf27c451694fc8eaea7853d41f39f08f90600090a36000336001600160a01b031686868151811061131257634e487b7160e01b600052603260045260246000fd5b602090810291909101015151604051600081818185875af1925050503d806000811461135a576040519150601f19603f3d011682016040523d82523d6000602084013e61135f565b606091505b505090508061138157604051633bdf630f60e11b815260040160405180910390fd5b505050506113a3565b604051633f4ba89360e11b815260040160405180910390fd5b806113ad81612181565b915050611041565b60096020528160005260406000208181548110610d0657600080fd5b6113d9611749565b6001600160a01b03811661143e5760405162461bcd60e51b815260206004820152602660248201527f4f776e61626c653a206e6577206f776e657220697320746865207a65726f206160448201526564647265737360d01b60648201526084016105d3565b6106d6816117a3565b6000818152600360205260409020546001600160a01b03166106d65760405162461bcd60e51b8152602060048201526018602482015277115490cdcc8c4e881a5b9d985b1a59081d1bdad95b88125160421b60448201526064016105d3565b600081815260056020526040902080546001600160a01b0319166001600160a01b03841690811790915581906114db82610d54565b6001600160a01b03167f8c5be1e5ebec7d5bd14f71427d1e84f3dd0314c0f7b2291e5b200ac8c7c3b92560405160405180910390a45050565b610e68828260405180602001604052806000815250611a0f565b60008061153a83610d54565b9050806001600160a01b0316846001600160a01b0316148061158157506001600160a01b0380821660009081526006602090815260408083209388168352929052205460ff165b806115a55750836001600160a01b031661159a84610537565b6001600160a01b0316145b949350505050565b826001600160a01b03166115c082610d54565b6001600160a01b0316146116245760405162461bcd60e51b815260206004820152602560248201527f4552433732313a207472616e736665722066726f6d20696e636f72726563742060448201526437bbb732b960d91b60648201526084016105d3565b6001600160a01b0382166116865760405162461bcd60e51b8152602060048201526024808201527f4552433732313a207472616e7366657220746f20746865207a65726f206164646044820152637265737360e01b60648201526084016105d3565b6116916000826114a6565b6001600160a01b03831660009081526004602052604081208054600192906116ba908490612103565b90915550506001600160a01b03821660009081526004602052604081208054600192906116e89084906120d7565b909155505060008181526003602052604080822080546001600160a01b0319166001600160a01b0386811691821790925591518493918716917fddf252ad1be2c89b69c2b068fc378daa952ba7f163c4a11628f55a4df523b3ef91a4505050565b6000546001600160a01b03163314610e4c5760405162461bcd60e51b815260206004820181905260248201527f4f776e61626c653a2063616c6c6572206973206e6f7420746865206f776e657260448201526064016105d3565b600080546001600160a01b038381166001600160a01b0319831681178455604051919092169283917f8be0079c531659141344cd1fd0a4f28419497f9722a3daafe3b4186f6b6457e09190a35050565b816001600160a01b0316836001600160a01b031614156118555760405162461bcd60e51b815260206004820152601960248201527f4552433732313a20617070726f766520746f2063616c6c65720000000000000060448201526064016105d3565b6001600160a01b03838116600081815260066020908152604080832094871680845294825291829020805460ff191686151590811790915591519182527f17307eab39ab6107e8899845ad3d59bd9653f200f220920489ca2b5937696c31910160405180910390a3505050565b6118cd8484846115ad565b6118d984848484611a42565b610e9e5760405162461bcd60e51b81526004016105d390611fd4565b6060816119195750506040805180820190915260018152600360fc1b602082015290565b8160005b8115611943578061192d81612181565b915061193c9050600a836120ef565b915061191d565b60008167ffffffffffffffff81111561196c57634e487b7160e01b600052604160045260246000fd5b6040519080825280601f01601f191660200182016040528015611996576020820181803683370190505b5090505b84156115a5576119ab600183612103565b91506119b8600a8661219c565b6119c39060306120d7565b60f81b8183815181106119e657634e487b7160e01b600052603260045260246000fd5b60200101906001600160f81b031916908160001a905350611a08600a866120ef565b945061199a565b611a198383611b4f565b611a266000848484611a42565b6106745760405162461bcd60e51b81526004016105d390611fd4565b60006001600160a01b0384163b15611b4457604051630a85bd0160e11b81526001600160a01b0385169063150b7a0290611a86903390899088908890600401611f84565b602060405180830381600087803b158015611aa057600080fd5b505af1925050508015611ad0575060408051601f3d908101601f19168201909252611acd91810190611ef5565b60015b611b2a573d808015611afe576040519150601f19603f3d011682016040523d82523d6000602084013e611b03565b606091505b508051611b225760405162461bcd60e51b81526004016105d390611fd4565b805181602001fd5b6001600160e01b031916630a85bd0160e11b1490506115a5565b506001949350505050565b6001600160a01b038216611ba55760405162461bcd60e51b815260206004820181905260248201527f4552433732313a206d696e7420746f20746865207a65726f206164647265737360448201526064016105d3565b6000818152600360205260409020546001600160a01b031615611c0a5760405162461bcd60e51b815260206004820152601c60248201527f4552433732313a20746f6b656e20616c7265616479206d696e7465640000000060448201526064016105d3565b6001600160a01b0382166000908152600460205260408120805460019290611c339084906120d7565b909155505060008181526003602052604080822080546001600160a01b0319166001600160a01b03861690811790915590518392907fddf252ad1be2c89b69c2b068fc378daa952ba7f163c4a11628f55a4df523b3ef908290a45050565b6040518060e001604052806000815260200160006001600160a01b0316815260200160006001600160a01b0316815260200160008152602001600081526020016000815260200160006002811115611cf957634e487b7160e01b600052602160045260246000fd5b905290565b600060208284031215611d0f578081fd5b8135610f11816121f2565b60008060408385031215611d2c578081fd5b8235611d37816121f2565b946020939093013593505050565b60008060408385031215611d57578182fd5b8235611d62816121f2565b91506020830135611d72816121f2565b809150509250929050565b600080600060608486031215611d91578081fd5b8335611d9c816121f2565b92506020840135611dac816121f2565b929592945050506040919091013590565b60008060008060808587031215611dd2578081fd5b8435611ddd816121f2565b93506020850135611ded816121f2565b925060408501359150606085013567ffffffffffffffff80821115611e10578283fd5b818701915087601f830112611e23578283fd5b813581811115611e3557611e356121dc565b604051601f8201601f19908116603f01168101908382118183101715611e5d57611e5d6121dc565b816040528281528a6020848701011115611e75578586fd5b82602086016020830137918201602001949094529598949750929550505050565b60008060408385031215611ea8578182fd5b8235611eb3816121f2565b915060208301358015158114611d72578182fd5b60008060408385031215611d2c578182fd5b600060208284031215611eea578081fd5b8135610f1181612207565b600060208284031215611f06578081fd5b8151610f1181612207565b600060208284031215611f22578081fd5b5035919050565b60008151808452611f4181602086016020860161211a565b601f01601f19169290920160200192915050565b60008351611f6781846020880161211a565b835190830190611f7b81836020880161211a565b01949350505050565b6001600160a01b0385811682528416602082015260408101839052608060608201819052600090611fb790830184611f29565b9695505050505050565b602081526000610f116020830184611f29565b60208082526032908201527f4552433732313a207472616e7366657220746f206e6f6e20455243373231526560408201527131b2b4bb32b91034b6b83632b6b2b73a32b960711b606082015260800190565b6020808252602e908201527f4552433732313a2063616c6c6572206973206e6f7420746f6b656e206f776e6560408201526d1c881b9bdc88185c1c1c9bdd995960921b606082015260800190565b8781526001600160a01b03878116602083015286166040820152606081018590526080810184905260a0810183905260e08101600383106120c557634e487b7160e01b600052602160045260246000fd5b8260c083015298975050505050505050565b600082198211156120ea576120ea6121b0565b500190565b6000826120fe576120fe6121c6565b500490565b600082821015612115576121156121b0565b500390565b60005b8381101561213557818101518382015260200161211d565b83811115610e9e5750506000910152565b600181811c9082168061215a57607f821691505b6020821081141561217b57634e487b7160e01b600052602260045260246000fd5b50919050565b6000600019821415612195576121956121b0565b5060010190565b6000826121ab576121ab6121c6565b500690565b634e487b7160e01b600052601160045260246000fd5b634e487b7160e01b600052601260045260246000fd5b634e487b7160e01b600052604160045260246000fd5b6001600160a01b03811681146106d657600080fd5b6001600160e01b0319811681146106d657600080fdfea2646970667358221220100a597aa9dd9982177a3d498f2860f92b80882e4470e64cbcf6912641d7177e64736f6c63430008040033",
  "linkReferences": {},
  "deployedLinkReferences": {}
}