{
  "_format": "hh-sol-artifact-1",
  "contractName": "PayLock",
  "sourceName": "contracts/PayFactory.sol",
  "abi": [
    {
      "inputs": [],
      "stateMutability": "nonpayable",
      "type": "constructor"
    },
    {
      "inputs": [],
      "name": "Ammount__Empty",
      "type": "error"
    },
    {
      "inputs": [],
      "name": "__InvalidCode",
      "type": "error"
    },
    {
      "inputs": [],
      "name": "__NoReedemablePayments",
      "type": "error"
    },
    {
      "inputs": [],
      "name": "__NotSenderOrNotActive",
      "type": "error"
    },
    {
      "inputs": [],
      "name": "__TransferFailed",
      "type": "error"
    },
    {
      "anonymous": false,
      "inputs": [
        {
          "indexed": true,
          "internalType": "address",
          "name": "owner",
          "type": "address"
        },
        {
          "indexed": true,
          "internalType": "address",
          "name": "approved",
          "type": "address"
        },
        {
          "indexed": true,
          "internalType": "uint256",
          "name": "tokenId",
          "type": "uint256"
        }
      ],
      "name": "Approval",
      "type": "event"
    },
    {
      "anonymous": false,
      "inputs": [
        {
          "indexed": true,
          "internalType": "address",
          "name": "owner",
          "type": "address"
        },
        {
          "indexed": true,
          "internalType": "address",
          "name": "operator",
          "type": "address"
        },
        {
          "indexed": false,
          "internalType": "bool",
          "name": "approved",
          "type": "bool"
        }
      ],
      "name": "ApprovalForAll",
      "type": "event"
    },
    {
      "anonymous": false,
      "inputs": [
        {
          "indexed": true,
          "internalType": "address",
          "name": "previousOwner",
          "type": "address"
        },
        {
          "indexed": true,
          "internalType": "address",
          "name": "newOwner",
          "type": "address"
        }
      ],
      "name": "OwnershipTransferred",
      "type": "event"
    },
    {
      "anonymous": false,
      "inputs": [
        {
          "indexed": true,
          "internalType": "address",
          "name": "sender",
          "type": "address"
        },
        {
          "components": [
            {
              "internalType": "uint256",
              "name": "value",
              "type": "uint256"
            },
            {
              "internalType": "address payable",
              "name": "issuer",
              "type": "address"
            },
            {
              "internalType": "address payable",
              "name": "receiver",
              "type": "address"
            },
            {
              "internalType": "uint256",
              "name": "issuerId",
              "type": "uint256"
            },
            {
              "internalType": "uint256",
              "name": "receiverId",
              "type": "uint256"
            },
            {
              "internalType": "uint256",
              "name": "code",
              "type": "uint256"
            },
            {
              "internalType": "enum PayLock.PaymentState",
              "name": "state",
              "type": "uint8"
            }
          ],
          "indexed": true,
          "internalType": "struct PayLock.payment",
          "name": "receipt",
          "type": "tuple"
        }
      ],
      "name": "PaymentIssued",
      "type": "event"
    },
    {
      "anonymous": false,
      "inputs": [
        {
          "indexed": true,
          "internalType": "address",
          "name": "receiver",
          "type": "address"
        },
        {
          "components": [
            {
              "internalType": "uint256",
              "name": "value",
              "type": "uint256"
            },
            {
              "internalType": "address payable",
              "name": "issuer",
              "type": "address"
            },
            {
              "internalType": "address payable",
              "name": "receiver",
              "type": "address"
            },
            {
              "internalType": "uint256",
              "name": "issuerId",
              "type": "uint256"
            },
            {
              "internalType": "uint256",
              "name": "receiverId",
              "type": "uint256"
            },
            {
              "internalType": "uint256",
              "name": "code",
              "type": "uint256"
            },
            {
              "internalType": "enum PayLock.PaymentState",
              "name": "state",
              "type": "uint8"
            }
          ],
          "indexed": true,
          "internalType": "struct PayLock.payment",
          "name": "receipt",
          "type": "tuple"
        }
      ],
      "name": "PaymentReedemed",
      "type": "event"
    },
    {
      "anonymous": false,
      "inputs": [
        {
          "indexed": true,
          "internalType": "address",
          "name": "sender",
          "type": "address"
        },
        {
          "components": [
            {
              "internalType": "uint256",
              "name": "value",
              "type": "uint256"
            },
            {
              "internalType": "address payable",
              "name": "issuer",
              "type": "address"
            },
            {
              "internalType": "address payable",
              "name": "receiver",
              "type": "address"
            },
            {
              "internalType": "uint256",
              "name": "issuerId",
              "type": "uint256"
            },
            {
              "internalType": "uint256",
              "name": "receiverId",
              "type": "uint256"
            },
            {
              "internalType": "uint256",
              "name": "code",
              "type": "uint256"
            },
            {
              "internalType": "enum PayLock.PaymentState",
              "name": "state",
              "type": "uint8"
            }
          ],
          "indexed": true,
          "internalType": "struct PayLock.payment",
          "name": "receipt",
          "type": "tuple"
        }
      ],
      "name": "PaymentWithdrawn",
      "type": "event"
    },
    {
      "anonymous": false,
      "inputs": [
        {
          "indexed": true,
          "internalType": "address",
          "name": "from",
          "type": "address"
        },
        {
          "indexed": true,
          "internalType": "address",
          "name": "to",
          "type": "address"
        },
        {
          "indexed": true,
          "internalType": "uint256",
          "name": "tokenId",
          "type": "uint256"
        }
      ],
      "name": "Transfer",
      "type": "event"
    },
    {
      "inputs": [],
      "name": "BuyLockToken",
      "outputs": [],
      "stateMutability": "payable",
      "type": "function"
    },
    {
      "inputs": [
        {
          "internalType": "address payable",
          "name": "_receiver",
          "type": "address"
        },
        {
          "internalType": "uint256",
          "name": "_code",
          "type": "uint256"
        }
      ],
      "name": "CreatePayement",
      "outputs": [],
      "stateMutability": "payable",
      "type": "function"
    },
    {
      "inputs": [
        {
          "internalType": "uint256",
          "name": "_code",
          "type": "uint256"
        }
      ],
      "name": "RedeemPayment",
      "outputs": [],
      "stateMutability": "payable",
      "type": "function"
    },
    {
      "inputs": [
        {
          "internalType": "address",
          "name": "to",
          "type": "address"
        },
        {
          "internalType": "uint256",
          "name": "tokenId",
          "type": "uint256"
        }
      ],
      "name": "approve",
      "outputs": [],
      "stateMutability": "nonpayable",
      "type": "function"
    },
    {
      "inputs": [
        {
          "internalType": "address",
          "name": "owner",
          "type": "address"
        }
      ],
      "name": "balanceOf",
      "outputs": [
        {
          "internalType": "uint256",
          "name": "",
          "type": "uint256"
        }
      ],
      "stateMutability": "view",
      "type": "function"
    },
    {
      "inputs": [
        {
          "internalType": "uint256",
          "name": "tokenId",
          "type": "uint256"
        }
      ],
      "name": "getApproved",
      "outputs": [
        {
          "internalType": "address",
          "name": "",
          "type": "address"
        }
      ],
      "stateMutability": "view",
      "type": "function"
    },
    {
      "inputs": [
        {
          "internalType": "address",
          "name": "owner",
          "type": "address"
        },
        {
          "internalType": "address",
          "name": "operator",
          "type": "address"
        }
      ],
      "name": "isApprovedForAll",
      "outputs": [
        {
          "internalType": "bool",
          "name": "",
          "type": "bool"
        }
      ],
      "stateMutability": "view",
      "type": "function"
    },
    {
      "inputs": [],
      "name": "name",
      "outputs": [
        {
          "internalType": "string",
          "name": "",
          "type": "string"
        }
      ],
      "stateMutability": "view",
      "type": "function"
    },
    {
      "inputs": [],
      "name": "owner",
      "outputs": [
        {
          "internalType": "address",
          "name": "",
          "type": "address"
        }
      ],
      "stateMutability": "view",
      "type": "function"
    },
    {
      "inputs": [
        {
          "internalType": "uint256",
          "name": "tokenId",
          "type": "uint256"
        }
      ],
      "name": "ownerOf",
      "outputs": [
        {
          "internalType": "address",
          "name": "",
          "type": "address"
        }
      ],
      "stateMutability": "view",
      "type": "function"
    },
    {
      "inputs": [],
      "name": "renounceOwnership",
      "outputs": [],
      "stateMutability": "nonpayable",
      "type": "function"
    },
    {
      "inputs": [],
      "name": "s_PaySafe",
      "outputs": [
        {
          "internalType": "uint256",
          "name": "balance",
          "type": "uint256"
        }
      ],
      "stateMutability": "view",
      "type": "function"
    },
    {
      "inputs": [
        {
          "internalType": "address",
          "name": "",
          "type": "address"
        },
        {
          "internalType": "uint256",
          "name": "",
          "type": "uint256"
        }
      ],
      "name": "s_issuedPayments",
      "outputs": [
        {
          "internalType": "uint256",
          "name": "value",
          "type": "uint256"
        },
        {
          "internalType": "address payable",
          "name": "issuer",
          "type": "address"
        },
        {
          "internalType": "address payable",
          "name": "receiver",
          "type": "address"
        },
        {
          "internalType": "uint256",
          "name": "issuerId",
          "type": "uint256"
        },
        {
          "internalType": "uint256",
          "name": "receiverId",
          "type": "uint256"
        },
        {
          "internalType": "uint256",
          "name": "code",
          "type": "uint256"
        },
        {
          "internalType": "enum PayLock.PaymentState",
          "name": "state",
          "type": "uint8"
        }
      ],
      "stateMutability": "view",
      "type": "function"
    },
    {
      "inputs": [
        {
          "internalType": "address",
          "name": "",
          "type": "address"
        },
        {
          "internalType": "uint256",
          "name": "",
          "type": "uint256"
        }
      ],
      "name": "s_redeemablePayments",
      "outputs": [
        {
          "internalType": "uint256",
          "name": "value",
          "type": "uint256"
        },
        {
          "internalType": "address payable",
          "name": "issuer",
          "type": "address"
        },
        {
          "internalType": "address payable",
          "name": "receiver",
          "type": "address"
        },
        {
          "internalType": "uint256",
          "name": "issuerId",
          "type": "uint256"
        },
        {
          "internalType": "uint256",
          "name": "receiverId",
          "type": "uint256"
        },
        {
          "internalType": "uint256",
          "name": "code",
          "type": "uint256"
        },
        {
          "internalType": "enum PayLock.PaymentState",
          "name": "state",
          "type": "uint8"
        }
      ],
      "stateMutability": "view",
      "type": "function"
    },
    {
      "inputs": [
        {
          "internalType": "address",
          "name": "from",
          "type": "address"
        },
        {
          "internalType": "address",
          "name": "to",
          "type": "address"
        },
        {
          "internalType": "uint256",
          "name": "tokenId",
          "type": "uint256"
        }
      ],
      "name": "safeTransferFrom",
      "outputs": [],
      "stateMutability": "nonpayable",
      "type": "function"
    },
    {
      "inputs": [
        {
          "internalType": "address",
          "name": "from",
          "type": "address"
        },
        {
          "internalType": "address",
          "name": "to",
          "type": "address"
        },
        {
          "internalType": "uint256",
          "name": "tokenId",
          "type": "uint256"
        },
        {
          "internalType": "bytes",
          "name": "data",
          "type": "bytes"
        }
      ],
      "name": "safeTransferFrom",
      "outputs": [],
      "stateMutability": "nonpayable",
      "type": "function"
    },
    {
      "inputs": [
        {
          "internalType": "address",
          "name": "operator",
          "type": "address"
        },
        {
          "internalType": "bool",
          "name": "approved",
          "type": "bool"
        }
      ],
      "name": "setApprovalForAll",
      "outputs": [],
      "stateMutability": "nonpayable",
      "type": "function"
    },
    {
      "inputs": [
        {
          "internalType": "bytes4",
          "name": "interfaceId",
          "type": "bytes4"
        }
      ],
      "name": "supportsInterface",
      "outputs": [
        {
          "internalType": "bool",
          "name": "",
          "type": "bool"
        }
      ],
      "stateMutability": "view",
      "type": "function"
    },
    {
      "inputs": [],
      "name": "symbol",
      "outputs": [
        {
          "internalType": "string",
          "name": "",
          "type": "string"
        }
      ],
      "stateMutability": "view",
      "type": "function"
    },
    {
      "inputs": [
        {
          "internalType": "uint256",
          "name": "tokenId",
          "type": "uint256"
        }
      ],
      "name": "tokenURI",
      "outputs": [
        {
          "internalType": "string",
          "name": "",
          "type": "string"
        }
      ],
      "stateMutability": "view",
      "type": "function"
    },
    {
      "inputs": [
        {
          "internalType": "address",
          "name": "from",
          "type": "address"
        },
        {
          "internalType": "address",
          "name": "to",
          "type": "address"
        },
        {
          "internalType": "uint256",
          "name": "tokenId",
          "type": "uint256"
        }
      ],
      "name": "transferFrom",
      "outputs": [],
      "stateMutability": "nonpayable",
      "type": "function"
    },
    {
      "inputs": [
        {
          "internalType": "address",
          "name": "newOwner",
          "type": "address"
        }
      ],
      "name": "transferOwnership",
      "outputs": [],
      "stateMutability": "nonpayable",
      "type": "function"
    },
    {
      "inputs": [
        {
          "internalType": "uint256",
          "name": "index",
          "type": "uint256"
        }
      ],
      "name": "withdrawIssuerPayment",
      "outputs": [],
      "stateMutability": "payable",
      "type": "function"
    },
    {
      "inputs": [],
      "name": "withdrawPaySafeBalance",
      "outputs": [],
      "stateMutability": "payable",
      "type": "function"
    }
  ],
  "bytecode": "0x60806040523480156200001157600080fd5b50604051806040016040528060078152602001665061794c6f636b60c81b815250604051806040016040528060048152602001634c4f434b60e01b81525062000069620000636200009d60201b60201c565b620000a1565b81516200007e906001906020850190620000f1565b50805162000094906002906020840190620000f1565b505050620001d4565b3390565b600080546001600160a01b038381166001600160a01b0319831681178455604051919092169283917f8be0079c531659141344cd1fd0a4f28419497f9722a3daafe3b4186f6b6457e09190a35050565b828054620000ff9062000197565b90600052602060002090601f0160209004810192826200012357600085556200016e565b82601f106200013e57805160ff19168380011785556200016e565b828001600101855582156200016e579182015b828111156200016e57825182559160200191906001019062000151565b506200017c92915062000180565b5090565b5b808211156200017c576000815560010162000181565b600181811c90821680620001ac57607f821691505b60208210811415620001ce57634e487b7160e01b600052602260045260246000fd5b50919050565b6122f080620001e46000396000f3fe60806040526004361061014b5760003560e01c806370a08231116100b6578063c87b56dd1161006f578063c87b56dd14610380578063dc4cf83f146103a0578063e985e9c5146103b3578063ee23b65a146103fc578063f1fdbc421461041c578063f2fde38b1461043357600080fd5b806370a08231146102ca578063715018a6146102f85780638da5cb5b1461030d57806395d89b411461032b578063a22cb46514610340578063b88d4fde1461036057600080fd5b806323b872dd1161010857806323b872dd1461021c57806325fd3b5a1461023c57806342842e0e1461024f57806348502eaa1461026f5780635463612e146102775780636352211e146102aa57600080fd5b806301ffc9a71461015057806306fdde0314610185578063081812fc146101a7578063095ea7b3146101df578063182ec7c0146102015780631f102dd214610209575b600080fd5b34801561015c57600080fd5b5061017061016b366004611f0d565b610453565b60405190151581526020015b60405180910390f35b34801561019157600080fd5b5061019a6104a5565b60405161017c9190612075565b3480156101b357600080fd5b506101c76101c2366004611f45565b610537565b6040516001600160a01b03909116815260200161017c565b3480156101eb57600080fd5b506101ff6101fa366004611efb565b61055e565b005b6101ff610679565b6101ff610217366004611f45565b6106d9565b34801561022857600080fd5b506101ff610237366004611db1565b6109d2565b6101ff61024a366004611d4e565b610a03565b34801561025b57600080fd5b506101ff61026a366004611db1565b610c81565b6101ff610c9c565b34801561028357600080fd5b50610297610292366004611efb565b610d0e565b60405161017c9796959493929190612128565b3480156102b657600080fd5b506101c76102c5366004611f45565b610d78565b3480156102d657600080fd5b506102ea6102e5366004611d32565b610dd8565b60405190815260200161017c565b34801561030457600080fd5b506101ff610e5e565b34801561031957600080fd5b506000546001600160a01b03166101c7565b34801561033757600080fd5b5061019a610e72565b34801561034c57600080fd5b506101ff61035b366004611eca565b610e81565b34801561036c57600080fd5b506101ff61037b366004611df1565b610e90565b34801561038c57600080fd5b5061019a61039b366004611f45565b610ec8565b6101ff6103ae366004611f45565b610f3c565b3480156103bf57600080fd5b506101706103ce366004611d79565b6001600160a01b03918216600090815260066020908152604080832093909416825291909152205460ff1690565b34801561040857600080fd5b50610297610417366004611efb565b6113e9565b34801561042857600080fd5b506008546102ea9081565b34801561043f57600080fd5b506101ff61044e366004611d32565b611405565b60006001600160e01b031982166380ac58cd60e01b148061048457506001600160e01b03198216635b5e139f60e01b145b8061049f57506301ffc9a760e01b6001600160e01b03198316145b92915050565b6060600180546104b4906121e3565b80601f01602080910402602001604051908101604052809291908181526020018280546104e0906121e3565b801561052d5780601f106105025761010080835404028352916020019161052d565b820191906000526020600020905b81548152906001019060200180831161051057829003601f168201915b5050505050905090565b60006105428261147b565b506000908152600560205260409020546001600160a01b031690565b600061056982610d78565b9050806001600160a01b0316836001600160a01b031614156105dc5760405162461bcd60e51b815260206004820152602160248201527f4552433732313a20617070726f76616c20746f2063757272656e74206f776e656044820152603960f91b60648201526084015b60405180910390fd5b336001600160a01b03821614806105f857506105f881336103ce565b61066a5760405162461bcd60e51b815260206004820152603e60248201527f4552433732313a20617070726f76652063616c6c6572206973206e6f7420746f60448201527f6b656e206f776e6572206e6f7220617070726f76656420666f7220616c6c000060648201526084016105d3565b61067483836114da565b505050565b34670de0b6b3a7640000146106a157604051633bdf630f60e11b815260040160405180910390fd5b34600860000160008282546106b69190612174565b90915550506007546106cc600780546001019055565b6106d63382611548565b50565b33600090815260096020526040812080548390811061070857634e487b7160e01b600052603260045260246000fd5b60009182526020918290206040805160e08101825260079093029091018054835260018101546001600160a01b0390811694840194909452600280820154909416918301919091526003810154606083015260048101546080830152600581015460a083015260068101549192909160c084019160ff9091169081111561079f57634e487b7160e01b600052602160045260246000fd5b60028111156107be57634e487b7160e01b600052602160045260246000fd5b90525090506000808260c0015160028111156107ea57634e487b7160e01b600052602160045260246000fd5b602084015191141591506001600160a01b03163314156000828061080b5750815b9050801561082c5760405163de175b0760e01b815260040160405180910390fd5b6040808501516001600160a01b03166000908152600a60205220608085015181546001929190811061086e57634e487b7160e01b600052603260045260246000fd5b60009182526020909120600660079092020101805460ff191660018360028111156108a957634e487b7160e01b600052602160045260246000fd5b0217905550336000908152600960205260409020805460019190879081106108e157634e487b7160e01b600052603260045260246000fd5b60009182526020909120600660079092020101805460ff1916600183600281111561091c57634e487b7160e01b600052602160045260246000fd5b02179055508360405161092f9190611fda565b6040519081900381209033907f5880da345c34cdf74afed0aaace4262bd71cc2322ef6716dcdd2d54423d8c08990600090a3835160405160009133918381818185875af1925050503d80600081146109a3576040519150601f19603f3d011682016040523d82523d6000602084013e6109a8565b606091505b50509050806109ca57604051633bdf630f60e11b815260040160405180910390fd5b505050505050565b6109dc3382611562565b6109f85760405162461bcd60e51b81526004016105d3906120da565b6106748383836115e1565b34158015610a2457604051630bc27b7f60e31b815260040160405180910390fd5b610a2c611cc5565b6000610a3733610dd8565b1115610a41573481525b610a4a33610dd8565b610a8857610a5960c83461218c565b610a6390346121a0565b8152610a7060c83461218c565b60088054600090610a82908490612174565b90915550505b3360208281018281526001600160a01b03878116604080870182815260009687526009808752828820805460608b01818152958a52600a89529389205460808b0190815260a08b018d815260c08c018b8152938a5260018087018455928b52989099208a51600790950201938455955183870180549187166001600160a01b0319928316179055915160028085018054929097169190931617909455915160038201559451600486015592516005850155516006840180548695949293919260ff1990911691908490811115610b6e57634e487b7160e01b600052602160045260246000fd5b021790555050506001600160a01b038085166000908152600a602090815260408083208054600181810183559185529383902086516007909502019384559185015183830180549186166001600160a01b03199283161790559085015160028085018054929096169190921617909355606084015160038301556080840151600483015560a0840151600583015560c084015160068301805486959293919260ff1990911691908490811115610c3457634e487b7160e01b600052602160045260246000fd5b0217905550505080604051610c499190611fda565b6040519081900381209033907f8fc8266c7de47d269c6bab1dd3aecee9c41737bbc98cecfdcacc5dbf3abc328a90600090a350505050565b61067483838360405180602001604052806000815250610e90565b610ca461177d565b60085460405160009133918381818185875af1925050503d8060008114610ce7576040519150601f19603f3d011682016040523d82523d6000602084013e610cec565b606091505b50509050806106d657604051633bdf630f60e11b815260040160405180910390fd5b600a6020528160005260406000208181548110610d2a57600080fd5b600091825260209091206007909102018054600182015460028301546003840154600485015460058601546006909601549497506001600160a01b0393841696509290911693909260ff1687565b6000818152600360205260408120546001600160a01b03168061049f5760405162461bcd60e51b8152602060048201526018602482015277115490cdcc8c4e881a5b9d985b1a59081d1bdad95b88125160421b60448201526064016105d3565b60006001600160a01b038216610e425760405162461bcd60e51b815260206004820152602960248201527f4552433732313a2061646472657373207a65726f206973206e6f7420612076616044820152683634b21037bbb732b960b91b60648201526084016105d3565b506001600160a01b031660009081526004602052604090205490565b610e6661177d565b610e7060006117d7565b565b6060600280546104b4906121e3565b610e8c338383611827565b5050565b610e9a3383611562565b610eb65760405162461bcd60e51b81526004016105d3906120da565b610ec2848484846118f6565b50505050565b6060610ed38261147b565b6000610eea60408051602081019091526000815290565b90506000815111610f0a5760405180602001604052806000815250610f35565b80610f1484611929565b604051602001610f25929190611fab565b6040516020818303038152906040525b9392505050565b336000908152600a6020908152604080832080548251818502810185019093528083529192909190849084015b828210156110395760008481526020908190206040805160e081018252600786029092018054835260018101546001600160a01b0390811694840194909452600280820154909416918301919091526003810154606083015260048101546080830152600581015460a083015260068101549192909160c084019160ff9091169081111561100757634e487b7160e01b600052602160045260246000fd5b600281111561102657634e487b7160e01b600052602160045260246000fd5b8152505081526020019060010190610f69565b505050509050805160001415611062576040516318be8db160e11b815260040160405180910390fd5b60005b8151811015610674578282828151811061108f57634e487b7160e01b600052603260045260246000fd5b602002602001015160a0015114156113be576000808383815181106110c457634e487b7160e01b600052603260045260246000fd5b602002602001015160c0015160028111156110ef57634e487b7160e01b600052602160045260246000fd5b141590506000336001600160a01b031684848151811061111f57634e487b7160e01b600052603260045260246000fd5b6020026020010151604001516001600160a01b031614159050600082806111435750815b905080156111645760405163de175b0760e01b815260040160405180910390fd5b60026009600087878151811061118a57634e487b7160e01b600052603260045260246000fd5b6020026020010151602001516001600160a01b03166001600160a01b031681526020019081526020016000208686815181106111d657634e487b7160e01b600052603260045260246000fd5b6020026020010151606001518154811061120057634e487b7160e01b600052603260045260246000fd5b60009182526020909120600660079092020101805460ff1916600183600281111561123b57634e487b7160e01b600052602160045260246000fd5b0217905550336000908152600a602052604090208054600291908690811061127357634e487b7160e01b600052603260045260246000fd5b60009182526020909120600660079092020101805460ff191660018360028111156112ae57634e487b7160e01b600052602160045260246000fd5b02179055508484815181106112d357634e487b7160e01b600052603260045260246000fd5b60200260200101516040516112e89190611fda565b6040519081900381209033907f5a6816ad4185f0e8e6023f3b269deb7dc6458dfc7c003f19a888afef63a50b8590600090a36000336001600160a01b031686868151811061134657634e487b7160e01b600052603260045260246000fd5b602090810291909101015151604051600081818185875af1925050503d806000811461138e576040519150601f19603f3d011682016040523d82523d6000602084013e611393565b606091505b50509050806113b557604051633bdf630f60e11b815260040160405180910390fd5b505050506113d7565b604051633f4ba89360e11b815260040160405180910390fd5b806113e18161221e565b915050611065565b60096020528160005260406000208181548110610d2a57600080fd5b61140d61177d565b6001600160a01b0381166114725760405162461bcd60e51b815260206004820152602660248201527f4f776e61626c653a206e6577206f776e657220697320746865207a65726f206160448201526564647265737360d01b60648201526084016105d3565b6106d6816117d7565b6000818152600360205260409020546001600160a01b03166106d65760405162461bcd60e51b8152602060048201526018602482015277115490cdcc8c4e881a5b9d985b1a59081d1bdad95b88125160421b60448201526064016105d3565b600081815260056020526040902080546001600160a01b0319166001600160a01b038416908117909155819061150f82610d78565b6001600160a01b03167f8c5be1e5ebec7d5bd14f71427d1e84f3dd0314c0f7b2291e5b200ac8c7c3b92560405160405180910390a45050565b610e8c828260405180602001604052806000815250611a43565b60008061156e83610d78565b9050806001600160a01b0316846001600160a01b031614806115b557506001600160a01b0380821660009081526006602090815260408083209388168352929052205460ff165b806115d95750836001600160a01b03166115ce84610537565b6001600160a01b0316145b949350505050565b826001600160a01b03166115f482610d78565b6001600160a01b0316146116585760405162461bcd60e51b815260206004820152602560248201527f4552433732313a207472616e736665722066726f6d20696e636f72726563742060448201526437bbb732b960d91b60648201526084016105d3565b6001600160a01b0382166116ba5760405162461bcd60e51b8152602060048201526024808201527f4552433732313a207472616e7366657220746f20746865207a65726f206164646044820152637265737360e01b60648201526084016105d3565b6116c56000826114da565b6001600160a01b03831660009081526004602052604081208054600192906116ee9084906121a0565b90915550506001600160a01b038216600090815260046020526040812080546001929061171c908490612174565b909155505060008181526003602052604080822080546001600160a01b0319166001600160a01b0386811691821790925591518493918716917fddf252ad1be2c89b69c2b068fc378daa952ba7f163c4a11628f55a4df523b3ef91a4505050565b6000546001600160a01b03163314610e705760405162461bcd60e51b815260206004820181905260248201527f4f776e61626c653a2063616c6c6572206973206e6f7420746865206f776e657260448201526064016105d3565b600080546001600160a01b038381166001600160a01b0319831681178455604051919092169283917f8be0079c531659141344cd1fd0a4f28419497f9722a3daafe3b4186f6b6457e09190a35050565b816001600160a01b0316836001600160a01b031614156118895760405162461bcd60e51b815260206004820152601960248201527f4552433732313a20617070726f766520746f2063616c6c65720000000000000060448201526064016105d3565b6001600160a01b03838116600081815260066020908152604080832094871680845294825291829020805460ff191686151590811790915591519182527f17307eab39ab6107e8899845ad3d59bd9653f200f220920489ca2b5937696c31910160405180910390a3505050565b6119018484846115e1565b61190d84848484611a76565b610ec25760405162461bcd60e51b81526004016105d390612088565b60608161194d5750506040805180820190915260018152600360fc1b602082015290565b8160005b811561197757806119618161221e565b91506119709050600a8361218c565b9150611951565b60008167ffffffffffffffff8111156119a057634e487b7160e01b600052604160045260246000fd5b6040519080825280601f01601f1916602001820160405280156119ca576020820181803683370190505b5090505b84156115d9576119df6001836121a0565b91506119ec600a86612239565b6119f7906030612174565b60f81b818381518110611a1a57634e487b7160e01b600052603260045260246000fd5b60200101906001600160f81b031916908160001a905350611a3c600a8661218c565b94506119ce565b611a4d8383611b83565b611a5a6000848484611a76565b6106745760405162461bcd60e51b81526004016105d390612088565b60006001600160a01b0384163b15611b7857604051630a85bd0160e11b81526001600160a01b0385169063150b7a0290611aba903390899088908890600401612038565b602060405180830381600087803b158015611ad457600080fd5b505af1925050508015611b04575060408051601f3d908101601f19168201909252611b0191810190611f29565b60015b611b5e573d808015611b32576040519150601f19603f3d011682016040523d82523d6000602084013e611b37565b606091505b508051611b565760405162461bcd60e51b81526004016105d390612088565b805181602001fd5b6001600160e01b031916630a85bd0160e11b1490506115d9565b506001949350505050565b6001600160a01b038216611bd95760405162461bcd60e51b815260206004820181905260248201527f4552433732313a206d696e7420746f20746865207a65726f206164647265737360448201526064016105d3565b6000818152600360205260409020546001600160a01b031615611c3e5760405162461bcd60e51b815260206004820152601c60248201527f4552433732313a20746f6b656e20616c7265616479206d696e7465640000000060448201526064016105d3565b6001600160a01b0382166000908152600460205260408120805460019290611c67908490612174565b909155505060008181526003602052604080822080546001600160a01b0319166001600160a01b03861690811790915590518392907fddf252ad1be2c89b69c2b068fc378daa952ba7f163c4a11628f55a4df523b3ef908290a45050565b6040518060e001604052806000815260200160006001600160a01b0316815260200160006001600160a01b0316815260200160008152602001600081526020016000815260200160006002811115611d2d57634e487b7160e01b600052602160045260246000fd5b905290565b600060208284031215611d43578081fd5b8135610f358161228f565b60008060408385031215611d60578081fd5b8235611d6b8161228f565b946020939093013593505050565b60008060408385031215611d8b578182fd5b8235611d968161228f565b91506020830135611da68161228f565b809150509250929050565b600080600060608486031215611dc5578081fd5b8335611dd08161228f565b92506020840135611de08161228f565b929592945050506040919091013590565b60008060008060808587031215611e06578081fd5b8435611e118161228f565b93506020850135611e218161228f565b925060408501359150606085013567ffffffffffffffff80821115611e44578283fd5b818701915087601f830112611e57578283fd5b813581811115611e6957611e69612279565b604051601f8201601f19908116603f01168101908382118183101715611e9157611e91612279565b816040528281528a6020848701011115611ea9578586fd5b82602086016020830137918201602001949094529598949750929550505050565b60008060408385031215611edc578182fd5b8235611ee78161228f565b915060208301358015158114611da6578182fd5b60008060408385031215611d60578182fd5b600060208284031215611f1e578081fd5b8135610f35816122a4565b600060208284031215611f3a578081fd5b8151610f35816122a4565b600060208284031215611f56578081fd5b5035919050565b60008151808452611f758160208601602086016121b7565b601f01601f19169290920160200192915050565b60038110611fa757634e487b7160e01b600052602160045260246000fd5b9052565b60008351611fbd8184602088016121b7565b835190830190611fd18183602088016121b7565b01949350505050565b81518152600060018060a01b0380602085015116602084015280604085015116604084015250606083015160608301526080830151608083015260a083015160a083015261202f60c0830160c0850151611f89565b5060e001919050565b6001600160a01b038581168252841660208201526040810183905260806060820181905260009061206b90830184611f5d565b9695505050505050565b602081526000610f356020830184611f5d565b60208082526032908201527f4552433732313a207472616e7366657220746f206e6f6e20455243373231526560408201527131b2b4bb32b91034b6b83632b6b2b73a32b960711b606082015260800190565b6020808252602e908201527f4552433732313a2063616c6c6572206973206e6f7420746f6b656e206f776e6560408201526d1c881b9bdc88185c1c1c9bdd995960921b606082015260800190565b8781526001600160a01b03878116602083015286166040820152606081018590526080810184905260a0810183905260e0810161216860c0830184611f89565b98975050505050505050565b600082198211156121875761218761224d565b500190565b60008261219b5761219b612263565b500490565b6000828210156121b2576121b261224d565b500390565b60005b838110156121d25781810151838201526020016121ba565b83811115610ec25750506000910152565b600181811c908216806121f757607f821691505b6020821081141561221857634e487b7160e01b600052602260045260246000fd5b50919050565b60006000198214156122325761223261224d565b5060010190565b60008261224857612248612263565b500690565b634e487b7160e01b600052601160045260246000fd5b634e487b7160e01b600052601260045260246000fd5b634e487b7160e01b600052604160045260246000fd5b6001600160a01b03811681146106d657600080fd5b6001600160e01b0319811681146106d657600080fdfea26469706673582212207e9ddf5b80ce0f1c1f24d396f59bb5b52f870e051fc998b0ee0ae77f1585676164736f6c63430008040033",
  "linkReferences": {},
  "deployedLinkReferences": {}
}