{
  "_format": "hh-sol-artifact-1",
  "contractName": "PayLock",
  "sourceName": "contracts/PayFactory.sol",
  "abi": [
    {
      "inputs": [
        {
          "internalType": "contract MinimalForwarder",
          "name": "forwarder",
          "type": "address"
        },
        {
          "internalType": "address",
          "name": "AggregatorNative",
          "type": "address"
        },
        {
          "internalType": "address",
          "name": "AggregatorUSDC",
          "type": "address"
        },
        {
          "internalType": "address",
          "name": "AggregatorUSDT",
          "type": "address"
        },
        {
          "internalType": "address",
          "name": "AggregatorDAI",
          "type": "address"
        },
        {
          "internalType": "address",
          "name": "AggregatordBTC",
          "type": "address"
        },
        {
          "internalType": "address",
          "name": "USDCAddress",
          "type": "address"
        },
        {
          "internalType": "address",
          "name": "USDTAddress",
          "type": "address"
        },
        {
          "internalType": "address",
          "name": "DAIAddress",
          "type": "address"
        },
        {
          "internalType": "address",
          "name": "WBTCAddress",
          "type": "address"
        }
      ],
      "stateMutability": "nonpayable",
      "type": "constructor"
    },
    {
      "inputs": [],
      "name": "__AmountEmpty",
      "type": "error"
    },
    {
      "inputs": [],
      "name": "__InvalidCode",
      "type": "error"
    },
    {
      "inputs": [],
      "name": "__NoReedemablePayments",
      "type": "error"
    },
    {
      "inputs": [],
      "name": "__NotSenderOrNotActive",
      "type": "error"
    },
    {
      "inputs": [],
      "name": "__TransferFailed",
      "type": "error"
    },
    {
      "anonymous": false,
      "inputs": [
        {
          "indexed": true,
          "internalType": "address",
          "name": "previousOwner",
          "type": "address"
        },
        {
          "indexed": true,
          "internalType": "address",
          "name": "newOwner",
          "type": "address"
        }
      ],
      "name": "OwnershipTransferred",
      "type": "event"
    },
    {
      "anonymous": false,
      "inputs": [
        {
          "indexed": true,
          "internalType": "address",
          "name": "sender",
          "type": "address"
        },
        {
          "components": [
            {
              "internalType": "uint256",
              "name": "value",
              "type": "uint256"
            },
            {
              "internalType": "address payable",
              "name": "issuer",
              "type": "address"
            },
            {
              "internalType": "address payable",
              "name": "receiver",
              "type": "address"
            },
            {
              "internalType": "uint256",
              "name": "issuerId",
              "type": "uint256"
            },
            {
              "internalType": "uint256",
              "name": "receiverId",
              "type": "uint256"
            },
            {
              "internalType": "uint256",
              "name": "code",
              "type": "uint256"
            },
            {
              "internalType": "address",
              "name": "tokenAddress",
              "type": "address"
            },
            {
              "internalType": "enum PayLock.PaymentState",
              "name": "state",
              "type": "uint8"
            }
          ],
          "indexed": true,
          "internalType": "struct PayLock.payment",
          "name": "receipt",
          "type": "tuple"
        }
      ],
      "name": "PaymentIssued",
      "type": "event"
    },
    {
      "anonymous": false,
      "inputs": [
        {
          "indexed": true,
          "internalType": "address",
          "name": "receiver",
          "type": "address"
        },
        {
          "components": [
            {
              "internalType": "uint256",
              "name": "value",
              "type": "uint256"
            },
            {
              "internalType": "address payable",
              "name": "issuer",
              "type": "address"
            },
            {
              "internalType": "address payable",
              "name": "receiver",
              "type": "address"
            },
            {
              "internalType": "uint256",
              "name": "issuerId",
              "type": "uint256"
            },
            {
              "internalType": "uint256",
              "name": "receiverId",
              "type": "uint256"
            },
            {
              "internalType": "uint256",
              "name": "code",
              "type": "uint256"
            },
            {
              "internalType": "address",
              "name": "tokenAddress",
              "type": "address"
            },
            {
              "internalType": "enum PayLock.PaymentState",
              "name": "state",
              "type": "uint8"
            }
          ],
          "indexed": true,
          "internalType": "struct PayLock.payment",
          "name": "receipt",
          "type": "tuple"
        }
      ],
      "name": "PaymentReedemed",
      "type": "event"
    },
    {
      "anonymous": false,
      "inputs": [
        {
          "indexed": true,
          "internalType": "address",
          "name": "sender",
          "type": "address"
        },
        {
          "components": [
            {
              "internalType": "uint256",
              "name": "value",
              "type": "uint256"
            },
            {
              "internalType": "address payable",
              "name": "issuer",
              "type": "address"
            },
            {
              "internalType": "address payable",
              "name": "receiver",
              "type": "address"
            },
            {
              "internalType": "uint256",
              "name": "issuerId",
              "type": "uint256"
            },
            {
              "internalType": "uint256",
              "name": "receiverId",
              "type": "uint256"
            },
            {
              "internalType": "uint256",
              "name": "code",
              "type": "uint256"
            },
            {
              "internalType": "address",
              "name": "tokenAddress",
              "type": "address"
            },
            {
              "internalType": "enum PayLock.PaymentState",
              "name": "state",
              "type": "uint8"
            }
          ],
          "indexed": true,
          "internalType": "struct PayLock.payment",
          "name": "receipt",
          "type": "tuple"
        }
      ],
      "name": "PaymentWithdrawn",
      "type": "event"
    },
    {
      "inputs": [
        {
          "internalType": "address payable",
          "name": "_receiver",
          "type": "address"
        },
        {
          "internalType": "uint256",
          "name": "_code",
          "type": "uint256"
        },
        {
          "internalType": "address",
          "name": "_tokenAddress",
          "type": "address"
        },
        {
          "internalType": "uint256",
          "name": "_tokenAmount",
          "type": "uint256"
        }
      ],
      "name": "CreatePayement",
      "outputs": [],
      "stateMutability": "payable",
      "type": "function"
    },
    {
      "inputs": [],
      "name": "MAXIMUM_FEE_USD",
      "outputs": [
        {
          "internalType": "uint256",
          "name": "",
          "type": "uint256"
        }
      ],
      "stateMutability": "view",
      "type": "function"
    },
    {
      "inputs": [
        {
          "internalType": "uint256",
          "name": "_code",
          "type": "uint256"
        }
      ],
      "name": "RedeemPayment",
      "outputs": [],
      "stateMutability": "payable",
      "type": "function"
    },
    {
      "inputs": [
        {
          "internalType": "address",
          "name": "user",
          "type": "address"
        }
      ],
      "name": "getIssuedPayments",
      "outputs": [
        {
          "components": [
            {
              "internalType": "uint256",
              "name": "value",
              "type": "uint256"
            },
            {
              "internalType": "address payable",
              "name": "issuer",
              "type": "address"
            },
            {
              "internalType": "address payable",
              "name": "receiver",
              "type": "address"
            },
            {
              "internalType": "uint256",
              "name": "issuerId",
              "type": "uint256"
            },
            {
              "internalType": "uint256",
              "name": "receiverId",
              "type": "uint256"
            },
            {
              "internalType": "uint256",
              "name": "code",
              "type": "uint256"
            },
            {
              "internalType": "address",
              "name": "tokenAddress",
              "type": "address"
            },
            {
              "internalType": "enum PayLock.PaymentState",
              "name": "state",
              "type": "uint8"
            }
          ],
          "internalType": "struct PayLock.payment[]",
          "name": "",
          "type": "tuple[]"
        }
      ],
      "stateMutability": "view",
      "type": "function"
    },
    {
      "inputs": [
        {
          "internalType": "address",
          "name": "user",
          "type": "address"
        }
      ],
      "name": "getRedeemablePayments",
      "outputs": [
        {
          "components": [
            {
              "internalType": "uint256",
              "name": "value",
              "type": "uint256"
            },
            {
              "internalType": "address payable",
              "name": "issuer",
              "type": "address"
            },
            {
              "internalType": "address payable",
              "name": "receiver",
              "type": "address"
            },
            {
              "internalType": "uint256",
              "name": "issuerId",
              "type": "uint256"
            },
            {
              "internalType": "uint256",
              "name": "receiverId",
              "type": "uint256"
            },
            {
              "internalType": "uint256",
              "name": "code",
              "type": "uint256"
            },
            {
              "internalType": "address",
              "name": "tokenAddress",
              "type": "address"
            },
            {
              "internalType": "enum PayLock.PaymentState",
              "name": "state",
              "type": "uint8"
            }
          ],
          "internalType": "struct PayLock.payment[]",
          "name": "",
          "type": "tuple[]"
        }
      ],
      "stateMutability": "view",
      "type": "function"
    },
    {
      "inputs": [
        {
          "internalType": "address",
          "name": "forwarder",
          "type": "address"
        }
      ],
      "name": "isTrustedForwarder",
      "outputs": [
        {
          "internalType": "bool",
          "name": "",
          "type": "bool"
        }
      ],
      "stateMutability": "view",
      "type": "function"
    },
    {
      "inputs": [],
      "name": "owner",
      "outputs": [
        {
          "internalType": "address",
          "name": "",
          "type": "address"
        }
      ],
      "stateMutability": "view",
      "type": "function"
    },
    {
      "inputs": [],
      "name": "renounceOwnership",
      "outputs": [],
      "stateMutability": "nonpayable",
      "type": "function"
    },
    {
      "inputs": [],
      "name": "s_PaySafe",
      "outputs": [
        {
          "internalType": "uint256",
          "name": "",
          "type": "uint256"
        }
      ],
      "stateMutability": "view",
      "type": "function"
    },
    {
      "inputs": [
        {
          "internalType": "address",
          "name": "",
          "type": "address"
        }
      ],
      "name": "s_PaySafeTokenBalances",
      "outputs": [
        {
          "internalType": "uint256",
          "name": "",
          "type": "uint256"
        }
      ],
      "stateMutability": "view",
      "type": "function"
    },
    {
      "inputs": [
        {
          "internalType": "address",
          "name": "",
          "type": "address"
        },
        {
          "internalType": "uint256",
          "name": "",
          "type": "uint256"
        }
      ],
      "name": "s_issuedPayments",
      "outputs": [
        {
          "internalType": "uint256",
          "name": "value",
          "type": "uint256"
        },
        {
          "internalType": "address payable",
          "name": "issuer",
          "type": "address"
        },
        {
          "internalType": "address payable",
          "name": "receiver",
          "type": "address"
        },
        {
          "internalType": "uint256",
          "name": "issuerId",
          "type": "uint256"
        },
        {
          "internalType": "uint256",
          "name": "receiverId",
          "type": "uint256"
        },
        {
          "internalType": "uint256",
          "name": "code",
          "type": "uint256"
        },
        {
          "internalType": "address",
          "name": "tokenAddress",
          "type": "address"
        },
        {
          "internalType": "enum PayLock.PaymentState",
          "name": "state",
          "type": "uint8"
        }
      ],
      "stateMutability": "view",
      "type": "function"
    },
    {
      "inputs": [
        {
          "internalType": "address",
          "name": "",
          "type": "address"
        },
        {
          "internalType": "uint256",
          "name": "",
          "type": "uint256"
        }
      ],
      "name": "s_redeemablePayments",
      "outputs": [
        {
          "internalType": "uint256",
          "name": "value",
          "type": "uint256"
        },
        {
          "internalType": "address payable",
          "name": "issuer",
          "type": "address"
        },
        {
          "internalType": "address payable",
          "name": "receiver",
          "type": "address"
        },
        {
          "internalType": "uint256",
          "name": "issuerId",
          "type": "uint256"
        },
        {
          "internalType": "uint256",
          "name": "receiverId",
          "type": "uint256"
        },
        {
          "internalType": "uint256",
          "name": "code",
          "type": "uint256"
        },
        {
          "internalType": "address",
          "name": "tokenAddress",
          "type": "address"
        },
        {
          "internalType": "enum PayLock.PaymentState",
          "name": "state",
          "type": "uint8"
        }
      ],
      "stateMutability": "view",
      "type": "function"
    },
    {
      "inputs": [
        {
          "internalType": "address",
          "name": "newOwner",
          "type": "address"
        }
      ],
      "name": "transferOwnership",
      "outputs": [],
      "stateMutability": "nonpayable",
      "type": "function"
    },
    {
      "inputs": [
        {
          "internalType": "uint256",
          "name": "index",
          "type": "uint256"
        }
      ],
      "name": "withdrawIssuerPayment",
      "outputs": [],
      "stateMutability": "payable",
      "type": "function"
    },
    {
      "inputs": [
        {
          "internalType": "address",
          "name": "_tokenAddress",
          "type": "address"
        }
      ],
      "name": "withdrawPaySafeBalance",
      "outputs": [],
      "stateMutability": "payable",
      "type": "function"
    },
    {
      "inputs": [],
      "name": "withdrawPaySafeBalance",
      "outputs": [],
      "stateMutability": "payable",
      "type": "function"
    }
  ],
  "bytecode": "0x6101e06040523480156200001257600080fd5b50604051620037e6380380620037e6833981016040819052620000359162000163565b6001600160a01b038a166080526200005662000050620000a1565b620000bd565b6001600160a01b03998a1660a05297891660c05295881660e052938716610100529186166101205285166101405284166101605283166101805282166101a052166101c05262000251565b6000620000b86200010d60201b62002cdb1760201c565b905090565b600080546001600160a01b038381166001600160a01b0319831681178455604051919092169283917f8be0079c531659141344cd1fd0a4f28419497f9722a3daafe3b4186f6b6457e09190a35050565b6080516000906001600160a01b031633141562000131575060131936013560601c90565b620000b86200014660201b62002d251760201c565b3390565b6001600160a01b03811681146200016057600080fd5b50565b6000806000806000806000806000806101408b8d0312156200018457600080fd5b8a5162000191816200014a565b60208c0151909a50620001a4816200014a565b60408c0151909950620001b7816200014a565b60608c0151909850620001ca816200014a565b60808c0151909750620001dd816200014a565b60a08c0151909650620001f0816200014a565b60c08c015190955062000203816200014a565b60e08c015190945062000216816200014a565b6101008c01519093506200022a816200014a565b6101208c01519092506200023e816200014a565b809150509295989b9194979a5092959850565b60805160a05160c05160e05161010051610120516101405161016051610180516101a0516101c05161337f620004676000396000818161096a015281816109c201528181610e5201528181610e9401528181610f6501528181611e1e01528181611e7001528181611fd50152818161207f01528181612acf0152612b280152600081816108da0152818161093201528181610d0b01528181610d4d01528181610e1e01528181611b7d01528181611bcf01528181611d3401528181611dde01528181612a3f0152612a9801526000818161084a015281816108a201528181610bc401528181610c0601528181610cd7015281816118dc0152818161192e01528181611a9301528181611b3d015281816129af0152612a08015260008181610748015281816107a001528181610a7d01528181610abf01528181610b900152818161162f01528181611681015281816117e6015281816118900152818161287201526128cb015260008181611f2a01528181611f6801528181611fa70152612029015260008181611c8901528181611cc701528181611d060152611d880152600081816119e801528181611a2601528181611a650152611ae701526000818161173b01528181611779015281816117b8015261183a01526000818161112101528181611166015281816111a5015261121b0152600081816111ec01526112ed0152600081816101af0152612cdf015261337f6000f3fe6080604052600436106100f35760003560e01c80638da5cb5b1161008a578063ec09fd0511610059578063ec09fd051461029d578063ee23b65a146102ca578063f1fdbc42146102ea578063f2fde38b1461030057600080fd5b80638da5cb5b1461022f57806398df6d4b14610257578063c3c0045f1461026a578063dc4cf83f1461028a57600080fd5b80635463612e116100c65780635463612e1461015e578063572b6c0514610192578063715018a6146101ef578063774dee891461020457600080fd5b8063153b1143146100f85780631f102dd21461012e57806342cdef411461014357806348502eaa14610156575b600080fd5b34801561010457600080fd5b50610118610113366004612ef3565b610320565b6040516101259190612f48565b60405180910390f35b61014161013c366004612ff1565b610423565b005b610141610151366004612ef3565b610a73565b610141610f98565b34801561016a57600080fd5b5061017e61017936600461300a565b611012565b604051610125989796959493929190613036565b34801561019e57600080fd5b506101df6101ad366004612ef3565b7f00000000000000000000000000000000000000000000000000000000000000006001600160a01b0390811691161490565b6040519015158152602001610125565b3480156101fb57600080fd5b5061014161108a565b34801561021057600080fd5b506102216802b5e3af16b188000081565b604051908152602001610125565b34801561023b57600080fd5b506000546040516001600160a01b039091168152602001610125565b61014161026536600461308c565b61109e565b34801561027657600080fd5b50610118610285366004612ef3565b612311565b610141610298366004612ff1565b612409565b3480156102a957600080fd5b506102216102b8366004612ef3565b60026020526000908152604090205481565b3480156102d657600080fd5b5061017e6102e536600461300a565b612c44565b3480156102f657600080fd5b5061022160015481565b34801561030c57600080fd5b5061014161031b366004612ef3565b612c60565b6001600160a01b0381166000908152600360209081526040808320805482518185028101850190935280835260609492939192909184015b828210156104185760008481526020908190206040805161010081018252600786029092018054835260018101546001600160a01b03908116948401949094526002808201548516928401929092526003810154606084015260048101546080840152600581015460a0840152600681015493841660c0840152919260e0840191600160a01b90910460ff16908111156103f4576103f4612f10565b600281111561040557610405612f10565b8152505081526020019060010190610358565b505050509050919050565b600060036000610431612d29565b6001600160a01b03166001600160a01b031681526020019081526020016000208281548110610462576104626130d4565b600091825260209182902060408051610100810182526007939093029091018054835260018101546001600160a01b03908116948401949094526002808201548516928401929092526003810154606084015260048101546080840152600581015460a0840152600681015493841660c0840152919260e0840191600160a01b90910460ff16908111156104f8576104f8612f10565b600281111561050957610509612f10565b90525090506000808260e00151600281111561052757610527612f10565b141590506000610535612d29565b6001600160a01b031683602001516001600160a01b0316141590506000828061055b5750815b9050801561057c5760405163de175b0760e01b815260040160405180910390fd5b6040808501516001600160a01b0316600090815260046020522060808501518154600192919081106105b0576105b06130d4565b60009182526020909120600660079092020101805460ff60a01b1916600160a01b8360028111156105e3576105e3612f10565b02179055506001600360006105f6612d29565b6001600160a01b03166001600160a01b031681526020019081526020016000208681548110610627576106276130d4565b60009182526020909120600660079092020101805460ff60a01b1916600160a01b83600281111561065a5761065a612f10565b02179055508360405161066d91906130ea565b604051809103902061067d612d29565b6001600160a01b03167f6abd023739f4ff71d95fb906429d7d4beea7738cb65d5b6730bc335fa2ac456460405160405180910390a360c08401516001600160a01b03166107465760006106ce612d29565b85516040516001600160a01b039290921691600081818185875af1925050503d8060008114610719576040519150601f19603f3d011682016040523d82523d6000602084013e61071e565b606091505b505090508061074057604051633bdf630f60e11b815260040160405180910390fd5b50610a6c565b7f00000000000000000000000000000000000000000000000000000000000000006001600160a01b03168460c001516001600160a01b0316141561084857835160405163a9059cbb60e01b81526000916001600160a01b037f0000000000000000000000000000000000000000000000000000000000000000169163a9059cbb916107d691339190600401613155565b602060405180830381600087803b1580156107f057600080fd5b505af1158015610804573d6000803e3d6000fd5b505050506040513d601f19601f82011682018060405250810190610828919061316e565b90508061074057604051633bdf630f60e11b815260040160405180910390fd5b7f00000000000000000000000000000000000000000000000000000000000000006001600160a01b03168460c001516001600160a01b031614156108d857835160405163a9059cbb60e01b81526000916001600160a01b037f0000000000000000000000000000000000000000000000000000000000000000169163a9059cbb916107d691339190600401613155565b7f00000000000000000000000000000000000000000000000000000000000000006001600160a01b03168460c001516001600160a01b0316141561096857835160405163a9059cbb60e01b81526000916001600160a01b037f0000000000000000000000000000000000000000000000000000000000000000169163a9059cbb916107d691339190600401613155565b7f00000000000000000000000000000000000000000000000000000000000000006001600160a01b03168460c001516001600160a01b03161415610a6c57835160405163a9059cbb60e01b81526000916001600160a01b037f0000000000000000000000000000000000000000000000000000000000000000169163a9059cbb916109f891339190600401613155565b602060405180830381600087803b158015610a1257600080fd5b505af1158015610a26573d6000803e3d6000fd5b505050506040513d601f19601f82011682018060405250810190610a4a919061316e565b905080610a6a57604051633bdf630f60e11b815260040160405180910390fd5b505b5050505050565b610a7b612d33565b7f00000000000000000000000000000000000000000000000000000000000000006001600160a01b0316816001600160a01b03161415610bc2576001600160a01b037f00000000000000000000000000000000000000000000000000000000000000001660008181526002602052604080822054905163a9059cbb60e01b815291929163a9059cbb91610b1391339190600401613155565b602060405180830381600087803b158015610b2d57600080fd5b505af1158015610b41573d6000803e3d6000fd5b505050506040513d601f19601f82011682018060405250810190610b65919061316e565b905080610b8557604051633bdf630f60e11b815260040160405180910390fd5b506001600160a01b037f00000000000000000000000000000000000000000000000000000000000000001660009081526002602052604081205550565b7f00000000000000000000000000000000000000000000000000000000000000006001600160a01b0316816001600160a01b03161415610d09576001600160a01b037f00000000000000000000000000000000000000000000000000000000000000001660008181526002602052604080822054905163a9059cbb60e01b815291929163a9059cbb91610c5a91339190600401613155565b602060405180830381600087803b158015610c7457600080fd5b505af1158015610c88573d6000803e3d6000fd5b505050506040513d601f19601f82011682018060405250810190610cac919061316e565b905080610ccc57604051633bdf630f60e11b815260040160405180910390fd5b506001600160a01b037f00000000000000000000000000000000000000000000000000000000000000001660009081526002602052604081205550565b7f00000000000000000000000000000000000000000000000000000000000000006001600160a01b0316816001600160a01b03161415610e50576001600160a01b037f00000000000000000000000000000000000000000000000000000000000000001660008181526002602052604080822054905163a9059cbb60e01b815291929163a9059cbb91610da191339190600401613155565b602060405180830381600087803b158015610dbb57600080fd5b505af1158015610dcf573d6000803e3d6000fd5b505050506040513d601f19601f82011682018060405250810190610df3919061316e565b905080610e1357604051633bdf630f60e11b815260040160405180910390fd5b506001600160a01b037f00000000000000000000000000000000000000000000000000000000000000001660009081526002602052604081205550565b7f00000000000000000000000000000000000000000000000000000000000000006001600160a01b0316816001600160a01b03161415610f95576001600160a01b037f00000000000000000000000000000000000000000000000000000000000000001660008181526002602052604080822054905163a9059cbb60e01b815291929163a9059cbb91610ee891339190600401613155565b602060405180830381600087803b158015610f0257600080fd5b505af1158015610f16573d6000803e3d6000fd5b505050506040513d601f19601f82011682018060405250810190610f3a919061316e565b905080610f5a57604051633bdf630f60e11b815260040160405180910390fd5b506001600160a01b037f0000000000000000000000000000000000000000000000000000000000000000166000908152600260205260408120555b50565b610fa0612d33565b60015460405160009133918381818185875af1925050503d8060008114610fe3576040519150601f19603f3d011682016040523d82523d6000602084013e610fe8565b606091505b505090508061100a57604051633bdf630f60e11b815260040160405180910390fd5b506000600155565b6004602052816000526040600020818154811061102e57600080fd5b600091825260209091206007909102018054600182015460028301546003840154600485015460058601546006909601549497506001600160a01b0393841696509183169490939192909190811690600160a01b900460ff1688565b611092612d33565b61109c6000612dac565b565b6001600160a01b0382166115c757341580156110cd5760405163183bb67760e21b815260040160405180910390fd5b6111126040805161010081018252600080825260208201819052918101829052606081018290526080810182905260a0810182905260c081018290529060e082015290565b6802b5e3af16b18800006111517f000000000000000000000000000000000000000000000000000000000000000061114b60c8346131a6565b90612dfc565b11156112a85761118a6802b5e3af16b18800007f0000000000000000000000000000000000000000000000000000000000000000612e32565b61119490346131c8565b81526111c96802b5e3af16b18800007f0000000000000000000000000000000000000000000000000000000000000000612e32565b600160008282546111da91906131df565b90915550600090506001600160a01b037f00000000000000000000000000000000000000000000000000000000000000001661123f6802b5e3af16b18800007f0000000000000000000000000000000000000000000000000000000000000000612e32565b604051600081818185875af1925050503d806000811461127b576040519150601f19603f3d011682016040523d82523d6000602084013e611280565b606091505b50509050806112a257604051633bdf630f60e11b815260040160405180910390fd5b5061137d565b6112b360c8346131a6565b6112bd90346131c8565b81526112ca60c8346131a6565b600160008282546112db91906131df565b90915550600090506001600160a01b037f00000000000000000000000000000000000000000000000000000000000000001661131860c8346131a6565b604051600081818185875af1925050503d8060008114611354576040519150601f19603f3d011682016040523d82523d6000602084013e611359565b606091505b505090508061137b57604051633bdf630f60e11b815260040160405180910390fd5b505b3360208281018290526001600160a01b038881166040808601829052600094855260038452808520546060870152908452600490925290822054608084015260a08301879052851660c083015260e08201819052503360009081526003602081815260408084208054600180820183559186529483902086516007909602019485559185015191840180546001600160a01b03199081166001600160a01b039485161790915590850151600280860180548416928516929092179091556060860151938501939093556080850151600485015560a0850151600585015560c085015160068501805492831691909316908117835560e08601518695949093926001600160a81b03191690911790600160a01b9084908111156114a1576114a1612f10565b021790555050506001600160a01b0380871660009081526004602081815260408084208054600181810183559186529483902087516007909602019485559186015191840180549286166001600160a01b031993841617905585015160028085018054928716928416929092179091556060860151600385015560808601519284019290925560a0850151600584015560c0850151600684018054919095169181168217855560e08601518695909390926001600160a81b031990921690911790600160a01b90849081111561157957611579612f10565b021790555050508060405161158e91906130ea565b6040519081900381209033907f14f09417cd81e1bfba59388f82b41657119f594c9c473945c0ea1311c648693990600090a3505061230b565b801580156115e85760405163183bb67760e21b815260040160405180910390fd5b61162d6040805161010081018252600080825260208201819052918101829052606081018290526080810182905260a0810182905260c081018290529060e082015290565b7f00000000000000000000000000000000000000000000000000000000000000006001600160a01b0316846001600160a01b031614156118da576040516323b872dd60e01b81526000906001600160a01b037f000000000000000000000000000000000000000000000000000000000000000016906323b872dd906116ba903390309089906004016131f7565b602060405180830381600087803b1580156116d457600080fd5b505af11580156116e8573d6000803e3d6000fd5b505050506040513d601f19601f8201168201806040525081019061170c919061316e565b90508061172c57604051633bdf630f60e11b815260040160405180910390fd5b6802b5e3af16b18800006117657f000000000000000000000000000000000000000000000000000000000000000061114b60c8886131a6565b1061182a5761179d6802b5e3af16b18800007f0000000000000000000000000000000000000000000000000000000000000000612e32565b6117a790856131c8565b82526117dc6802b5e3af16b18800007f0000000000000000000000000000000000000000000000000000000000000000612e32565b6001600160a01b037f000000000000000000000000000000000000000000000000000000000000000016600090815260026020526040812080549091906118249084906131df565b90915550505b6802b5e3af16b188000061185e857f0000000000000000000000000000000000000000000000000000000000000000612dfc565b10156118d45761186f60c8856131a6565b61187990856131c8565b825261188660c8856131a6565b6001600160a01b037f000000000000000000000000000000000000000000000000000000000000000016600090815260026020526040812080549091906118ce9084906131df565b90915550505b506120c5565b7f00000000000000000000000000000000000000000000000000000000000000006001600160a01b0316846001600160a01b03161415611b7b576040516323b872dd60e01b81526000906001600160a01b037f000000000000000000000000000000000000000000000000000000000000000016906323b872dd90611967903390309089906004016131f7565b602060405180830381600087803b15801561198157600080fd5b505af1158015611995573d6000803e3d6000fd5b505050506040513d601f19601f820116820180604052508101906119b9919061316e565b9050806119d957604051633bdf630f60e11b815260040160405180910390fd5b6802b5e3af16b1880000611a127f000000000000000000000000000000000000000000000000000000000000000061114b60c8886131a6565b10611ad757611a4a6802b5e3af16b18800007f0000000000000000000000000000000000000000000000000000000000000000612e32565b611a5490856131c8565b8252611a896802b5e3af16b18800007f0000000000000000000000000000000000000000000000000000000000000000612e32565b6001600160a01b037f00000000000000000000000000000000000000000000000000000000000000001660009081526002602052604081208054909190611ad19084906131df565b90915550505b6802b5e3af16b1880000611b0b857f0000000000000000000000000000000000000000000000000000000000000000612dfc565b10156118d457611b1c60c8856131a6565b611b2690856131c8565b8252611b3360c8856131a6565b6001600160a01b037f000000000000000000000000000000000000000000000000000000000000000016600090815260026020526040812080549091906118ce9084906131df565b7f00000000000000000000000000000000000000000000000000000000000000006001600160a01b0316846001600160a01b03161415611e1c576040516323b872dd60e01b81526000906001600160a01b037f000000000000000000000000000000000000000000000000000000000000000016906323b872dd90611c08903390309089906004016131f7565b602060405180830381600087803b158015611c2257600080fd5b505af1158015611c36573d6000803e3d6000fd5b505050506040513d601f19601f82011682018060405250810190611c5a919061316e565b905080611c7a57604051633bdf630f60e11b815260040160405180910390fd5b6802b5e3af16b1880000611cb37f000000000000000000000000000000000000000000000000000000000000000061114b60c8886131a6565b10611d7857611ceb6802b5e3af16b18800007f0000000000000000000000000000000000000000000000000000000000000000612e32565b611cf590856131c8565b8252611d2a6802b5e3af16b18800007f0000000000000000000000000000000000000000000000000000000000000000612e32565b6001600160a01b037f00000000000000000000000000000000000000000000000000000000000000001660009081526002602052604081208054909190611d729084906131df565b90915550505b6802b5e3af16b1880000611dac857f0000000000000000000000000000000000000000000000000000000000000000612dfc565b10156118d457611dbd60c8856131a6565b611dc790856131c8565b8252611dd460c8856131a6565b6001600160a01b037f000000000000000000000000000000000000000000000000000000000000000016600090815260026020526040812080549091906118ce9084906131df565b7f00000000000000000000000000000000000000000000000000000000000000006001600160a01b0316846001600160a01b031614156120c5576040516323b872dd60e01b81526000906001600160a01b037f000000000000000000000000000000000000000000000000000000000000000016906323b872dd90611ea9903390309089906004016131f7565b602060405180830381600087803b158015611ec357600080fd5b505af1158015611ed7573d6000803e3d6000fd5b505050506040513d601f19601f82011682018060405250810190611efb919061316e565b905080611f1b57604051633bdf630f60e11b815260040160405180910390fd5b6802b5e3af16b1880000611f547f000000000000000000000000000000000000000000000000000000000000000061114b60c8886131a6565b1061201957611f8c6802b5e3af16b18800007f0000000000000000000000000000000000000000000000000000000000000000612e32565b611f9690856131c8565b8252611fcb6802b5e3af16b18800007f0000000000000000000000000000000000000000000000000000000000000000612e32565b6001600160a01b037f000000000000000000000000000000000000000000000000000000000000000016600090815260026020526040812080549091906120139084906131df565b90915550505b6802b5e3af16b188000061204d857f0000000000000000000000000000000000000000000000000000000000000000612dfc565b10156120c35761205e60c8856131a6565b61206890856131c8565b825261207560c8856131a6565b6001600160a01b037f000000000000000000000000000000000000000000000000000000000000000016600090815260026020526040812080549091906120bd9084906131df565b90915550505b505b3360208281018290526001600160a01b038881166040808601829052600094855260038452808520546060870152908452600490925290822054608084015260a08301879052851660c083015260e08201819052503360009081526003602081815260408084208054600180820183559186529483902086516007909602019485559185015191840180546001600160a01b03199081166001600160a01b039485161790915590850151600280860180548416928516929092179091556060860151938501939093556080850151600485015560a0850151600585015560c085015160068501805492831691909316908117835560e08601518695949093926001600160a81b03191690911790600160a01b9084908111156121e9576121e9612f10565b021790555050506001600160a01b0380871660009081526004602081815260408084208054600181810183559186529483902087516007909602019485559186015191840180549286166001600160a01b031993841617905585015160028085018054928716928416929092179091556060860151600385015560808601519284019290925560a0850151600584015560c0850151600684018054919095169181168217855560e08601518695909390926001600160a81b031990921690911790600160a01b9084908111156122c1576122c1612f10565b02179055505050806040516122d691906130ea565b6040519081900381209033907f14f09417cd81e1bfba59388f82b41657119f594c9c473945c0ea1311c648693990600090a350505b50505050565b6001600160a01b0381166000908152600460209081526040808320805482518185028101850190935280835260609492939192909184015b828210156104185760008481526020908190206040805161010081018252600786029092018054835260018101546001600160a01b03908116948401949094526002808201548516928401929092526003810154606084015260048101546080840152600581015460a0840152600681015493841660c0840152919260e0840191600160a01b90910460ff16908111156123e5576123e5612f10565b60028111156123f6576123f6612f10565b8152505081526020019060010190612349565b600060046000612417612d29565b6001600160a01b03166001600160a01b03168152602001908152602001600020805480602002602001604051908101604052809291908181526020016000905b828210156125175760008481526020908190206040805161010081018252600786029092018054835260018101546001600160a01b03908116948401949094526002808201548516928401929092526003810154606084015260048101546080840152600581015460a0840152600681015493841660c0840152919260e0840191600160a01b90910460ff16908111156124f3576124f3612f10565b600281111561250457612504612f10565b8152505081526020019060010190612457565b505050509050805160001415612540576040516318be8db160e11b815260040160405180910390fd5b60005b8151811015612c3f578282828151811061255f5761255f6130d4565b602002602001015160a001511415612c1457600080838381518110612586576125866130d4565b602002602001015160e0015160028111156125a3576125a3612f10565b1415905060006125b1612d29565b6001600160a01b03168484815181106125cc576125cc6130d4565b6020026020010151604001516001600160a01b031614159050600082806125f05750815b905080156126115760405163de175b0760e01b815260040160405180910390fd5b600260036000878781518110612629576126296130d4565b6020026020010151602001516001600160a01b03166001600160a01b03168152602001908152602001600020868681518110612667576126676130d4565b60200260200101516060015181548110612683576126836130d4565b60009182526020909120600660079092020101805460ff60a01b1916600160a01b8360028111156126b6576126b6612f10565b02179055506002600460006126c9612d29565b6001600160a01b03166001600160a01b0316815260200190815260200160002085815481106126fa576126fa6130d4565b60009182526020909120600660079092020101805460ff60a01b1916600160a01b83600281111561272d5761272d612f10565b0217905550848481518110612744576127446130d4565b602002602001015160405161275991906130ea565b6040518091039020612769612d29565b6001600160a01b03167f412146e6c5c0d9fa5d624f14b4c55723679f8838083b2b4eb8875cab8d78bd1c60405160405180910390a360006001600160a01b03168585815181106127bb576127bb6130d4565b602002602001015160c001516001600160a01b031614156128705760006127e0612d29565b6001600160a01b03168686815181106127fb576127fb6130d4565b602090810291909101015151604051600081818185875af1925050503d8060008114612843576040519150601f19603f3d011682016040523d82523d6000602084013e612848565b606091505b505090508061286a57604051633bdf630f60e11b815260040160405180910390fd5b50612c0c565b7f00000000000000000000000000000000000000000000000000000000000000006001600160a01b03168585815181106128ac576128ac6130d4565b602002602001015160c001516001600160a01b031614156129ad5760007f00000000000000000000000000000000000000000000000000000000000000006001600160a01b031663a9059cbb612900612d29565b888881518110612912576129126130d4565b6020026020010151600001516040518363ffffffff1660e01b815260040161293b929190613155565b602060405180830381600087803b15801561295557600080fd5b505af1158015612969573d6000803e3d6000fd5b505050506040513d601f19601f8201168201806040525081019061298d919061316e565b90508061286a57604051633bdf630f60e11b815260040160405180910390fd5b7f00000000000000000000000000000000000000000000000000000000000000006001600160a01b03168585815181106129e9576129e96130d4565b602002602001015160c001516001600160a01b03161415612a3d5760007f00000000000000000000000000000000000000000000000000000000000000006001600160a01b031663a9059cbb612900612d29565b7f00000000000000000000000000000000000000000000000000000000000000006001600160a01b0316858581518110612a7957612a796130d4565b602002602001015160c001516001600160a01b03161415612acd5760007f00000000000000000000000000000000000000000000000000000000000000006001600160a01b031663a9059cbb612900612d29565b7f00000000000000000000000000000000000000000000000000000000000000006001600160a01b0316858581518110612b0957612b096130d4565b602002602001015160c001516001600160a01b03161415612c0c5760007f00000000000000000000000000000000000000000000000000000000000000006001600160a01b031663a9059cbb612b5d612d29565b888881518110612b6f57612b6f6130d4565b6020026020010151600001516040518363ffffffff1660e01b8152600401612b98929190613155565b602060405180830381600087803b158015612bb257600080fd5b505af1158015612bc6573d6000803e3d6000fd5b505050506040513d601f19601f82011682018060405250810190612bea919061316e565b905080612c0a57604051633bdf630f60e11b815260040160405180910390fd5b505b505050612c2d565b604051633f4ba89360e11b815260040160405180910390fd5b80612c378161321b565b915050612543565b505050565b6003602052816000526040600020818154811061102e57600080fd5b612c68612d33565b6001600160a01b038116612cd25760405162461bcd60e51b815260206004820152602660248201527f4f776e61626c653a206e6577206f776e657220697320746865207a65726f206160448201526564647265737360d01b60648201526084015b60405180910390fd5b610f9581612dac565b60007f00000000000000000000000000000000000000000000000000000000000000006001600160a01b0316331415612d1b575060131936013560601c90565b503390565b905090565b3390565b6000612d20612cdb565b612d3b612d29565b6001600160a01b0316612d566000546001600160a01b031690565b6001600160a01b03161461109c5760405162461bcd60e51b815260206004820181905260248201527f4f776e61626c653a2063616c6c6572206973206e6f7420746865206f776e65726044820152606401612cc9565b600080546001600160a01b038381166001600160a01b0319831681178455604051919092169283917f8be0079c531659141344cd1fd0a4f28419497f9722a3daafe3b4186f6b6457e09190a35050565b600080612e0883612e4c565b90506000670de0b6b3a7640000612e1f8387613236565b612e2991906131a6565b95945050505050565b600080612e3e83612e4c565b90506000612e2982866131a6565b600080826001600160a01b031663feaf968c6040518163ffffffff1660e01b815260040160a06040518083038186803b158015612e8857600080fd5b505afa158015612e9c573d6000803e3d6000fd5b505050506040513d601f19601f82011682018060405250810190612ec09190613274565b505050915050806402540be400612ed791906132c4565b9392505050565b6001600160a01b0381168114610f9557600080fd5b600060208284031215612f0557600080fd5b8135612ed781612ede565b634e487b7160e01b600052602160045260246000fd5b60038110612f4457634e487b7160e01b600052602160045260246000fd5b9052565b602080825282518282018190526000919060409081850190868401855b82811015612fe457815180518552868101516001600160a01b039081168887015286820151811687870152606080830151908701526080808301519087015260a0808301519087015260c0808301519091169086015260e09081015190612fce81870183612f26565b5050610100939093019290850190600101612f65565b5091979650505050505050565b60006020828403121561300357600080fd5b5035919050565b6000806040838503121561301d57600080fd5b823561302881612ede565b946020939093013593505050565b8881526001600160a01b0388811660208301528781166040830152606082018790526080820186905260a08201859052831660c0820152610100810161307f60e0830184612f26565b9998505050505050505050565b600080600080608085870312156130a257600080fd5b84356130ad81612ede565b93506020850135925060408501356130c481612ede565b9396929550929360600135925050565b634e487b7160e01b600052603260045260246000fd5b81518152600060018060a01b03806020850151166020840152806040850151166040840152606084015160608401526080840151608084015260a084015160a08401528060c08501511660c08401525061314b60e0830160e0850151612f26565b5061010001919050565b6001600160a01b03929092168252602082015260400190565b60006020828403121561318057600080fd5b81518015158114612ed757600080fd5b634e487b7160e01b600052601160045260246000fd5b6000826131c357634e487b7160e01b600052601260045260246000fd5b500490565b6000828210156131da576131da613190565b500390565b600082198211156131f2576131f2613190565b500190565b6001600160a01b039384168152919092166020820152604081019190915260600190565b600060001982141561322f5761322f613190565b5060010190565b600081600019048311821515161561325057613250613190565b500290565b805169ffffffffffffffffffff8116811461326f57600080fd5b919050565b600080600080600060a0868803121561328c57600080fd5b61329586613255565b94506020860151935060408601519250606086015191506132b860808701613255565b90509295509295909350565b60006001600160ff1b03818413828413808216868404861116156132ea576132ea613190565b600160ff1b600087128281168783058912161561330957613309613190565b6000871292508782058712848416161561332557613325613190565b8785058712818416161561333b5761333b613190565b50505092909302939250505056fea2646970667358221220f6605cca5a0898a8e150da45d59760aba09f857cccc173462142fa015ac11ec464736f6c63430008090033",
  "linkReferences": {},
  "deployedLinkReferences": {}
}