{
  "_format": "hh-sol-artifact-1",
  "contractName": "PayLock",
  "sourceName": "contracts/PayFactory.sol",
  "abi": [
    {
      "inputs": [
        {
          "internalType": "contract MinimalForwarder",
          "name": "forwarder",
          "type": "address"
        },
        {
          "internalType": "address",
          "name": "AggregatorNative",
          "type": "address"
        },
        {
          "internalType": "address",
          "name": "AggregatorUSDC",
          "type": "address"
        },
        {
          "internalType": "address",
          "name": "AggregatorUSDT",
          "type": "address"
        },
        {
          "internalType": "address",
          "name": "AggregatorDAI",
          "type": "address"
        },
        {
          "internalType": "address",
          "name": "AggregatordBTC",
          "type": "address"
        },
        {
          "internalType": "address",
          "name": "USDCAddress",
          "type": "address"
        },
        {
          "internalType": "address",
          "name": "USDTAddress",
          "type": "address"
        },
        {
          "internalType": "address",
          "name": "DAIAddress",
          "type": "address"
        },
        {
          "internalType": "address",
          "name": "WBTCAddress",
          "type": "address"
        }
      ],
      "stateMutability": "nonpayable",
      "type": "constructor"
    },
    {
      "inputs": [],
      "name": "__AmountEmpty",
      "type": "error"
    },
    {
      "inputs": [],
      "name": "__NoReedemablePayments",
      "type": "error"
    },
    {
      "inputs": [],
      "name": "__NotSenderOrNotActive",
      "type": "error"
    },
    {
      "inputs": [],
      "name": "__TransferFailed",
      "type": "error"
    },
    {
      "anonymous": false,
      "inputs": [
        {
          "indexed": true,
          "internalType": "address",
          "name": "previousOwner",
          "type": "address"
        },
        {
          "indexed": true,
          "internalType": "address",
          "name": "newOwner",
          "type": "address"
        }
      ],
      "name": "OwnershipTransferred",
      "type": "event"
    },
    {
      "anonymous": false,
      "inputs": [
        {
          "indexed": true,
          "internalType": "address",
          "name": "sender",
          "type": "address"
        },
        {
          "components": [
            {
              "internalType": "uint256",
              "name": "value",
              "type": "uint256"
            },
            {
              "internalType": "address payable",
              "name": "issuer",
              "type": "address"
            },
            {
              "internalType": "address payable",
              "name": "receiver",
              "type": "address"
            },
            {
              "internalType": "uint256",
              "name": "issuerId",
              "type": "uint256"
            },
            {
              "internalType": "uint256",
              "name": "receiverId",
              "type": "uint256"
            },
            {
              "internalType": "uint256",
              "name": "code",
              "type": "uint256"
            },
            {
              "internalType": "address",
              "name": "tokenAddress",
              "type": "address"
            },
            {
              "internalType": "enum PayLock.PaymentState",
              "name": "state",
              "type": "uint8"
            }
          ],
          "indexed": true,
          "internalType": "struct PayLock.payment",
          "name": "receipt",
          "type": "tuple"
        }
      ],
      "name": "PaymentIssued",
      "type": "event"
    },
    {
      "anonymous": false,
      "inputs": [
        {
          "indexed": true,
          "internalType": "address",
          "name": "receiver",
          "type": "address"
        },
        {
          "components": [
            {
              "internalType": "uint256",
              "name": "value",
              "type": "uint256"
            },
            {
              "internalType": "address payable",
              "name": "issuer",
              "type": "address"
            },
            {
              "internalType": "address payable",
              "name": "receiver",
              "type": "address"
            },
            {
              "internalType": "uint256",
              "name": "issuerId",
              "type": "uint256"
            },
            {
              "internalType": "uint256",
              "name": "receiverId",
              "type": "uint256"
            },
            {
              "internalType": "uint256",
              "name": "code",
              "type": "uint256"
            },
            {
              "internalType": "address",
              "name": "tokenAddress",
              "type": "address"
            },
            {
              "internalType": "enum PayLock.PaymentState",
              "name": "state",
              "type": "uint8"
            }
          ],
          "indexed": true,
          "internalType": "struct PayLock.payment",
          "name": "receipt",
          "type": "tuple"
        }
      ],
      "name": "PaymentReedemed",
      "type": "event"
    },
    {
      "anonymous": false,
      "inputs": [
        {
          "indexed": true,
          "internalType": "address",
          "name": "sender",
          "type": "address"
        },
        {
          "components": [
            {
              "internalType": "uint256",
              "name": "value",
              "type": "uint256"
            },
            {
              "internalType": "address payable",
              "name": "issuer",
              "type": "address"
            },
            {
              "internalType": "address payable",
              "name": "receiver",
              "type": "address"
            },
            {
              "internalType": "uint256",
              "name": "issuerId",
              "type": "uint256"
            },
            {
              "internalType": "uint256",
              "name": "receiverId",
              "type": "uint256"
            },
            {
              "internalType": "uint256",
              "name": "code",
              "type": "uint256"
            },
            {
              "internalType": "address",
              "name": "tokenAddress",
              "type": "address"
            },
            {
              "internalType": "enum PayLock.PaymentState",
              "name": "state",
              "type": "uint8"
            }
          ],
          "indexed": true,
          "internalType": "struct PayLock.payment",
          "name": "receipt",
          "type": "tuple"
        }
      ],
      "name": "PaymentWithdrawn",
      "type": "event"
    },
    {
      "inputs": [
        {
          "internalType": "address payable",
          "name": "_receiver",
          "type": "address"
        },
        {
          "internalType": "uint256",
          "name": "_code",
          "type": "uint256"
        },
        {
          "internalType": "address",
          "name": "_tokenAddress",
          "type": "address"
        },
        {
          "internalType": "uint256",
          "name": "_tokenAmount",
          "type": "uint256"
        }
      ],
      "name": "CreatePayement",
      "outputs": [],
      "stateMutability": "payable",
      "type": "function"
    },
    {
      "inputs": [],
      "name": "MAXIMUM_FEE_USD",
      "outputs": [
        {
          "internalType": "uint256",
          "name": "",
          "type": "uint256"
        }
      ],
      "stateMutability": "view",
      "type": "function"
    },
    {
      "inputs": [
        {
          "internalType": "uint256",
          "name": "_code",
          "type": "uint256"
        },
        {
          "internalType": "uint256",
          "name": "_receiverId",
          "type": "uint256"
        }
      ],
      "name": "RedeemPayment",
      "outputs": [],
      "stateMutability": "payable",
      "type": "function"
    },
    {
      "inputs": [
        {
          "internalType": "address",
          "name": "user",
          "type": "address"
        }
      ],
      "name": "getIssuedPayments",
      "outputs": [
        {
          "components": [
            {
              "internalType": "uint256",
              "name": "value",
              "type": "uint256"
            },
            {
              "internalType": "address payable",
              "name": "issuer",
              "type": "address"
            },
            {
              "internalType": "address payable",
              "name": "receiver",
              "type": "address"
            },
            {
              "internalType": "uint256",
              "name": "issuerId",
              "type": "uint256"
            },
            {
              "internalType": "uint256",
              "name": "receiverId",
              "type": "uint256"
            },
            {
              "internalType": "uint256",
              "name": "code",
              "type": "uint256"
            },
            {
              "internalType": "address",
              "name": "tokenAddress",
              "type": "address"
            },
            {
              "internalType": "enum PayLock.PaymentState",
              "name": "state",
              "type": "uint8"
            }
          ],
          "internalType": "struct PayLock.payment[]",
          "name": "",
          "type": "tuple[]"
        }
      ],
      "stateMutability": "view",
      "type": "function"
    },
    {
      "inputs": [
        {
          "internalType": "address",
          "name": "user",
          "type": "address"
        }
      ],
      "name": "getRedeemablePayments",
      "outputs": [
        {
          "components": [
            {
              "internalType": "uint256",
              "name": "value",
              "type": "uint256"
            },
            {
              "internalType": "address payable",
              "name": "issuer",
              "type": "address"
            },
            {
              "internalType": "address payable",
              "name": "receiver",
              "type": "address"
            },
            {
              "internalType": "uint256",
              "name": "issuerId",
              "type": "uint256"
            },
            {
              "internalType": "uint256",
              "name": "receiverId",
              "type": "uint256"
            },
            {
              "internalType": "uint256",
              "name": "code",
              "type": "uint256"
            },
            {
              "internalType": "address",
              "name": "tokenAddress",
              "type": "address"
            },
            {
              "internalType": "enum PayLock.PaymentState",
              "name": "state",
              "type": "uint8"
            }
          ],
          "internalType": "struct PayLock.payment[]",
          "name": "",
          "type": "tuple[]"
        }
      ],
      "stateMutability": "view",
      "type": "function"
    },
    {
      "inputs": [
        {
          "internalType": "address",
          "name": "forwarder",
          "type": "address"
        }
      ],
      "name": "isTrustedForwarder",
      "outputs": [
        {
          "internalType": "bool",
          "name": "",
          "type": "bool"
        }
      ],
      "stateMutability": "view",
      "type": "function"
    },
    {
      "inputs": [],
      "name": "owner",
      "outputs": [
        {
          "internalType": "address",
          "name": "",
          "type": "address"
        }
      ],
      "stateMutability": "view",
      "type": "function"
    },
    {
      "inputs": [],
      "name": "renounceOwnership",
      "outputs": [],
      "stateMutability": "nonpayable",
      "type": "function"
    },
    {
      "inputs": [],
      "name": "s_PaySafe",
      "outputs": [
        {
          "internalType": "uint256",
          "name": "",
          "type": "uint256"
        }
      ],
      "stateMutability": "view",
      "type": "function"
    },
    {
      "inputs": [
        {
          "internalType": "address",
          "name": "",
          "type": "address"
        }
      ],
      "name": "s_PaySafeTokenBalances",
      "outputs": [
        {
          "internalType": "uint256",
          "name": "",
          "type": "uint256"
        }
      ],
      "stateMutability": "view",
      "type": "function"
    },
    {
      "inputs": [
        {
          "internalType": "address",
          "name": "",
          "type": "address"
        },
        {
          "internalType": "uint256",
          "name": "",
          "type": "uint256"
        }
      ],
      "name": "s_issuedPayments",
      "outputs": [
        {
          "internalType": "uint256",
          "name": "value",
          "type": "uint256"
        },
        {
          "internalType": "address payable",
          "name": "issuer",
          "type": "address"
        },
        {
          "internalType": "address payable",
          "name": "receiver",
          "type": "address"
        },
        {
          "internalType": "uint256",
          "name": "issuerId",
          "type": "uint256"
        },
        {
          "internalType": "uint256",
          "name": "receiverId",
          "type": "uint256"
        },
        {
          "internalType": "uint256",
          "name": "code",
          "type": "uint256"
        },
        {
          "internalType": "address",
          "name": "tokenAddress",
          "type": "address"
        },
        {
          "internalType": "enum PayLock.PaymentState",
          "name": "state",
          "type": "uint8"
        }
      ],
      "stateMutability": "view",
      "type": "function"
    },
    {
      "inputs": [
        {
          "internalType": "address",
          "name": "",
          "type": "address"
        },
        {
          "internalType": "uint256",
          "name": "",
          "type": "uint256"
        }
      ],
      "name": "s_redeemablePayments",
      "outputs": [
        {
          "internalType": "uint256",
          "name": "value",
          "type": "uint256"
        },
        {
          "internalType": "address payable",
          "name": "issuer",
          "type": "address"
        },
        {
          "internalType": "address payable",
          "name": "receiver",
          "type": "address"
        },
        {
          "internalType": "uint256",
          "name": "issuerId",
          "type": "uint256"
        },
        {
          "internalType": "uint256",
          "name": "receiverId",
          "type": "uint256"
        },
        {
          "internalType": "uint256",
          "name": "code",
          "type": "uint256"
        },
        {
          "internalType": "address",
          "name": "tokenAddress",
          "type": "address"
        },
        {
          "internalType": "enum PayLock.PaymentState",
          "name": "state",
          "type": "uint8"
        }
      ],
      "stateMutability": "view",
      "type": "function"
    },
    {
      "inputs": [
        {
          "internalType": "address",
          "name": "newOwner",
          "type": "address"
        }
      ],
      "name": "transferOwnership",
      "outputs": [],
      "stateMutability": "nonpayable",
      "type": "function"
    },
    {
      "inputs": [
        {
          "internalType": "uint256",
          "name": "_code",
          "type": "uint256"
        },
        {
          "internalType": "uint256",
          "name": "_receiverId",
          "type": "uint256"
        }
      ],
      "name": "withdrawIssuerPayment",
      "outputs": [],
      "stateMutability": "payable",
      "type": "function"
    },
    {
      "inputs": [
        {
          "internalType": "address",
          "name": "_tokenAddress",
          "type": "address"
        }
      ],
      "name": "withdrawPaySafeBalance",
      "outputs": [],
      "stateMutability": "payable",
      "type": "function"
    },
    {
      "inputs": [],
      "name": "withdrawPaySafeBalance",
      "outputs": [],
      "stateMutability": "payable",
      "type": "function"
    }
  ],
  "bytecode": "0x6101e06040523480156200001257600080fd5b50604051620037a0380380620037a0833981016040819052620000359162000163565b6001600160a01b038a166080526200005662000050620000a1565b620000bd565b6001600160a01b03998a1660a05297891660c05295881660e052938716610100529186166101205285166101405284166101605283166101805282166101a052166101c05262000251565b6000620000b86200010d60201b62002cd21760201c565b905090565b600080546001600160a01b038381166001600160a01b0319831681178455604051919092169283917f8be0079c531659141344cd1fd0a4f28419497f9722a3daafe3b4186f6b6457e09190a35050565b6080516000906001600160a01b031633141562000131575060131936013560601c90565b620000b86200014660201b62002d1c1760201c565b3390565b6001600160a01b03811681146200016057600080fd5b50565b6000806000806000806000806000806101408b8d0312156200018457600080fd5b8a5162000191816200014a565b60208c0151909a50620001a4816200014a565b60408c0151909950620001b7816200014a565b60608c0151909850620001ca816200014a565b60808c0151909750620001dd816200014a565b60a08c0151909650620001f0816200014a565b60c08c015190955062000203816200014a565b60e08c015190945062000216816200014a565b6101008c01519093506200022a816200014a565b6101208c01519092506200023e816200014a565b809150509295989b9194979a5092959850565b60805160a05160c05160e05161010051610120516101405161016051610180516101a0516101c0516133666200043a60003960008181610a1d01528181610a7601528181611385015281816113de015281816118cc01528181611906015281816119e101528181612686015281816126d80152818161283d01526128b201526000818161098d015281816109e6015281816112f50152818161134e01528181611783015281816117bd015281816118980152818161242501528181612477015281816125dc01526126460152600081816108fd0152818161095601528181611265015281816112be0152818161163a015281816116740152818161174f015281816121c4015281816122160152818161237b01526123e50152600081816107b10152818161080a0152818161111901528181611172015281816114f10152818161152b0152818161160601528181611f4c01528181611f9e015281816121030152612178015260008181612792015281816127d0015261280f0152600081816125310152818161256f01526125ae0152600081816122d00152818161230e015261234d0152600081816120580152818161209601526120d5015260008181611b9d01528181611be20152611c21015260005050600081816101c20152612cd601526133666000f3fe6080604052600436106100f35760003560e01c8063774dee891161008a578063ec09fd0511610059578063ec09fd051461029d578063ee23b65a146102ca578063f1fdbc42146102ea578063f2fde38b1461030057600080fd5b8063774dee89146102175780638da5cb5b1461024257806398df6d4b1461026a578063c3c0045f1461027d57600080fd5b806348502eaa116100c657806348502eaa146101695780635463612e14610171578063572b6c05146101a5578063715018a61461020257600080fd5b806315290c1c146100f8578063153b11431461010d578063235caa1a1461014357806342cdef4114610156575b600080fd5b61010b610106366004612ed5565b610320565b005b34801561011957600080fd5b5061012d610128366004612f0c565b610b85565b60405161013a9190612f61565b60405180910390f35b61010b610151366004612ed5565b610c88565b61010b610164366004612f0c565b6114e7565b61010b611a14565b34801561017d57600080fd5b5061019161018c36600461300a565b611a8e565b60405161013a989796959493929190613036565b3480156101b157600080fd5b506101f26101c0366004612f0c565b7f00000000000000000000000000000000000000000000000000000000000000006001600160a01b0390811691161490565b604051901515815260200161013a565b34801561020e57600080fd5b5061010b611b06565b34801561022357600080fd5b506102346802b5e3af16b188000081565b60405190815260200161013a565b34801561024e57600080fd5b506000546040516001600160a01b03909116815260200161013a565b61010b61027836600461308c565b611b1a565b34801561028957600080fd5b5061012d610298366004612f0c565b612b43565b3480156102a957600080fd5b506102346102b8366004612f0c565b60026020526000908152604090205481565b3480156102d657600080fd5b506101916102e536600461300a565b612c3b565b3480156102f657600080fd5b5061023460015481565b34801561030c57600080fd5b5061010b61031b366004612f0c565b612c57565b60006004600061032e612d20565b6001600160a01b03166001600160a01b03168152602001908152602001600020805480602002602001604051908101604052809291908181526020016000905b8282101561042e5760008481526020908190206040805161010081018252600786029092018054835260018101546001600160a01b03908116948401949094526002808201548516928401929092526003810154606084015260048101546080840152600581015460a0840152600681015493841660c0840152919260e0840191600160a01b90910460ff169081111561040a5761040a612f29565b600281111561041b5761041b612f29565b815250508152602001906001019061036e565b505050509050805160001415610457576040516318be8db160e11b815260040160405180910390fd5b60005b8151811015610b7f5783828281518110610476576104766130d4565b602002602001015160a001511480156104ab57508282828151811061049d5761049d6130d4565b602002602001015160800151145b15610b6d576000808383815181106104c5576104c56130d4565b602002602001015160e0015160028111156104e2576104e2612f29565b1415905060006104f0612d20565b6001600160a01b031684848151811061050b5761050b6130d4565b6020026020010151604001516001600160a01b0316141590506000828061052f5750815b905080156105505760405163de175b0760e01b815260040160405180910390fd5b600260036000878781518110610568576105686130d4565b6020026020010151602001516001600160a01b03166001600160a01b031681526020019081526020016000208686815181106105a6576105a66130d4565b602002602001015160600151815481106105c2576105c26130d4565b60009182526020909120600660079092020101805460ff60a01b1916600160a01b8360028111156105f5576105f5612f29565b0217905550600260046000610608612d20565b6001600160a01b03166001600160a01b031681526020019081526020016000208581548110610639576106396130d4565b60009182526020909120600660079092020101805460ff60a01b1916600160a01b83600281111561066c5761066c612f29565b0217905550848481518110610683576106836130d4565b602002602001015160405161069891906130ea565b60405180910390206106a8612d20565b6001600160a01b03167f412146e6c5c0d9fa5d624f14b4c55723679f8838083b2b4eb8875cab8d78bd1c60405160405180910390a360006001600160a01b03168585815181106106fa576106fa6130d4565b602002602001015160c001516001600160a01b031614156107af57600061071f612d20565b6001600160a01b031686868151811061073a5761073a6130d4565b602090810291909101015151604051600081818185875af1925050503d8060008114610782576040519150601f19603f3d011682016040523d82523d6000602084013e610787565b606091505b50509050806107a957604051633bdf630f60e11b815260040160405180910390fd5b50610b69565b7f00000000000000000000000000000000000000000000000000000000000000006001600160a01b03168585815181106107eb576107eb6130d4565b602002602001015160c001516001600160a01b031614156108fb5760007f00000000000000000000000000000000000000000000000000000000000000006001600160a01b031663a9059cbb61083f612d20565b888881518110610851576108516130d4565b6020908102919091010151516040516001600160e01b031960e085901b1681526001600160a01b0390921660048301526024820152604401602060405180830381600087803b1580156108a357600080fd5b505af11580156108b7573d6000803e3d6000fd5b505050506040513d601f19601f820116820180604052508101906108db9190613155565b9050806107a957604051633bdf630f60e11b815260040160405180910390fd5b7f00000000000000000000000000000000000000000000000000000000000000006001600160a01b0316858581518110610937576109376130d4565b602002602001015160c001516001600160a01b0316141561098b5760007f00000000000000000000000000000000000000000000000000000000000000006001600160a01b031663a9059cbb61083f612d20565b7f00000000000000000000000000000000000000000000000000000000000000006001600160a01b03168585815181106109c7576109c76130d4565b602002602001015160c001516001600160a01b03161415610a1b5760007f00000000000000000000000000000000000000000000000000000000000000006001600160a01b031663a9059cbb61083f612d20565b7f00000000000000000000000000000000000000000000000000000000000000006001600160a01b0316858581518110610a5757610a576130d4565b602002602001015160c001516001600160a01b03161415610b695760007f00000000000000000000000000000000000000000000000000000000000000006001600160a01b031663a9059cbb610aab612d20565b888881518110610abd57610abd6130d4565b6020908102919091010151516040516001600160e01b031960e085901b1681526001600160a01b0390921660048301526024820152604401602060405180830381600087803b158015610b0f57600080fd5b505af1158015610b23573d6000803e3d6000fd5b505050506040513d601f19601f82011682018060405250810190610b479190613155565b905080610b6757604051633bdf630f60e11b815260040160405180910390fd5b505b5050505b80610b778161318d565b91505061045a565b50505050565b6001600160a01b0381166000908152600360209081526040808320805482518185028101850190935280835260609492939192909184015b82821015610c7d5760008481526020908190206040805161010081018252600786029092018054835260018101546001600160a01b03908116948401949094526002808201548516928401929092526003810154606084015260048101546080840152600581015460a0840152600681015493841660c0840152919260e0840191600160a01b90910460ff1690811115610c5957610c59612f29565b6002811115610c6a57610c6a612f29565b8152505081526020019060010190610bbd565b505050509050919050565b600060036000610c96612d20565b6001600160a01b03166001600160a01b03168152602001908152602001600020805480602002602001604051908101604052809291908181526020016000905b82821015610d965760008481526020908190206040805161010081018252600786029092018054835260018101546001600160a01b03908116948401949094526002808201548516928401929092526003810154606084015260048101546080840152600581015460a0840152600681015493841660c0840152919260e0840191600160a01b90910460ff1690811115610d7257610d72612f29565b6002811115610d8357610d83612f29565b8152505081526020019060010190610cd6565b505050509050805160001415610dbf576040516318be8db160e11b815260040160405180910390fd5b60005b8151811015610b7f5783828281518110610dde57610dde6130d4565b602002602001015160a00151148015610e13575082828281518110610e0557610e056130d4565b602002602001015160800151145b156114d557600080838381518110610e2d57610e2d6130d4565b602002602001015160e001516002811115610e4a57610e4a612f29565b141590506000610e58612d20565b6001600160a01b0316848481518110610e7357610e736130d4565b6020026020010151602001516001600160a01b03161415905060008280610e975750815b90508015610eb85760405163de175b0760e01b815260040160405180910390fd5b600160046000878781518110610ed057610ed06130d4565b6020026020010151604001516001600160a01b03166001600160a01b03168152602001908152602001600020868681518110610f0e57610f0e6130d4565b60200260200101516080015181548110610f2a57610f2a6130d4565b60009182526020909120600660079092020101805460ff60a01b1916600160a01b836002811115610f5d57610f5d612f29565b0217905550600160036000610f70612d20565b6001600160a01b03166001600160a01b031681526020019081526020016000208581548110610fa157610fa16130d4565b60009182526020909120600660079092020101805460ff60a01b1916600160a01b836002811115610fd457610fd4612f29565b0217905550848481518110610feb57610feb6130d4565b602002602001015160405161100091906130ea565b6040518091039020611010612d20565b6001600160a01b03167f6abd023739f4ff71d95fb906429d7d4beea7738cb65d5b6730bc335fa2ac456460405160405180910390a360006001600160a01b0316858581518110611062576110626130d4565b602002602001015160c001516001600160a01b03161415611117576000611087612d20565b6001600160a01b03168686815181106110a2576110a26130d4565b602090810291909101015151604051600081818185875af1925050503d80600081146110ea576040519150601f19603f3d011682016040523d82523d6000602084013e6110ef565b606091505b505090508061111157604051633bdf630f60e11b815260040160405180910390fd5b506114d1565b7f00000000000000000000000000000000000000000000000000000000000000006001600160a01b0316858581518110611153576111536130d4565b602002602001015160c001516001600160a01b031614156112635760007f00000000000000000000000000000000000000000000000000000000000000006001600160a01b031663a9059cbb6111a7612d20565b8888815181106111b9576111b96130d4565b6020908102919091010151516040516001600160e01b031960e085901b1681526001600160a01b0390921660048301526024820152604401602060405180830381600087803b15801561120b57600080fd5b505af115801561121f573d6000803e3d6000fd5b505050506040513d601f19601f820116820180604052508101906112439190613155565b90508061111157604051633bdf630f60e11b815260040160405180910390fd5b7f00000000000000000000000000000000000000000000000000000000000000006001600160a01b031685858151811061129f5761129f6130d4565b602002602001015160c001516001600160a01b031614156112f35760007f00000000000000000000000000000000000000000000000000000000000000006001600160a01b031663a9059cbb6111a7612d20565b7f00000000000000000000000000000000000000000000000000000000000000006001600160a01b031685858151811061132f5761132f6130d4565b602002602001015160c001516001600160a01b031614156113835760007f00000000000000000000000000000000000000000000000000000000000000006001600160a01b031663a9059cbb6111a7612d20565b7f00000000000000000000000000000000000000000000000000000000000000006001600160a01b03168585815181106113bf576113bf6130d4565b602002602001015160c001516001600160a01b031614156114d15760007f00000000000000000000000000000000000000000000000000000000000000006001600160a01b031663a9059cbb611413612d20565b888881518110611425576114256130d4565b6020908102919091010151516040516001600160e01b031960e085901b1681526001600160a01b0390921660048301526024820152604401602060405180830381600087803b15801561147757600080fd5b505af115801561148b573d6000803e3d6000fd5b505050506040513d601f19601f820116820180604052508101906114af9190613155565b9050806114cf57604051633bdf630f60e11b815260040160405180910390fd5b505b5050505b806114df8161318d565b915050610dc2565b6114ef612d2a565b7f00000000000000000000000000000000000000000000000000000000000000006001600160a01b0316816001600160a01b03161415611638577f00000000000000000000000000000000000000000000000000000000000000006001600160a01b031660008181526002602052604080822054905163a9059cbb60e01b8152336004820152602481019190915290919063a9059cbb90604401602060405180830381600087803b1580156115a357600080fd5b505af11580156115b7573d6000803e3d6000fd5b505050506040513d601f19601f820116820180604052508101906115db9190613155565b9050806115fb57604051633bdf630f60e11b815260040160405180910390fd5b506001600160a01b037f00000000000000000000000000000000000000000000000000000000000000001660009081526002602052604081205550565b7f00000000000000000000000000000000000000000000000000000000000000006001600160a01b0316816001600160a01b03161415611781577f00000000000000000000000000000000000000000000000000000000000000006001600160a01b031660008181526002602052604080822054905163a9059cbb60e01b8152336004820152602481019190915290919063a9059cbb90604401602060405180830381600087803b1580156116ec57600080fd5b505af1158015611700573d6000803e3d6000fd5b505050506040513d601f19601f820116820180604052508101906117249190613155565b90508061174457604051633bdf630f60e11b815260040160405180910390fd5b506001600160a01b037f00000000000000000000000000000000000000000000000000000000000000001660009081526002602052604081205550565b7f00000000000000000000000000000000000000000000000000000000000000006001600160a01b0316816001600160a01b031614156118ca577f00000000000000000000000000000000000000000000000000000000000000006001600160a01b031660008181526002602052604080822054905163a9059cbb60e01b8152336004820152602481019190915290919063a9059cbb90604401602060405180830381600087803b15801561183557600080fd5b505af1158015611849573d6000803e3d6000fd5b505050506040513d601f19601f8201168201806040525081019061186d9190613155565b90508061188d57604051633bdf630f60e11b815260040160405180910390fd5b506001600160a01b037f00000000000000000000000000000000000000000000000000000000000000001660009081526002602052604081205550565b7f00000000000000000000000000000000000000000000000000000000000000006001600160a01b0316816001600160a01b03161415611a11577f00000000000000000000000000000000000000000000000000000000000000006001600160a01b031660008181526002602052604080822054905163a9059cbb60e01b8152336004820152602481019190915290919063a9059cbb90604401602060405180830381600087803b15801561197e57600080fd5b505af1158015611992573d6000803e3d6000fd5b505050506040513d601f19601f820116820180604052508101906119b69190613155565b9050806119d657604051633bdf630f60e11b815260040160405180910390fd5b506001600160a01b037f0000000000000000000000000000000000000000000000000000000000000000166000908152600260205260408120555b50565b611a1c612d2a565b60015460405160009133918381818185875af1925050503d8060008114611a5f576040519150601f19603f3d011682016040523d82523d6000602084013e611a64565b606091505b5050905080611a8657604051633bdf630f60e11b815260040160405180910390fd5b506000600155565b60046020528160005260406000208181548110611aaa57600080fd5b600091825260209091206007909102018054600182015460028301546003840154600485015460058601546006909601549497506001600160a01b0393841696509183169490939192909190811690600160a01b900460ff1688565b611b0e612d2a565b611b186000612da3565b565b6001600160a01b038216611ee45734158015611b495760405163183bb67760e21b815260040160405180910390fd5b611b8e6040805161010081018252600080825260208201819052918101829052606081018290526080810182905260a0810182905260c081018290529060e082015290565b6802b5e3af16b1880000611bcd7f0000000000000000000000000000000000000000000000000000000000000000611bc760c8346131a8565b90612df3565b1115611c6157611c066802b5e3af16b18800007f0000000000000000000000000000000000000000000000000000000000000000612e29565b611c1090346131ca565b8152611c456802b5e3af16b18800007f0000000000000000000000000000000000000000000000000000000000000000612e29565b60016000828254611c5691906131e1565b90915550611c9a9050565b611c6c60c8346131a8565b611c7690346131ca565b8152611c8360c8346131a8565b60016000828254611c9491906131e1565b90915550505b3360208281018290526001600160a01b038881166040808601829052600094855260038452808520546060870152908452600490925290822054608084015260a08301879052851660c083015260e08201819052503360009081526003602081815260408084208054600180820183559186529483902086516007909602019485559185015191840180546001600160a01b03199081166001600160a01b039485161790915590850151600280860180548416928516929092179091556060860151938501939093556080850151600485015560a0850151600585015560c085015160068501805492831691909316908117835560e08601518695949093926001600160a81b03191690911790600160a01b908490811115611dbe57611dbe612f29565b021790555050506001600160a01b0380871660009081526004602081815260408084208054600181810183559186529483902087516007909602019485559186015191840180549286166001600160a01b031993841617905585015160028085018054928716928416929092179091556060860151600385015560808601519284019290925560a0850151600584015560c0850151600684018054919095169181168217855560e08601518695909390926001600160a81b031990921690911790600160a01b908490811115611e9657611e96612f29565b0217905550505080604051611eab91906130ea565b6040519081900381209033907f14f09417cd81e1bfba59388f82b41657119f594c9c473945c0ea1311c648693990600090a35050610b7f565b80158015611f055760405163183bb67760e21b815260040160405180910390fd5b611f4a6040805161010081018252600080825260208201819052918101829052606081018290526080810182905260a0810182905260c081018290529060e082015290565b7f00000000000000000000000000000000000000000000000000000000000000006001600160a01b0316846001600160a01b031614156121c2576040516323b872dd60e01b81526000906001600160a01b037f000000000000000000000000000000000000000000000000000000000000000016906323b872dd90611fd7903390309089906004016131f9565b602060405180830381600087803b158015611ff157600080fd5b505af1158015612005573d6000803e3d6000fd5b505050506040513d601f19601f820116820180604052508101906120299190613155565b90508061204957604051633bdf630f60e11b815260040160405180910390fd5b6802b5e3af16b18800006120827f0000000000000000000000000000000000000000000000000000000000000000611bc760c8886131a8565b1061214c576120ba6802b5e3af16b18800007f0000000000000000000000000000000000000000000000000000000000000000612e29565b6120c490856131ca565b82526120f96802b5e3af16b18800007f0000000000000000000000000000000000000000000000000000000000000000612e29565b6001600160a01b037f000000000000000000000000000000000000000000000000000000000000000016600090815260026020526040812080549091906121419084906131e1565b909155506121bc9050565b61215760c8856131a8565b61216190856131ca565b825261216e60c8856131a8565b6001600160a01b037f000000000000000000000000000000000000000000000000000000000000000016600090815260026020526040812080549091906121b69084906131e1565b90915550505b506128f8565b7f00000000000000000000000000000000000000000000000000000000000000006001600160a01b0316846001600160a01b03161415612423576040516323b872dd60e01b81526000906001600160a01b037f000000000000000000000000000000000000000000000000000000000000000016906323b872dd9061224f903390309089906004016131f9565b602060405180830381600087803b15801561226957600080fd5b505af115801561227d573d6000803e3d6000fd5b505050506040513d601f19601f820116820180604052508101906122a19190613155565b9050806122c157604051633bdf630f60e11b815260040160405180910390fd5b6802b5e3af16b18800006122fa7f0000000000000000000000000000000000000000000000000000000000000000611bc760c8886131a8565b106123b9576123326802b5e3af16b18800007f0000000000000000000000000000000000000000000000000000000000000000612e29565b61233c90856131ca565b82526123716802b5e3af16b18800007f0000000000000000000000000000000000000000000000000000000000000000612e29565b6001600160a01b037f000000000000000000000000000000000000000000000000000000000000000016600090815260026020526040812080549091906121419084906131e1565b6123c460c8856131a8565b6123ce90856131ca565b82526123db60c8856131a8565b6001600160a01b037f000000000000000000000000000000000000000000000000000000000000000016600090815260026020526040812080549091906121b69084906131e1565b7f00000000000000000000000000000000000000000000000000000000000000006001600160a01b0316846001600160a01b03161415612684576040516323b872dd60e01b81526000906001600160a01b037f000000000000000000000000000000000000000000000000000000000000000016906323b872dd906124b0903390309089906004016131f9565b602060405180830381600087803b1580156124ca57600080fd5b505af11580156124de573d6000803e3d6000fd5b505050506040513d601f19601f820116820180604052508101906125029190613155565b90508061252257604051633bdf630f60e11b815260040160405180910390fd5b6802b5e3af16b188000061255b7f0000000000000000000000000000000000000000000000000000000000000000611bc760c8886131a8565b1061261a576125936802b5e3af16b18800007f0000000000000000000000000000000000000000000000000000000000000000612e29565b61259d90856131ca565b82526125d26802b5e3af16b18800007f0000000000000000000000000000000000000000000000000000000000000000612e29565b6001600160a01b037f000000000000000000000000000000000000000000000000000000000000000016600090815260026020526040812080549091906121419084906131e1565b61262560c8856131a8565b61262f90856131ca565b825261263c60c8856131a8565b6001600160a01b037f000000000000000000000000000000000000000000000000000000000000000016600090815260026020526040812080549091906121b69084906131e1565b7f00000000000000000000000000000000000000000000000000000000000000006001600160a01b0316846001600160a01b031614156128f8576040516323b872dd60e01b81526000906001600160a01b037f000000000000000000000000000000000000000000000000000000000000000016906323b872dd90612711903390309089906004016131f9565b602060405180830381600087803b15801561272b57600080fd5b505af115801561273f573d6000803e3d6000fd5b505050506040513d601f19601f820116820180604052508101906127639190613155565b90508061278357604051633bdf630f60e11b815260040160405180910390fd5b6802b5e3af16b18800006127bc7f0000000000000000000000000000000000000000000000000000000000000000611bc760c8886131a8565b10612886576127f46802b5e3af16b18800007f0000000000000000000000000000000000000000000000000000000000000000612e29565b6127fe90856131ca565b82526128336802b5e3af16b18800007f0000000000000000000000000000000000000000000000000000000000000000612e29565b6001600160a01b037f0000000000000000000000000000000000000000000000000000000000000000166000908152600260205260408120805490919061287b9084906131e1565b909155506128f69050565b61289160c8856131a8565b61289b90856131ca565b82526128a860c8856131a8565b6001600160a01b037f000000000000000000000000000000000000000000000000000000000000000016600090815260026020526040812080549091906128f09084906131e1565b90915550505b505b3360208281018290526001600160a01b038881166040808601829052600094855260038452808520546060870152908452600490925290822054608084015260a08301879052851660c083015260e08201819052503360009081526003602081815260408084208054600180820183559186529483902086516007909602019485559185015191840180546001600160a01b03199081166001600160a01b039485161790915590850151600280860180548416928516929092179091556060860151938501939093556080850151600485015560a0850151600585015560c085015160068501805492831691909316908117835560e08601518695949093926001600160a81b03191690911790600160a01b908490811115612a1c57612a1c612f29565b021790555050506001600160a01b0380871660009081526004602081815260408084208054600181810183559186529483902087516007909602019485559186015191840180549286166001600160a01b031993841617905585015160028085018054928716928416929092179091556060860151600385015560808601519284019290925560a0850151600584015560c0850151600684018054919095169181168217855560e08601518695909390926001600160a81b031990921690911790600160a01b908490811115612af457612af4612f29565b0217905550505080604051612b0991906130ea565b6040519081900381209033907f14f09417cd81e1bfba59388f82b41657119f594c9c473945c0ea1311c648693990600090a3505050505050565b6001600160a01b0381166000908152600460209081526040808320805482518185028101850190935280835260609492939192909184015b82821015610c7d5760008481526020908190206040805161010081018252600786029092018054835260018101546001600160a01b03908116948401949094526002808201548516928401929092526003810154606084015260048101546080840152600581015460a0840152600681015493841660c0840152919260e0840191600160a01b90910460ff1690811115612c1757612c17612f29565b6002811115612c2857612c28612f29565b8152505081526020019060010190612b7b565b60036020528160005260406000208181548110611aaa57600080fd5b612c5f612d2a565b6001600160a01b038116612cc95760405162461bcd60e51b815260206004820152602660248201527f4f776e61626c653a206e6577206f776e657220697320746865207a65726f206160448201526564647265737360d01b60648201526084015b60405180910390fd5b611a1181612da3565b60007f00000000000000000000000000000000000000000000000000000000000000006001600160a01b0316331415612d12575060131936013560601c90565b503390565b905090565b3390565b6000612d17612cd2565b612d32612d20565b6001600160a01b0316612d4d6000546001600160a01b031690565b6001600160a01b031614611b185760405162461bcd60e51b815260206004820181905260248201527f4f776e61626c653a2063616c6c6572206973206e6f7420746865206f776e65726044820152606401612cc0565b600080546001600160a01b038381166001600160a01b0319831681178455604051919092169283917f8be0079c531659141344cd1fd0a4f28419497f9722a3daafe3b4186f6b6457e09190a35050565b600080612dff83612e43565b90506000670de0b6b3a7640000612e16838761321d565b612e2091906131a8565b95945050505050565b600080612e3583612e43565b90506000612e2082866131a8565b600080826001600160a01b031663feaf968c6040518163ffffffff1660e01b815260040160a06040518083038186803b158015612e7f57600080fd5b505afa158015612e93573d6000803e3d6000fd5b505050506040513d601f19601f82011682018060405250810190612eb7919061325b565b505050915050806402540be400612ece91906132ab565b9392505050565b60008060408385031215612ee857600080fd5b50508035926020909101359150565b6001600160a01b0381168114611a1157600080fd5b600060208284031215612f1e57600080fd5b8135612ece81612ef7565b634e487b7160e01b600052602160045260246000fd5b60038110612f5d57634e487b7160e01b600052602160045260246000fd5b9052565b602080825282518282018190526000919060409081850190868401855b82811015612ffd57815180518552868101516001600160a01b039081168887015286820151811687870152606080830151908701526080808301519087015260a0808301519087015260c0808301519091169086015260e09081015190612fe781870183612f3f565b5050610100939093019290850190600101612f7e565b5091979650505050505050565b6000806040838503121561301d57600080fd5b823561302881612ef7565b946020939093013593505050565b8881526001600160a01b0388811660208301528781166040830152606082018790526080820186905260a08201859052831660c0820152610100810161307f60e0830184612f3f565b9998505050505050505050565b600080600080608085870312156130a257600080fd5b84356130ad81612ef7565b93506020850135925060408501356130c481612ef7565b9396929550929360600135925050565b634e487b7160e01b600052603260045260246000fd5b81518152600060018060a01b03806020850151166020840152806040850151166040840152606084015160608401526080840151608084015260a084015160a08401528060c08501511660c08401525061314b60e0830160e0850151612f3f565b5061010001919050565b60006020828403121561316757600080fd5b81518015158114612ece57600080fd5b634e487b7160e01b600052601160045260246000fd5b60006000198214156131a1576131a1613177565b5060010190565b6000826131c557634e487b7160e01b600052601260045260246000fd5b500490565b6000828210156131dc576131dc613177565b500390565b600082198211156131f4576131f4613177565b500190565b6001600160a01b039384168152919092166020820152604081019190915260600190565b600081600019048311821515161561323757613237613177565b500290565b805169ffffffffffffffffffff8116811461325657600080fd5b919050565b600080600080600060a0868803121561327357600080fd5b61327c8661323c565b945060208601519350604086015192506060860151915061329f6080870161323c565b90509295509295909350565b60006001600160ff1b03818413828413808216868404861116156132d1576132d1613177565b600160ff1b60008712828116878305891216156132f0576132f0613177565b6000871292508782058712848416161561330c5761330c613177565b8785058712818416161561332257613322613177565b50505092909302939250505056fea2646970667358221220a65b1d1462a9bf5966d093185ad6ab0a9f60c15a249eeb35d04db23c246151f764736f6c63430008090033",
  "linkReferences": {},
  "deployedLinkReferences": {}
}