{
  "_format": "hh-sol-artifact-1",
  "contractName": "PayLock",
  "sourceName": "contracts/PayFactory.sol",
  "abi": [
    {
      "inputs": [
        {
          "internalType": "contract MinimalForwarder",
          "name": "forwarder",
          "type": "address"
        }
      ],
      "stateMutability": "nonpayable",
      "type": "constructor"
    },
    {
      "inputs": [],
      "name": "Ammount__Empty",
      "type": "error"
    },
    {
      "inputs": [],
      "name": "__InvalidCode",
      "type": "error"
    },
    {
      "inputs": [],
      "name": "__NoReedemablePayments",
      "type": "error"
    },
    {
      "inputs": [],
      "name": "__NotSenderOrNotActive",
      "type": "error"
    },
    {
      "inputs": [],
      "name": "__TransferFailed",
      "type": "error"
    },
    {
      "anonymous": false,
      "inputs": [
        {
          "indexed": true,
          "internalType": "address",
          "name": "owner",
          "type": "address"
        },
        {
          "indexed": true,
          "internalType": "address",
          "name": "approved",
          "type": "address"
        },
        {
          "indexed": true,
          "internalType": "uint256",
          "name": "tokenId",
          "type": "uint256"
        }
      ],
      "name": "Approval",
      "type": "event"
    },
    {
      "anonymous": false,
      "inputs": [
        {
          "indexed": true,
          "internalType": "address",
          "name": "owner",
          "type": "address"
        },
        {
          "indexed": true,
          "internalType": "address",
          "name": "operator",
          "type": "address"
        },
        {
          "indexed": false,
          "internalType": "bool",
          "name": "approved",
          "type": "bool"
        }
      ],
      "name": "ApprovalForAll",
      "type": "event"
    },
    {
      "anonymous": false,
      "inputs": [
        {
          "indexed": true,
          "internalType": "address",
          "name": "previousOwner",
          "type": "address"
        },
        {
          "indexed": true,
          "internalType": "address",
          "name": "newOwner",
          "type": "address"
        }
      ],
      "name": "OwnershipTransferred",
      "type": "event"
    },
    {
      "anonymous": false,
      "inputs": [
        {
          "indexed": true,
          "internalType": "address",
          "name": "sender",
          "type": "address"
        },
        {
          "components": [
            {
              "internalType": "uint256",
              "name": "value",
              "type": "uint256"
            },
            {
              "internalType": "address payable",
              "name": "issuer",
              "type": "address"
            },
            {
              "internalType": "address payable",
              "name": "receiver",
              "type": "address"
            },
            {
              "internalType": "uint256",
              "name": "issuerId",
              "type": "uint256"
            },
            {
              "internalType": "uint256",
              "name": "receiverId",
              "type": "uint256"
            },
            {
              "internalType": "uint256",
              "name": "code",
              "type": "uint256"
            },
            {
              "internalType": "enum PayLock.PaymentState",
              "name": "state",
              "type": "uint8"
            }
          ],
          "indexed": true,
          "internalType": "struct PayLock.payment",
          "name": "receipt",
          "type": "tuple"
        }
      ],
      "name": "PaymentIssued",
      "type": "event"
    },
    {
      "anonymous": false,
      "inputs": [
        {
          "indexed": true,
          "internalType": "address",
          "name": "receiver",
          "type": "address"
        },
        {
          "components": [
            {
              "internalType": "uint256",
              "name": "value",
              "type": "uint256"
            },
            {
              "internalType": "address payable",
              "name": "issuer",
              "type": "address"
            },
            {
              "internalType": "address payable",
              "name": "receiver",
              "type": "address"
            },
            {
              "internalType": "uint256",
              "name": "issuerId",
              "type": "uint256"
            },
            {
              "internalType": "uint256",
              "name": "receiverId",
              "type": "uint256"
            },
            {
              "internalType": "uint256",
              "name": "code",
              "type": "uint256"
            },
            {
              "internalType": "enum PayLock.PaymentState",
              "name": "state",
              "type": "uint8"
            }
          ],
          "indexed": true,
          "internalType": "struct PayLock.payment",
          "name": "receipt",
          "type": "tuple"
        }
      ],
      "name": "PaymentReedemed",
      "type": "event"
    },
    {
      "anonymous": false,
      "inputs": [
        {
          "indexed": true,
          "internalType": "address",
          "name": "sender",
          "type": "address"
        },
        {
          "components": [
            {
              "internalType": "uint256",
              "name": "value",
              "type": "uint256"
            },
            {
              "internalType": "address payable",
              "name": "issuer",
              "type": "address"
            },
            {
              "internalType": "address payable",
              "name": "receiver",
              "type": "address"
            },
            {
              "internalType": "uint256",
              "name": "issuerId",
              "type": "uint256"
            },
            {
              "internalType": "uint256",
              "name": "receiverId",
              "type": "uint256"
            },
            {
              "internalType": "uint256",
              "name": "code",
              "type": "uint256"
            },
            {
              "internalType": "enum PayLock.PaymentState",
              "name": "state",
              "type": "uint8"
            }
          ],
          "indexed": true,
          "internalType": "struct PayLock.payment",
          "name": "receipt",
          "type": "tuple"
        }
      ],
      "name": "PaymentWithdrawn",
      "type": "event"
    },
    {
      "anonymous": false,
      "inputs": [
        {
          "indexed": true,
          "internalType": "address",
          "name": "from",
          "type": "address"
        },
        {
          "indexed": true,
          "internalType": "address",
          "name": "to",
          "type": "address"
        },
        {
          "indexed": true,
          "internalType": "uint256",
          "name": "tokenId",
          "type": "uint256"
        }
      ],
      "name": "Transfer",
      "type": "event"
    },
    {
      "inputs": [],
      "name": "BuyLockToken",
      "outputs": [],
      "stateMutability": "payable",
      "type": "function"
    },
    {
      "inputs": [
        {
          "internalType": "address payable",
          "name": "_receiver",
          "type": "address"
        },
        {
          "internalType": "uint256",
          "name": "_code",
          "type": "uint256"
        }
      ],
      "name": "CreatePayement",
      "outputs": [],
      "stateMutability": "payable",
      "type": "function"
    },
    {
      "inputs": [
        {
          "internalType": "uint256",
          "name": "_code",
          "type": "uint256"
        }
      ],
      "name": "RedeemPayment",
      "outputs": [],
      "stateMutability": "payable",
      "type": "function"
    },
    {
      "inputs": [
        {
          "internalType": "address",
          "name": "to",
          "type": "address"
        },
        {
          "internalType": "uint256",
          "name": "tokenId",
          "type": "uint256"
        }
      ],
      "name": "approve",
      "outputs": [],
      "stateMutability": "nonpayable",
      "type": "function"
    },
    {
      "inputs": [
        {
          "internalType": "address",
          "name": "owner",
          "type": "address"
        }
      ],
      "name": "balanceOf",
      "outputs": [
        {
          "internalType": "uint256",
          "name": "",
          "type": "uint256"
        }
      ],
      "stateMutability": "view",
      "type": "function"
    },
    {
      "inputs": [
        {
          "internalType": "uint256",
          "name": "tokenId",
          "type": "uint256"
        }
      ],
      "name": "getApproved",
      "outputs": [
        {
          "internalType": "address",
          "name": "",
          "type": "address"
        }
      ],
      "stateMutability": "view",
      "type": "function"
    },
    {
      "inputs": [
        {
          "internalType": "address",
          "name": "owner",
          "type": "address"
        },
        {
          "internalType": "address",
          "name": "operator",
          "type": "address"
        }
      ],
      "name": "isApprovedForAll",
      "outputs": [
        {
          "internalType": "bool",
          "name": "",
          "type": "bool"
        }
      ],
      "stateMutability": "view",
      "type": "function"
    },
    {
      "inputs": [
        {
          "internalType": "address",
          "name": "forwarder",
          "type": "address"
        }
      ],
      "name": "isTrustedForwarder",
      "outputs": [
        {
          "internalType": "bool",
          "name": "",
          "type": "bool"
        }
      ],
      "stateMutability": "view",
      "type": "function"
    },
    {
      "inputs": [],
      "name": "name",
      "outputs": [
        {
          "internalType": "string",
          "name": "",
          "type": "string"
        }
      ],
      "stateMutability": "view",
      "type": "function"
    },
    {
      "inputs": [],
      "name": "owner",
      "outputs": [
        {
          "internalType": "address",
          "name": "",
          "type": "address"
        }
      ],
      "stateMutability": "view",
      "type": "function"
    },
    {
      "inputs": [
        {
          "internalType": "uint256",
          "name": "tokenId",
          "type": "uint256"
        }
      ],
      "name": "ownerOf",
      "outputs": [
        {
          "internalType": "address",
          "name": "",
          "type": "address"
        }
      ],
      "stateMutability": "view",
      "type": "function"
    },
    {
      "inputs": [],
      "name": "renounceOwnership",
      "outputs": [],
      "stateMutability": "nonpayable",
      "type": "function"
    },
    {
      "inputs": [],
      "name": "s_PaySafe",
      "outputs": [
        {
          "internalType": "uint256",
          "name": "balance",
          "type": "uint256"
        }
      ],
      "stateMutability": "view",
      "type": "function"
    },
    {
      "inputs": [
        {
          "internalType": "address",
          "name": "",
          "type": "address"
        },
        {
          "internalType": "uint256",
          "name": "",
          "type": "uint256"
        }
      ],
      "name": "s_issuedPayments",
      "outputs": [
        {
          "internalType": "uint256",
          "name": "value",
          "type": "uint256"
        },
        {
          "internalType": "address payable",
          "name": "issuer",
          "type": "address"
        },
        {
          "internalType": "address payable",
          "name": "receiver",
          "type": "address"
        },
        {
          "internalType": "uint256",
          "name": "issuerId",
          "type": "uint256"
        },
        {
          "internalType": "uint256",
          "name": "receiverId",
          "type": "uint256"
        },
        {
          "internalType": "uint256",
          "name": "code",
          "type": "uint256"
        },
        {
          "internalType": "enum PayLock.PaymentState",
          "name": "state",
          "type": "uint8"
        }
      ],
      "stateMutability": "view",
      "type": "function"
    },
    {
      "inputs": [
        {
          "internalType": "address",
          "name": "",
          "type": "address"
        },
        {
          "internalType": "uint256",
          "name": "",
          "type": "uint256"
        }
      ],
      "name": "s_redeemablePayments",
      "outputs": [
        {
          "internalType": "uint256",
          "name": "value",
          "type": "uint256"
        },
        {
          "internalType": "address payable",
          "name": "issuer",
          "type": "address"
        },
        {
          "internalType": "address payable",
          "name": "receiver",
          "type": "address"
        },
        {
          "internalType": "uint256",
          "name": "issuerId",
          "type": "uint256"
        },
        {
          "internalType": "uint256",
          "name": "receiverId",
          "type": "uint256"
        },
        {
          "internalType": "uint256",
          "name": "code",
          "type": "uint256"
        },
        {
          "internalType": "enum PayLock.PaymentState",
          "name": "state",
          "type": "uint8"
        }
      ],
      "stateMutability": "view",
      "type": "function"
    },
    {
      "inputs": [
        {
          "internalType": "address",
          "name": "from",
          "type": "address"
        },
        {
          "internalType": "address",
          "name": "to",
          "type": "address"
        },
        {
          "internalType": "uint256",
          "name": "tokenId",
          "type": "uint256"
        }
      ],
      "name": "safeTransferFrom",
      "outputs": [],
      "stateMutability": "nonpayable",
      "type": "function"
    },
    {
      "inputs": [
        {
          "internalType": "address",
          "name": "from",
          "type": "address"
        },
        {
          "internalType": "address",
          "name": "to",
          "type": "address"
        },
        {
          "internalType": "uint256",
          "name": "tokenId",
          "type": "uint256"
        },
        {
          "internalType": "bytes",
          "name": "data",
          "type": "bytes"
        }
      ],
      "name": "safeTransferFrom",
      "outputs": [],
      "stateMutability": "nonpayable",
      "type": "function"
    },
    {
      "inputs": [
        {
          "internalType": "address",
          "name": "operator",
          "type": "address"
        },
        {
          "internalType": "bool",
          "name": "approved",
          "type": "bool"
        }
      ],
      "name": "setApprovalForAll",
      "outputs": [],
      "stateMutability": "nonpayable",
      "type": "function"
    },
    {
      "inputs": [
        {
          "internalType": "bytes4",
          "name": "interfaceId",
          "type": "bytes4"
        }
      ],
      "name": "supportsInterface",
      "outputs": [
        {
          "internalType": "bool",
          "name": "",
          "type": "bool"
        }
      ],
      "stateMutability": "view",
      "type": "function"
    },
    {
      "inputs": [],
      "name": "symbol",
      "outputs": [
        {
          "internalType": "string",
          "name": "",
          "type": "string"
        }
      ],
      "stateMutability": "view",
      "type": "function"
    },
    {
      "inputs": [
        {
          "internalType": "uint256",
          "name": "tokenId",
          "type": "uint256"
        }
      ],
      "name": "tokenURI",
      "outputs": [
        {
          "internalType": "string",
          "name": "",
          "type": "string"
        }
      ],
      "stateMutability": "view",
      "type": "function"
    },
    {
      "inputs": [
        {
          "internalType": "address",
          "name": "from",
          "type": "address"
        },
        {
          "internalType": "address",
          "name": "to",
          "type": "address"
        },
        {
          "internalType": "uint256",
          "name": "tokenId",
          "type": "uint256"
        }
      ],
      "name": "transferFrom",
      "outputs": [],
      "stateMutability": "nonpayable",
      "type": "function"
    },
    {
      "inputs": [
        {
          "internalType": "address",
          "name": "newOwner",
          "type": "address"
        }
      ],
      "name": "transferOwnership",
      "outputs": [],
      "stateMutability": "nonpayable",
      "type": "function"
    },
    {
      "inputs": [
        {
          "internalType": "uint256",
          "name": "index",
          "type": "uint256"
        }
      ],
      "name": "withdrawIssuerPayment",
      "outputs": [],
      "stateMutability": "payable",
      "type": "function"
    },
    {
      "inputs": [],
      "name": "withdrawPaySafeBalance",
      "outputs": [],
      "stateMutability": "payable",
      "type": "function"
    }
  ],
  "bytecode": "0x60a06040523480156200001157600080fd5b506040516200261f3803806200261f833981016040819052620000349162000213565b60408051808201825260078152665061794c6f636b60c81b602080830191909152825180840190935260048352634c4f434b60e01b908301526001600160a01b038316608052906200008f62000089620000c4565b620000e0565b8151620000a49060019060208501906200016d565b508051620000ba9060029060208401906200016d565b5050505062000282565b6000620000db6200013060201b620014871760201c565b905090565b600080546001600160a01b038381166001600160a01b0319831681178455604051919092169283917f8be0079c531659141344cd1fd0a4f28419497f9722a3daafe3b4186f6b6457e09190a35050565b6080516000906001600160a01b031633141562000154575060131936013560601c90565b620000db6200016960201b620014d11760201c565b3390565b8280546200017b9062000245565b90600052602060002090601f0160209004810192826200019f5760008555620001ea565b82601f10620001ba57805160ff1916838001178555620001ea565b82800160010185558215620001ea579182015b82811115620001ea578251825591602001919060010190620001cd565b50620001f8929150620001fc565b5090565b5b80821115620001f85760008155600101620001fd565b6000602082840312156200022657600080fd5b81516001600160a01b03811681146200023e57600080fd5b9392505050565b600181811c908216806200025a57607f821691505b602082108114156200027c57634e487b7160e01b600052602260045260246000fd5b50919050565b60805161237a620002a5600039600081816102e2015261148b015261237a6000f3fe6080604052600436106101665760003560e01c80636352211e116100d1578063b88d4fde1161008a578063e985e9c511610064578063e985e9c51461041b578063ee23b65a14610464578063f1fdbc4214610484578063f2fde38b1461049b57600080fd5b8063b88d4fde146103c8578063c87b56dd146103e8578063dc4cf83f1461040857600080fd5b80636352211e1461031257806370a0823114610332578063715018a6146103605780638da5cb5b1461037557806395d89b4114610393578063a22cb465146103a857600080fd5b806323b872dd1161012357806323b872dd1461023757806325fd3b5a1461025757806342842e0e1461026a57806348502eaa1461028a5780635463612e14610292578063572b6c05146102c557600080fd5b806301ffc9a71461016b57806306fdde03146101a0578063081812fc146101c2578063095ea7b3146101fa578063182ec7c01461021c5780631f102dd214610224575b600080fd5b34801561017757600080fd5b5061018b610186366004611da8565b6104bb565b60405190151581526020015b60405180910390f35b3480156101ac57600080fd5b506101b561050d565b6040516101979190611e1d565b3480156101ce57600080fd5b506101e26101dd366004611e30565b61059f565b6040516001600160a01b039091168152602001610197565b34801561020657600080fd5b5061021a610215366004611e5e565b6105c6565b005b61021a6106f3565b61021a610232366004611e30565b610753565b34801561024357600080fd5b5061021a610252366004611e8a565b610a4d565b61021a610265366004611e5e565b610a85565b34801561027657600080fd5b5061021a610285366004611e8a565b610ce7565b61021a610d02565b34801561029e57600080fd5b506102b26102ad366004611e5e565b610d74565b6040516101979796959493929190611f03565b3480156102d157600080fd5b5061018b6102e0366004611f4f565b7f00000000000000000000000000000000000000000000000000000000000000006001600160a01b0390811691161490565b34801561031e57600080fd5b506101e261032d366004611e30565b610dde565b34801561033e57600080fd5b5061035261034d366004611f4f565b610e3e565b604051908152602001610197565b34801561036c57600080fd5b5061021a610ec4565b34801561038157600080fd5b506000546001600160a01b03166101e2565b34801561039f57600080fd5b506101b5610ed8565b3480156103b457600080fd5b5061021a6103c3366004611f6c565b610ee7565b3480156103d457600080fd5b5061021a6103e3366004611fc0565b610efd565b3480156103f457600080fd5b506101b5610403366004611e30565b610f3c565b61021a610416366004611e30565b610fb0565b34801561042757600080fd5b5061018b6104363660046120a0565b6001600160a01b03918216600090815260066020908152604080832093909416825291909152205460ff1690565b34801561047057600080fd5b506102b261047f366004611e5e565b6113f5565b34801561049057600080fd5b506008546103529081565b3480156104a757600080fd5b5061021a6104b6366004611f4f565b611411565b60006001600160e01b031982166380ac58cd60e01b14806104ec57506001600160e01b03198216635b5e139f60e01b145b8061050757506301ffc9a760e01b6001600160e01b03198316145b92915050565b60606001805461051c906120ce565b80601f0160208091040260200160405190810160405280929190818152602001828054610548906120ce565b80156105955780601f1061056a57610100808354040283529160200191610595565b820191906000526020600020905b81548152906001019060200180831161057857829003601f168201915b5050505050905090565b60006105aa826114d5565b506000908152600560205260409020546001600160a01b031690565b60006105d182610dde565b9050806001600160a01b0316836001600160a01b031614156106445760405162461bcd60e51b815260206004820152602160248201527f4552433732313a20617070726f76616c20746f2063757272656e74206f776e656044820152603960f91b60648201526084015b60405180910390fd5b806001600160a01b0316610656611534565b6001600160a01b03161480610672575061067281610436611534565b6106e45760405162461bcd60e51b815260206004820152603e60248201527f4552433732313a20617070726f76652063616c6c6572206973206e6f7420746f60448201527f6b656e206f776e6572206e6f7220617070726f76656420666f7220616c6c0000606482015260840161063b565b6106ee838361153e565b505050565b34670de0b6b3a76400001461071b57604051633bdf630f60e11b815260040160405180910390fd5b3460086000016000828254610730919061211f565b9091555050600754610746600780546001019055565b61075033826115ac565b50565b600060096000610761611534565b6001600160a01b03166001600160a01b03168152602001908152602001600020828154811061079257610792612137565b60009182526020918290206040805160e08101825260079093029091018054835260018101546001600160a01b0390811694840194909452600280820154909416918301919091526003810154606083015260048101546080830152600581015460a083015260068101549192909160c084019160ff9091169081111561081b5761081b611ecb565b600281111561082c5761082c611ecb565b90525090506000808260c00151600281111561084a5761084a611ecb565b141590506000610858611534565b6001600160a01b031683602001516001600160a01b0316141590506000828061087e5750815b9050801561089f5760405163de175b0760e01b815260040160405180910390fd5b6040808501516001600160a01b03166000908152600a6020522060808501518154600192919081106108d3576108d3612137565b60009182526020909120600660079092020101805460ff1916600183600281111561090057610900611ecb565b0217905550600160096000610913611534565b6001600160a01b03166001600160a01b03168152602001908152602001600020868154811061094457610944612137565b60009182526020909120600660079092020101805460ff1916600183600281111561097157610971611ecb565b021790555083604051610984919061214d565b6040518091039020610994611534565b6001600160a01b03167f5880da345c34cdf74afed0aaace4262bd71cc2322ef6716dcdd2d54423d8c08960405160405180910390a360006109d3611534565b85516040516001600160a01b039290921691600081818185875af1925050503d8060008114610a1e576040519150601f19603f3d011682016040523d82523d6000602084013e610a23565b606091505b5050905080610a4557604051633bdf630f60e11b815260040160405180910390fd5b505050505050565b610a5e610a58611534565b826115c6565b610a7a5760405162461bcd60e51b815260040161063b906121ab565b6106ee838383611645565b34158015610aa657604051630bc27b7f60e31b815260040160405180910390fd5b610aae611d33565b6000610ab933610e3e565b1115610ac3573481525b610acc33610e3e565b610b0a57610adb60c83461220f565b610ae59034612223565b8152610af260c83461220f565b60088054600090610b0490849061211f565b90915550505b3360208281018281526001600160a01b03878116604080870182815260009687526009808752828820805460608b01818152958a52600a89529389205460808b0190815260a08b018d815260c08c018b8152938a5260018087018455928b52989099208a51600790950201938455955183870180549187166001600160a01b0319928316179055915160028085018054929097169190931617909455915160038201559451600486015592516005850155516006840180548695949293919260ff1990911691908490811115610be257610be2611ecb565b021790555050506001600160a01b038085166000908152600a602090815260408083208054600181810183559185529383902086516007909502019384559185015183830180549186166001600160a01b03199283161790559085015160028085018054929096169190921617909355606084015160038301556080840151600483015560a0840151600583015560c084015160068301805486959293919260ff1990911691908490811115610c9a57610c9a611ecb565b0217905550505080604051610caf919061214d565b6040519081900381209033907f8fc8266c7de47d269c6bab1dd3aecee9c41737bbc98cecfdcacc5dbf3abc328a90600090a350505050565b6106ee83838360405180602001604052806000815250610efd565b610d0a6117e1565b60085460405160009133918381818185875af1925050503d8060008114610d4d576040519150601f19603f3d011682016040523d82523d6000602084013e610d52565b606091505b505090508061075057604051633bdf630f60e11b815260040160405180910390fd5b600a6020528160005260406000208181548110610d9057600080fd5b600091825260209091206007909102018054600182015460028301546003840154600485015460058601546006909601549497506001600160a01b0393841696509290911693909260ff1687565b6000818152600360205260408120546001600160a01b0316806105075760405162461bcd60e51b8152602060048201526018602482015277115490cdcc8c4e881a5b9d985b1a59081d1bdad95b88125160421b604482015260640161063b565b60006001600160a01b038216610ea85760405162461bcd60e51b815260206004820152602960248201527f4552433732313a2061646472657373207a65726f206973206e6f7420612076616044820152683634b21037bbb732b960b91b606482015260840161063b565b506001600160a01b031660009081526004602052604090205490565b610ecc6117e1565b610ed6600061185a565b565b60606002805461051c906120ce565b610ef9610ef2611534565b83836118aa565b5050565b610f0e610f08611534565b836115c6565b610f2a5760405162461bcd60e51b815260040161063b906121ab565b610f3684848484611979565b50505050565b6060610f47826114d5565b6000610f5e60408051602081019091526000815290565b90506000815111610f7e5760405180602001604052806000815250610fa9565b80610f88846119ac565b604051602001610f9992919061223a565b6040516020818303038152906040525b9392505050565b6000600a6000610fbe611534565b6001600160a01b03166001600160a01b03168152602001908152602001600020805480602002602001604051908101604052809291908181526020016000905b828210156110b25760008481526020908190206040805160e081018252600786029092018054835260018101546001600160a01b0390811694840194909452600280820154909416918301919091526003810154606083015260048101546080830152600581015460a083015260068101549192909160c084019160ff9091169081111561108e5761108e611ecb565b600281111561109f5761109f611ecb565b8152505081526020019060010190610ffe565b5050505090508051600014156110db576040516318be8db160e11b815260040160405180910390fd5b60005b81518110156106ee57828282815181106110fa576110fa612137565b602002602001015160a0015114156113ca5760008083838151811061112157611121612137565b602002602001015160c00151600281111561113e5761113e611ecb565b14159050600061114c611534565b6001600160a01b031684848151811061116757611167612137565b6020026020010151604001516001600160a01b0316141590506000828061118b5750815b905080156111ac5760405163de175b0760e01b815260040160405180910390fd5b6002600960008787815181106111c4576111c4612137565b6020026020010151602001516001600160a01b03166001600160a01b0316815260200190815260200160002086868151811061120257611202612137565b6020026020010151606001518154811061121e5761121e612137565b60009182526020909120600660079092020101805460ff1916600183600281111561124b5761124b611ecb565b02179055506002600a600061125e611534565b6001600160a01b03166001600160a01b03168152602001908152602001600020858154811061128f5761128f612137565b60009182526020909120600660079092020101805460ff191660018360028111156112bc576112bc611ecb565b02179055508484815181106112d3576112d3612137565b60200260200101516040516112e8919061214d565b60405180910390206112f8611534565b6001600160a01b03167f5a6816ad4185f0e8e6023f3b269deb7dc6458dfc7c003f19a888afef63a50b8560405160405180910390a36000611337611534565b6001600160a01b031686868151811061135257611352612137565b602090810291909101015151604051600081818185875af1925050503d806000811461139a576040519150601f19603f3d011682016040523d82523d6000602084013e61139f565b606091505b50509050806113c157604051633bdf630f60e11b815260040160405180910390fd5b505050506113e3565b604051633f4ba89360e11b815260040160405180910390fd5b806113ed81612269565b9150506110de565b60096020528160005260406000208181548110610d9057600080fd5b6114196117e1565b6001600160a01b03811661147e5760405162461bcd60e51b815260206004820152602660248201527f4f776e61626c653a206e6577206f776e657220697320746865207a65726f206160448201526564647265737360d01b606482015260840161063b565b6107508161185a565b60007f00000000000000000000000000000000000000000000000000000000000000006001600160a01b03163314156114c7575060131936013560601c90565b503390565b905090565b3390565b6000818152600360205260409020546001600160a01b03166107505760405162461bcd60e51b8152602060048201526018602482015277115490cdcc8c4e881a5b9d985b1a59081d1bdad95b88125160421b604482015260640161063b565b60006114cc611487565b600081815260056020526040902080546001600160a01b0319166001600160a01b038416908117909155819061157382610dde565b6001600160a01b03167f8c5be1e5ebec7d5bd14f71427d1e84f3dd0314c0f7b2291e5b200ac8c7c3b92560405160405180910390a45050565b610ef9828260405180602001604052806000815250611aaa565b6000806115d283610dde565b9050806001600160a01b0316846001600160a01b0316148061161957506001600160a01b0380821660009081526006602090815260408083209388168352929052205460ff165b8061163d5750836001600160a01b03166116328461059f565b6001600160a01b0316145b949350505050565b826001600160a01b031661165882610dde565b6001600160a01b0316146116bc5760405162461bcd60e51b815260206004820152602560248201527f4552433732313a207472616e736665722066726f6d20696e636f72726563742060448201526437bbb732b960d91b606482015260840161063b565b6001600160a01b03821661171e5760405162461bcd60e51b8152602060048201526024808201527f4552433732313a207472616e7366657220746f20746865207a65726f206164646044820152637265737360e01b606482015260840161063b565b61172960008261153e565b6001600160a01b0383166000908152600460205260408120805460019290611752908490612223565b90915550506001600160a01b038216600090815260046020526040812080546001929061178090849061211f565b909155505060008181526003602052604080822080546001600160a01b0319166001600160a01b0386811691821790925591518493918716917fddf252ad1be2c89b69c2b068fc378daa952ba7f163c4a11628f55a4df523b3ef91a4505050565b6117e9611534565b6001600160a01b03166118046000546001600160a01b031690565b6001600160a01b031614610ed65760405162461bcd60e51b815260206004820181905260248201527f4f776e61626c653a2063616c6c6572206973206e6f7420746865206f776e6572604482015260640161063b565b600080546001600160a01b038381166001600160a01b0319831681178455604051919092169283917f8be0079c531659141344cd1fd0a4f28419497f9722a3daafe3b4186f6b6457e09190a35050565b816001600160a01b0316836001600160a01b0316141561190c5760405162461bcd60e51b815260206004820152601960248201527f4552433732313a20617070726f766520746f2063616c6c657200000000000000604482015260640161063b565b6001600160a01b03838116600081815260066020908152604080832094871680845294825291829020805460ff191686151590811790915591519182527f17307eab39ab6107e8899845ad3d59bd9653f200f220920489ca2b5937696c31910160405180910390a3505050565b611984848484611645565b61199084848484611add565b610f365760405162461bcd60e51b815260040161063b90612284565b6060816119d05750506040805180820190915260018152600360fc1b602082015290565b8160005b81156119fa57806119e481612269565b91506119f39050600a8361220f565b91506119d4565b60008167ffffffffffffffff811115611a1557611a15611faa565b6040519080825280601f01601f191660200182016040528015611a3f576020820181803683370190505b5090505b841561163d57611a54600183612223565b9150611a61600a866122d6565b611a6c90603061211f565b60f81b818381518110611a8157611a81612137565b60200101906001600160f81b031916908160001a905350611aa3600a8661220f565b9450611a43565b611ab48383611bf1565b611ac16000848484611add565b6106ee5760405162461bcd60e51b815260040161063b90612284565b60006001600160a01b0384163b15611be657836001600160a01b031663150b7a02611b06611534565b8786866040518563ffffffff1660e01b8152600401611b2894939291906122ea565b602060405180830381600087803b158015611b4257600080fd5b505af1925050508015611b72575060408051601f3d908101601f19168201909252611b6f91810190612327565b60015b611bcc573d808015611ba0576040519150601f19603f3d011682016040523d82523d6000602084013e611ba5565b606091505b508051611bc45760405162461bcd60e51b815260040161063b90612284565b805181602001fd5b6001600160e01b031916630a85bd0160e11b14905061163d565b506001949350505050565b6001600160a01b038216611c475760405162461bcd60e51b815260206004820181905260248201527f4552433732313a206d696e7420746f20746865207a65726f2061646472657373604482015260640161063b565b6000818152600360205260409020546001600160a01b031615611cac5760405162461bcd60e51b815260206004820152601c60248201527f4552433732313a20746f6b656e20616c7265616479206d696e74656400000000604482015260640161063b565b6001600160a01b0382166000908152600460205260408120805460019290611cd590849061211f565b909155505060008181526003602052604080822080546001600160a01b0319166001600160a01b03861690811790915590518392907fddf252ad1be2c89b69c2b068fc378daa952ba7f163c4a11628f55a4df523b3ef908290a45050565b6040518060e001604052806000815260200160006001600160a01b0316815260200160006001600160a01b0316815260200160008152602001600081526020016000815260200160006002811115611d8d57611d8d611ecb565b905290565b6001600160e01b03198116811461075057600080fd5b600060208284031215611dba57600080fd5b8135610fa981611d92565b60005b83811015611de0578181015183820152602001611dc8565b83811115610f365750506000910152565b60008151808452611e09816020860160208601611dc5565b601f01601f19169290920160200192915050565b602081526000610fa96020830184611df1565b600060208284031215611e4257600080fd5b5035919050565b6001600160a01b038116811461075057600080fd5b60008060408385031215611e7157600080fd5b8235611e7c81611e49565b946020939093013593505050565b600080600060608486031215611e9f57600080fd5b8335611eaa81611e49565b92506020840135611eba81611e49565b929592945050506040919091013590565b634e487b7160e01b600052602160045260246000fd5b60038110611eff57634e487b7160e01b600052602160045260246000fd5b9052565b8781526001600160a01b03878116602083015286166040820152606081018590526080810184905260a0810183905260e08101611f4360c0830184611ee1565b98975050505050505050565b600060208284031215611f6157600080fd5b8135610fa981611e49565b60008060408385031215611f7f57600080fd5b8235611f8a81611e49565b915060208301358015158114611f9f57600080fd5b809150509250929050565b634e487b7160e01b600052604160045260246000fd5b60008060008060808587031215611fd657600080fd5b8435611fe181611e49565b93506020850135611ff181611e49565b925060408501359150606085013567ffffffffffffffff8082111561201557600080fd5b818701915087601f83011261202957600080fd5b81358181111561203b5761203b611faa565b604051601f8201601f19908116603f0116810190838211818310171561206357612063611faa565b816040528281528a602084870101111561207c57600080fd5b82602086016020830137600060208483010152809550505050505092959194509250565b600080604083850312156120b357600080fd5b82356120be81611e49565b91506020830135611f9f81611e49565b600181811c908216806120e257607f821691505b6020821081141561210357634e487b7160e01b600052602260045260246000fd5b50919050565b634e487b7160e01b600052601160045260246000fd5b6000821982111561213257612132612109565b500190565b634e487b7160e01b600052603260045260246000fd5b81518152600060018060a01b0380602085015116602084015280604085015116604084015250606083015160608301526080830151608083015260a083015160a08301526121a260c0830160c0850151611ee1565b5060e001919050565b6020808252602e908201527f4552433732313a2063616c6c6572206973206e6f7420746f6b656e206f776e6560408201526d1c881b9bdc88185c1c1c9bdd995960921b606082015260800190565b634e487b7160e01b600052601260045260246000fd5b60008261221e5761221e6121f9565b500490565b60008282101561223557612235612109565b500390565b6000835161224c818460208801611dc5565b835190830190612260818360208801611dc5565b01949350505050565b600060001982141561227d5761227d612109565b5060010190565b60208082526032908201527f4552433732313a207472616e7366657220746f206e6f6e20455243373231526560408201527131b2b4bb32b91034b6b83632b6b2b73a32b960711b606082015260800190565b6000826122e5576122e56121f9565b500690565b6001600160a01b038581168252841660208201526040810183905260806060820181905260009061231d90830184611df1565b9695505050505050565b60006020828403121561233957600080fd5b8151610fa981611d9256fea2646970667358221220aeaa54ea4a0460871b55d0277303a3bce2ddc8671b777e8105bd49f55c7c3d7e64736f6c63430008090033",
  "linkReferences": {},
  "deployedLinkReferences": {}
}