{
  "_format": "hh-sol-artifact-1",
  "contractName": "PayLock",
  "sourceName": "contracts/PayFactory.sol",
  "abi": [
    {
      "inputs": [
        {
          "internalType": "contract MinimalForwarder",
          "name": "forwarder",
          "type": "address"
        }
      ],
      "stateMutability": "nonpayable",
      "type": "constructor"
    },
    {
      "inputs": [],
      "name": "Ammount__Empty",
      "type": "error"
    },
    {
      "inputs": [],
      "name": "__InvalidCode",
      "type": "error"
    },
    {
      "inputs": [],
      "name": "__NoReedemablePayments",
      "type": "error"
    },
    {
      "inputs": [],
      "name": "__NotSenderOrNotActive",
      "type": "error"
    },
    {
      "inputs": [],
      "name": "__TransferFailed",
      "type": "error"
    },
    {
      "anonymous": false,
      "inputs": [
        {
          "indexed": true,
          "internalType": "address",
          "name": "owner",
          "type": "address"
        },
        {
          "indexed": true,
          "internalType": "address",
          "name": "approved",
          "type": "address"
        },
        {
          "indexed": true,
          "internalType": "uint256",
          "name": "tokenId",
          "type": "uint256"
        }
      ],
      "name": "Approval",
      "type": "event"
    },
    {
      "anonymous": false,
      "inputs": [
        {
          "indexed": true,
          "internalType": "address",
          "name": "owner",
          "type": "address"
        },
        {
          "indexed": true,
          "internalType": "address",
          "name": "operator",
          "type": "address"
        },
        {
          "indexed": false,
          "internalType": "bool",
          "name": "approved",
          "type": "bool"
        }
      ],
      "name": "ApprovalForAll",
      "type": "event"
    },
    {
      "anonymous": false,
      "inputs": [
        {
          "indexed": true,
          "internalType": "address",
          "name": "previousOwner",
          "type": "address"
        },
        {
          "indexed": true,
          "internalType": "address",
          "name": "newOwner",
          "type": "address"
        }
      ],
      "name": "OwnershipTransferred",
      "type": "event"
    },
    {
      "anonymous": false,
      "inputs": [
        {
          "indexed": true,
          "internalType": "address",
          "name": "sender",
          "type": "address"
        },
        {
          "components": [
            {
              "internalType": "uint256",
              "name": "value",
              "type": "uint256"
            },
            {
              "internalType": "address payable",
              "name": "issuer",
              "type": "address"
            },
            {
              "internalType": "address payable",
              "name": "receiver",
              "type": "address"
            },
            {
              "internalType": "uint256",
              "name": "issuerId",
              "type": "uint256"
            },
            {
              "internalType": "uint256",
              "name": "receiverId",
              "type": "uint256"
            },
            {
              "internalType": "uint256",
              "name": "code",
              "type": "uint256"
            },
            {
              "internalType": "enum PayLock.PaymentState",
              "name": "state",
              "type": "uint8"
            }
          ],
          "indexed": true,
          "internalType": "struct PayLock.payment",
          "name": "receipt",
          "type": "tuple"
        }
      ],
      "name": "PaymentIssued",
      "type": "event"
    },
    {
      "anonymous": false,
      "inputs": [
        {
          "indexed": true,
          "internalType": "address",
          "name": "receiver",
          "type": "address"
        },
        {
          "components": [
            {
              "internalType": "uint256",
              "name": "value",
              "type": "uint256"
            },
            {
              "internalType": "address payable",
              "name": "issuer",
              "type": "address"
            },
            {
              "internalType": "address payable",
              "name": "receiver",
              "type": "address"
            },
            {
              "internalType": "uint256",
              "name": "issuerId",
              "type": "uint256"
            },
            {
              "internalType": "uint256",
              "name": "receiverId",
              "type": "uint256"
            },
            {
              "internalType": "uint256",
              "name": "code",
              "type": "uint256"
            },
            {
              "internalType": "enum PayLock.PaymentState",
              "name": "state",
              "type": "uint8"
            }
          ],
          "indexed": true,
          "internalType": "struct PayLock.payment",
          "name": "receipt",
          "type": "tuple"
        }
      ],
      "name": "PaymentReedemed",
      "type": "event"
    },
    {
      "anonymous": false,
      "inputs": [
        {
          "indexed": true,
          "internalType": "address",
          "name": "sender",
          "type": "address"
        },
        {
          "components": [
            {
              "internalType": "uint256",
              "name": "value",
              "type": "uint256"
            },
            {
              "internalType": "address payable",
              "name": "issuer",
              "type": "address"
            },
            {
              "internalType": "address payable",
              "name": "receiver",
              "type": "address"
            },
            {
              "internalType": "uint256",
              "name": "issuerId",
              "type": "uint256"
            },
            {
              "internalType": "uint256",
              "name": "receiverId",
              "type": "uint256"
            },
            {
              "internalType": "uint256",
              "name": "code",
              "type": "uint256"
            },
            {
              "internalType": "enum PayLock.PaymentState",
              "name": "state",
              "type": "uint8"
            }
          ],
          "indexed": true,
          "internalType": "struct PayLock.payment",
          "name": "receipt",
          "type": "tuple"
        }
      ],
      "name": "PaymentWithdrawn",
      "type": "event"
    },
    {
      "anonymous": false,
      "inputs": [
        {
          "indexed": true,
          "internalType": "address",
          "name": "from",
          "type": "address"
        },
        {
          "indexed": true,
          "internalType": "address",
          "name": "to",
          "type": "address"
        },
        {
          "indexed": true,
          "internalType": "uint256",
          "name": "tokenId",
          "type": "uint256"
        }
      ],
      "name": "Transfer",
      "type": "event"
    },
    {
      "inputs": [],
      "name": "BuyLockToken",
      "outputs": [],
      "stateMutability": "payable",
      "type": "function"
    },
    {
      "inputs": [
        {
          "internalType": "address payable",
          "name": "_receiver",
          "type": "address"
        },
        {
          "internalType": "uint256",
          "name": "_code",
          "type": "uint256"
        }
      ],
      "name": "CreatePayement",
      "outputs": [],
      "stateMutability": "payable",
      "type": "function"
    },
    {
      "inputs": [
        {
          "internalType": "uint256",
          "name": "_code",
          "type": "uint256"
        }
      ],
      "name": "RedeemPayment",
      "outputs": [],
      "stateMutability": "payable",
      "type": "function"
    },
    {
      "inputs": [
        {
          "internalType": "address",
          "name": "to",
          "type": "address"
        },
        {
          "internalType": "uint256",
          "name": "tokenId",
          "type": "uint256"
        }
      ],
      "name": "approve",
      "outputs": [],
      "stateMutability": "nonpayable",
      "type": "function"
    },
    {
      "inputs": [
        {
          "internalType": "address",
          "name": "owner",
          "type": "address"
        }
      ],
      "name": "balanceOf",
      "outputs": [
        {
          "internalType": "uint256",
          "name": "",
          "type": "uint256"
        }
      ],
      "stateMutability": "view",
      "type": "function"
    },
    {
      "inputs": [
        {
          "internalType": "uint256",
          "name": "tokenId",
          "type": "uint256"
        }
      ],
      "name": "getApproved",
      "outputs": [
        {
          "internalType": "address",
          "name": "",
          "type": "address"
        }
      ],
      "stateMutability": "view",
      "type": "function"
    },
    {
      "inputs": [
        {
          "internalType": "address",
          "name": "owner",
          "type": "address"
        },
        {
          "internalType": "address",
          "name": "operator",
          "type": "address"
        }
      ],
      "name": "isApprovedForAll",
      "outputs": [
        {
          "internalType": "bool",
          "name": "",
          "type": "bool"
        }
      ],
      "stateMutability": "view",
      "type": "function"
    },
    {
      "inputs": [
        {
          "internalType": "address",
          "name": "forwarder",
          "type": "address"
        }
      ],
      "name": "isTrustedForwarder",
      "outputs": [
        {
          "internalType": "bool",
          "name": "",
          "type": "bool"
        }
      ],
      "stateMutability": "view",
      "type": "function"
    },
    {
      "inputs": [],
      "name": "name",
      "outputs": [
        {
          "internalType": "string",
          "name": "",
          "type": "string"
        }
      ],
      "stateMutability": "view",
      "type": "function"
    },
    {
      "inputs": [],
      "name": "owner",
      "outputs": [
        {
          "internalType": "address",
          "name": "",
          "type": "address"
        }
      ],
      "stateMutability": "view",
      "type": "function"
    },
    {
      "inputs": [
        {
          "internalType": "uint256",
          "name": "tokenId",
          "type": "uint256"
        }
      ],
      "name": "ownerOf",
      "outputs": [
        {
          "internalType": "address",
          "name": "",
          "type": "address"
        }
      ],
      "stateMutability": "view",
      "type": "function"
    },
    {
      "inputs": [],
      "name": "renounceOwnership",
      "outputs": [],
      "stateMutability": "nonpayable",
      "type": "function"
    },
    {
      "inputs": [],
      "name": "s_PaySafe",
      "outputs": [
        {
          "internalType": "uint256",
          "name": "balance",
          "type": "uint256"
        }
      ],
      "stateMutability": "view",
      "type": "function"
    },
    {
      "inputs": [
        {
          "internalType": "address",
          "name": "",
          "type": "address"
        },
        {
          "internalType": "uint256",
          "name": "",
          "type": "uint256"
        }
      ],
      "name": "s_issuedPayments",
      "outputs": [
        {
          "internalType": "uint256",
          "name": "value",
          "type": "uint256"
        },
        {
          "internalType": "address payable",
          "name": "issuer",
          "type": "address"
        },
        {
          "internalType": "address payable",
          "name": "receiver",
          "type": "address"
        },
        {
          "internalType": "uint256",
          "name": "issuerId",
          "type": "uint256"
        },
        {
          "internalType": "uint256",
          "name": "receiverId",
          "type": "uint256"
        },
        {
          "internalType": "uint256",
          "name": "code",
          "type": "uint256"
        },
        {
          "internalType": "enum PayLock.PaymentState",
          "name": "state",
          "type": "uint8"
        }
      ],
      "stateMutability": "view",
      "type": "function"
    },
    {
      "inputs": [
        {
          "internalType": "address",
          "name": "",
          "type": "address"
        },
        {
          "internalType": "uint256",
          "name": "",
          "type": "uint256"
        }
      ],
      "name": "s_redeemablePayments",
      "outputs": [
        {
          "internalType": "uint256",
          "name": "value",
          "type": "uint256"
        },
        {
          "internalType": "address payable",
          "name": "issuer",
          "type": "address"
        },
        {
          "internalType": "address payable",
          "name": "receiver",
          "type": "address"
        },
        {
          "internalType": "uint256",
          "name": "issuerId",
          "type": "uint256"
        },
        {
          "internalType": "uint256",
          "name": "receiverId",
          "type": "uint256"
        },
        {
          "internalType": "uint256",
          "name": "code",
          "type": "uint256"
        },
        {
          "internalType": "enum PayLock.PaymentState",
          "name": "state",
          "type": "uint8"
        }
      ],
      "stateMutability": "view",
      "type": "function"
    },
    {
      "inputs": [
        {
          "internalType": "address",
          "name": "from",
          "type": "address"
        },
        {
          "internalType": "address",
          "name": "to",
          "type": "address"
        },
        {
          "internalType": "uint256",
          "name": "tokenId",
          "type": "uint256"
        }
      ],
      "name": "safeTransferFrom",
      "outputs": [],
      "stateMutability": "nonpayable",
      "type": "function"
    },
    {
      "inputs": [
        {
          "internalType": "address",
          "name": "from",
          "type": "address"
        },
        {
          "internalType": "address",
          "name": "to",
          "type": "address"
        },
        {
          "internalType": "uint256",
          "name": "tokenId",
          "type": "uint256"
        },
        {
          "internalType": "bytes",
          "name": "data",
          "type": "bytes"
        }
      ],
      "name": "safeTransferFrom",
      "outputs": [],
      "stateMutability": "nonpayable",
      "type": "function"
    },
    {
      "inputs": [
        {
          "internalType": "address",
          "name": "operator",
          "type": "address"
        },
        {
          "internalType": "bool",
          "name": "approved",
          "type": "bool"
        }
      ],
      "name": "setApprovalForAll",
      "outputs": [],
      "stateMutability": "nonpayable",
      "type": "function"
    },
    {
      "inputs": [
        {
          "internalType": "bytes4",
          "name": "interfaceId",
          "type": "bytes4"
        }
      ],
      "name": "supportsInterface",
      "outputs": [
        {
          "internalType": "bool",
          "name": "",
          "type": "bool"
        }
      ],
      "stateMutability": "view",
      "type": "function"
    },
    {
      "inputs": [],
      "name": "symbol",
      "outputs": [
        {
          "internalType": "string",
          "name": "",
          "type": "string"
        }
      ],
      "stateMutability": "view",
      "type": "function"
    },
    {
      "inputs": [
        {
          "internalType": "uint256",
          "name": "tokenId",
          "type": "uint256"
        }
      ],
      "name": "tokenURI",
      "outputs": [
        {
          "internalType": "string",
          "name": "",
          "type": "string"
        }
      ],
      "stateMutability": "view",
      "type": "function"
    },
    {
      "inputs": [
        {
          "internalType": "address",
          "name": "from",
          "type": "address"
        },
        {
          "internalType": "address",
          "name": "to",
          "type": "address"
        },
        {
          "internalType": "uint256",
          "name": "tokenId",
          "type": "uint256"
        }
      ],
      "name": "transferFrom",
      "outputs": [],
      "stateMutability": "nonpayable",
      "type": "function"
    },
    {
      "inputs": [
        {
          "internalType": "address",
          "name": "newOwner",
          "type": "address"
        }
      ],
      "name": "transferOwnership",
      "outputs": [],
      "stateMutability": "nonpayable",
      "type": "function"
    },
    {
      "inputs": [
        {
          "internalType": "uint256",
          "name": "index",
          "type": "uint256"
        }
      ],
      "name": "withdrawIssuerPayment",
      "outputs": [],
      "stateMutability": "payable",
      "type": "function"
    },
    {
      "inputs": [],
      "name": "withdrawPaySafeBalance",
      "outputs": [],
      "stateMutability": "payable",
      "type": "function"
    }
  ],
  "bytecode": "0x60a06040523480156200001157600080fd5b506040516200255e3803806200255e833981016040819052620000349162000213565b60408051808201825260078152665061794c6f636b60c81b602080830191909152825180840190935260048352634c4f434b60e01b908301526001600160a01b038316608052906200008f62000089620000c4565b620000e0565b8151620000a49060019060208501906200016d565b508051620000ba9060029060208401906200016d565b5050505062000282565b6000620000db6200013060201b620013c61760201c565b905090565b600080546001600160a01b038381166001600160a01b0319831681178455604051919092169283917f8be0079c531659141344cd1fd0a4f28419497f9722a3daafe3b4186f6b6457e09190a35050565b6080516000906001600160a01b031633141562000154575060131936013560601c90565b620000db6200016960201b620014101760201c565b3390565b8280546200017b9062000245565b90600052602060002090601f0160209004810192826200019f5760008555620001ea565b82601f10620001ba57805160ff1916838001178555620001ea565b82800160010185558215620001ea579182015b82811115620001ea578251825591602001919060010190620001cd565b50620001f8929150620001fc565b5090565b5b80821115620001f85760008155600101620001fd565b6000602082840312156200022657600080fd5b81516001600160a01b03811681146200023e57600080fd5b9392505050565b600181811c908216806200025a57607f821691505b602082108114156200027c57634e487b7160e01b600052602260045260246000fd5b50919050565b6080516122b9620002a5600039600081816102e201526113ca01526122b96000f3fe6080604052600436106101665760003560e01c80636352211e116100d1578063b88d4fde1161008a578063e985e9c511610064578063e985e9c51461041b578063ee23b65a14610464578063f1fdbc4214610484578063f2fde38b1461049b57600080fd5b8063b88d4fde146103c8578063c87b56dd146103e8578063dc4cf83f1461040857600080fd5b80636352211e1461031257806370a0823114610332578063715018a6146103605780638da5cb5b1461037557806395d89b4114610393578063a22cb465146103a857600080fd5b806323b872dd1161012357806323b872dd1461023757806325fd3b5a1461025757806342842e0e1461026a57806348502eaa1461028a5780635463612e14610292578063572b6c05146102c557600080fd5b806301ffc9a71461016b57806306fdde03146101a0578063081812fc146101c2578063095ea7b3146101fa578063182ec7c01461021c5780631f102dd214610224575b600080fd5b34801561017757600080fd5b5061018b610186366004611ce7565b6104bb565b60405190151581526020015b60405180910390f35b3480156101ac57600080fd5b506101b561050d565b6040516101979190611d5c565b3480156101ce57600080fd5b506101e26101dd366004611d6f565b61059f565b6040516001600160a01b039091168152602001610197565b34801561020657600080fd5b5061021a610215366004611d9d565b6105c6565b005b61021a6106f3565b61021a610232366004611d6f565b610753565b34801561024357600080fd5b5061021a610252366004611dc9565b6109dc565b61021a610265366004611d9d565b610a14565b34801561027657600080fd5b5061021a610285366004611dc9565b610c82565b61021a610c9d565b34801561029e57600080fd5b506102b26102ad366004611d9d565b610d0f565b6040516101979796959493929190611e42565b3480156102d157600080fd5b5061018b6102e0366004611e8e565b7f00000000000000000000000000000000000000000000000000000000000000006001600160a01b0390811691161490565b34801561031e57600080fd5b506101e261032d366004611d6f565b610d79565b34801561033e57600080fd5b5061035261034d366004611e8e565b610dd9565b604051908152602001610197565b34801561036c57600080fd5b5061021a610e5f565b34801561038157600080fd5b506000546001600160a01b03166101e2565b34801561039f57600080fd5b506101b5610e73565b3480156103b457600080fd5b5061021a6103c3366004611eab565b610e82565b3480156103d457600080fd5b5061021a6103e3366004611eff565b610e98565b3480156103f457600080fd5b506101b5610403366004611d6f565b610ed7565b61021a610416366004611d6f565b610f4b565b34801561042757600080fd5b5061018b610436366004611fdf565b6001600160a01b03918216600090815260066020908152604080832093909416825291909152205460ff1690565b34801561047057600080fd5b506102b261047f366004611d9d565b611334565b34801561049057600080fd5b506008546103529081565b3480156104a757600080fd5b5061021a6104b6366004611e8e565b611350565b60006001600160e01b031982166380ac58cd60e01b14806104ec57506001600160e01b03198216635b5e139f60e01b145b8061050757506301ffc9a760e01b6001600160e01b03198316145b92915050565b60606001805461051c9061200d565b80601f01602080910402602001604051908101604052809291908181526020018280546105489061200d565b80156105955780601f1061056a57610100808354040283529160200191610595565b820191906000526020600020905b81548152906001019060200180831161057857829003601f168201915b5050505050905090565b60006105aa82611414565b506000908152600560205260409020546001600160a01b031690565b60006105d182610d79565b9050806001600160a01b0316836001600160a01b031614156106445760405162461bcd60e51b815260206004820152602160248201527f4552433732313a20617070726f76616c20746f2063757272656e74206f776e656044820152603960f91b60648201526084015b60405180910390fd5b806001600160a01b0316610656611473565b6001600160a01b03161480610672575061067281610436611473565b6106e45760405162461bcd60e51b815260206004820152603e60248201527f4552433732313a20617070726f76652063616c6c6572206973206e6f7420746f60448201527f6b656e206f776e6572206e6f7220617070726f76656420666f7220616c6c0000606482015260840161063b565b6106ee838361147d565b505050565b34670de0b6b3a76400001461071b57604051633bdf630f60e11b815260040160405180910390fd5b3460086000016000828254610730919061205e565b9091555050600754610746600780546001019055565b61075033826114eb565b50565b33600090815260096020526040812080548390811061077457610774612076565b60009182526020918290206040805160e08101825260079093029091018054835260018101546001600160a01b0390811694840194909452600280820154909416918301919091526003810154606083015260048101546080830152600581015460a083015260068101549192909160c084019160ff909116908111156107fd576107fd611e0a565b600281111561080e5761080e611e0a565b90525090506000808260c00151600281111561082c5761082c611e0a565b602084015191141591506001600160a01b03163314156000828061084d5750815b9050801561086e5760405163de175b0760e01b815260040160405180910390fd5b6040808501516001600160a01b03166000908152600a6020522060808501518154600192919081106108a2576108a2612076565b60009182526020909120600660079092020101805460ff191660018360028111156108cf576108cf611e0a565b0217905550336000908152600960205260409020805460019190879081106108f9576108f9612076565b60009182526020909120600660079092020101805460ff1916600183600281111561092657610926611e0a565b021790555083604051610939919061208c565b6040519081900381209033907f5880da345c34cdf74afed0aaace4262bd71cc2322ef6716dcdd2d54423d8c08990600090a3835160405160009133918381818185875af1925050503d80600081146109ad576040519150601f19603f3d011682016040523d82523d6000602084013e6109b2565b606091505b50509050806109d457604051633bdf630f60e11b815260040160405180910390fd5b505050505050565b6109ed6109e7611473565b82611505565b610a095760405162461bcd60e51b815260040161063b906120ea565b6106ee838383611584565b34158015610a3557604051630bc27b7f60e31b815260040160405180910390fd5b610a3d611c72565b6000610a4833610dd9565b1115610a52573481525b610a5b33610dd9565b610a9957610a6a60c83461214e565b610a749034612162565b8152610a8160c83461214e565b60088054600090610a9390849061205e565b90915550505b610aa1611473565b6001600160a01b03908116602083810191825286831660408086018281523360009081526009808652838220805460608b01818152968452600a88529483205460808b0190815260a08b018d815260c08c0185815293895260018088018455928552979093208a5160079096020194855596518488018054918a166001600160a01b031992831617905592516002808601805492909a1691909416179097559251600383015591516004820155915160058301559251600682018054869593949293919260ff19909116918490811115610b7d57610b7d611e0a565b021790555050506001600160a01b038085166000908152600a602090815260408083208054600181810183559185529383902086516007909502019384559185015183830180549186166001600160a01b03199283161790559085015160028085018054929096169190921617909355606084015160038301556080840151600483015560a0840151600583015560c084015160068301805486959293919260ff1990911691908490811115610c3557610c35611e0a565b0217905550505080604051610c4a919061208c565b6040519081900381209033907f8fc8266c7de47d269c6bab1dd3aecee9c41737bbc98cecfdcacc5dbf3abc328a90600090a350505050565b6106ee83838360405180602001604052806000815250610e98565b610ca5611720565b60085460405160009133918381818185875af1925050503d8060008114610ce8576040519150601f19603f3d011682016040523d82523d6000602084013e610ced565b606091505b505090508061075057604051633bdf630f60e11b815260040160405180910390fd5b600a6020528160005260406000208181548110610d2b57600080fd5b600091825260209091206007909102018054600182015460028301546003840154600485015460058601546006909601549497506001600160a01b0393841696509290911693909260ff1687565b6000818152600360205260408120546001600160a01b0316806105075760405162461bcd60e51b8152602060048201526018602482015277115490cdcc8c4e881a5b9d985b1a59081d1bdad95b88125160421b604482015260640161063b565b60006001600160a01b038216610e435760405162461bcd60e51b815260206004820152602960248201527f4552433732313a2061646472657373207a65726f206973206e6f7420612076616044820152683634b21037bbb732b960b91b606482015260840161063b565b506001600160a01b031660009081526004602052604090205490565b610e67611720565b610e716000611799565b565b60606002805461051c9061200d565b610e94610e8d611473565b83836117e9565b5050565b610ea9610ea3611473565b83611505565b610ec55760405162461bcd60e51b815260040161063b906120ea565b610ed1848484846118b8565b50505050565b6060610ee282611414565b6000610ef960408051602081019091526000815290565b90506000815111610f195760405180602001604052806000815250610f44565b80610f23846118eb565b604051602001610f34929190612179565b6040516020818303038152906040525b9392505050565b336000908152600a6020908152604080832080548251818502810185019093528083529192909190849084015b8282101561102c5760008481526020908190206040805160e081018252600786029092018054835260018101546001600160a01b0390811694840194909452600280820154909416918301919091526003810154606083015260048101546080830152600581015460a083015260068101549192909160c084019160ff9091169081111561100857611008611e0a565b600281111561101957611019611e0a565b8152505081526020019060010190610f78565b505050509050805160001415611055576040516318be8db160e11b815260040160405180910390fd5b60005b81518110156106ee578282828151811061107457611074612076565b602002602001015160a0015114156113095760008083838151811061109b5761109b612076565b602002602001015160c0015160028111156110b8576110b8611e0a565b141590506000336001600160a01b03168484815181106110da576110da612076565b6020026020010151604001516001600160a01b031614159050600082806110fe5750815b9050801561111f5760405163de175b0760e01b815260040160405180910390fd5b60026009600087878151811061113757611137612076565b6020026020010151602001516001600160a01b03166001600160a01b0316815260200190815260200160002086868151811061117557611175612076565b6020026020010151606001518154811061119157611191612076565b60009182526020909120600660079092020101805460ff191660018360028111156111be576111be611e0a565b0217905550336000908152600a60205260409020805460029190869081106111e8576111e8612076565b60009182526020909120600660079092020101805460ff1916600183600281111561121557611215611e0a565b021790555084848151811061122c5761122c612076565b6020026020010151604051611241919061208c565b6040519081900381209033907f5a6816ad4185f0e8e6023f3b269deb7dc6458dfc7c003f19a888afef63a50b8590600090a36000336001600160a01b031686868151811061129157611291612076565b602090810291909101015151604051600081818185875af1925050503d80600081146112d9576040519150601f19603f3d011682016040523d82523d6000602084013e6112de565b606091505b505090508061130057604051633bdf630f60e11b815260040160405180910390fd5b50505050611322565b604051633f4ba89360e11b815260040160405180910390fd5b8061132c816121a8565b915050611058565b60096020528160005260406000208181548110610d2b57600080fd5b611358611720565b6001600160a01b0381166113bd5760405162461bcd60e51b815260206004820152602660248201527f4f776e61626c653a206e6577206f776e657220697320746865207a65726f206160448201526564647265737360d01b606482015260840161063b565b61075081611799565b60007f00000000000000000000000000000000000000000000000000000000000000006001600160a01b0316331415611406575060131936013560601c90565b503390565b905090565b3390565b6000818152600360205260409020546001600160a01b03166107505760405162461bcd60e51b8152602060048201526018602482015277115490cdcc8c4e881a5b9d985b1a59081d1bdad95b88125160421b604482015260640161063b565b600061140b6113c6565b600081815260056020526040902080546001600160a01b0319166001600160a01b03841690811790915581906114b282610d79565b6001600160a01b03167f8c5be1e5ebec7d5bd14f71427d1e84f3dd0314c0f7b2291e5b200ac8c7c3b92560405160405180910390a45050565b610e948282604051806020016040528060008152506119e9565b60008061151183610d79565b9050806001600160a01b0316846001600160a01b0316148061155857506001600160a01b0380821660009081526006602090815260408083209388168352929052205460ff165b8061157c5750836001600160a01b03166115718461059f565b6001600160a01b0316145b949350505050565b826001600160a01b031661159782610d79565b6001600160a01b0316146115fb5760405162461bcd60e51b815260206004820152602560248201527f4552433732313a207472616e736665722066726f6d20696e636f72726563742060448201526437bbb732b960d91b606482015260840161063b565b6001600160a01b03821661165d5760405162461bcd60e51b8152602060048201526024808201527f4552433732313a207472616e7366657220746f20746865207a65726f206164646044820152637265737360e01b606482015260840161063b565b61166860008261147d565b6001600160a01b0383166000908152600460205260408120805460019290611691908490612162565b90915550506001600160a01b03821660009081526004602052604081208054600192906116bf90849061205e565b909155505060008181526003602052604080822080546001600160a01b0319166001600160a01b0386811691821790925591518493918716917fddf252ad1be2c89b69c2b068fc378daa952ba7f163c4a11628f55a4df523b3ef91a4505050565b611728611473565b6001600160a01b03166117436000546001600160a01b031690565b6001600160a01b031614610e715760405162461bcd60e51b815260206004820181905260248201527f4f776e61626c653a2063616c6c6572206973206e6f7420746865206f776e6572604482015260640161063b565b600080546001600160a01b038381166001600160a01b0319831681178455604051919092169283917f8be0079c531659141344cd1fd0a4f28419497f9722a3daafe3b4186f6b6457e09190a35050565b816001600160a01b0316836001600160a01b0316141561184b5760405162461bcd60e51b815260206004820152601960248201527f4552433732313a20617070726f766520746f2063616c6c657200000000000000604482015260640161063b565b6001600160a01b03838116600081815260066020908152604080832094871680845294825291829020805460ff191686151590811790915591519182527f17307eab39ab6107e8899845ad3d59bd9653f200f220920489ca2b5937696c31910160405180910390a3505050565b6118c3848484611584565b6118cf84848484611a1c565b610ed15760405162461bcd60e51b815260040161063b906121c3565b60608161190f5750506040805180820190915260018152600360fc1b602082015290565b8160005b81156119395780611923816121a8565b91506119329050600a8361214e565b9150611913565b60008167ffffffffffffffff81111561195457611954611ee9565b6040519080825280601f01601f19166020018201604052801561197e576020820181803683370190505b5090505b841561157c57611993600183612162565b91506119a0600a86612215565b6119ab90603061205e565b60f81b8183815181106119c0576119c0612076565b60200101906001600160f81b031916908160001a9053506119e2600a8661214e565b9450611982565b6119f38383611b30565b611a006000848484611a1c565b6106ee5760405162461bcd60e51b815260040161063b906121c3565b60006001600160a01b0384163b15611b2557836001600160a01b031663150b7a02611a45611473565b8786866040518563ffffffff1660e01b8152600401611a679493929190612229565b602060405180830381600087803b158015611a8157600080fd5b505af1925050508015611ab1575060408051601f3d908101601f19168201909252611aae91810190612266565b60015b611b0b573d808015611adf576040519150601f19603f3d011682016040523d82523d6000602084013e611ae4565b606091505b508051611b035760405162461bcd60e51b815260040161063b906121c3565b805181602001fd5b6001600160e01b031916630a85bd0160e11b14905061157c565b506001949350505050565b6001600160a01b038216611b865760405162461bcd60e51b815260206004820181905260248201527f4552433732313a206d696e7420746f20746865207a65726f2061646472657373604482015260640161063b565b6000818152600360205260409020546001600160a01b031615611beb5760405162461bcd60e51b815260206004820152601c60248201527f4552433732313a20746f6b656e20616c7265616479206d696e74656400000000604482015260640161063b565b6001600160a01b0382166000908152600460205260408120805460019290611c1490849061205e565b909155505060008181526003602052604080822080546001600160a01b0319166001600160a01b03861690811790915590518392907fddf252ad1be2c89b69c2b068fc378daa952ba7f163c4a11628f55a4df523b3ef908290a45050565b6040518060e001604052806000815260200160006001600160a01b0316815260200160006001600160a01b0316815260200160008152602001600081526020016000815260200160006002811115611ccc57611ccc611e0a565b905290565b6001600160e01b03198116811461075057600080fd5b600060208284031215611cf957600080fd5b8135610f4481611cd1565b60005b83811015611d1f578181015183820152602001611d07565b83811115610ed15750506000910152565b60008151808452611d48816020860160208601611d04565b601f01601f19169290920160200192915050565b602081526000610f446020830184611d30565b600060208284031215611d8157600080fd5b5035919050565b6001600160a01b038116811461075057600080fd5b60008060408385031215611db057600080fd5b8235611dbb81611d88565b946020939093013593505050565b600080600060608486031215611dde57600080fd5b8335611de981611d88565b92506020840135611df981611d88565b929592945050506040919091013590565b634e487b7160e01b600052602160045260246000fd5b60038110611e3e57634e487b7160e01b600052602160045260246000fd5b9052565b8781526001600160a01b03878116602083015286166040820152606081018590526080810184905260a0810183905260e08101611e8260c0830184611e20565b98975050505050505050565b600060208284031215611ea057600080fd5b8135610f4481611d88565b60008060408385031215611ebe57600080fd5b8235611ec981611d88565b915060208301358015158114611ede57600080fd5b809150509250929050565b634e487b7160e01b600052604160045260246000fd5b60008060008060808587031215611f1557600080fd5b8435611f2081611d88565b93506020850135611f3081611d88565b925060408501359150606085013567ffffffffffffffff80821115611f5457600080fd5b818701915087601f830112611f6857600080fd5b813581811115611f7a57611f7a611ee9565b604051601f8201601f19908116603f01168101908382118183101715611fa257611fa2611ee9565b816040528281528a6020848701011115611fbb57600080fd5b82602086016020830137600060208483010152809550505050505092959194509250565b60008060408385031215611ff257600080fd5b8235611ffd81611d88565b91506020830135611ede81611d88565b600181811c9082168061202157607f821691505b6020821081141561204257634e487b7160e01b600052602260045260246000fd5b50919050565b634e487b7160e01b600052601160045260246000fd5b6000821982111561207157612071612048565b500190565b634e487b7160e01b600052603260045260246000fd5b81518152600060018060a01b0380602085015116602084015280604085015116604084015250606083015160608301526080830151608083015260a083015160a08301526120e160c0830160c0850151611e20565b5060e001919050565b6020808252602e908201527f4552433732313a2063616c6c6572206973206e6f7420746f6b656e206f776e6560408201526d1c881b9bdc88185c1c1c9bdd995960921b606082015260800190565b634e487b7160e01b600052601260045260246000fd5b60008261215d5761215d612138565b500490565b60008282101561217457612174612048565b500390565b6000835161218b818460208801611d04565b83519083019061219f818360208801611d04565b01949350505050565b60006000198214156121bc576121bc612048565b5060010190565b60208082526032908201527f4552433732313a207472616e7366657220746f206e6f6e20455243373231526560408201527131b2b4bb32b91034b6b83632b6b2b73a32b960711b606082015260800190565b60008261222457612224612138565b500690565b6001600160a01b038581168252841660208201526040810183905260806060820181905260009061225c90830184611d30565b9695505050505050565b60006020828403121561227857600080fd5b8151610f4481611cd156fea2646970667358221220cfe3137d8161749524b61ff751fb196ad8ef443e70c69b41d0edb7ac02db954f64736f6c63430008090033",
  "linkReferences": {},
  "deployedLinkReferences": {}
}