{
  "_format": "hh-sol-artifact-1",
  "contractName": "PayLock",
  "sourceName": "contracts/PayFactory.sol",
  "abi": [
    {
      "inputs": [
        {
          "internalType": "contract MinimalForwarder",
          "name": "forwarder",
          "type": "address"
        },
        {
          "internalType": "address",
          "name": "AggregatorNative",
          "type": "address"
        },
        {
          "internalType": "address",
          "name": "AggregatorUSDC",
          "type": "address"
        },
        {
          "internalType": "address",
          "name": "AggregatorUSDT",
          "type": "address"
        },
        {
          "internalType": "address",
          "name": "AggregatorDAI",
          "type": "address"
        },
        {
          "internalType": "address",
          "name": "AggregatordBTC",
          "type": "address"
        },
        {
          "internalType": "address",
          "name": "USDCAddress",
          "type": "address"
        },
        {
          "internalType": "address",
          "name": "USDTAddress",
          "type": "address"
        },
        {
          "internalType": "address",
          "name": "DAIAddress",
          "type": "address"
        },
        {
          "internalType": "address",
          "name": "WBTCAddress",
          "type": "address"
        }
      ],
      "stateMutability": "nonpayable",
      "type": "constructor"
    },
    {
      "inputs": [],
      "name": "__AmountEmpty",
      "type": "error"
    },
    {
      "inputs": [],
      "name": "__NoReedemablePayments",
      "type": "error"
    },
    {
      "inputs": [],
      "name": "__NotSenderOrNotActive",
      "type": "error"
    },
    {
      "inputs": [],
      "name": "__TransferFailed",
      "type": "error"
    },
    {
      "anonymous": false,
      "inputs": [
        {
          "indexed": true,
          "internalType": "address",
          "name": "previousOwner",
          "type": "address"
        },
        {
          "indexed": true,
          "internalType": "address",
          "name": "newOwner",
          "type": "address"
        }
      ],
      "name": "OwnershipTransferred",
      "type": "event"
    },
    {
      "anonymous": false,
      "inputs": [
        {
          "indexed": true,
          "internalType": "address",
          "name": "sender",
          "type": "address"
        },
        {
          "components": [
            {
              "internalType": "uint256",
              "name": "value",
              "type": "uint256"
            },
            {
              "internalType": "address payable",
              "name": "issuer",
              "type": "address"
            },
            {
              "internalType": "address payable",
              "name": "receiver",
              "type": "address"
            },
            {
              "internalType": "uint256",
              "name": "issuerId",
              "type": "uint256"
            },
            {
              "internalType": "uint256",
              "name": "receiverId",
              "type": "uint256"
            },
            {
              "internalType": "uint256",
              "name": "code",
              "type": "uint256"
            },
            {
              "internalType": "address",
              "name": "tokenAddress",
              "type": "address"
            },
            {
              "internalType": "enum PayLock.PaymentState",
              "name": "state",
              "type": "uint8"
            }
          ],
          "indexed": true,
          "internalType": "struct PayLock.payment",
          "name": "receipt",
          "type": "tuple"
        }
      ],
      "name": "PaymentIssued",
      "type": "event"
    },
    {
      "anonymous": false,
      "inputs": [
        {
          "indexed": true,
          "internalType": "address",
          "name": "receiver",
          "type": "address"
        },
        {
          "components": [
            {
              "internalType": "uint256",
              "name": "value",
              "type": "uint256"
            },
            {
              "internalType": "address payable",
              "name": "issuer",
              "type": "address"
            },
            {
              "internalType": "address payable",
              "name": "receiver",
              "type": "address"
            },
            {
              "internalType": "uint256",
              "name": "issuerId",
              "type": "uint256"
            },
            {
              "internalType": "uint256",
              "name": "receiverId",
              "type": "uint256"
            },
            {
              "internalType": "uint256",
              "name": "code",
              "type": "uint256"
            },
            {
              "internalType": "address",
              "name": "tokenAddress",
              "type": "address"
            },
            {
              "internalType": "enum PayLock.PaymentState",
              "name": "state",
              "type": "uint8"
            }
          ],
          "indexed": true,
          "internalType": "struct PayLock.payment",
          "name": "receipt",
          "type": "tuple"
        }
      ],
      "name": "PaymentReedemed",
      "type": "event"
    },
    {
      "anonymous": false,
      "inputs": [
        {
          "indexed": true,
          "internalType": "address",
          "name": "sender",
          "type": "address"
        },
        {
          "components": [
            {
              "internalType": "uint256",
              "name": "value",
              "type": "uint256"
            },
            {
              "internalType": "address payable",
              "name": "issuer",
              "type": "address"
            },
            {
              "internalType": "address payable",
              "name": "receiver",
              "type": "address"
            },
            {
              "internalType": "uint256",
              "name": "issuerId",
              "type": "uint256"
            },
            {
              "internalType": "uint256",
              "name": "receiverId",
              "type": "uint256"
            },
            {
              "internalType": "uint256",
              "name": "code",
              "type": "uint256"
            },
            {
              "internalType": "address",
              "name": "tokenAddress",
              "type": "address"
            },
            {
              "internalType": "enum PayLock.PaymentState",
              "name": "state",
              "type": "uint8"
            }
          ],
          "indexed": true,
          "internalType": "struct PayLock.payment",
          "name": "receipt",
          "type": "tuple"
        }
      ],
      "name": "PaymentWithdrawn",
      "type": "event"
    },
    {
      "inputs": [
        {
          "internalType": "address payable",
          "name": "_receiver",
          "type": "address"
        },
        {
          "internalType": "uint256",
          "name": "_code",
          "type": "uint256"
        },
        {
          "internalType": "address",
          "name": "_tokenAddress",
          "type": "address"
        },
        {
          "internalType": "uint256",
          "name": "_tokenAmount",
          "type": "uint256"
        }
      ],
      "name": "CreatePayement",
      "outputs": [],
      "stateMutability": "payable",
      "type": "function"
    },
    {
      "inputs": [],
      "name": "MAXIMUM_FEE_USD",
      "outputs": [
        {
          "internalType": "uint256",
          "name": "",
          "type": "uint256"
        }
      ],
      "stateMutability": "view",
      "type": "function"
    },
    {
      "inputs": [
        {
          "internalType": "uint256",
          "name": "_code",
          "type": "uint256"
        },
        {
          "internalType": "uint256",
          "name": "_receiverId",
          "type": "uint256"
        }
      ],
      "name": "RedeemPayment",
      "outputs": [],
      "stateMutability": "payable",
      "type": "function"
    },
    {
      "inputs": [
        {
          "internalType": "address",
          "name": "user",
          "type": "address"
        }
      ],
      "name": "getIssuedPayments",
      "outputs": [
        {
          "components": [
            {
              "internalType": "uint256",
              "name": "value",
              "type": "uint256"
            },
            {
              "internalType": "address payable",
              "name": "issuer",
              "type": "address"
            },
            {
              "internalType": "address payable",
              "name": "receiver",
              "type": "address"
            },
            {
              "internalType": "uint256",
              "name": "issuerId",
              "type": "uint256"
            },
            {
              "internalType": "uint256",
              "name": "receiverId",
              "type": "uint256"
            },
            {
              "internalType": "uint256",
              "name": "code",
              "type": "uint256"
            },
            {
              "internalType": "address",
              "name": "tokenAddress",
              "type": "address"
            },
            {
              "internalType": "enum PayLock.PaymentState",
              "name": "state",
              "type": "uint8"
            }
          ],
          "internalType": "struct PayLock.payment[]",
          "name": "",
          "type": "tuple[]"
        }
      ],
      "stateMutability": "view",
      "type": "function"
    },
    {
      "inputs": [
        {
          "internalType": "address",
          "name": "user",
          "type": "address"
        }
      ],
      "name": "getRedeemablePayments",
      "outputs": [
        {
          "components": [
            {
              "internalType": "uint256",
              "name": "value",
              "type": "uint256"
            },
            {
              "internalType": "address payable",
              "name": "issuer",
              "type": "address"
            },
            {
              "internalType": "address payable",
              "name": "receiver",
              "type": "address"
            },
            {
              "internalType": "uint256",
              "name": "issuerId",
              "type": "uint256"
            },
            {
              "internalType": "uint256",
              "name": "receiverId",
              "type": "uint256"
            },
            {
              "internalType": "uint256",
              "name": "code",
              "type": "uint256"
            },
            {
              "internalType": "address",
              "name": "tokenAddress",
              "type": "address"
            },
            {
              "internalType": "enum PayLock.PaymentState",
              "name": "state",
              "type": "uint8"
            }
          ],
          "internalType": "struct PayLock.payment[]",
          "name": "",
          "type": "tuple[]"
        }
      ],
      "stateMutability": "view",
      "type": "function"
    },
    {
      "inputs": [
        {
          "internalType": "address",
          "name": "forwarder",
          "type": "address"
        }
      ],
      "name": "isTrustedForwarder",
      "outputs": [
        {
          "internalType": "bool",
          "name": "",
          "type": "bool"
        }
      ],
      "stateMutability": "view",
      "type": "function"
    },
    {
      "inputs": [],
      "name": "owner",
      "outputs": [
        {
          "internalType": "address",
          "name": "",
          "type": "address"
        }
      ],
      "stateMutability": "view",
      "type": "function"
    },
    {
      "inputs": [],
      "name": "renounceOwnership",
      "outputs": [],
      "stateMutability": "nonpayable",
      "type": "function"
    },
    {
      "inputs": [],
      "name": "s_PaySafe",
      "outputs": [
        {
          "internalType": "uint256",
          "name": "",
          "type": "uint256"
        }
      ],
      "stateMutability": "view",
      "type": "function"
    },
    {
      "inputs": [
        {
          "internalType": "address",
          "name": "",
          "type": "address"
        }
      ],
      "name": "s_PaySafeTokenBalances",
      "outputs": [
        {
          "internalType": "uint256",
          "name": "",
          "type": "uint256"
        }
      ],
      "stateMutability": "view",
      "type": "function"
    },
    {
      "inputs": [
        {
          "internalType": "address",
          "name": "",
          "type": "address"
        },
        {
          "internalType": "uint256",
          "name": "",
          "type": "uint256"
        }
      ],
      "name": "s_issuedPayments",
      "outputs": [
        {
          "internalType": "uint256",
          "name": "value",
          "type": "uint256"
        },
        {
          "internalType": "address payable",
          "name": "issuer",
          "type": "address"
        },
        {
          "internalType": "address payable",
          "name": "receiver",
          "type": "address"
        },
        {
          "internalType": "uint256",
          "name": "issuerId",
          "type": "uint256"
        },
        {
          "internalType": "uint256",
          "name": "receiverId",
          "type": "uint256"
        },
        {
          "internalType": "uint256",
          "name": "code",
          "type": "uint256"
        },
        {
          "internalType": "address",
          "name": "tokenAddress",
          "type": "address"
        },
        {
          "internalType": "enum PayLock.PaymentState",
          "name": "state",
          "type": "uint8"
        }
      ],
      "stateMutability": "view",
      "type": "function"
    },
    {
      "inputs": [
        {
          "internalType": "address",
          "name": "",
          "type": "address"
        },
        {
          "internalType": "uint256",
          "name": "",
          "type": "uint256"
        }
      ],
      "name": "s_redeemablePayments",
      "outputs": [
        {
          "internalType": "uint256",
          "name": "value",
          "type": "uint256"
        },
        {
          "internalType": "address payable",
          "name": "issuer",
          "type": "address"
        },
        {
          "internalType": "address payable",
          "name": "receiver",
          "type": "address"
        },
        {
          "internalType": "uint256",
          "name": "issuerId",
          "type": "uint256"
        },
        {
          "internalType": "uint256",
          "name": "receiverId",
          "type": "uint256"
        },
        {
          "internalType": "uint256",
          "name": "code",
          "type": "uint256"
        },
        {
          "internalType": "address",
          "name": "tokenAddress",
          "type": "address"
        },
        {
          "internalType": "enum PayLock.PaymentState",
          "name": "state",
          "type": "uint8"
        }
      ],
      "stateMutability": "view",
      "type": "function"
    },
    {
      "inputs": [
        {
          "internalType": "address",
          "name": "newOwner",
          "type": "address"
        }
      ],
      "name": "transferOwnership",
      "outputs": [],
      "stateMutability": "nonpayable",
      "type": "function"
    },
    {
      "inputs": [
        {
          "internalType": "uint256",
          "name": "_code",
          "type": "uint256"
        },
        {
          "internalType": "uint256",
          "name": "_receiverId",
          "type": "uint256"
        }
      ],
      "name": "withdrawIssuerPayment",
      "outputs": [],
      "stateMutability": "payable",
      "type": "function"
    },
    {
      "inputs": [
        {
          "internalType": "address",
          "name": "_tokenAddress",
          "type": "address"
        }
      ],
      "name": "withdrawPaySafeBalance",
      "outputs": [],
      "stateMutability": "payable",
      "type": "function"
    },
    {
      "inputs": [],
      "name": "withdrawPaySafeBalance",
      "outputs": [],
      "stateMutability": "payable",
      "type": "function"
    }
  ],
  "bytecode": "0x6101e06040523480156200001257600080fd5b506040516200397138038062003971833981016040819052620000359162000163565b6001600160a01b038a166080526200005662000050620000a1565b620000bd565b6001600160a01b03998a1660a05297891660c05295881660e052938716610100529186166101205285166101405284166101605283166101805282166101a052166101c05262000251565b6000620000b86200010d60201b62002e6b1760201c565b905090565b600080546001600160a01b038381166001600160a01b0319831681178455604051919092169283917f8be0079c531659141344cd1fd0a4f28419497f9722a3daafe3b4186f6b6457e09190a35050565b6080516000906001600160a01b031633141562000131575060131936013560601c90565b620000b86200014660201b62002eb51760201c565b3390565b6001600160a01b03811681146200016057600080fd5b50565b6000806000806000806000806000806101408b8d0312156200018457600080fd5b8a5162000191816200014a565b60208c0151909a50620001a4816200014a565b60408c0151909950620001b7816200014a565b60608c0151909850620001ca816200014a565b60808c0151909750620001dd816200014a565b60a08c0151909650620001f0816200014a565b60c08c015190955062000203816200014a565b60e08c015190945062000216816200014a565b6101008c01519093506200022a816200014a565b6101208c01519092506200023e816200014a565b809150509295989b9194979a5092959850565b60805160a05160c05160e05161010051610120516101405161016051610180516101a0516101c0516134ff6200047260003960008181610a1d01528181610a7601528181611385015281816113de015281816118cc01528181611906015281816119e1015281816127c001528181612812015281816129a10152612a4b01526000818161098d015281816109e6015281816112f50152818161134e01528181611783015281816117bd01528181611898015281816124f501528181612547015281816126d601526127800152600081816108fd0152818161095601528181611265015281816112be0152818161163a015281816116740152818161174f0152818161222a0152818161227c0152818161240b01526124b50152600081816107b10152818161080a0152818161111901528181611172015281816114f10152818161152b0152818161160601528181611f4c01528181611f9e0152818161213401526121de0152600081816128cc0152818161290a015281816129340152818161297301526129f50152600081816126010152818161263f01528181612669015281816126a8015261272a015260008181612336015281816123740152818161239e015281816123dd015261245f01526000818161205b0152818161209d015281816120c7015281816121060152612188015260008181611b9d01528181611be20152611c21015260005050600081816101c20152612e6f01526134ff6000f3fe6080604052600436106100f35760003560e01c8063774dee891161008a578063ec09fd0511610059578063ec09fd051461029d578063ee23b65a146102ca578063f1fdbc42146102ea578063f2fde38b1461030057600080fd5b8063774dee89146102175780638da5cb5b1461024257806398df6d4b1461026a578063c3c0045f1461027d57600080fd5b806348502eaa116100c657806348502eaa146101695780635463612e14610171578063572b6c05146101a5578063715018a61461020257600080fd5b806315290c1c146100f8578063153b11431461010d578063235caa1a1461014357806342cdef4114610156575b600080fd5b61010b61010636600461306e565b610320565b005b34801561011957600080fd5b5061012d6101283660046130a5565b610b85565b60405161013a91906130fa565b60405180910390f35b61010b61015136600461306e565b610c88565b61010b6101643660046130a5565b6114e7565b61010b611a14565b34801561017d57600080fd5b5061019161018c3660046131a3565b611a8e565b60405161013a9897969594939291906131cf565b3480156101b157600080fd5b506101f26101c03660046130a5565b7f00000000000000000000000000000000000000000000000000000000000000006001600160a01b0390811691161490565b604051901515815260200161013a565b34801561020e57600080fd5b5061010b611b06565b34801561022357600080fd5b506102346802b5e3af16b188000081565b60405190815260200161013a565b34801561024e57600080fd5b506000546040516001600160a01b03909116815260200161013a565b61010b610278366004613225565b611b1a565b34801561028957600080fd5b5061012d6102983660046130a5565b612cdc565b3480156102a957600080fd5b506102346102b83660046130a5565b60026020526000908152604090205481565b3480156102d657600080fd5b506101916102e53660046131a3565b612dd4565b3480156102f657600080fd5b5061023460015481565b34801561030c57600080fd5b5061010b61031b3660046130a5565b612df0565b60006004600061032e612eb9565b6001600160a01b03166001600160a01b03168152602001908152602001600020805480602002602001604051908101604052809291908181526020016000905b8282101561042e5760008481526020908190206040805161010081018252600786029092018054835260018101546001600160a01b03908116948401949094526002808201548516928401929092526003810154606084015260048101546080840152600581015460a0840152600681015493841660c0840152919260e0840191600160a01b90910460ff169081111561040a5761040a6130c2565b600281111561041b5761041b6130c2565b815250508152602001906001019061036e565b505050509050805160001415610457576040516318be8db160e11b815260040160405180910390fd5b60005b8151811015610b7f57838282815181106104765761047661326d565b602002602001015160a001511480156104ab57508282828151811061049d5761049d61326d565b602002602001015160800151145b15610b6d576000808383815181106104c5576104c561326d565b602002602001015160e0015160028111156104e2576104e26130c2565b1415905060006104f0612eb9565b6001600160a01b031684848151811061050b5761050b61326d565b6020026020010151604001516001600160a01b0316141590506000828061052f5750815b905080156105505760405163de175b0760e01b815260040160405180910390fd5b6002600360008787815181106105685761056861326d565b6020026020010151602001516001600160a01b03166001600160a01b031681526020019081526020016000208686815181106105a6576105a661326d565b602002602001015160600151815481106105c2576105c261326d565b60009182526020909120600660079092020101805460ff60a01b1916600160a01b8360028111156105f5576105f56130c2565b0217905550600260046000610608612eb9565b6001600160a01b03166001600160a01b0316815260200190815260200160002085815481106106395761063961326d565b60009182526020909120600660079092020101805460ff60a01b1916600160a01b83600281111561066c5761066c6130c2565b02179055508484815181106106835761068361326d565b60200260200101516040516106989190613283565b60405180910390206106a8612eb9565b6001600160a01b03167f412146e6c5c0d9fa5d624f14b4c55723679f8838083b2b4eb8875cab8d78bd1c60405160405180910390a360006001600160a01b03168585815181106106fa576106fa61326d565b602002602001015160c001516001600160a01b031614156107af57600061071f612eb9565b6001600160a01b031686868151811061073a5761073a61326d565b602090810291909101015151604051600081818185875af1925050503d8060008114610782576040519150601f19603f3d011682016040523d82523d6000602084013e610787565b606091505b50509050806107a957604051633bdf630f60e11b815260040160405180910390fd5b50610b69565b7f00000000000000000000000000000000000000000000000000000000000000006001600160a01b03168585815181106107eb576107eb61326d565b602002602001015160c001516001600160a01b031614156108fb5760007f00000000000000000000000000000000000000000000000000000000000000006001600160a01b031663a9059cbb61083f612eb9565b8888815181106108515761085161326d565b6020908102919091010151516040516001600160e01b031960e085901b1681526001600160a01b0390921660048301526024820152604401602060405180830381600087803b1580156108a357600080fd5b505af11580156108b7573d6000803e3d6000fd5b505050506040513d601f19601f820116820180604052508101906108db91906132ee565b9050806107a957604051633bdf630f60e11b815260040160405180910390fd5b7f00000000000000000000000000000000000000000000000000000000000000006001600160a01b03168585815181106109375761093761326d565b602002602001015160c001516001600160a01b0316141561098b5760007f00000000000000000000000000000000000000000000000000000000000000006001600160a01b031663a9059cbb61083f612eb9565b7f00000000000000000000000000000000000000000000000000000000000000006001600160a01b03168585815181106109c7576109c761326d565b602002602001015160c001516001600160a01b03161415610a1b5760007f00000000000000000000000000000000000000000000000000000000000000006001600160a01b031663a9059cbb61083f612eb9565b7f00000000000000000000000000000000000000000000000000000000000000006001600160a01b0316858581518110610a5757610a5761326d565b602002602001015160c001516001600160a01b03161415610b695760007f00000000000000000000000000000000000000000000000000000000000000006001600160a01b031663a9059cbb610aab612eb9565b888881518110610abd57610abd61326d565b6020908102919091010151516040516001600160e01b031960e085901b1681526001600160a01b0390921660048301526024820152604401602060405180830381600087803b158015610b0f57600080fd5b505af1158015610b23573d6000803e3d6000fd5b505050506040513d601f19601f82011682018060405250810190610b4791906132ee565b905080610b6757604051633bdf630f60e11b815260040160405180910390fd5b505b5050505b80610b7781613326565b91505061045a565b50505050565b6001600160a01b0381166000908152600360209081526040808320805482518185028101850190935280835260609492939192909184015b82821015610c7d5760008481526020908190206040805161010081018252600786029092018054835260018101546001600160a01b03908116948401949094526002808201548516928401929092526003810154606084015260048101546080840152600581015460a0840152600681015493841660c0840152919260e0840191600160a01b90910460ff1690811115610c5957610c596130c2565b6002811115610c6a57610c6a6130c2565b8152505081526020019060010190610bbd565b505050509050919050565b600060036000610c96612eb9565b6001600160a01b03166001600160a01b03168152602001908152602001600020805480602002602001604051908101604052809291908181526020016000905b82821015610d965760008481526020908190206040805161010081018252600786029092018054835260018101546001600160a01b03908116948401949094526002808201548516928401929092526003810154606084015260048101546080840152600581015460a0840152600681015493841660c0840152919260e0840191600160a01b90910460ff1690811115610d7257610d726130c2565b6002811115610d8357610d836130c2565b8152505081526020019060010190610cd6565b505050509050805160001415610dbf576040516318be8db160e11b815260040160405180910390fd5b60005b8151811015610b7f5783828281518110610dde57610dde61326d565b602002602001015160a00151148015610e13575082828281518110610e0557610e0561326d565b602002602001015160800151145b156114d557600080838381518110610e2d57610e2d61326d565b602002602001015160e001516002811115610e4a57610e4a6130c2565b141590506000610e58612eb9565b6001600160a01b0316848481518110610e7357610e7361326d565b6020026020010151602001516001600160a01b03161415905060008280610e975750815b90508015610eb85760405163de175b0760e01b815260040160405180910390fd5b600160046000878781518110610ed057610ed061326d565b6020026020010151604001516001600160a01b03166001600160a01b03168152602001908152602001600020868681518110610f0e57610f0e61326d565b60200260200101516080015181548110610f2a57610f2a61326d565b60009182526020909120600660079092020101805460ff60a01b1916600160a01b836002811115610f5d57610f5d6130c2565b0217905550600160036000610f70612eb9565b6001600160a01b03166001600160a01b031681526020019081526020016000208581548110610fa157610fa161326d565b60009182526020909120600660079092020101805460ff60a01b1916600160a01b836002811115610fd457610fd46130c2565b0217905550848481518110610feb57610feb61326d565b60200260200101516040516110009190613283565b6040518091039020611010612eb9565b6001600160a01b03167f6abd023739f4ff71d95fb906429d7d4beea7738cb65d5b6730bc335fa2ac456460405160405180910390a360006001600160a01b03168585815181106110625761106261326d565b602002602001015160c001516001600160a01b03161415611117576000611087612eb9565b6001600160a01b03168686815181106110a2576110a261326d565b602090810291909101015151604051600081818185875af1925050503d80600081146110ea576040519150601f19603f3d011682016040523d82523d6000602084013e6110ef565b606091505b505090508061111157604051633bdf630f60e11b815260040160405180910390fd5b506114d1565b7f00000000000000000000000000000000000000000000000000000000000000006001600160a01b03168585815181106111535761115361326d565b602002602001015160c001516001600160a01b031614156112635760007f00000000000000000000000000000000000000000000000000000000000000006001600160a01b031663a9059cbb6111a7612eb9565b8888815181106111b9576111b961326d565b6020908102919091010151516040516001600160e01b031960e085901b1681526001600160a01b0390921660048301526024820152604401602060405180830381600087803b15801561120b57600080fd5b505af115801561121f573d6000803e3d6000fd5b505050506040513d601f19601f8201168201806040525081019061124391906132ee565b90508061111157604051633bdf630f60e11b815260040160405180910390fd5b7f00000000000000000000000000000000000000000000000000000000000000006001600160a01b031685858151811061129f5761129f61326d565b602002602001015160c001516001600160a01b031614156112f35760007f00000000000000000000000000000000000000000000000000000000000000006001600160a01b031663a9059cbb6111a7612eb9565b7f00000000000000000000000000000000000000000000000000000000000000006001600160a01b031685858151811061132f5761132f61326d565b602002602001015160c001516001600160a01b031614156113835760007f00000000000000000000000000000000000000000000000000000000000000006001600160a01b031663a9059cbb6111a7612eb9565b7f00000000000000000000000000000000000000000000000000000000000000006001600160a01b03168585815181106113bf576113bf61326d565b602002602001015160c001516001600160a01b031614156114d15760007f00000000000000000000000000000000000000000000000000000000000000006001600160a01b031663a9059cbb611413612eb9565b8888815181106114255761142561326d565b6020908102919091010151516040516001600160e01b031960e085901b1681526001600160a01b0390921660048301526024820152604401602060405180830381600087803b15801561147757600080fd5b505af115801561148b573d6000803e3d6000fd5b505050506040513d601f19601f820116820180604052508101906114af91906132ee565b9050806114cf57604051633bdf630f60e11b815260040160405180910390fd5b505b5050505b806114df81613326565b915050610dc2565b6114ef612ec3565b7f00000000000000000000000000000000000000000000000000000000000000006001600160a01b0316816001600160a01b03161415611638577f00000000000000000000000000000000000000000000000000000000000000006001600160a01b031660008181526002602052604080822054905163a9059cbb60e01b8152336004820152602481019190915290919063a9059cbb90604401602060405180830381600087803b1580156115a357600080fd5b505af11580156115b7573d6000803e3d6000fd5b505050506040513d601f19601f820116820180604052508101906115db91906132ee565b9050806115fb57604051633bdf630f60e11b815260040160405180910390fd5b506001600160a01b037f00000000000000000000000000000000000000000000000000000000000000001660009081526002602052604081205550565b7f00000000000000000000000000000000000000000000000000000000000000006001600160a01b0316816001600160a01b03161415611781577f00000000000000000000000000000000000000000000000000000000000000006001600160a01b031660008181526002602052604080822054905163a9059cbb60e01b8152336004820152602481019190915290919063a9059cbb90604401602060405180830381600087803b1580156116ec57600080fd5b505af1158015611700573d6000803e3d6000fd5b505050506040513d601f19601f8201168201806040525081019061172491906132ee565b90508061174457604051633bdf630f60e11b815260040160405180910390fd5b506001600160a01b037f00000000000000000000000000000000000000000000000000000000000000001660009081526002602052604081205550565b7f00000000000000000000000000000000000000000000000000000000000000006001600160a01b0316816001600160a01b031614156118ca577f00000000000000000000000000000000000000000000000000000000000000006001600160a01b031660008181526002602052604080822054905163a9059cbb60e01b8152336004820152602481019190915290919063a9059cbb90604401602060405180830381600087803b15801561183557600080fd5b505af1158015611849573d6000803e3d6000fd5b505050506040513d601f19601f8201168201806040525081019061186d91906132ee565b90508061188d57604051633bdf630f60e11b815260040160405180910390fd5b506001600160a01b037f00000000000000000000000000000000000000000000000000000000000000001660009081526002602052604081205550565b7f00000000000000000000000000000000000000000000000000000000000000006001600160a01b0316816001600160a01b03161415611a11577f00000000000000000000000000000000000000000000000000000000000000006001600160a01b031660008181526002602052604080822054905163a9059cbb60e01b8152336004820152602481019190915290919063a9059cbb90604401602060405180830381600087803b15801561197e57600080fd5b505af1158015611992573d6000803e3d6000fd5b505050506040513d601f19601f820116820180604052508101906119b691906132ee565b9050806119d657604051633bdf630f60e11b815260040160405180910390fd5b506001600160a01b037f0000000000000000000000000000000000000000000000000000000000000000166000908152600260205260408120555b50565b611a1c612ec3565b60015460405160009133918381818185875af1925050503d8060008114611a5f576040519150601f19603f3d011682016040523d82523d6000602084013e611a64565b606091505b5050905080611a8657604051633bdf630f60e11b815260040160405180910390fd5b506000600155565b60046020528160005260406000208181548110611aaa57600080fd5b600091825260209091206007909102018054600182015460028301546003840154600485015460058601546006909601549497506001600160a01b0393841696509183169490939192909190811690600160a01b900460ff1688565b611b0e612ec3565b611b186000612f3c565b565b6001600160a01b038216611ee45734158015611b495760405163183bb67760e21b815260040160405180910390fd5b611b8e6040805161010081018252600080825260208201819052918101829052606081018290526080810182905260a0810182905260c081018290529060e082015290565b6802b5e3af16b1880000611bcd7f0000000000000000000000000000000000000000000000000000000000000000611bc760c834613341565b90612f8c565b1115611c6157611c066802b5e3af16b18800007f0000000000000000000000000000000000000000000000000000000000000000612fc2565b611c109034613363565b8152611c456802b5e3af16b18800007f0000000000000000000000000000000000000000000000000000000000000000612fc2565b60016000828254611c56919061337a565b90915550611c9a9050565b611c6c60c834613341565b611c769034613363565b8152611c8360c834613341565b60016000828254611c94919061337a565b90915550505b3360208281018290526001600160a01b038881166040808601829052600094855260038452808520546060870152908452600490925290822054608084015260a08301879052851660c083015260e08201819052503360009081526003602081815260408084208054600180820183559186529483902086516007909602019485559185015191840180546001600160a01b03199081166001600160a01b039485161790915590850151600280860180548416928516929092179091556060860151938501939093556080850151600485015560a0850151600585015560c085015160068501805492831691909316908117835560e08601518695949093926001600160a81b03191690911790600160a01b908490811115611dbe57611dbe6130c2565b021790555050506001600160a01b0380871660009081526004602081815260408084208054600181810183559186529483902087516007909602019485559186015191840180549286166001600160a01b031993841617905585015160028085018054928716928416929092179091556060860151600385015560808601519284019290925560a0850151600584015560c0850151600684018054919095169181168217855560e08601518695909390926001600160a81b031990921690911790600160a01b908490811115611e9657611e966130c2565b0217905550505080604051611eab9190613283565b6040519081900381209033907f14f09417cd81e1bfba59388f82b41657119f594c9c473945c0ea1311c648693990600090a35050610b7f565b80158015611f055760405163183bb67760e21b815260040160405180910390fd5b611f4a6040805161010081018252600080825260208201819052918101829052606081018290526080810182905260a0810182905260c081018290529060e082015290565b7f00000000000000000000000000000000000000000000000000000000000000006001600160a01b0316846001600160a01b03161415612228576040516323b872dd60e01b81526000906001600160a01b037f000000000000000000000000000000000000000000000000000000000000000016906323b872dd90611fd790339030908990600401613392565b602060405180830381600087803b158015611ff157600080fd5b505af1158015612005573d6000803e3d6000fd5b505050506040513d601f19601f8201168201806040525081019061202991906132ee565b90508061204957604051633bdf630f60e11b815260040160405180910390fd5b6802b5e3af16b188000060c861207f867f0000000000000000000000000000000000000000000000000000000000000000612f8c565b6120899190613341565b10612178576120c16802b5e3af16b18800007f0000000000000000000000000000000000000000000000000000000000000000612fc2565b6120eb857f0000000000000000000000000000000000000000000000000000000000000000612f8c565b6120f59190613363565b825261212a6802b5e3af16b18800007f0000000000000000000000000000000000000000000000000000000000000000612fc2565b6001600160a01b037f0000000000000000000000000000000000000000000000000000000000000000166000908152600260205260408120805490919061217290849061337a565b90915550505b6802b5e3af16b18800006121ac857f0000000000000000000000000000000000000000000000000000000000000000612f8c565b1015612222576121bd60c885613341565b6121c79085613363565b82526121d460c885613341565b6001600160a01b037f0000000000000000000000000000000000000000000000000000000000000000166000908152600260205260408120805490919061221c90849061337a565b90915550505b50612a91565b7f00000000000000000000000000000000000000000000000000000000000000006001600160a01b0316846001600160a01b031614156124f3576040516323b872dd60e01b81526000906001600160a01b037f000000000000000000000000000000000000000000000000000000000000000016906323b872dd906122b590339030908990600401613392565b602060405180830381600087803b1580156122cf57600080fd5b505af11580156122e3573d6000803e3d6000fd5b505050506040513d601f19601f8201168201806040525081019061230791906132ee565b90508061232757604051633bdf630f60e11b815260040160405180910390fd5b6802b5e3af16b18800006123607f0000000000000000000000000000000000000000000000000000000000000000611bc760c888613341565b1061244f576123986802b5e3af16b18800007f0000000000000000000000000000000000000000000000000000000000000000612fc2565b6123c2857f0000000000000000000000000000000000000000000000000000000000000000612f8c565b6123cc9190613363565b82526124016802b5e3af16b18800007f0000000000000000000000000000000000000000000000000000000000000000612fc2565b6001600160a01b037f0000000000000000000000000000000000000000000000000000000000000000166000908152600260205260408120805490919061244990849061337a565b90915550505b6802b5e3af16b1880000612483857f0000000000000000000000000000000000000000000000000000000000000000612f8c565b10156122225761249460c885613341565b61249e9085613363565b82526124ab60c885613341565b6001600160a01b037f0000000000000000000000000000000000000000000000000000000000000000166000908152600260205260408120805490919061221c90849061337a565b7f00000000000000000000000000000000000000000000000000000000000000006001600160a01b0316846001600160a01b031614156127be576040516323b872dd60e01b81526000906001600160a01b037f000000000000000000000000000000000000000000000000000000000000000016906323b872dd9061258090339030908990600401613392565b602060405180830381600087803b15801561259a57600080fd5b505af11580156125ae573d6000803e3d6000fd5b505050506040513d601f19601f820116820180604052508101906125d291906132ee565b9050806125f257604051633bdf630f60e11b815260040160405180910390fd5b6802b5e3af16b188000061262b7f0000000000000000000000000000000000000000000000000000000000000000611bc760c888613341565b1061271a576126636802b5e3af16b18800007f0000000000000000000000000000000000000000000000000000000000000000612fc2565b61268d857f0000000000000000000000000000000000000000000000000000000000000000612f8c565b6126979190613363565b82526126cc6802b5e3af16b18800007f0000000000000000000000000000000000000000000000000000000000000000612fc2565b6001600160a01b037f0000000000000000000000000000000000000000000000000000000000000000166000908152600260205260408120805490919061271490849061337a565b90915550505b6802b5e3af16b188000061274e857f0000000000000000000000000000000000000000000000000000000000000000612f8c565b10156122225761275f60c885613341565b6127699085613363565b825261277660c885613341565b6001600160a01b037f0000000000000000000000000000000000000000000000000000000000000000166000908152600260205260408120805490919061221c90849061337a565b7f00000000000000000000000000000000000000000000000000000000000000006001600160a01b0316846001600160a01b03161415612a91576040516323b872dd60e01b81526000906001600160a01b037f000000000000000000000000000000000000000000000000000000000000000016906323b872dd9061284b90339030908990600401613392565b602060405180830381600087803b15801561286557600080fd5b505af1158015612879573d6000803e3d6000fd5b505050506040513d601f19601f8201168201806040525081019061289d91906132ee565b9050806128bd57604051633bdf630f60e11b815260040160405180910390fd5b6802b5e3af16b18800006128f67f0000000000000000000000000000000000000000000000000000000000000000611bc760c888613341565b106129e55761292e6802b5e3af16b18800007f0000000000000000000000000000000000000000000000000000000000000000612fc2565b612958857f0000000000000000000000000000000000000000000000000000000000000000612f8c565b6129629190613363565b82526129976802b5e3af16b18800007f0000000000000000000000000000000000000000000000000000000000000000612fc2565b6001600160a01b037f000000000000000000000000000000000000000000000000000000000000000016600090815260026020526040812080549091906129df90849061337a565b90915550505b6802b5e3af16b1880000612a19857f0000000000000000000000000000000000000000000000000000000000000000612f8c565b1015612a8f57612a2a60c885613341565b612a349085613363565b8252612a4160c885613341565b6001600160a01b037f00000000000000000000000000000000000000000000000000000000000000001660009081526002602052604081208054909190612a8990849061337a565b90915550505b505b3360208281018290526001600160a01b038881166040808601829052600094855260038452808520546060870152908452600490925290822054608084015260a08301879052851660c083015260e08201819052503360009081526003602081815260408084208054600180820183559186529483902086516007909602019485559185015191840180546001600160a01b03199081166001600160a01b039485161790915590850151600280860180548416928516929092179091556060860151938501939093556080850151600485015560a0850151600585015560c085015160068501805492831691909316908117835560e08601518695949093926001600160a81b03191690911790600160a01b908490811115612bb557612bb56130c2565b021790555050506001600160a01b0380871660009081526004602081815260408084208054600181810183559186529483902087516007909602019485559186015191840180549286166001600160a01b031993841617905585015160028085018054928716928416929092179091556060860151600385015560808601519284019290925560a0850151600584015560c0850151600684018054919095169181168217855560e08601518695909390926001600160a81b031990921690911790600160a01b908490811115612c8d57612c8d6130c2565b0217905550505080604051612ca29190613283565b6040519081900381209033907f14f09417cd81e1bfba59388f82b41657119f594c9c473945c0ea1311c648693990600090a3505050505050565b6001600160a01b0381166000908152600460209081526040808320805482518185028101850190935280835260609492939192909184015b82821015610c7d5760008481526020908190206040805161010081018252600786029092018054835260018101546001600160a01b03908116948401949094526002808201548516928401929092526003810154606084015260048101546080840152600581015460a0840152600681015493841660c0840152919260e0840191600160a01b90910460ff1690811115612db057612db06130c2565b6002811115612dc157612dc16130c2565b8152505081526020019060010190612d14565b60036020528160005260406000208181548110611aaa57600080fd5b612df8612ec3565b6001600160a01b038116612e625760405162461bcd60e51b815260206004820152602660248201527f4f776e61626c653a206e6577206f776e657220697320746865207a65726f206160448201526564647265737360d01b60648201526084015b60405180910390fd5b611a1181612f3c565b60007f00000000000000000000000000000000000000000000000000000000000000006001600160a01b0316331415612eab575060131936013560601c90565b503390565b905090565b3390565b6000612eb0612e6b565b612ecb612eb9565b6001600160a01b0316612ee66000546001600160a01b031690565b6001600160a01b031614611b185760405162461bcd60e51b815260206004820181905260248201527f4f776e61626c653a2063616c6c6572206973206e6f7420746865206f776e65726044820152606401612e59565b600080546001600160a01b038381166001600160a01b0319831681178455604051919092169283917f8be0079c531659141344cd1fd0a4f28419497f9722a3daafe3b4186f6b6457e09190a35050565b600080612f9883612fdc565b90506000670de0b6b3a7640000612faf83876133b6565b612fb99190613341565b95945050505050565b600080612fce83612fdc565b90506000612fb98286613341565b600080826001600160a01b031663feaf968c6040518163ffffffff1660e01b815260040160a06040518083038186803b15801561301857600080fd5b505afa15801561302c573d6000803e3d6000fd5b505050506040513d601f19601f8201168201806040525081019061305091906133f4565b505050915050806402540be4006130679190613444565b9392505050565b6000806040838503121561308157600080fd5b50508035926020909101359150565b6001600160a01b0381168114611a1157600080fd5b6000602082840312156130b757600080fd5b813561306781613090565b634e487b7160e01b600052602160045260246000fd5b600381106130f657634e487b7160e01b600052602160045260246000fd5b9052565b602080825282518282018190526000919060409081850190868401855b8281101561319657815180518552868101516001600160a01b039081168887015286820151811687870152606080830151908701526080808301519087015260a0808301519087015260c0808301519091169086015260e09081015190613180818701836130d8565b5050610100939093019290850190600101613117565b5091979650505050505050565b600080604083850312156131b657600080fd5b82356131c181613090565b946020939093013593505050565b8881526001600160a01b0388811660208301528781166040830152606082018790526080820186905260a08201859052831660c0820152610100810161321860e08301846130d8565b9998505050505050505050565b6000806000806080858703121561323b57600080fd5b843561324681613090565b935060208501359250604085013561325d81613090565b9396929550929360600135925050565b634e487b7160e01b600052603260045260246000fd5b81518152600060018060a01b03806020850151166020840152806040850151166040840152606084015160608401526080840151608084015260a084015160a08401528060c08501511660c0840152506132e460e0830160e08501516130d8565b5061010001919050565b60006020828403121561330057600080fd5b8151801515811461306757600080fd5b634e487b7160e01b600052601160045260246000fd5b600060001982141561333a5761333a613310565b5060010190565b60008261335e57634e487b7160e01b600052601260045260246000fd5b500490565b60008282101561337557613375613310565b500390565b6000821982111561338d5761338d613310565b500190565b6001600160a01b039384168152919092166020820152604081019190915260600190565b60008160001904831182151516156133d0576133d0613310565b500290565b805169ffffffffffffffffffff811681146133ef57600080fd5b919050565b600080600080600060a0868803121561340c57600080fd5b613415866133d5565b9450602086015193506040860151925060608601519150613438608087016133d5565b90509295509295909350565b60006001600160ff1b038184138284138082168684048611161561346a5761346a613310565b600160ff1b600087128281168783058912161561348957613489613310565b600087129250878205871284841616156134a5576134a5613310565b878505871281841616156134bb576134bb613310565b50505092909302939250505056fea2646970667358221220330d1601d97f449dbd4598761f0a6ca2e4fda5f42eb8fea8fd07cd62e036831c64736f6c63430008090033",
  "linkReferences": {},
  "deployedLinkReferences": {}
}